:100000000C946C000C9494000C9494000C94940048
:100010000C9494000C9494000C9494000C94940010
:100020000C9494000C9494000C9494000C94940000
:100030000C9494000C9494000C9494000C949400F0
:100040000C9464160C9494000C94B6190C94E81952
:100050000C9494000C9494000C9494000C949400D0
:100060000C94C80C0C9494004000FF000000FF00AA
:10007000A000FF006000FF00C000FF00FF000000C4
:100080000000000800020100000304070000000057
:100090000000000001020408102040800102040852
:1000A00010200102040810200404040404040404C1
:1000B0000202020202020303030303030000000022
:1000C000250028002B0000000000240027002A0043
:1000D000750ADE0BD714181A11241FBECFEFD8E013
:1000E000DEBFCDBF12E0A0E0B1E0ECE1FBE302C077
:1000F00005900D92AC30B107D9F724E0ACE0B2E046
:1001000001C01D92A734B207E1F710E0C8EDD0E0BE
:1001100004C02297FE010E94791DC03DD107C9F796
:100120000E945C1A0C948C1D0C94000080E991E0F4
:100130000895239A0895FC0160810C944F13CF9386
:10014000DF93EC01688170E085E00E947A17698195
:1001500070E086E00E947A176A8170E083E0DF91A8
:10016000CF910C947A172091500230915102263091
:100170003105DCF4F901EE0FFF1FEE0FFF1FE85908
:10018000FF4F85919591A591B491909361028093D1
:100190006002F901EE0FFF1FEE0FFF1FE659FF4F40
:1001A00085919591A591B49109C02630310551F4FE
:1001B00010926102109260028FEF90E090936302C0
:1001C000809362028091560290915702A09158024A
:1001D000B091590240915A0250915B0260915C02C9
:1001E00070915D02841B950BA60BB70B409111011A
:1001F0005091120160911301709114014817590731
:100200006A077B07ACF460E070E0CB010E94DD166A
:100210008091560290915702A0915802B0915902D4
:1002200080935A0290935B02A0935C02B0935D02AC
:1002300008950F931F93CF93DF9300D01F92CDB7F4
:10024000DEB71FEF19831A821B82CE0101960E942E
:100250009F0019831A821B82AE014F5F5F4F6CE0D3
:1002600070E086E692E00E94981283E693E00E9496
:100270009B0064EF71E080E090E00E94DD1619823F
:1002800000E80A831B82CE0101960E949F0019821A
:100290000A831B82AE014F5F5F4F6CE070E086E621
:1002A00092E00E94981283E693E00E949B0064EF24
:1002B00071E080E090E00E94DD1619821A821B83B3
:1002C000CE0101960E949F0019821A821B83AE0103
:1002D0004F5F5F4F6CE070E086E692E00E949812FC
:1002E00083E693E00E949B0064EF71E080E090E081
:1002F0000E94DD1619821A821B82CE0101960E948D
:100300009F0019821A821B82AE014F5F5F4F6CE023
:1003100070E086E692E00E94981283E693E00E94E5
:100320009B0064EF71E080E090E00E94DD160F908A
:100330000F900F90DF91CF911F910F910895CF9360
:10034000DF9300D01F92CDB7DEB740ED57E060E0FD
:1003500070E08AE693E00E94CB1520E032EC41E0A9
:1003600050E06AEA73E08AE693E00E94DE158AE6CE
:1003700093E00E94C8156EE171E080919B0390911B
:100380009C030E94A91A6AE070E080E090E00E945D
:10039000DD1641E060E08AE693E00E94491620E025
:1003A00042E060E186E292E00E947D1160E371E04C
:1003B00086E292E00E94A91A67E086E292E00E943B
:1003C000E80F68EB7BE080E090E00E94DD16809112
:1003D0001E02811145C01092100210920F028FEF81
:1003E0008093130280931402809315028093160267
:1003F000809317028093180281E080931902109273
:100400001B0210921A021092120210921102809195
:10041000610390916203892B31F48DE092E0909317
:10042000620380936103E0915F03F0916003309772
:1004300021F08DE092E0958384838DE092E09093AB
:10044000600380935F0310921D0210921C0282E8E9
:1004500091E090930E0280930D0281E080931E0242
:1004600020E030E04CE050E066E672E08DE092E0A3
:100470000E949C1419821A821B82AE014F5F5F4F4B
:100480006CE070E086E692E00E94981283E693E0CA
:100490000E949B0068EC70E080E090E00E94DD1616
:1004A00061E085E00E94021861E086E00E94021887
:1004B00061E083E00E9402180E94190186E292E046
:1004C0000E94411162E086E292E00E94E80F40E063
:1004D00060E086E292E00E94481168E371E086E203
:1004E00092E00E94A91A41E060E086E292E00E9458
:1004F000481160E471E086E292E00E94A91A6EEE73
:1005000072E080E090E00E94DD160E94AE166093DB
:100510005A0270935B0280935C0290935D020E948A
:10052000AE16609344027093450280934602909306
:100530004702109255021092540220915E023091AF
:100540005F02F901EE0FFF1FEE0FFF1FE859FF4F8B
:1005500085919591A591B4919093610280936002E9
:10056000F901EE0FFF1FEE0FFF1FE659FF4F8591B8
:100570009591A591B49190936302809362020F903C
:100580000F900F90DF91CF910895CF92DF92EF926D
:10059000FF92CF93DF9300D01F92CDB7DEB760916B
:1005A0005602709157028091580290915902C09062
:1005B0005A02D0905B02E0905C02F0905D026C19F0
:1005C0007D098E099F090E94D51B6B017C016091FA
:1005D00011017091120180911301909114010E94F8
:1005E000D51B2AE939E949E15EE30E94891C9B0198
:1005F000AC01C701B6010E94851C18160CF041C061
:1006000060E070E0CB010E94DD168091560290916F
:100610005702A0915802B091590280935A029093C8
:100620005B02A0935C02B0935D02909110018091F7
:1006300005012FEF280F2093050189838FEF8A830F
:100640009B8380914202909143026CE070E00E9493
:10065000101DBC01660F771F680F791F6A597D4F07
:10066000CE0101960E94EA1483E693E00E949B006B
:1006700080914202909143020196909343028093AD
:1006800042020F900F900F90DF91CF91FF90EF906B
:10069000DF90CF900895CF92DF92EF92FF92CF93A9
:1006A000DF9300D000D000D0CDB7DEB76091560206
:1006B000709157028091580290915902C0905A024D
:1006C000D0905B02E0905C02F0905D026C197D09B5
:1006D0008E099F090E94D51B6B017C01609111015D
:1006E0007091120180911301909114010E94D51B09
:1006F00020E030E040E05FE30E94891C9B01AC01F8
:10070000C701B6010E94851C18168CF560E070E0E8
:10071000CB010E94DD168091560290915702A09164
:100720005802B091590280935A0290935B02A093B1
:100730005C02B0935D0290911001809104012FEF53
:10074000280F209304018C838FEF8D839E83BE013D
:100750006F5F7F4FCE0104960E94EA1440916303BD
:10076000BE016F5F7F4F83E693E00E94D013269611
:100770000FB6F894DEBF0FBECDBFDF91CF91FF90D3
:10078000EF90DF90CF90089580914E0290914F02AC
:100790008730910564F421E0209307011092530201
:1007A0001092520290935102809350020895873024
:1007B000910541F41092070181E080935302109259
:1007C00052020895089739F41092070110925302CB
:1007D00081E08093520208959F92AF92BF92CF9290
:1007E000DF92EF92FF920F931F93CF93DF9300D08E
:1007F00000D000D0CDB7DEB70E94AE16672B682BB5
:10080000692B41F40E94AE16623071058105910595
:1008100008F476C00E94AE1660938C0270938D022D
:1008200080938E0290938F0200919002109191021A
:10083000209192023091930260177107820793070B
:1008400040F460939002709391028093920290938F
:1008500093020091900210919102209192023091A6
:1008600093026B017C01C01AD10AE20AF30A9701D4
:1008700086010A3F11052105310508F441C0609346
:1008800090027093910280939202909393028AE671
:1008900093E00E94C81566E471E080919B039091FB
:1008A0009C030E94A91A6EE471E080919B039091D1
:1008B0009C030E94A91A0E94AE16AB01BC012AE05B
:1008C00030E080919B0390919C030E944B1B60E55C
:1008D00071E080919B0390919C030E94A91A65E0AE
:1008E00070E080E090E00E94DD166AE070E080E059
:1008F00090E00E94DD1661E08AE693E00E940B160C
:100900008EE00E945D179093650280936402BC01A3
:10091000882777FD8095982F1F921F921F92992408
:100920009A949F92A12CB12C6501EE24EA9413E0D5
:10093000F12E00E010E020E030E0A9010E945F1BF2
:100940007093490260934802809110011C829D823D
:100950008E83BE016F5F7F4FCE0104960E94EA1422
:10096000CE0101960E949F0041E060E086E292E0A5
:100970000E944811E0914E02F0914F02EE0FFF1FCE
:10098000E65FFE4F6081718186E292E00E94A91AC3
:100990000E94AE1600914402109145022091460239
:1009A00030914702601B710B820B930B0F900F90DD
:1009B0000F900F90613177428105910528F1809168
:1009C0004E0290914F020997FCF48091060181112B
:1009D0000FC040E060E086E292E00E94481169E5C5
:1009E00071E086E292E00E94A91A81E080930601FC
:1009F00040E060E086E292E00E94481168E371E026
:100A000086E292E00E94A91A86E292E00E946512B4
:100A1000182F0E94AE16C0904402D0904502E0907C
:100A20004602F09047026C197D098E099F096E34C9
:100A300071408105910508F436C1112309F433C1D1
:100A400086E292E00E94411140E060E086E292E09E
:100A50000E94481113FF29C080914C0290914D02D1
:100A6000892B49F480910801909109010197909395
:100A70004D0280934C020E94AE1660934402709324
:100A80004502809346029093470210920601E0913E
:100A90004C02F0914D02EE0FFF1FE65FFE4F6081AA
:100AA000718186E292E00E94A91A12FF2AC0809109
:100AB000080190910901019720914C0230914D025B
:100AC0002817390721F410924D0210924C020E940F
:100AD000AE16609344027093450280934602909351
:100AE000470210920601E0914C02F0914D02EE0F88
:100AF000FF1FE65FFE4F6081718186E292E00E94F7
:100B0000A91A80914E0290914F02012F017009970E
:100B100009F063C040E060E086E292E00E94481184
:100B200014FF1FC0409111015091120160911301F7
:100B300070911401433351056105710594F04253DE
:100B40005109610971094093110150931201609399
:100B50001301709314012AE030E086E292E00E94D3
:100B6000011B11FF20C040911101509112016091B1
:100B7000130170911401483883E15807610571052C
:100B800094F44E5C5F4F6F4F7F4F40931101509331
:100B9000120160931301709314012AE030E086E2A1
:100BA00092E00E94011B0023C1F080914A029091C3
:100BB0004B0290934F0280934E0286E292E00E9495
:100BC000411140E060E086E292E00E94481168E353
:100BD00071E086E292E00E94A91A80914E02909103
:100BE0004F020A97F1F540E060E086E292E00E9451
:100BF000481114FF0DC060911001693448F0645031
:100C0000609310014AE050E086E292E00E94581B97
:100C100011FF0DC0609110016C3F48F46C5F609350
:100C200010014AE050E086E292E00E94581B002347
:100C3000D1F180914A0290914B0290934F028093A0
:100C40004E0286E292E00E94411140E060E086E2BE
:100C500092E00E94481168E371E086E292E00E940F
:100C6000A91A002301F180914E0290914F029093B6
:100C70004B0280934A0280914C0290914D029093D6
:100C80004F0280934E0286E292E00E94411140E0C2
:100C900060E086E292E00E94481168E371E086E23B
:100CA00092E00E94A91A0E94C4030E94AE166093AB
:100CB0005602709357028093580290935902809184
:100CC000070181110E94B3008091530281110E949B
:100CD000C5028091520281110E944B0326960FB6E5
:100CE000F894DEBF0FBECDBFDF91CF911F910F9162
:100CF000FF90EF90DF90CF90BF90AF909F900895BE
:100D00008F929F92AF92BF92CF92DF92EF92FF921B
:100D10000F931F93CF93DF93EC01E881F98195B195
:100D2000986085B1877F85B938852D81D32ED21AF9
:100D3000DD82AD84AA81BB812B859C848A84EE8070
:100D4000FC8079851F810990D881C02D09810023FD
:100D500031F0402F0D2D400F08F44FEF01C040E05F
:100D6000042F029F012D1124C0E04C2F5C2F6C2F0B
:100D7000002CEA01CC2E4C2D5D2F95B900C000C08F
:100D800000C000C000C007FF85B962814427889475
:100D900000C000C000C000C000C000C0002C85B969
:100DA00061116E0D00C000C0002C00C000C095B9DC
:100DB00000C000C000C000C000C006FF85B908F434
:100DC0006FEF889400C000C000C000C000C000C029
:100DD00000C085B990FC460F00C000C0002C00C0C8
:100DE00000C095B900C000C000C000C000C005FF31
:100DF00085B94795889491FC460F00C000C000C09B
:100E000000C000C000C0002C85B94795889400C080
:100E100000C0002C00C000C095B900C000C000C0D8
:100E200000C000C004FF85B992FC460F4795889426
:100E300000C000C000C000C000C000C0002C85B9C8
:100E400093FC460F00C000C0002C00C000C095B944
:100E500000C000C000C000C000C003FF85B94795B6
:100E6000889494FC460F00C000C000C000C000C0C1
:100E700000C0002C85B94795889400C000C0002CA4
:100E800000C000C095B900C000C000C000C000C0D4
:100E900002FF85B995FC460F4795889400C000C0B5
:100EA00000C000C000C000C0002C85B996FC460FF1
:100EB00000C000C0002C00C000C095B900C000C038
:100EC00000C000C000C001FF85B94795889497FC19
:100ED000460F00C000C000C000C000C000C0002C11
:100EE00085B94795889400C000C0002C00C000C0A0
:100EF00095B900C000C000C000C000C000FF85B9A7
:100F0000E194E70E00C000C000C000C000C000C0F7
:100F100000C0002C85B9042F00C000C000C000C074
:100F200000C095B900C000C000C000C000C007FFED
:100F300085B960814427889400C000C000C000C00B
:100F400000C000C0002C85B961116F0D00C000C049
:100F5000002C00C000C095B900C000C000C000C097
:100F600000C006FF85B908F46FEF889400C000C088
:100F700000C000C000C000C000C085B980FC460FA2
:100F800000C000C0002C00C000C095B900C000C067
:100F900000C000C000C005FF85B94795889481FC5A
:100FA000460F00C000C000C000C000C000C0002C40
:100FB00085B94795889400C000C0002C00C000C0CF
:100FC00095B900C000C000C000C000C004FF85B9D2
:100FD00082FC460F4795889400C000C000C000C046
:100FE00000C000C0002C85B983FC460F00C000C0C3
:100FF000002C00C000C095B900C000C000C000C0F7
:1010000000C003FF85B94795889484FC460F00C053
:1010100000C000C000C000C000C0002C85B94795CA
:10102000889400C000C0002C00C000C095B900C06A
:1010300000C000C000C000C002FF85B985FC460F9B
:101040004795889400C000C000C000C000C000C028
:10105000002C85B986FC460F00C000C0002C00C0E3
:1010600000C095B900C000C000C000C000C001FFB2
:1010700085B94795889487FC460F00C000C000C022
:1010800000C000C000C0002C85B94795889400C0FE
:1010900000C0002C00C000C095B900C000C000C056
:1010A00000C000C000FF85B9EA0DF11D8894042F2F
:1010B00000C000C000C000C000C000C0002C85B946
:1010C000F194F10E00C000C0002C00C000C095B922
:1010D00000C000C000C000C000C007FF85B961812A
:1010E0004427889400C000C000C000C000C000C0F9
:1010F000002C85B961116D0D00C000C0002C00C02E
:1011000000C095B900C000C000C000C000C006FF0C
:1011100085B908F46FEF889400C000C000C000C01B
:1011200000C000C000C085B920FD460F00C000C04F
:10113000002C00C000C095B900C000C000C000C0B5
:1011400000C005FF85B94795889421FD460F00C072
:1011500000C000C000C000C000C0002C85B9479589
:10116000889400C000C0002C00C000C095B900C029
:1011700000C000C000C000C004FF85B922FD460FBA
:101180004795889400C000C000C000C000C000C0E7
:10119000002C85B923FD460F00C000C0002C00C004
:1011A00000C095B900C000C000C000C000C003FF6F
:1011B00085B94795889424FD460F00C000C000C043
:1011C00000C000C000C0002C85B94795889400C0BD
:1011D00000C0002C00C000C095B900C000C000C015
:1011E00000C000C002FF85B925FD460F47958894D1
:1011F00000C000C000C000C000C000C0002C85B905
:1012000026FD460F00C000C0002C00C000C095B9EC
:1012100000C000C000C000C000C001FF85B94795F4
:10122000889427FD460F00C000C000C000C000C069
:1012300000C0002C85B94795889400C000C0002CE0
:1012400000C000C095B900C000C000C000C000C010
:1012500000FF85B9D194D30E042F00C000C000C098
:1012600000C000C000C000C085B900C000C0002C94
:10127000119709F082CDDF91CF911F910F91FF90CF
:10128000EF90DF90CF90BF90AF909F908F90089598
:10129000FF920F931F93CF93DF93EC0180910C0289
:1012A0008F5F982F977090930C0280FD02C080E0B2
:1012B00001C080E891FD8064947009F0806240E193
:1012C000F42EF80E20E030E000E011E0FE01E20F25
:1012D000F31F6285662331F070E0C8010E94101D83
:1012E0006F5F01C060E067834F2D469F412D112441
:1012F0004483662311F0615067832F5F3F4F233093
:10130000310521F7DF91CF911F910F91FF90089543
:10131000AF92BF92CF92DF92EF92FF920F93CF9353
:10132000DF93CDB7DEB72E970FB6F894DEBF0FBEB2
:10133000CDBF6C015A01F901DC011C968C917A83B6
:1013400069835C834B8390819B8791819C87928189
:101350009D87813029F4CE0101960E94480906C07C
:101360001A86198618861F821E821D8289819A819B
:101370008E0D911D9A838983002319F083E08E0DD1
:1013800001C080E08E870E94BA16F6012785308959
:10139000621B730B6A307105B0F3F894CE010196AD
:1013A0000E94800620EF33E0D5010E94651DE4E035
:1013B0009695879577956795EA95D1F720E030E087
:1013C0004AE9A49E212DB49E200D311D1124620FE7
:1013D000731F811D911D693EF3E07F078105910513
:1013E000A8F1DC01CB01885E9340A109B10952E06C
:1013F000B695A795979587955A95D1F740E050E017
:1014000027E0829F412D929F400D511D1124209174
:10141000940230E0280F391F240F351F8091A2035A
:101420009091A303A091A403B091A503432F552746
:10143000840F951FA11DB11D8093A2039093A30358
:10144000A093A403B093A5032093940278940E94E0
:10145000BA16D60150967C936E931F972E960FB6B0
:10146000F894DEBF0FBECDBFDF91CF910F91FF90FB
:10147000EF90DF90CF90BF90AF900895EF92FF92E2
:101480000F93E12CF12C00E00E9488090F91FF904E
:10149000EF900895EF92FF920F93E12CF12C01E071
:1014A0000E9488090F91FF90EF900895EF92FF92AC
:1014B0000F93CF93DF9300D01F92CDB7DEB7AB0170
:1014C00019821A821B82E12CF12C00E09E012F5F11
:1014D0003F4FB9010E9488090F900F900F90DF9144
:1014E000CF910F91FF90EF900895CF92DF92EF92FE
:1014F000FF92CF93DF93C0911001D0E0BE01882707
:1015000077FD8095982F0E94D51B6B017C0123EC01
:1015100035EF48E25FE30E94891C0E94A71B60939D
:101520008B0223EC35EF48EA5EE3C701B6010E9467
:10153000891C0E94A71B60938A0280914E029091A1
:101540004F0290934D0280934C0290934B028093F4
:101550004A02D0934902C093480286E292E0DF91AA
:10156000CF91FF90EF90DF90CF900C94BB0F8091C4
:10157000C50290E02091C602821B91090895209136
:10158000C6028091C502281750F4E22FF0E0E9531B
:10159000FD4F808190E02F5F2093C60208958FEF6A
:1015A0009FEF0895E091C6028091C502E81730F4DC
:1015B000F0E0E953FD4F808190E008958FEF9FEFB9
:1015C00008950895CF92DF92EF92FF920F931F93A9
:1015D000CF93DF937C01CB018A012091A1022223CA
:1015E00089F0EB016B01C40ED51ECC15DD0569F049
:1015F0006991D701ED91FC910190F081E02DC70137
:101600000995F3CF642F0E949F0CC801DF91CF9101
:101610001F910F91FF90EF90DF90CF900895CF939F
:10162000DF931F92CDB7DEB769832091A1022223F9
:10163000D1F02091A202203240F021E030E0FC0104
:101640003383228380E090E015C08091A302E82FCD
:10165000F0E0EC55FD4F998190838F5F8093A3025A
:101660008093A20205C061E0CE0101960E949F0C0A
:1016700081E090E00F90DF91CF910895FC011382FB
:10168000128248EE53E060E070E044835583668345
:10169000778380E991E09183808308951092C60258
:1016A0001092C5021092A3021092A2020C94E20BB7
:1016B00081E08093A1026093C4021092A302109271
:1016C000A20208950C94580B0F93062F21E040912D
:1016D000A20264EA72E08091C4020E94480C109257
:1016E000A3021092A2021092A1020F9108958F926C
:1016F0009F92AF92BF92CF92DF92EF92FF920F93A1
:101700001F93CF93DF93EC01F62ED42E480159019D
:10171000EE2019F10E94580B1E2D143008F013E032
:101720001150B8F0E881F98128E0129FB00111242E
:10173000A501940104C056954795379527956A955C
:10174000D2F7CA01B9010190F081E02DCE010995CF
:10175000E7CF60E0CE010E94640B4D2D413208F0CE
:1017600040E22C2D67EC72E08F2D0E94000C10924D
:10177000C6028093C502DF91CF911F910F91FF9018
:10178000EF90DF90CF90BF90AF909F908F90089593
:10179000CF92EF920F931F93C22EE12C00E010E046
:1017A00098010E94770B1F910F91EF90CF900895B1
:1017B00021E00C94C80B61E00C94640B85E992E085
:1017C0000C943E0B1092540381E0809352031092CC
:1017D000510361E082E10E943B1861E083E10E94D5
:1017E0003B18E9EBF0E080818E7F808380818D7FE4
:1017F000808388E48093B80085E48093BC000895DA
:10180000413208F043C0909154039111FCCF91E014
:1018100090935403209352032FEF2093E7021092EA
:101820002C03240F20932B03909353039091530385
:10183000880F892B8093530380915103813061F489
:1018400010925103809153038093BB008091BC00A0
:1018500083FDF8CF85EC01C085EE8093BC008091BC
:1018600054038130E1F380912C03841710F44091EC
:101870002C032DE233E0FB01D9018A2F821B841750
:1018800018F48D918193F9CF842F089580E0089505
:101890000F93413208F04AC0909154039111FCCF4C
:1018A00092E090935403009352039FEF9093E702CA
:1018B00010922C0340932B03FB016DE273E0DB01DC
:1018C0009A2F961B941718F491919D93F9CF10922B
:1018D000530390915303880F892B80935303809176
:1018E0005103813061F4109251038091530380932E
:1018F000BB008091BC0083FDF8CF85EC01C085EE74
:101900008093BC00222321F0809154038230E1F3C4
:101910008091E7028F3F61F08091E702803251F0C1
:101920008091E702803341F483E007C081E005C085
:1019300080E003C082E001C084E00F91089561322D
:1019400098F420915403243089F460930903FC0136
:101950008BE093E0DC012A2F281B261718F4219135
:101960002D93F9CF80E0089581E0089582E00895F5
:1019700085ED8093BC008091BC0084FDFCCF10926B
:101980005403089585EC8093BC001092540308958D
:101990001F920F920FB60F9211242F933F934F93E4
:1019A0005F936F937F938F939F93AF93BF93EF93C7
:1019B000FF938091B900887F803609F49EC078F546
:1019C000883209F45DC090F4803109F456C038F4CF
:1019D000882309F4F5C0883009F44FC0F5C0883178
:1019E00009F44EC0803209F45FC0EEC0803409F4BF
:1019F0006AC058F4803309F457C0883309F0E4C052
:101A00008093E7020E94C20CDFC0803509F44FC00A
:101A1000883509F45DC0883409F0D6C0D3C0883950
:101A200009F4C4C0A8F4883709F467C038F48836CC
:101A300009F463C0803709F460C0C6C0883809F46F
:101A4000B5C0803909F45FC0803809F0BDC05BC003
:101A5000803B09F483C038F4803A09F466C0883AC0
:101A600009F47CC0B1C0803C09F4A4C0883C09F4EE
:101A7000A1C0883B09F487C0A7C08091530310C060
:101A800090912C0380912B03981770F5E0912C0313
:101A900081E08E0F80932C03F0E0E35DFC4F8081AA
:101AA0008093BB0085EC83C08093E7028BC0E091FC
:101AB0002C0381E08E0F80932C038091BB00F0E01B
:101AC000E35DFC4F808390912C0380912B036BC0CE
:101AD000E0912C0381E08E0F80932C038091BB005A
:101AE000F0E0E35DFC4F80838091520381116AC076
:101AF00081E08093510384EA5EC083E080935403C5
:101B00001092E802CFCF8091E802803208F04EC0F8
:101B1000E091E80281E08E0F8093E8028091BB00A3
:101B2000F0E0E751FD4F8083BDCF0E94C20C809151
:101B3000E802803230F4E091E802F0E0E751FD4F36
:101B400010826091E80270E0E0914D03F0914E0345
:101B500089EE92E009951092E80236C084E0809305
:101B6000540310920A0310920903E0914F03F0917D
:101B70005003099580910903811105C081E080938C
:101B8000090310920B03E0910A0381E08E0F80930A
:101B90000A03F0E0E55FFC4F80818093BB009091E9
:101BA0000A0380910903981708F47CCF85E8809395
:101BB000BC000AC085EC8093BC001092540304C0A2
:101BC0001092E7020E94B80CFF91EF91BF91AF9184
:101BD0009F918F917F916F915F914F913F912F9145
:101BE0000F900FBE0F901F901895682F85E992E017
:101BF0000C940F0BCF93DF93EC01683008F067E093
:101C0000688385E992E00E944E0B6881606270E013
:101C100085E992E00E94620B80E00E94F50D8FEF53
:101C20000E94F50D85E992E00E94DB0B68816062FD
:101C300070E085E992E00E94620B81E00E94F50D60
:101C40008FEF0E94F50D85E992E0DF91CF910C9422
:101C5000DB0B60E00C94FA0DCF93DF93D62FC72FE8
:101C6000FC0190819062692F70E085E992E00E940A
:101C7000620B82E10E94F50D8D2F0E94F50D8C2FD5
:101C80000E94F50D85E992E0DF91CF910C94DB0B7A
:101C9000FF920F931F93CF93DF93EC01162FF42E37
:101CA000603108F045C0683018F018500DE001C0F0
:101CB0000CE06881606270E085E992E00E94620B4E
:101CC000802F0E94F50D85E992E00E94DB0B688170
:101CD000606270E041E050E085E992E00E94D80B3C
:101CE00085E992E00E94BF0A91E021E030E001C066
:101CF000220F1A95EAF7122FF91202C0182B02C010
:101D0000109518236881606270E085E992E00E9476
:101D1000620B802F0E94F50D812F0E94F50D85E941
:101D200092E0DF91CF911F910F91FF900C94DB0B0C
:101D3000DF91CF911F910F91FF9008950F931F9303
:101D4000CF93DF93EC01162F603148F5683018F01F
:101D5000185003E101C002E16881606270E085E92A
:101D600092E00E94620B802F0E94F50D85E992E0BF
:101D70000E94DB0B6881606270E041E050E085E921
:101D800092E00E94D80B85E992E00E94BF0A992751
:101D900002C0959587951A95E2F7817001C080E0A1
:101DA000DF91CF911F910F910895CF93DF93EC01B5
:101DB0006881606270E085E992E00E94620B82E1D6
:101DC0000E94F50D85E992E00E94DB0B688160625C
:101DD00070E042E050E085E992E00E94D80B85E98E
:101DE00092E00E94BF0AC82F85E992E00E94BF0AD4
:101DF000982F88278C2BDF91CF910895FF920F9316
:101E00001F93CF93DF93EC01162FF42E603108F06F
:101E100044C0683018F0185001E001C000E068814B
:101E2000606270E085E992E00E94620B802F0E9460
:101E3000F50D85E992E00E94DB0B6881606270E03D
:101E400041E050E085E992E00E94D80B85E992E0FC
:101E50000E94BF0A21E030E001C0220F1A95EAF784
:101E6000122FF11002C0182B02C0109518236881A0
:101E7000606270E085E992E00E94620B802F0E9410
:101E8000F50D812F0E94F50D85E992E0DF91CF914C
:101E90001F910F91FF900C94DB0BDF91CF911F915D
:101EA0000F91FF900895CF92DF92FF920F931F93AF
:101EB000CF93DF931F92CDB7DEB76C01162FF42EB0
:101EC000603108F04FC0683020F0185025E103E180
:101ED00002C024E102E1F6016081606270E085E900
:101EE00092E029830E94620B2981822F0E94F50DC6
:101EF00085E992E00E94DB0BF6016081606270E090
:101F000041E050E085E992E00E94D80B85E992E03B
:101F10000E94BF0AF1E021E030E001C0220F1A95D3
:101F2000EAF7122FFF1202C0182B02C010951823D7
:101F3000F6016081606270E085E992E00E94620BC8
:101F4000802F0E94F50D812F0E94F50D85E992E00A
:101F50000F90DF91CF911F910F91FF90DF90CF9065
:101F60000C94DB0B0F90DF91CF911F910F91FF909D
:101F7000DF90CF900895FC011382128280EA91E0F5
:101F800091838083128E148A8FE084838EE0858310
:101F90008DE086838CE087838BE080878AE0818771
:101FA00089E08287178681E0808B82E0818B83E0E5
:101FB000828B84E0838B0895262FFC01328D3F3F76
:101FC00019F04B960C94530F642F822F0C943B18EE
:101FD0000F931F93CF93DF93062FEC016B9611E0C5
:101FE00062FB442740F9412768E0CE010E94530F6D
:101FF00001FB442740F9412767E0CE010E94530FBF
:10200000402F4170412766E0CE01DF91CF911F91B3
:102010000F910C94530F262FFC01328D3F3F19F086
:102020004B960C94FE0E642F822F0C940218CF93C3
:10203000DF93EC0140E06E810E94DC0F81E090E0D4
:102040000E94171741E06E81CE010E94DC0F81E0F3
:1020500090E00E94171740E06E81CE010E94DC0FD5
:1020600084E690E0DF91CF910C941717AF92BF9266
:10207000CF92DF92EF92FF920F931F93CF93DF9354
:10208000EC018A8DA62EB12C8F3F09F472C07E011F
:102090008BE1E80EF11CC7010E94D50E9C0180E087
:1020A00090E061E070E0FE01E80FF91FE781CC24C9
:1020B000C394D12CAB010E2E02C0440F551F0A94BD
:1020C000E2F74095509524233523A501082E02C040
:1020D000559547950A94E2F74170552702C0440F81
:1020E000551FEA95E2F7242B352B01968430910594
:1020F000D1F686010E8002C0000F111F0A94E2F78C
:102100000095109502231323B801C7010E942C0EDD
:1021100081E090E00E94171756010E8002C0AA0CC1
:10212000BB1C0A94E2F7A02AB12AB501C7010E949C
:102130002C0E81E090E00E941717B6010E8002C0BD
:10214000660F771F0A94E2F7609570956A217B21EC
:10215000C7010E942C0E84E690E0DF91CF911F9181
:102160000F91FF90EF90DF90CF90BF90AF900C94C5
:10217000171700E010E07E01E00EF11E41E0F701CC
:102180006781CE010E940B10A501002E02C055955B
:1021900047950A94E2F74170F7016781CE010E94EA
:1021A000DC0F0F5F1F4F0430110529F7CE01DF91BF
:1021B000CF911F910F91FF90EF90DF90CF90BF9044
:1021C000AF900C941710CF92DF92EF92FF920F9383
:1021D0001F93CF93DF938C01C0E0D0E0C62ED12CAB
:1021E0007801EC0EFD1E41E0F7016781C8010E94F5
:1021F0000B10A6010C2E02C0559547950A94E2F7E4
:102200004170F7016781C8010E94DC0F2196C83038
:10221000D10531F7C801DF91CF911F910F91FF9048
:10222000EF90DF90CF900C9417101F93CF93DF9314
:10223000EC01162F6C810E94DC0F6D816F3F21F045
:1022400040E0CE010E94DC0F8C89612F84FF06C024
:10225000CE01DF91CF911F910C94E31070E054E018
:10226000759567955A95E1F7CE010E943610612F5A
:10227000CE01DF91CF911F910C94361040E00C9469
:10228000151161E00E943E1180ED97E00C94171744
:10229000CF93DF93CDB7DEB728970FB6F894DEBFA4
:1022A0000FBECDBF28E0E6E1F1E0DE01119601901E
:1022B0000D922A95E1F7FC01208D241710F44FEFC1
:1022C000420FFE013196E40FF11DE40FF11D208154
:1022D000260F2068622F28960FB6F894DEBF0FBE37
:1022E000CDBFDF91CF910C943E11FC016589262F63
:1022F0002460258B6C600C943E11AF92BF92CF92FC
:10230000DF92EF92FF920F931F93CF93DF93EC0135
:10231000B42EA22E8A8D8F3F41F481E08B1508F0F8
:102320005CC08C8988608C8B58C085E992E00E94E3
:102330004E0B8E01055E1F4FC8010E94290E41E021
:1023400068E0C8010E94FE0E41E066E0C8010E94FC
:10235000FE0E41E067E0C8010E94FE0E67E0CE017C
:102360000E94E80F6D81662321F041E0C8010E94C0
:10237000FE0E41E06C81C8010E94FE0E41E06E81BC
:10238000C8010E94FE0EE12CF12CFE01EE0DFF1D96
:1023900041E06781C8010E94FE0EEFEFEE1AFE0ACF
:1023A000F4E0EF16F10489F7E12CF12C6E01CE0C6C
:1023B000DF1C40E0F6016785C8010E94FE0E41E087
:1023C000F6016785C8010E94480EFFEFEF1AFF0A69
:1023D00085E0E816F10451F7A0CFB88E198EAA2037
:1023E00031F0E1E0BE1203C08C8984608C8B80E503
:1023F00093EC0E94171740E06C81CE010E94DC0F25
:1024000040E06E81CE010E94DC0F6D816F3F21F0B4
:1024100040E0CE010E94DC0F6C8964FD1DC063E0CA
:10242000CE010E94361084E991E10E94171763E003
:10243000CE010E94361084E991E10E94171763E0F3
:10244000CE010E94361086E990E00E94171762E0E4
:10245000CE010E94361016C06062CE010E943E116D
:1024600084E991E10E9417176C896062CE010E9495
:102470003E1186E990E00E9417176C896062CE01D8
:102480000E943E116C896062CE010E943E1184E080
:102490008D8BCE010E947511CE010E94411182E008
:1024A0008E8B66E0CE01DF91CF911F910F91FF904F
:1024B000EF90DF90CF90BF90AF900C943E1141E031
:1024C0000E94151181E090E00895DF92EF92FF9253
:1024D0000F931F93CF93DF938C01C0E0D0E06FE1A7
:1024E000D62E7C018BE1E80EF11CF801EC0FFD1FEC
:1024F0006785C7010E949E0E282F30E00C2E02C077
:10250000220F331F0A94E2F7209530958D2D90E02D
:1025100028233923D22E2196C530D10531F7822FB9
:10252000DF91CF911F910F91FF90EF90DF90089571
:10253000FA0120E030E00396261737076CF440815B
:10254000DC0113974C93418111964C934281119673
:102550004C932F5F3F4FEFCF08958F929F92AF9292
:10256000BF92EF92FF920F931F93CF93DF93EC01F3
:10257000188219821A824423B9F1E0E0F0E08B015D
:102580000A5F1F4F7B0189E0E80EF11C842E912C1D
:10259000A12CB12CD801AE0FBF1F2C91D701AE0FCB
:1025A000BF1F6C912223E1F06623D1F030E040E0C0
:1025B00050E02F5F3F4F4F4F5F4F70E080E090E063
:1025C0006F5F7F4F8F4F9F4F0E94EC1C9B01AC01B0
:1025D000C501B4010E94EC1CDE01AE0FBF1F8C933D
:1025E0003196E330F105B1F6CE01DF91CF911F9125
:1025F0000F91FF90EF90BF90AF909F908F900895B4
:10260000CF92DF92EF92FF92CF93DF93EC01809114
:10261000590390915A039C012F5F3F4F30935A0307
:1026200020935903861797079CF10E94AE169B01D1
:10263000AC01E0915903F0915A0388EE93E0E89FD2
:10264000B001E99F700DF89F700D1124882777FD68
:102650008095982FC0905503D0905603E090570373
:10266000F09058032C193D094E095F090E94241D62
:102670003A83298310925A03109259030E94AE168E
:1026800060935503709356038093570390935803B8
:10269000DF91CF91FF90EF90DF90CF900895AF92B0
:1026A000BF92CF92DF92EF92FF920F931F93CF933F
:1026B000DF9300D01F92CDB7DEB78C01B62EF801A4
:1026C00083819481A581B681892B8A2B8B2BD1F0B4
:1026D0000E94BA16C0905B03D0905C03E0905D034B
:1026E000F0905E036C197D098E099F09D80113963D
:1026F000CD90DD90ED90FC9016976C157D058E05C4
:102700009F05E8F20E94BA1660935B0370935C0326
:1027100080935D0390935E03E0906103F090620309
:10272000E114F10451F1F701A484D80111968D91BF
:102730009C9112978436910508F41486D701ED9187
:10274000FC91C280D3804B2DB701CE0101960E942F
:10275000AD12F70145855685628173819E012F5F19
:102760003F4FC701F6010995D7011C96AC921C9703
:102770001496ED90FC901597D3CF69E170E0C801F5
:102780000E9400130F900F900F90DF91CF911F9137
:102790000F91FF90EF90DF90CF90BF90AF90089592
:1027A0008F929F92AF92BF92CF92DF92EF92FF9261
:1027B0000F931F93CF93DF9300D01F92CDB7DEB757
:1027C0008C017B01D42EF80183819481A581B6818F
:1027D000892B8A2B8B2BD1F00E94BA1680905B0339
:1027E00090905C03A0905D03B0905E036819790936
:1027F0008A099B09D80113968D909D90AD90BC904D
:102800001697681579058A059B05E8F20E94BA16A5
:1028100060935B0370935C0380935D0390935E030E
:10282000A0906103B0906203A114B10449F1F501D5
:10283000C484D80111968D919C911297843691058C
:1028400008F41486D501ED91FC91808091804D2D86
:10285000B501CE0101960E94AD12F5014585568560
:102860009E012F5F3F4FB701C501F4010995D501C6
:102870001C96CC921C971496AD90BC901597D4CF13
:1028800069E170E0C8010E9400130F900F900F9053
:10289000DF91CF911F910F91FF90EF90DF90CF903C
:1028A000BF90AF909F908F900895CF92DF92EF925C
:1028B000FF920F931F93CF93DF93EC014423F1F02A
:1028C0006115710581F19B0140E050E060E472E424
:1028D0008FE090E00E94461DCB80DC80ED80FE8082
:1028E00089019A010C151D052E053F0510F497016D
:1028F00086010B831C832D833E8315C061157105F2
:1029000071F09B0140E050E060E472E48FE090E001
:102910000E94461D2B833C834D835E8304C01B8233
:102920001C821D821E82DF91CF911F910F91FF901B
:10293000EF90DF90CF900895CF92DF92EF92FF92C9
:102940000F931F93CF93DF93EC016B018A01790101
:10295000121613061CF07A0100E010E0E881F981FC
:102960000480F581E02DCE010995C801880F991FDB
:10297000800F911F8C0D9D1D9B838A83FE86ED86A3
:10298000E881F9810084F185E02DCE01099541E0CF
:10299000BC0183E693E00E945514CE01DF91CF91F4
:1029A0001F910F91FF90EF90DF90CF9008958FEFE0
:1029B0008093630310926503109264030895FC01F1
:1029C0002081222321F0269F212D09F02F5FFC0179
:1029D00020830895FF920F931F93CF93DF9300D02E
:1029E00000D0CDB7DEB7FC018B014081F180528170
:1029F000842F8F71880F880F880F282F35E5239F2C
:102A0000212D1124342F3074942F907247FD25C04E
:102A100031110EC0911106C0822F80958B832A83BD
:102A200019823FC08BEA8B832B5A2A83198239C0C3
:102A300091110DC0382F4AEA349F312D11249BEAA1
:102A4000931B9B8325552A83198280E02AC01B8211
:102A500080E0822F80958A8312C0311112C09111BB
:102A60000BC01B82282F3AEA239F212D11248BEAC9
:102A7000821B8A832B5A03C02B831A8220952983B9
:102A800010C0911106C085E5820F8B831A828BEAF4
:102A900006C08BEA820F8B831A8280E085E5821B59
:102AA00089832FEFF21601F16F2DCE0103965C831F
:102AB0000E94DF146F2DCE0102960E94DF146F2D4D
:102AC000CE0101960E94DF1411246F2D6095669F40
:102AD000612D11248B81860F8B838A81860F8A83D7
:102AE0008981860F89835C815F3FC9F0F12C2F2D8E
:102AF000552321F0559F212D09F02F5FF22E622FD3
:102B0000CE0103960E94DF146F2DCE0102960E9423
:102B1000DF146F2DCE0101960E94DF1411248B81EA
:102B2000F80180838A818183898182830F900F904D
:102B30000F900F90DF91CF911F910F91FF9008950B
:102B40000F931F93CF93DF93EC01662359F00E94FC
:102B5000AE1669837A838B839C83DF91CF911F911B
:102B60000F9108950E94AE1609811A812B813C8134
:102B7000601B710B820B930B62337105810591050C
:102B800030F763E070E080E090E00E94DD16EACF6D
:102B900060E00C94A015FC0113AA14AA15AA16AAA9
:102BA000118212821382148241155105610571054B
:102BB00021F0CB01BA010C94DD160895FB01BA0196
:102BC000A901DC01D296FC93EE93D19726E0CF01C8
:102BD0000C9454191F93CF93DF93EC01162F64EAE2
:102BE00071E089A99AA90E94A91A4AE050E0612FD0
:102BF00089A99AA90E94581B6BEA71E089A99AA930
:102C00000E94A91A62E370E080E090E0DF91CF912A
:102C10001F910C94DD161F93CF93DF93EC01162FB9
:102C20008D81882389F189A99AA9DC01ED91FC9114
:102C30000480F581E02D0995892BA9F307C026377B
:102C4000310519F12835310509F41D8289A99AA9A0
:102C5000DC01ED91FC910480F581E02D09951816B9
:102C6000190694F489A99AA9DC01ED91FC910680DA
:102C7000F781E02D09959C01332723363105F9F6BC
:102C8000612FCE010E94EA1583E6DF91CF911F915B
:102C900008950F931F93CF93DF931F92CDB7DEB7A5
:102CA0008C01662349F081E0F801858360E0C8016A
:102CB00049830E940B164981F80145830F90DF91EB
:102CC000CF911F910F9108951F920F920FB60F92FF
:102CD00011242F933F938F939F93AF93BF93809132
:102CE000A2039091A303A091A403B091A5033091F6
:102CF000A10323E0230F2D3720F40196A11DB11D60
:102D000005C026E8230F0296A11DB11D2093A10343
:102D10008093A2039093A303A093A403B093A5036D
:102D20008091A6039091A703A091A803B091A90355
:102D30000196A11DB11D8093A6039093A703A093B4
:102D4000A803B093A903BF91AF919F918F913F9139
:102D50002F910F900FBE0F901F9018952FB7F894DA
:102D60006091A2037091A3038091A4039091A503A5
:102D70002FBF08953FB7F8948091A6039091A703C1
:102D8000A091A803B091A90326B5A89B05C02F3F29
:102D900019F00196A11DB11D3FBF6627782F892F1D
:102DA0009A2F620F711D811D911D42E0660F771FE2
:102DB000881F991F4A95D1F708958F929F92AF92DD
:102DC000BF92CF92DF92EF92FF926B017C010E9443
:102DD000BA164B015C01C114D104E104F104F1F015
:102DE0000E94A61B0E94BA16681979098A099B09D4
:102DF000683E73408105910570F321E0C21AD10845
:102E0000E108F10888EE880E83E0981EA11CB11C31
:102E1000C114D104E104F10429F7DDCFFF90EF9054
:102E2000DF90CF90BF90AF909F908F9008958230A9
:102E3000910538F0880F991F880F991F0597019702
:102E4000F1F70895789484B5826084BD84B581607B
:102E500084BD85B5826085BD85B5816085BDEEE6A2
:102E6000F0E0808181608083E1E8F0E01082808181
:102E700082608083808181608083E0E8F0E08081EF
:102E800081608083E1EBF0E0808184608083E0EB0F
:102E9000F0E0808181608083EAE7F0E080818460F7
:102EA0008083808182608083808181608083808153
:102EB000806880831092C10008958E3008F08E5093
:102EC00087702091150190E4299F90011124822B95
:102ED00080937C0080917A00806480937A00809156
:102EE0007A0086FDFCCF809178002091790090E0F7
:102EF000922B08951F93CF93DF93182FEB0161E07E
:102F00000E940218209711F460E004C0CF3FD10561
:102F100039F461E0812FDF91CF911F910C943B1820
:102F2000E12FF0E0E058FF4FE491E330F9F048F48E
:102F3000E130B9F0E230A1F584B5806284BDC8BD4E
:102F400034C0E730E9F0E83019F1E43049F5809118
:102F50008000806280938000D0938B00C0938A00B1
:102F600024C084B5806884BDC7BD1FC08091800027
:102F7000806880938000D0938900C093880015C03A
:102F80008091B00080688093B000C093B3000DC002
:102F90008091B00080628093B000C093B40005C0FF
:102FA000C038D1050CF0B5CFAFCFDF91CF911F91D5
:102FB0000895833081F028F4813099F08230A1F0B7
:102FC00008958730A9F08830B9F08430D1F4809129
:102FD00080008F7D03C0809180008F778093800078
:102FE000089584B58F7702C084B58F7D84BD089520
:102FF0008091B0008F7703C08091B0008F7D809367
:10300000B0000895CF93DF9390E0FC01EC56FF4FA2
:103010002491FC01E855FF4F8491882349F190E009
:10302000880F991FFC01EA53FF4FA591B491845476
:103030009F4FFC01C591D4919FB7611108C0F894CE
:103040008C91209582238C93888182230AC06230E0
:1030500051F4F8948C91322F309583238C9388818E
:10306000822B888304C0F8948C91822B8C939FBF11
:10307000DF91CF9108950F931F93CF93DF931F920A
:10308000CDB7DEB7282F30E0F901E058FF4F84912B
:10309000F901EC56FF4F1491F901E855FF4F0491E7
:1030A0000023C9F0882321F069830E94D917698120
:1030B000E02FF0E0EE0FFF1FE454FF4FA591B49115
:1030C0009FB7F8948C91611103C01095812301C0C2
:1030D000812B8C939FBF0F90DF91CF911F910F9108
:1030E0000895FC01818D228D90E0805C9F4F821BB2
:1030F00091098F7399270895FC01918D828D9817FE
:1031000031F0828DE80FF11D858D90E008958FEFED
:103110009FEF0895FC01918D828D981761F0828D4B
:10312000DF01A80FB11D5D968C91928D9F5F9F73FB
:10313000928F90E008958FEF9FEF08958EE09AE1CF
:10314000892B49F080E090E0892B29F00E940E1A2B
:1031500081110C9400000895FC01848DDF01A80FFB
:10316000B11DA35ABF4F2C91848D90E001968F73AF
:103170009927848FA689B7892C93A089B1898C91CE
:1031800080648C93938D848D981306C00288F38994
:10319000E02D80818F7D80830895CF93DF93EC01B4
:1031A000888D8823C9F0EA89FB89808185FD05C067
:1031B000A889B9898C9186FD0FC00FB607FCF5CFA1
:1031C000808185FFF2CFA889B9898C9185FFEDCFE9
:1031D000CE010E94AC18E7CFDF91CF910895CF9236
:1031E000DF92FF920F931F93CF93DF931F92CDB780
:1031F000DEB76C0181E0D60158968C9358975B96A8
:103200009C915B975C968C915C97981307C0509645
:10321000ED91FC915197808185FD2EC0F601038DC3
:1032200010E00F5F1F4F0F731127F02EF601848DF2
:10323000F81211C00FB607FCF9CFD6015096ED91E8
:10324000FC915197808185FFF1CFC60169830E946F
:10325000AC186981EBCF838DE80FF11DE35AFF4F66
:103260006083D6015B960C935B975296ED91FC912F
:103270005397808180620CC0D6015696ED91FC91E7
:10328000579760835096ED91FC91519780818064AF
:10329000808381E090E00F90DF91CF911F910F919B
:1032A000FF90DF90CF900895BF92CF92DF92EF9280
:1032B000FF92CF93DF93EC016A017B01B22EE88984
:1032C000F98982E08083411581EE58076105710517
:1032D000A1F060E079E08DE390E0A70196010E9403
:1032E000241D2150310941095109569547953795BB
:1032F0002795211580E1380798F0E889F98910822F
:1033000060E874E88EE190E0A70196010E94241D18
:10331000215031094109510956954795379527950F
:10332000EC85FD853083EE85FF852083188EEC8942
:10333000FD89B082EA89FB89808180618083EA8986
:10334000FB89808188608083EA89FB89808180682D
:103350008083EA89FB8980818F7D8083DF91CF9193
:10336000FF90EF90DF90CF90BF9008951F920F9243
:103370000FB60F9211242F938F939F93EF93FF9388
:10338000E091BA03F091BB038081E091C003F0911A
:10339000C10382FD12C090818091C3038F5F8F7340
:1033A0002091C403821751F0E091C303F0E0E65589
:1033B000FC4F958F8093C30301C08081FF91EF91F3
:1033C0009F918F912F910F900FBE0F901F90189586
:1033D0001F920F920FB60F9211242F933F934F938A
:1033E0005F936F937F938F939F93AF93BF93EF936D
:1033F000FF938AEA93E00E94AC18FF91EF91BF918E
:10340000AF919F918F917F916F915F914F913F917C
:103410002F910F900FBE0F901F9018958AEA93E09E
:103420000E94711821E0892B09F420E0822F089571
:103430001092AD031092AC0388EE93E0A0E0B0E0F0
:103440008093AE039093AF03A093B003B093B10306
:1034500080E092E09093AB038093AA0385EC90E028
:103460009093B7038093B60384EC90E09093B903F4
:103470008093B80380EC90E09093BB038093BA03F1
:1034800081EC90E09093BD038093BC0382EC90E0CC
:103490009093BF038093BE0386EC90E09093C103AA
:1034A0008093C0031092C3031092C4031092C5030B
:1034B0001092C603089508950E9422170E945B1A75
:1034C0000E949F01CEE9D8E10E94EC032097E1F32E
:1034D0000E949E18F9CFCF92DF92EF92FF920F9346
:1034E0001F93CF93DF937C016A01EB0100E010E0B2
:1034F0000C151D0571F06991D701ED91FC910190BA
:10350000F081E02DC7010995892B19F00F5F1F4F3E
:10351000EFCFC801DF91CF911F910F91FF90EF90F6
:10352000DF90CF9008956115710581F0DB010D905A
:103530000020E9F7AD0141505109461B570BDC0152
:10354000ED91FC910280F381E02D099480E090E000
:1035500008950C94931ADC01ED91FC910190F08197
:10356000E02D09948F929F92AF92BF92DF92EF92DB
:10357000FF920F931F93CF93DF93CDB7DEB7A19741
:103580000FB6F894DEBF0FBECDBF7C01F42FD52E51
:10359000CB0119A2223008F42AE08E010F5D1F4FE3
:1035A000822E912CA12CB12C6F2F7D2DA501940181
:1035B0000E94241DF22FD32ECA01015011096A3036
:1035C00014F4E0E301C0E7E3E60FD801EC93232B0A
:1035D000242B252B49F7B801C7010E94931AA19605
:1035E0000FB6F894DEBF0FBECDBFDF91CF911F9114
:1035F0000F91FF90EF90DF90BF90AF909F908F90D2
:103600000895CF92DF92EF92FF920F931F93CF9383
:10361000DF93EC016A017B012115310579F4E88122
:10362000F9810190F081E02D642FDF91CF911F91FE
:103630000F91FF90EF90DF90CF9009942A303105E1
:10364000E9F477FF1AC06DE20E94AB1A8C0144279F
:103650005527BA014C195D096E097F092AE0CE0190
:103660000E94B21A800F911FDF91CF911F910F918D
:10367000FF90EF90DF90CF9008952AE0B701A60168
:10368000CE01DF91CF911F910F91FF90EF90DF90CE
:10369000CF900C94B21A2115310541F4DC01ED9163
:1036A000FC910190F081E02D642F09940C94B21AE2
:1036B0009A01462F50E060E070E00C944B1B4F9253
:1036C0005F926F927F92AF92BF92CF92DF92EF9212
:1036D000FF920F931F93CF93DF93CDB7DEB72901EE
:1036E0003A01621B730B840B950B29893A894B892C
:1036F0005C892A193B094C095D09298B3A8B4B8B54
:103700005C8B9B01AC0169897A898B899C890E94B9
:10371000EC1CE418F50806091709A80197010E9496
:10372000461D2A0D3B1D4C1D5D1DCA01B901DF91CF
:10373000CF911F910F91FF90EF90DF90CF90BF90AE
:10374000AF907F906F905F904F9008950895BCD098
:1037500088F09F5790F0B92F9927B751A0F0D1F07A
:10376000660F771F881F991F1AF0BA95C9F712C004
:10377000B13081F0C3D0B1E00895C0C0672F782F79
:103780008827B85F39F0B93FCCF386957795679570
:10379000B395D9F73EF490958095709561957F4FDC
:1037A0008F4F9F4F0895E89409C097FB3EF4909582
:1037B0008095709561957F4F8F4F9F4F9923A9F00A
:1037C000F92F96E9BB279395F69587957795679599
:1037D000B795F111F8CFFAF4BB0F11F460FF1BC0DD
:1037E0006F5F7F4F8F4F9F4F16C0882311F096E970
:1037F00011C0772321F09EE8872F762F05C066231E
:1038000071F096E8862F70E060E02AF09A95660FD6
:10381000771F881FDAF7880F9695879597F908958F
:10382000990F0008550FAA0BE0E8FEEF16161706D1
:10383000E807F907C0F012161306E407F50798F039
:10384000621B730B840B950B39F40A2661F0232B52
:10385000242B252B21F408950A2609F4A140A695CE
:103860008FEF811D811D089597F99F6780E870E0B3
:1038700060E008959FEF80EC089500240A941616E6
:10388000170618060906089500240A94121613064E
:10389000140605060895092E0394000C11F48823DC
:1038A00052F0BB0F40F4BF2B11F460FF04C06F5FF8
:1038B0007F4F8F4F9F4F089557FD9058440F551FCE
:1038C00059F05F3F71F04795880F97FB991F61F0A2
:1038D0009F3F79F087950895121613061406551F19
:1038E000F2CF4695F1DF08C0161617061806991F85
:1038F000F1CF86957105610508940895E894BB277A
:1039000066277727CB0197F908958ADF08F48FEFB0
:1039100008950BD0C0CFB1DF28F0B6DF18F09523A3
:1039200009F0A2CFA7CF1124EACFC6DFA0F3959F5D
:10393000D1F3950F50E0551F629FF001729FBB2796
:10394000F00DB11D639FAA27F00DB11DAA1F649F42
:103950006627B00DA11D661F829F2227B00DA11DF5
:10396000621F739FB00DA11D621F839FA00D611D7B
:10397000221F749F3327A00D611D231F849F600D9C
:10398000211D822F762F6A2F11249F5750408AF0D5
:10399000E1F088234AF0EE0FFF1FBB1F661F771F61
:1039A000881F91505040A9F79E3F510570F05CCFA1
:1039B000A6CF5F3FECF3983EDCF38695779567954D
:1039C000B795F795E7959F5FC1F7FE2B880F911D7F
:1039D0009695879597F90895DB018F939F930E94A1
:1039E0006C1DBF91AF91A29F800D911DA39F900D63
:1039F000B29F900D11240895AA1BBB1B51E107C073
:103A0000AA1FBB1FA617B70710F0A61BB70B881F6E
:103A1000991F5A95A9F780959095BC01CD010895FD
:103A200097FB072E16F4009407D077FD09D00E946B
:103A3000FC1C07FC05D03EF4909581959F4F08959E
:103A4000709561957F4F0895A1E21A2EAA1BBB1BAA
:103A5000FD010DC0AA1FBB1FEE1FFF1FA217B3075A
:103A6000E407F50720F0A21BB30BE40BF50B661F70
:103A7000771F881F991F1A9469F760957095809534
:103A800090959B01AC01BD01CF010895052E97FBD8
:103A90001EF400940E945D1D57FD07D00E94241D56
:103AA00007FC03D04EF40C945D1D50954095309565
:103AB00021953F4F4F4F5F4F08959095809570959A
:103AC00061957F4F8F4F9F4F08950E947D1DB7FFD7
:103AD0000895821B930B08950E947D1DA59F900D54
:103AE000B49F900DA49F800D911D11240895EE0F99
:103AF000FF1F0590F491E02D0994A29FB001B39FA0
:103B0000C001A39F700D811D1124911DB29F700DE6
:0C3B1000811D1124911D0895F894FFCF31
:103B1C00010000004040010103006A0172017801BC
:103B2C008032000000010000400014005400564D8B
:103B3C004450565F317C315F564D4450560D0A004F
:103B4C00426F6F74696E67004265726B616E6100E3
:103B5C00526561647900564D4450455F31007C00DC
:103B6C005F564D4450450D0A002020202020202077
:103B7C0020202020202020202000506174746572A9
:103B8C006E00436F6C6F72005370656564000000CB
:103B9C0000003E0A4A0A9900560A960000000000EE
:103BAC000F0BE20AB70ABF0AD20AE10A00000000B2
:103BBC005F126B1A564D4450435F005F564D445094
:103BCC00430D0A004572726F723A20417474656D30
:103BDC00707420746F207365742061207265616449
:103BEC002D6F6E6C79207661726961626C65206FE5
:103BFC007220646174612074797065206E6F74201A
:103C0C00737570706F727465640D0A0000000000AB
:0C3C1C00EF186B1A71188A187C18CD186C
:00000001FF
