:100000000C946B000C9493000C9493000C9493004C
:100010000C9493000C9493000C9493000C94930014
:100020000C9493000C9493000C9493000C94930004
:100030000C9493000C9493000C9493000C949300F4
:100040000C94F9140C9493000C9493000C9493006A
:100050000C9493000C9493000C9493000C949300D4
:100060000C94210C0C9493004000FF000000FF0052
:10007000A000FF006000FF00C000FF00FF000000C4
:100080000000000800020100000304070000000057
:100090000000000001020408102040800102040852
:1000A00010200102040810200404040404040404C1
:1000B0000202020202020303030303030000000022
:1000C000250028002B0000000000240027002A0043
:1000D000CE09370B301411241FBECFEFD8E0DEBF9E
:1000E000CDBF11E0A0E0B1E0E2E7F4E302C005908B
:1000F0000D92A63FB107D9F723E0A6EFB1E001C00A
:100100001D92A435B207E1F710E0C6EDD0E004C0BF
:100110002297FE010E94241AC03DD107C9F70E9410
:1001200007170C94371A0C94000080E991E00895A9
:10013000239A0895FC0160810C94A812CF93DF9359
:10014000EC01688170E085E00E940F16698170E023
:1001500086E00E940F166A8170E083E0DF91CF9104
:100160000C940F1620913A0230913B022630310553
:10017000DCF4F901EE0FFF1FEE0FFF1FE859FF4FF0
:1001800085919591A591B49190934C0280934B02E7
:10019000F901EE0FFF1FEE0FFF1FE659FF4F85918C
:1001A0009591A591B4910CC02630310569F48091E8
:1001B0003E0290E090934C0280934B028FEF90E0D0
:1001C00090934E0280934D028091410290914202A1
:1001D000A0914302B09144024091450250914602E1
:1001E0006091470270914802841B950BA60BB70BD8
:1001F0004091120150911301609114017091150109
:10020000481759076A077B07ACF460E070E0CB0140
:100210000E9472158091410290914202A091430286
:10022000B09144028093450290934602A093470206
:10023000B093480208950F931F93CF93DF9300D09C
:100240001F92CDB7DEB71FEF19831A821B82CE0132
:1002500001960E949E0019831A821B82AE014F5F95
:100260005F4F6CE070E08FE492E00E94F11184E453
:1002700093E00E949A0064EF71E080E090E00E94B9
:100280007215198200E80A831B82CE0101960E9432
:100290009E0019820A831B82AE014F5F5F4F6CE0A4
:1002A00070E08FE492E00E94F11184E493E00E94F8
:1002B0009A0064EF71E080E090E00E94721519826C
:1002C0001A821B83CE0101960E949E0019821A8217
:1002D0001B83AE014F5F5F4F6CE070E08FE492E0F4
:1002E0000E94F11184E493E00E949A0064EF71E0AF
:1002F00080E090E00E94721519821A821B82CE0162
:1003000001960E949E0019821A821B82AE014F5FE5
:100310005F4F6CE070E08FE492E00E94F11184E4A2
:1003200093E00E949A0064EF71E080E090E00E9408
:1003300072150F900F900F90DF91CF911F910F9139
:100340000895CF93DF9300D01F92CDB7DEB720E0A2
:1003500042E060E180E192E00E94D6106FE171E03E
:1003600080E192E00E94541761E080E192E00E94F7
:10037000410F68EB7BE080E090E00E947215809175
:100380000802811145C01092FA011092F9018FEF15
:100390008093FD018093FE018093FF018093000212
:1003A000809301028093020281E080930302109205
:1003B0000502109204021092FC011092FB01809140
:1003C000420390914303892B31F487EF91E090939E
:1003D000430380934203E0914003F091410330973F
:1003E00021F087EF91E09583848387EF91E09093EC
:1003F000410380934003109207021092060283ED9E
:1004000091E09093F8018093F70181E080930802D6
:1004100020E030E04CE050E06FE472E087EF91E0E4
:100420000E94F51319821A821B82AE014F5F5F4F43
:100430006CE070E08FE492E00E94F11184E493E0BC
:100440000E949A0068EC70E080E090E00E947215D3
:1004500061E085E00E94971661E086E00E949716B1
:1004600061E083E00E9497160E941B0180E192E008
:100470000E949A1062E080E192E00E94410F40E009
:1004800060E080E192E00E94A11067E271E080E10B
:1004900092E00E94541741E060E080E192E00E9407
:1004A000A1106FE271E080E192E00E9454176EEEBD
:1004B00072E080E090E00E9472150E944315609304
:1004C00045027093460280934702909348020E942F
:1004D000431560932E0270932F0280933002909305
:1004E00031021092400210923F0220914902309155
:1004F0004A02F901EE0FFF1FEE0FFF1FE859FF4FF1
:1005000085919591A591B49190934C0280934B0263
:10051000F901EE0FFF1FEE0FFF1FE659FF4F859108
:100520009591A591B49190934E0280934D020F90B6
:100530000F900F90DF91CF910895CF92DF92EF92BD
:10054000FF92CF93DF9300D01F92CDB7DEB76091BB
:100550004102709142028091430290914402C09006
:100560004502D0904602E0904702F09048026C1994
:100570007D098E099F090E9480186B017C016091A2
:1005800012017091130180911401909115010E9444
:1005900080182AE939E949E15EE30E9434199B0198
:1005A000AC01C701B6010E94301918160CF041C009
:1005B00060E070E0CB010E94721580914102909141
:1005C0004202A0914302B09144028093450290936D
:1005D0004602A0934702B093480290911101809186
:1005E00005012FEF280F2093050189838FEF8A8360
:1005F0009B8380912C0290912D026CE070E00E9410
:10060000BB19BC01660F771F680F791F615B7D4FB7
:10061000CE0101960E94431484E493E00E949A0064
:1006200080912C0290912D02019690932D0280933F
:100630002C020F900F900F90DF91CF91FF90EF90D1
:10064000DF90CF900895CF92DF92EF92FF92CF93F9
:10065000DF9300D000D000D0CDB7DEB7609141026B
:10066000709142028091430290914402C0904502F1
:10067000D0904602E0904702F09048026C197D0944
:100680008E099F090E9480186B017C016091120104
:100690007091130180911401909115010E948018AE
:1006A00020E030E040E05FE30E9434199B01AC01A0
:1006B000C701B6010E94301918168CF560E070E091
:1006C000CB010E9472158091410290914202A0914B
:1006D0004302B09144028093450290934602A09356
:1006E0004702B093480290911101809104012FEFCD
:1006F000280F209304018C838FEF8D839E83BE018E
:100700006F5F7F4FCE0104960E94431440914403D3
:10071000BE016F5F7F4F84E493E00E942913269609
:100720000FB6F894DEBF0FBECDBFDF91CF91FF9023
:10073000EF90DF90CF900895809138029091390228
:100740008730910564F421E02093070110923D0267
:1007500010923C0290933B0280933A0208958730B6
:10076000910541F41092070181E080933D021092BF
:100770003C020895089739F41092070110923D0247
:1007800081E080933C020895AF92BF92CF92DF92B6
:10079000EF92FF920F931F93CF93DF9300D000D07F
:1007A00000D0CDB7DEB78EE00E94F21590930A011B
:1007B00080930901BC01882777FD8095982F1F92AF
:1007C0001F921F922FEF2F93A12CB12C6501EE24C5
:1007D000EA9413E0F12E00E010E020E030E0A901FF
:1007E0000E940A1870933302609332022091110123
:1007F00030E00F900F900F900F902617370711F0F1
:1008000060931101809111019091080120913E02A5
:100810002C839D838E83BE016F5F7F4FCE01049634
:100820000E944314CE0101960E949E0041E060E0C8
:1008300080E192E00E94A110E0913802F09139022B
:10084000EE0FFF1FE55FFE4F6081718180E192E056
:100850000E9454170E94431500912E0210912F02FE
:100860002091300230913102601B710B820B930B8F
:10087000613177428105910528F18091380290918C
:1008800039020997FCF48091060181110FC040E004
:1008900060E080E192E00E94A11065E371E080E1F8
:1008A00092E00E94541781E08093060140E060E0EE
:1008B00080E192E00E94A11067E271E080E192E0A5
:1008C0000E94541780E192E00E94BE11182F0E94EE
:1008D0004315C0902E02D0902F02E0903002F0908D
:1008E00031026C197D098E099F096E3471408105B2
:1008F000910508F432C1112309F42FC180E192E07F
:100900000E949A1040E060E080E192E00E94A11015
:100910008091380290913902012F0170029709F0FD
:1009200077C040E060E080E192E00E94A11014FFF7
:1009300029C04091120150911301609114017091EE
:1009400015014333510561057105E4F04253510926
:1009500061097109409312015093130160931401CE
:10096000709315012AE030E080E192E00E94AC171C
:100970000E94431560932E0270932F0280933002E1
:100980009093310211FF2AC040911201509113013E
:100990006091140170911501483883E15807610591
:1009A0007105E4F44E5C5F4F6F4F7F4F409312012F
:1009B0005093130160931401709315012AE030E005
:1009C00080E192E00E94AC170E94431560932E02D2
:1009D00070932F0280933002909331020023C1F074
:1009E00080913402909135029093390280933802BD
:1009F00080E192E00E949A1040E060E080E192E0A5
:100A00000E94A11067E271E080E192E00E94541719
:100A10008091380290913902019709F07CC040E042
:100A200060E080E192E00E94A11014FF15C0609187
:100A30003E02615060933E024AE050E080E192E065
:100A40000E9403180E94431560932E0270932F0298
:100A5000809330029093310211FF15C060913E02E5
:100A60006F5F60933E024AE050E080E192E00E94B6
:100A700003180E94431560932E0270932F028093F7
:100A800030029093310213FF15C0609108016F5F2F
:100A9000609308014AE050E080E192E00E94031870
:100AA0000E94431560932E0270932F0280933002B0
:100AB0009093310212FF15C060910801615060935C
:100AC00008014AE050E080E192E00E9403180E9491
:100AD000431560932E0270932F02809330029093FF
:100AE00031020023D1F1809134029091350290932C
:100AF00039028093380280E192E00E949A1040E02F
:100B000060E080E192E00E94A11067E271E080E184
:100B100092E00E945417002301F1809138029091D5
:100B2000390290933502809334028091360290917D
:100B30003702909339028093380280E192E00E945C
:100B40009A1040E060E080E192E00E94A11067E22C
:100B500071E080E192E00E9454170E949C030E9481
:100B60004315609341027093420280934302909335
:100B700044028091070181110E94B20080913D02E0
:100B800081110E949D0280913C0281110E942303E9
:100B900026960FB6F894DEBF0FBECDBFDF91CF9182
:100BA0001F910F91FF90EF90DF90CF90BF90AF908B
:100BB00008958F929F92AF92BF92CF92DF92EF9261
:100BC000FF920F931F93CF93DF93EC01E881F9819C
:100BD00095B1986085B1877F85B938852D81D32EF1
:100BE000D21ADD82AD84AA81BB812B859C848A8444
:100BF000EE80FC8079851F810990D881C02D098104
:100C0000002331F0402F0D2D400F08F44FEF01C0AD
:100C100040E0042F029F012D1124C0E04C2F5C2FD7
:100C20006C2F002CEA01CC2E4C2D5D2F95B900C005
:100C300000C000C000C000C007FF85B96281442722
:100C4000889400C000C000C000C000C000C0002CDC
:100C500085B961116E0D00C000C0002C00C000C03D
:100C600095B900C000C000C000C000C006FF85B933
:100C700008F46FEF889400C000C000C000C000C03E
:100C800000C000C085B990FC460F00C000C0002C19
:100C900000C000C095B900C000C000C000C000C0C6
:100CA00005FF85B94795889491FC460F00C000C0A8
:100CB00000C000C000C000C0002C85B947958894D2
:100CC00000C000C0002C00C000C095B900C000C02A
:100CD00000C000C000C004FF85B992FC460F4795D4
:100CE000889400C000C000C000C000C000C0002C3C
:100CF00085B993FC460F00C000C0002C00C000C0A6
:100D000095B900C000C000C000C000C003FF85B995
:100D10004795889494FC460F00C000C000C000C0F6
:100D200000C000C0002C85B94795889400C000C061
:100D3000002C00C000C095B900C000C000C000C0B9
:100D400000C002FF85B995FC460F4795889400C006
:100D500000C000C000C000C000C0002C85B996FCD7
:100D6000460F00C000C0002C00C000C095B900C0F4
:100D700000C000C000C000C001FF85B9479588943D
:100D800097FC460F00C000C000C000C000C000C0FB
:100D9000002C85B94795889400C000C0002C00C085
:100DA00000C095B900C000C000C000C000C000FF76
:100DB00085B9E194E70E00C000C000C000C000C0CB
:100DC00000C000C0002C85B9042F00C000C000C0C6
:100DD00000C000C095B900C000C000C000C000C085
:100DE00007FF85B960814427889400C000C000C017
:100DF00000C000C000C0002C85B961116F0D00C09B
:100E000000C0002C00C000C095B900C000C000C0E8
:100E100000C000C006FF85B908F46FEF889400C0D9
:100E200000C000C000C000C000C000C085B980FC88
:100E3000460F00C000C0002C00C000C095B900C023
:100E400000C000C000C000C005FF85B94795889468
:100E500081FC460F00C000C000C000C000C000C040
:100E6000002C85B94795889400C000C0002C00C0B4
:100E700000C095B900C000C000C000C000C004FFA1
:100E800085B982FC460F4795889400C000C000C019
:100E900000C000C000C0002C85B983FC460F00C014
:100EA00000C0002C00C000C095B900C000C000C048
:100EB00000C000C003FF85B94795889484FC460FA5
:100EC00000C000C000C000C000C000C0002C85B938
:100ED0004795889400C000C0002C00C000C095B9A0
:100EE00000C000C000C000C000C002FF85B985FC82
:100EF000460F4795889400C000C000C000C000C0E5
:100F000000C0002C85B986FC460F00C000C0002C34
:100F100000C000C095B900C000C000C000C000C043
:100F200001FF85B94795889487FC460F00C000C033
:100F300000C000C000C000C0002C85B9479588944F
:100F400000C000C0002C00C000C095B900C000C0A7
:100F500000C000C000C000FF85B9EA0DF11D8894F3
:100F6000042F00C000C000C000C000C000C0002CA2
:100F700085B9F194F10E00C000C0002C00C000C083
:100F800095B900C000C000C000C000C007FF85B90F
:100F900061814427889400C000C000C000C000C028
:100FA00000C0002C85B961116D0D00C000C0002C7F
:100FB00000C000C095B900C000C000C000C000C0A3
:100FC00006FF85B908F46FEF889400C000C000C028
:100FD00000C000C000C000C085B920FD460F00C0A1
:100FE00000C0002C00C000C095B900C000C000C007
:100FF00000C000C005FF85B94795889421FD460FC4
:1010000000C000C000C000C000C000C0002C85B9F6
:101010004795889400C000C0002C00C000C095B95E
:1010200000C000C000C000C000C004FF85B922FDA0
:10103000460F4795889400C000C000C000C000C0A3
:1010400000C0002C85B923FD460F00C000C0002C55
:1010500000C000C095B900C000C000C000C000C002
:1010600003FF85B94795889424FD460F00C000C052
:1010700000C000C000C000C0002C85B9479588940E
:1010800000C000C0002C00C000C095B900C000C066
:1010900000C000C000C002FF85B925FD460F47957E
:1010A000889400C000C000C000C000C000C0002C78
:1010B00085B926FD460F00C000C0002C00C000C04E
:1010C00095B900C000C000C000C000C001FF85B9D4
:1010D0004795889427FD460F00C000C000C000C09F
:1010E00000C000C0002C85B94795889400C000C09E
:1010F000002C00C000C095B900C000C000C000C0F6
:1011000000C000FF85B9D194D30E042F00C000C0E9
:1011100000C000C000C000C000C085B900C000C051
:10112000002C119709F082CDDF91CF911F910F9183
:10113000FF90EF90DF90CF90BF90AF909F908F90F7
:101140000895FF920F931F93CF93DF93EC0180914B
:10115000F6018F5F982F97709093F60180FD02C083
:1011600080E001C080E891FD8064947009F08062A5
:1011700010E1F12EF80E20E030E000E011E0FE0179
:10118000E20FF31F6285662331F070E0C8010E9410
:10119000BB196F5F01C060E067834F2D469F412DF3
:1011A00011244483662311F0615067832F5F3F4F02
:1011B0002330310521F7DF91CF911F910F91FF90DF
:1011C0000895AF92BF92CF92DF92EF92FF920F936A
:1011D000CF93DF93CDB7DEB72E970FB6F894DEBF6F
:1011E0000FBECDBF6C015A01F901DC011C968C9138
:1011F0007A8369835C834B8390819B8791819C87F1
:1012000092819D87813029F4CE0101960E94A10828
:1012100006C01A86198618861F821E821D82898141
:101220009A818E0D911D9A838983002319F083E0A2
:101230008E0D01C080E08E870E944F15F601278534
:101240003089621B730B6A307105B0F3F894CE01DC
:1012500001960E94D90520EF33E0D5010E94101AB3
:1012600054E096958795779567955A95D1F720E044
:1012700030E04AE9A49E212DB49E200D311D112499
:10128000620F731F811D911D693EF3E07F07810589
:101290009105A8F1DC01CB01885E9340A109B10959
:1012A00002E0B695A795979587950A95D1F740E006
:1012B00050E027E0829F412D929F400D511D112447
:1012C0002091750230E0280F391F240F351F8091BF
:1012D0004C0390914D03A0914E03B0914F03432FC7
:1012E0005527840F951FA11DB11D80934C0390932A
:1012F0004D03A0934E03B0934F032093750278944F
:101300000E944F15D60150967C936E931F972E9690
:101310000FB6F894DEBF0FBECDBFDF91CF910F9116
:10132000FF90EF90DF90CF90BF90AF900895EF9235
:10133000FF920F93E12CF12C00E00E94E1080F9145
:10134000FF90EF900895EF92FF920F93E12CF12C14
:1013500001E00E94E1080F91FF90EF900895EF9255
:10136000FF920F93CF93DF9300D01F92CDB7DEB7DC
:10137000AB0119821A821B82E12CF12C00E09E0144
:101380002F5F3F4FB9010E94E1080F900F900F901F
:10139000DF91CF910F91FF90EF900895CF92DF9260
:1013A000EF92FF92CF93DF93C0911101D0E0BE0185
:1013B000882777FD8095982F0E9480186B017C010B
:1013C00023EC35EF48E25FE30E9434190E94521883
:1013D0006093740223EC35EF48EA5EE3C701B6017F
:1013E0000E9434190E94521860937302809138024F
:1013F0009091390290933702809336029093350290
:1014000080933402D0933302C093320280E192E0A1
:10141000DF91CF91FF90EF90DF90CF900C94140F5D
:101420008091A60290E02091A702821B9109089565
:101430002091A7028091A602281750F4E22FF0E035
:10144000E855FD4F808190E02F5F2093A70208951B
:101450008FEF9FEF0895E091A7028091A602E81711
:1014600030F4F0E0E855FD4F808190E008958FEF73
:101470009FEF08950895CF92DF92EF92FF920F931E
:101480001F93CF93DF937C01CB018A0120918202CD
:10149000222389F0EB016B01C40ED51ECC15DD05AE
:1014A00069F06991D701ED91FC910190F081E02DF7
:1014B000C7010995F3CF642F0E94F80BC801DF9193
:1014C000CF911F910F91FF90EF90DF90CF900895F3
:1014D000CF93DF931F92CDB7DEB76983209182024D
:1014E0002223D1F020918302203240F021E030E02D
:1014F000FC013383228380E090E015C08091840258
:10150000E82FF0E0EB57FD4F998190838F5F809338
:1015100084028093830205C061E0CE0101960E949F
:10152000F80B81E090E00F90DF91CF910895FC01DE
:101530001382128248EE53E060E070E044835583EA
:101540006683778381EE91E0918380830895109282
:10155000A7021092A60210928402109283020C94A9
:101560003B0B81E0809382026093A502109284027B
:101570001092830208950C94B10A0F93062F21E074
:101580004091830265E872E08091A5020E94A10B60
:101590001092840210928302109282020F91089599
:1015A0008F929F92AF92BF92CF92DF92EF92FF9273
:1015B0000F931F93CF93DF93EC01F62ED42E4801A7
:1015C0005901EE2019F10E94B10A1E2D143008F0C5
:1015D00013E01150B8F0E881F98128E0129FB001C2
:1015E0001124A501940104C0569547953795279578
:1015F0006A95D2F7CA01B9010190F081E02DCE01C0
:101600000995E7CF60E0CE010E94BD0A4D2D413221
:1016100008F040E22C2D68EA72E08F2D0E94590BF1
:101620001092A7028093A602DF91CF911F910F9194
:10163000FF90EF90DF90CF90BF90AF909F908F90F2
:101640000895CF92EF920F931F93C22EE12C00E0EA
:1016500010E098010E94D00A1F910F91EF90CF9057
:10166000089521E00C94210B61E00C94BD0A86E7FB
:1016700092E00C94970A1092350381E08093330333
:101680001092320361E082E10E94D01661E083E1B2
:101690000E94D016E9EBF0E080818E7F808380810C
:1016A0008D7F808388E48093B80085E48093BC00BC
:1016B0000895413208F043C0909135039111FCCF59
:1016C00091E090933503209333032FEF2093C802CA
:1016D00010920D03240F20930C03909334039091E8
:1016E0003403880F892B8093340380913203813037
:1016F00061F410923203809134038093BB00809197
:10170000BC0083FDF8CF85EC01C085EE8093BC0062
:10171000809135038130E1F380910D03841710F43B
:1017200040910D032EE033E0FB01D9018A2F821B8B
:10173000841718F48D918193F9CF842F089580E058
:1017400008950F93413208F04AC0909135039111EA
:10175000FCCF92E090933503009333039FEF909377
:10176000C80210920D0340930C03FB016EE073E07E
:10177000DB019A2F961B941718F491919D93F9CF42
:101780001092340390913403880F892B8093340393
:1017900080913203813061F41092320380913403DE
:1017A0008093BB008091BC0083FDF8CF85EC01C025
:1017B00085EE8093BC00222321F080913503823096
:1017C000E1F38091C8028F3F61F08091C8028032BE
:1017D00051F08091C802803341F483E007C081E07A
:1017E00005C080E003C082E001C084E00F9108954D
:1017F000613298F420913503243089F46093EA0231
:10180000FC018CEE92E0DC012A2F281B261718F42D
:1018100021912D93F9CF80E0089581E0089582E031
:10182000089585ED8093BC008091BC0084FDFCCFC1
:1018300010923503089585EC8093BC001092350317
:1018400008951F920F920FB60F9211242F933F937A
:101850004F935F936F937F938F939F93AF93BF93B8
:10186000EF93FF938091B900887F803609F49EC082
:1018700078F5883209F45DC090F4803109F456C0DF
:1018800038F4882309F4F5C0883009F44FC0F5C056
:10189000883109F44EC0803209F45FC0EEC0803454
:1018A00009F46AC058F4803309F457C0883309F04A
:1018B000E4C08093C8020E941B0CDFC0803509F48D
:1018C0004FC0883509F45DC0883409F0D6C0D3C054
:1018D000883909F4C4C0A8F4883709F467C038F41B
:1018E000883609F463C0803709F460C0C6C0883800
:1018F00009F4B5C0803909F45FC0803809F0BDC073
:101900005BC0803B09F483C038F4803A09F466C0B8
:10191000883A09F47CC0B1C0803C09F4A4C0883C7A
:1019200009F4A1C0883B09F487C0A7C080913403A3
:1019300010C090910D0380910C03981770F5E09101
:101940000D0381E08E0F80930D03F0E0E25FFC4F0A
:1019500080818093BB0085EC83C08093C8028BC0DC
:10196000E0910D0381E08E0F80930D038091BB0009
:10197000F0E0E25FFC4F808390910D0380910C03B7
:101980006BC0E0910D0381E08E0F80930D03809179
:10199000BB00F0E0E25FFC4F808380913303811154
:1019A0006AC081E08093320384EA5EC083E0809362
:1019B00035031092C902CFCF8091C902803208F05E
:1019C0004EC0E091C90281E08E0F8093C9028091E0
:1019D000BB00F0E0E653FD4F8083BDCF0E941B0C9F
:1019E0008091C902803230F4E091C902F0E0E65300
:1019F000FD4F10826091C90270E0E0912E03F091DA
:101A00002F038AEC92E009951092C90236C084E057
:101A1000809335031092EB021092EA02E0913003BA
:101A2000F091310309958091EA02811105C081E0AE
:101A30008093EA021092EC02E091EB0281E08E0FBB
:101A40008093EB02F0E0E451FD4F80818093BB0076
:101A50009091EB028091EA02981708F47CCF85E818
:101A60008093BC000AC085EC8093BC0010923503C3
:101A700004C01092C8020E94110CFF91EF91BF9117
:101A8000AF919F918F917F916F915F914F913F9116
:101A90002F910F900FBE0F901F901895682F86E71B
:101AA00092E00C94680ACF93DF93EC01683008F061
:101AB00067E0688386E792E00E94A70A6881606217
:101AC00070E086E792E00E94BB0A80E00E944E0D23
:101AD0008FEF0E944E0D86E792E00E94340B6881E2
:101AE000606270E086E792E00E94BB0A81E00E949B
:101AF0004E0D8FEF0E944E0D86E792E0DF91CF9161
:101B00000C94340B60E00C94530DCF93DF93D62FDD
:101B1000C72FFC0190819062692F70E086E792E008
:101B20000E94BB0A82E10E944E0D8D2F0E944E0D35
:101B30008C2F0E944E0D86E792E0DF91CF910C949E
:101B4000340BFF920F931F93CF93DF93EC01162F6B
:101B5000F42E603108F045C0683018F018500DE0E0
:101B600001C00CE06881606270E086E792E00E944C
:101B7000BB0A802F0E944E0D86E792E00E94340B34
:101B80006881606270E041E050E086E792E00E9488
:101B9000310B86E792E00E94180A91E021E030E0E4
:101BA00001C0220F1A95EAF7122FF91202C0182B62
:101BB00002C0109518236881606270E086E792E0A9
:101BC0000E94BB0A802F0E944E0D812F0E944E0D55
:101BD00086E792E0DF91CF911F910F91FF900C94D7
:101BE000340BDF91CF911F910F91FF9008950F93C8
:101BF0001F93CF93DF93EC01162F603148F56830C7
:101C000018F0185003E101C002E16881606270E0E1
:101C100086E792E00E94BB0A802F0E944E0D86E765
:101C200092E00E94340B6881606270E041E050E015
:101C300086E792E00E94310B86E792E00E94180A44
:101C4000992702C0959587951A95E2F7817001C092
:101C500080E0DF91CF911F910F910895CF93DF9393
:101C6000EC016881606270E086E792E00E94BB0A46
:101C700082E10E944E0D86E792E00E94340B68815B
:101C8000606270E042E050E086E792E00E94310B33
:101C900086E792E00E94180AC82F86E792E00E9429
:101CA000180A982F88278C2BDF91CF910895FF92E7
:101CB0000F931F93CF93DF93EC01162FF42E603117
:101CC00008F044C0683018F0185001E001C000E08E
:101CD0006881606270E086E792E00E94BB0A802F14
:101CE0000E944E0D86E792E00E94340B688160628C
:101CF00070E041E050E086E792E00E94310B86E719
:101D000092E00E94180A21E030E001C0220F1A95EB
:101D1000EAF7122FF11002C0182B02C010951823F9
:101D20006881606270E086E792E00E94BB0A802FC3
:101D30000E944E0D812F0E944E0D86E792E0DF91AA
:101D4000CF911F910F91FF900C94340BDF91CF91A5
:101D50001F910F91FF900895CF92DF92FF920F9302
:101D60001F93CF93DF931F92CDB7DEB76C01162F71
:101D7000F42E603108F04FC0683020F0185025E193
:101D800003E102C024E102E1F6016081606270E0DB
:101D900086E792E029830E94BB0A2981822F0E9454
:101DA0004E0D86E792E00E94340BF601608160627E
:101DB00070E041E050E086E792E00E94310B86E758
:101DC00092E00E94180AF1E021E030E001C0220F09
:101DD0001A95EAF7122FFF1202C0182B02C01095B5
:101DE0001823F6016081606270E086E792E00E944D
:101DF000BB0A802F0E944E0D812F0E944E0D86E758
:101E000092E00F90DF91CF911F910F91FF90DF90A3
:101E1000CF900C94340B0F90DF91CF911F910F91C5
:101E2000FF90DF90CF900895FC011382128281EF22
:101E300091E091838083128E148A8FE084838EE0F8
:101E400085838DE086838CE087838BE080878AE0C2
:101E5000818789E08287178681E0808B82E0818B91
:101E600083E0828B84E0838B0895262FFC01328DE2
:101E70003F3F19F04B960C94AC0E642F822F0C94BC
:101E8000D0160F931F93CF93DF93062FEC016B9621
:101E900011E062FB442740F9412768E0CE010E942F
:101EA000AC0E01FB442740F9412767E0CE010E94B8
:101EB000AC0E402F4170412766E0CE01DF91CF91FB
:101EC0001F910F910C94AC0E262FFC01328D3F3FD9
:101ED00019F04B960C94570E642F822F0C94971682
:101EE000CF93DF93EC0140E06E810E94350F81E0DB
:101EF00090E00E94AC1541E06E81CE010E94350F4A
:101F000081E090E00E94AC1540E06E81CE010E941D
:101F1000350F84E690E0DF91CF910C94AC15AF9231
:101F2000BF92CF92DF92EF92FF920F931F93CF93C6
:101F3000DF93EC018A8DA62EB12C8F3F09F472C07D
:101F40007E018BE1E80EF11CC7010E942E0E9C0160
:101F500080E090E061E070E0FE01E80FF91FE781AA
:101F6000CC24C394D12CAB010E2E02C0440F551FBC
:101F70000A94E2F74095509524233523A501082EB5
:101F800002C0559547950A94E2F74170552702C063
:101F9000440F551FEA95E2F7242B352B0196843028
:101FA0009105D1F686010E8002C0000F111F0A9420
:101FB000E2F70095109502231323B801C7010E9490
:101FC000850D81E090E00E94AC1556010E8002C0A4
:101FD000AA0CBB1C0A94E2F7A02AB12AB501C701DA
:101FE0000E94850D81E090E00E94AC15B6010E8044
:101FF00002C0660F771F0A94E2F7609570956A2118
:102000007B21C7010E94850D84E690E0DF91CF918E
:102010001F910F91FF90EF90DF90CF90BF90AF9006
:102020000C94AC1500E010E07E01E00EF11E41E0E2
:10203000F7016781CE010E94640FA501002E02C046
:10204000559547950A94E2F74170F7016781CE01F3
:102050000E94350F0F5F1F4F0430110529F7CE0185
:10206000DF91CF911F910F91FF90EF90DF90CF9074
:10207000BF90AF900C94700FCF92DF92EF92FF92CF
:102080000F931F93CF93DF938C01C0E0D0E0C62E57
:10209000D12C7801EC0EFD1E41E0F7016781C801EB
:1020A0000E94640FA6010C2E02C0559547950A9414
:1020B000E2F74170F7016781C8010E94350F219650
:1020C000C830D10531F7C801DF91CF911F910F9131
:1020D000FF90EF90DF90CF900C94700F1F93CF93F1
:1020E000DF93EC01162F6C810E94350F6D816F3FDD
:1020F00021F040E0CE010E94350F8C89612F84FFD2
:1021000006C0CE01DF91CF911F910C943C1070E07E
:1021100054E0759567955A95E1F7CE010E948F0FAF
:10212000612FCE01DF91CF911F910C948F0F40E072
:102130000C946E1061E00E94971080ED97E00C9473
:10214000AC15CF93DF93CDB7DEB728970FB6F894D1
:10215000DEBF0FBECDBF28E0E7E1F1E0DE01119662
:1021600001900D922A95E1F7FC01208D241710F4BF
:102170004FEF420FFE013196E40FF11DE40FF11D08
:102180002081260F2068622F28960FB6F894DEBFB4
:102190000FBECDBFDF91CF910C949710FC016589E4
:1021A000262F2460258B6C600C949710AF92BF9201
:1021B000CF92DF92EF92FF920F931F93CF93DF9313
:1021C000EC01B42EA22E8A8D8F3F41F481E08B1555
:1021D00008F05CC08C8988608C8B58C086E792E0E0
:1021E0000E94A70A8E01055E1F4FC8010E94820D42
:1021F00041E068E0C8010E94570E41E066E0C80176
:102200000E94570E41E067E0C8010E94570E67E048
:10221000CE010E94410F6D81662321F041E0C8018B
:102220000E94570E41E06C81C8010E94570E41E0A8
:102230006E81C8010E94570EE12CF12CFE01EE0DBB
:10224000FF1D41E06781C8010E94570EEFEFEE1AB3
:10225000FE0AF4E0EF16F10489F7E12CF12C6E018F
:10226000CE0CDF1C40E0F6016785C8010E94570EC6
:1022700041E0F6016785C8010E94A10DFFEFEF1A4A
:10228000FF0A85E0E816F10451F7A0CFB88E198E49
:10229000AA2031F0E1E0BE1203C08C8984608C8BEF
:1022A00080E593EC0E94AC1540E06C81CE010E9469
:1022B000350F40E06E81CE010E94350F6D816F3F7A
:1022C00021F040E0CE010E94350F6C8964FD1DC0F5
:1022D00063E0CE010E948F0F84E991E10E94AC156A
:1022E00063E0CE010E948F0F84E991E10E94AC155A
:1022F00063E0CE010E948F0F86E990E00E94AC154A
:1023000062E0CE010E948F0F16C06062CE010E9473
:10231000971084E991E10E94AC156C896062CE014E
:102320000E94971086E990E00E94AC156C8960626B
:10233000CE010E9497106C896062CE010E949710B6
:1023400084E08D8BCE010E94CE10CE010E949A10A7
:1023500082E08E8B66E0CE01DF91CF911F910F91CD
:10236000FF90EF90DF90CF90BF90AF900C949710BC
:1023700041E00E946E1081E090E00895DF92EF92BC
:10238000FF920F931F93CF93DF938C01C0E0D0E0B7
:102390006FE1D62E7C018BE1E80EF11CF801EC0F09
:1023A000FD1F6785C7010E94F70D282F30E00C2E16
:1023B00002C0220F331F0A94E2F7209530958D2D2D
:1023C00090E028233923D22E2196C530D10531F74C
:1023D000822FDF91CF911F910F91FF90EF90DF90AF
:1023E0000895FA0120E030E00396261737076CF4D1
:1023F0004081DC0113974C93418111964C934281AB
:1024000011964C932F5F3F4FEFCF08958F929F927D
:10241000AF92BF92EF92FF920F931F93CF93DF93F0
:10242000EC01188219821A824423B9F1E0E0F0E04D
:102430008B010A5F1F4F7B0189E0E80EF11C842E9F
:10244000912CA12CB12CD801AE0FBF1F2C91D7011C
:10245000AE0FBF1F6C912223E1F06623D1F030E074
:1024600040E050E02F5F3F4F4F4F5F4F70E080E004
:1024700090E06F5F7F4F8F4F9F4F0E9497199B0196
:10248000AC01C501B4010E949719DE01AE0FBF1F58
:102490008C933196E330F105B1F6CE01DF91CF9107
:1024A0001F910F91FF90EF90BF90AF909F908F90F2
:1024B0000895CF92DF92EF92FF92CF93DF93EC01DA
:1024C00080913A0390913B039C012F5F3F4F3093E3
:1024D0003B0320933A03861797079CF10E9443150C
:1024E0009B01AC01E0913A03F0913B0388EE93E04D
:1024F000E89FB001E99F700DF89F700D11248827A7
:1025000077FD8095982FC0903603D0903703E090E8
:102510003803F09039032C193D094E095F090E94D8
:10252000CF193A83298310923B0310923A030E94F9
:102530004315609336037093370380933803909369
:102540003903DF91CF91FF90EF90DF90CF90089506
:10255000AF92BF92CF92DF92EF92FF920F931F93B1
:10256000CF93DF9300D01F92CDB7DEB78C01B62E8C
:10257000F80183819481A581B681892B8A2B8B2BCD
:10258000D1F00E944F15C0903C03D0903D03E090E5
:102590003E03F0903F036C197D098E099F09D80115
:1025A0001396CD90DD90ED90FC9016976C157D05FF
:1025B0008E059F05E8F20E944F1560933C037093CF
:1025C0003D0380933E0390933F03E0904203F090DD
:1025D0004303E114F10451F1F701A484D8011196E9
:1025E0008D919C9112978436910508F41486D70139
:1025F000ED91FC91C280D3804B2DB701CE010196A5
:102600000E940612F70145855685628173819E01FD
:102610002F5F3F4FC701F6010995D7011C96AC9279
:102620001C971496ED90FC901597D3CF69E170E05C
:10263000C8010E9459120F900F900F90DF91CF9117
:102640001F910F91FF90EF90DF90CF90BF90AF90D0
:1026500008958F929F92AF92BF92CF92DF92EF92A6
:10266000FF920F931F93CF93DF9300D01F92CDB7AC
:10267000DEB78C017B01D42EF80183819481A58182
:10268000B681892B8A2B8B2BD1F00E944F1580901D
:102690003C0390903D03A0903E03B0903F03681927
:1026A00079098A099B09D80113968D909D90AD9068
:1026B000BC901697681579058A059B05E8F20E947B
:1026C0004F1560933C0370933D0380933E039093BA
:1026D0003F03A0904203B0904303A114B10449F119
:1026E000F501C484D80111968D919C91129784367E
:1026F000910508F41486D501ED91FC9180809180BC
:102700004D2DB501CE0101960E940612F5014585B9
:1027100056859E012F5F3F4FB701C501F401099512
:10272000D5011C96CC921C971496AD90BC90159731
:10273000D4CF69E170E0C8010E9459120F900F9048
:102740000F90DF91CF911F910F91FF90EF90DF904D
:10275000CF90BF90AF909F908F900895CF92DF92CF
:10276000EF92FF920F931F93CF93DF93EC014423DB
:10277000F1F06115710581F19B0140E050E060E4EA
:1027800072E48FE090E00E94F119CB80DC80ED8054
:10279000FE8089019A010C151D052E053F0510F4D8
:1027A000970186010B831C832D833E8315C0611521
:1027B000710571F09B0140E050E060E472E48FE04D
:1027C00090E00E94F1192B833C834D835E8304C00B
:1027D0001B821C821D821E82DF91CF911F910F915F
:1027E000FF90EF90DF90CF900895CF92DF92EF921D
:1027F000FF920F931F93CF93DF93EC016B018A013C
:102800007901121613061CF07A0100E010E0E8814D
:10281000F9810480F581E02DCE010995C801880F6A
:10282000991F800F911F8C0D9D1D9B838A83FE86AF
:10283000ED86E881F9810084F185E02DCE010995CE
:1028400041E0BC0184E493E00E94AE13CE01DF912D
:10285000CF911F910F91FF90EF90DF90CF9008954F
:102860008FEF80934403109246031092450308951E
:10287000FC012081222321F0269F212D09F02F5FCA
:10288000FC0120830895FF920F931F93CF93DF9352
:1028900000D000D0CDB7DEB7FC018B014081F180C4
:1028A0005281842F8F71880F880F880F282F35E56C
:1028B000239F212D1124342F3074942F907247FDC3
:1028C00025C031110EC0911106C0822F80958B83D7
:1028D0002A8319823FC08BEA8B832B5A2A83198261
:1028E00039C091110DC0382F4AEA349F312D11247F
:1028F0009BEA931B9B8325552A83198280E02AC07B
:102900001B8280E0822F80958A8312C0311112C011
:1029100091110BC01B82282F3AEA239F212D1124ED
:102920008BEA821B8A832B5A03C02B831A82209541
:10293000298310C0911106C085E5820F8B831A820E
:102940008BEA06C08BEA820F8B831A8280E085E5D2
:10295000821B89832FEFF21601F16F2DCE010396B2
:102960005C830E9438146F2DCE0102960E943814A9
:102970006F2DCE0101960E94381411246F2D6095A1
:10298000669F612D11248B81860F8B838A81860F30
:102990008A838981860F89835C815F3FC9F0F12C2E
:1029A0002F2D552321F0559F212D09F02F5FF22E59
:1029B000622FCE0103960E9438146F2DCE0102962D
:1029C0000E9438146F2DCE0101960E9438141124F4
:1029D0008B81F80180838A818183898182830F9032
:1029E0000F900F900F90DF91CF911F910F91FF905B
:1029F00008951F920F920FB60F9211242F933F93B9
:102A00008F939F93AF93BF9380914C0390914D030D
:102A1000A0914E03B0914F0330914B0323E0230F5D
:102A20002D3720F40196A11DB11D05C026E8230F06
:102A30000296A11DB11D20934B0380934C039093EC
:102A40004D03A0934E03B0934F0380915003909198
:102A50005103A0915203B09153030196A11DB11DE2
:102A60008093500390935103A0935203B093530368
:102A7000BF91AF919F918F913F912F910F900FBE7A
:102A80000F901F9018952FB7F89460914C03709198
:102A90004D0380914E0390914F032FBF08953FB790
:102AA000F8948091500390915103A0915203B091FA
:102AB000530326B5A89B05C02F3F19F00196A11D11
:102AC000B11D3FBF6627782F892F9A2F620F711D86
:102AD000811D911D42E0660F771F881F991F4A953F
:102AE000D1F708958F929F92AF92BF92CF92DF92CB
:102AF000EF92FF926B017C010E944F154B015C012C
:102B0000C114D104E104F104F1F00E9451180E94B3
:102B10004F15681979098A099B09683E7340810538
:102B2000910570F321E0C21AD108E108F10888EE9E
:102B3000880E83E0981EA11CB11CC114D104E104CD
:102B4000F10429F7DDCFFF90EF90DF90CF90BF9099
:102B5000AF909F908F9008958230910538F0880F44
:102B6000991F880F991F05970197F1F70895789499
:102B700084B5826084BD84B5816084BD85B5826082
:102B800085BD85B5816085BDEEE6F0E08081816020
:102B90008083E1E8F0E01082808182608083808120
:102BA00081608083E0E8F0E0808181608083E1EBF8
:102BB000F0E0808184608083E0EBF0E080818160E0
:102BC0008083EAE7F0E08081846080838081826096
:102BD000808380818160808380818068808310927F
:102BE000C10008958E3008F08E5087702091160134
:102BF00090E4299F90011124822B80937C00809186
:102C00007A00806480937A0080917A0086FDFCCF00
:102C1000809178002091790090E0922B08951F9385
:102C2000CF93DF93182FEB0161E00E949716209756
:102C300011F460E004C0CF3FD10539F461E0812F89
:102C4000DF91CF911F910C94D016E12FF0E0E05866
:102C5000FF4FE491E330F9F048F4E130B9F0E230AD
:102C6000A1F584B5806284BDC8BD34C0E730E9F009
:102C7000E83019F1E43049F580918000806280935A
:102C80008000D0938B00C0938A0024C084B58068F4
:102C900084BDC7BD1FC08091800080688093800084
:102CA000D0938900C093880015C08091B0008068DF
:102CB0008093B000C093B3000DC08091B0008062DB
:102CC0008093B000C093B40005C0C038D1050CF0AB
:102CD000B5CFAFCFDF91CF911F910895833081F0B1
:102CE00028F4813099F08230A1F008958730A9F05E
:102CF0008830B9F08430D1F4809180008F7D03C09A
:102D0000809180008F7780938000089584B58F77BD
:102D100002C084B58F7D84BD08958091B0008F7707
:102D200003C08091B0008F7D8093B0000895CF9351
:102D3000DF9390E0FC01EC56FF4F2491FC01E85535
:102D4000FF4F8491882349F190E0880F991FFC017F
:102D5000EA53FF4FA591B49184549F4FFC01C59154
:102D6000D4919FB7611108C0F8948C91209582236B
:102D70008C93888182230AC0623051F4F8948C913C
:102D8000322F309583238C938881822B888304C0D3
:102D9000F8948C91822B8C939FBFDF91CF910895F3
:102DA0000F931F93CF93DF931F92CDB7DEB7282FDA
:102DB00030E0F901E058FF4F8491F901EC56FF4FE4
:102DC0001491F901E855FF4F04910023C9F08823BD
:102DD00021F069830E946E166981E02FF0E0EE0F0A
:102DE000FF1FE454FF4FA591B4919FB7F8948C91C5
:102DF000611103C01095812301C0812B8C939FBF6B
:102E00000F90DF91CF911F910F91089508950E9427
:102E1000B7150E9406170E94A101C0E0D0E00E94F1
:102E2000C4032097E1F30E940000F9CFCF92DF9214
:102E3000EF92FF920F931F93CF93DF937C016A0170
:102E4000EB0100E010E00C151D0571F06991D70150
:102E5000ED91FC910190F081E02DC7010995892B3E
:102E600019F00F5F1F4FEFCFC801DF91CF911F9176
:102E70000F91FF90EF90DF90CF900895611571054D
:102E800081F0DB010D900020E9F7AD0141505109BF
:102E9000461B570BDC01ED91FC910280F381E02D84
:102EA000099480E090E008950C943E17DC01ED91C8
:102EB000FC910190F081E02D09948F929F92AF9246
:102EC000BF92DF92EF92FF920F931F93CF93DF9306
:102ED000CDB7DEB7A1970FB6F894DEBF0FBECDBF5A
:102EE0007C01F42FD52ECB0119A2223008F42AE060
:102EF0008E010F5D1F4F822E912CA12CB12C6F2FB4
:102F00007D2DA50194010E94CF19F22FD32ECA0165
:102F1000015011096A3014F4E0E301C0E7E3E60F61
:102F2000D801EC93232B242B252B49F7B801C7019B
:102F30000E943E17A1960FB6F894DEBF0FBECDBF1C
:102F4000DF91CF911F910F91FF90EF90DF90BF9095
:102F5000AF909F908F900895CF92DF92EF92FF9263
:102F60000F931F93CF93DF93EC016A017B0121152F
:102F7000310579F4E881F9810190F081E02D642F29
:102F8000DF91CF911F910F91FF90EF90DF90CF9045
:102F900009942A303105E9F477FF1AC06DE20E94E6
:102FA00056178C0144275527BA014C195D096E0943
:102FB0007F092AE0CE010E945D17800F911FDF91EB
:102FC000CF911F910F91FF90EF90DF90CF900895D8
:102FD0002AE0B701A601CE01DF91CF911F910F9199
:102FE000FF90EF90DF90CF900C945D172115310585
:102FF00041F4DC01ED91FC910190F081E02D642F12
:1030000009940C945D179A01462F50E060E070E03F
:103010000C94F6174F925F926F927F92AF92BF928D
:10302000CF92DF92EF92FF920F931F93CF93DF9394
:10303000CDB7DEB729013A01621B730B840B950BE8
:1030400029893A894B895C892A193B094C095D0910
:10305000298B3A8B4B8B5C8B9B01AC0169897A89FC
:103060008B899C890E949719E418F50806091709AD
:10307000A80197010E94F1192A0D3B1D4C1D5D1DF1
:10308000CA01B901DF91CF911F910F91FF90EF908D
:10309000DF90CF90BF90AF907F906F905F904F90F8
:1030A00008950895BCD088F09F5790F0B92F9927C4
:1030B000B751A0F0D1F0660F771F881F991F1AF043
:1030C000BA95C9F712C0B13081F0C3D0B1E008950C
:1030D000C0C0672F782F8827B85F39F0B93FCCF38D
:1030E000869577956795B395D9F73EF49095809539
:1030F000709561957F4F8F4F9F4F0895E89409C059
:1031000097FB3EF490958095709561957F4F8F4F1A
:103110009F4F9923A9F0F92F96E9BB279395F69530
:10312000879577956795B795F111F8CFFAF4BB0FAE
:1031300011F460FF1BC06F5F7F4F8F4F9F4F16C012
:10314000882311F096E911C0772321F09EE8872F9C
:10315000762F05C0662371F096E8862F70E060E058
:103160002AF09A95660F771F881FDAF7880F9695D1
:10317000879597F90895990F0008550FAA0BE0E875
:10318000FEEF16161706E807F907C0F01216130629
:10319000E407F50798F0621B730B840B950B39F469
:1031A0000A2661F0232B242B252B21F408950A26CF
:1031B00009F4A140A6958FEF811D811D089597F90F
:1031C0009F6780E870E060E008959FEF80EC0895CD
:1031D00000240A94161617061806090608950024F6
:1031E0000A9412161306140605060895092E039470
:1031F000000C11F4882352F0BB0F40F4BF2B11F4E4
:1032000060FF04C06F5F7F4F8F4F9F4F089557FD42
:103210009058440F551F59F05F3F71F04795880F44
:1032200097FB991F61F09F3F79F0879508951216DB
:1032300013061406551FF2CF4695F1DF08C0161687
:1032400017061806991FF1CF869571056105089438
:103250000895E894BB2766277727CB0197F908954F
:103260008ADF08F48FEF08950BD0C0CFB1DF28F0CC
:10327000B6DF18F0952309F0A2CFA7CF1124EACF2B
:10328000C6DFA0F3959FD1F3950F50E0551F629FC5
:10329000F001729FBB27F00DB11D639FAA27F00DAF
:1032A000B11DAA1F649F6627B00DA11D661F829FD6
:1032B0002227B00DA11D621F739FB00DA11D621FBB
:1032C000839FA00D611D221F749F3327A00D611DD8
:1032D000231F849F600D211D822F762F6A2F1124BA
:1032E0009F5750408AF0E1F088234AF0EE0FFF1F0D
:1032F000BB1F661F771F881F91505040A9F79E3F44
:10330000510570F05CCFA6CF5F3FECF3983EDCF345
:10331000869577956795B795F795E7959F5FC1F780
:10332000FE2B880F911D9695879597F90895DB01DF
:103330008F939F930E94171ABF91AF91A29F800D08
:10334000911DA39F900DB29F900D11240895AA1B6B
:10335000BB1B51E107C0AA1FBB1FA617B70710F080
:10336000A61BB70B881F991F5A95A9F780959095B2
:10337000BC01CD01089597FB072E16F4009407D0E9
:1033800077FD09D00E94A71907FC05D03EF490955F
:1033900081959F4F0895709561957F4F0895A1E2A3
:1033A0001A2EAA1BBB1BFD010DC0AA1FBB1FEE1FBF
:1033B000FF1FA217B307E407F50720F0A21BB30B0A
:1033C000E40BF50B661F771F881F991F1A9469F786
:1033D00060957095809590959B01AC01BD01CF01E2
:1033E0000895052E97FB1EF400940E94081A57FDBD
:1033F00007D00E94CF1907FC03D04EF40C94081A92
:1034000050954095309521953F4F4F4F5F4F089510
:1034100090958095709561957F4F8F4F9F4F089540
:103420000E94281AB7FF0895821B930B08950E94EB
:10343000281AA59F900DB49F900DA49F800D911DFB
:1034400011240895EE0FFF1F0590F491E02D0994CB
:10345000A29FB001B39FC001A39F700D811D1124D5
:10346000911DB29F700D811D1124911D0895F89436
:02347000FFCF8C
:103472000100000040400101FF8000BB01C301C9FF
:10348200018032000000010000400014005400429C
:103492006F6F74696E67004265726B616E61005294
:1034A2006561647900202020202020202020202017
:1034B2002020202020004B656C6C65792059656CBA
:1034C2006C6F77004B656C6C657920526564004BBC
:1034D200656C6C657920426C7565004B656C6C653A
:1034E2007920477265656E004B656C6C657920507A
:1034F2007572706C65004B656C6C657920576869F4
:103502007465004B656C6C6579206469616C00526E
:1035120061696E626F7720636861736500526169E9
:103522006E626F77206379636C65005061747465B5
:10353200726E00436F6C6F720053706565640000B9
:103542000000009709A3099800AF09950000000048
:1035520000680A3B0A100A180A2B0A3A0A000000FD
:0635620000B8111617006D
:00000001FF
