:100000000C946C000C9494000C9494000C94940048
:100010000C9494000C9494000C9494000C94940010
:100020000C9494000C9494000C9494000C94940000
:100030000C9494000C9494000C9494000C949400F0
:100040000C94DD160C9494000C942F1A0C94611AE5
:100050000C9494000C9494000C9494000C949400D0
:100060000C94410D0C9494004000FF000000FF0030
:10007000A000FF006000FF00C000FF00FF000000C4
:100080000000000800020100000304070000000057
:100090000000000001020408102040800102040852
:1000A00010200102040810200404040404040404C1
:1000B0000202020202020303030303030000000022
:1000C000250028002B0000000000240027002A0043
:1000D000E60A570C5015911A11241FBECFEFD8E035
:1000E000DEBFCDBF12E0A0E0B1E0EEE0FCE302C075
:1000F00005900D92A638B107D9F724E0A6E8B2E042
:1001000001C01D92A43CB207E1F710E0C8EDD0E0B9
:1001100004C02297FE010E94F21DC03DD107C9F71D
:100120000E94D51A0C94051E0C94000080E991E001
:100130000895239A0895FC0160810C94C813CF930D
:10014000DF93EC01688170E085E00E94F31769811C
:1001500070E086E00E94F3176A8170E083E0DF912F
:10016000CF910C94F3172091CE023091CF0226301C
:100170003105DCF4F901EE0FFF1FEE0FFF1FE85908
:10018000FF4F85919591A591B4919093E002809352
:10019000DF02F901EE0FFF1FEE0FFF1FE659FF4FC1
:1001A00085919591A591B4910DC02630310571F4DA
:1001B0008091D20290E09093E0028093DF028091E0
:1001C000080190E09093E2028093E1028091D502D1
:1001D0009091D602A091D702B091D8024091D90255
:1001E0005091DA026091DB027091DC02841B950B66
:1001F000A60BB70B409114015091150160911601A7
:1002000070911701481759076A077B07ACF460E043
:1002100070E0CB010E9456178091D5029091D602D2
:10022000A091D702B091D8028093D9029093DA02BC
:10023000A093DB02B093DC0208950F931F93CF933A
:10024000DF9300D01F92CDB7DEB71FEF19831A825C
:100250001B82CE0101960E949F0019831A821B8285
:10026000AE014F5F5F4F6CE070E083EE92E00E9462
:10027000111380EE93E00E949B0064EF71E080E038
:1002800090E00E945617198200E80A831B82CE0173
:1002900001960E949F0019820A831B82AE014F5F64
:1002A0005F4F6CE070E083EE92E00E94111380EEED
:1002B00093E00E949B0064EF71E080E090E00E9478
:1002C000561719821A821B83CE0101960E949F0045
:1002D00019821A821B83AE014F5F5F4F6CE070E0A2
:1002E00083EE92E00E94111380EE93E00E949B0047
:1002F00064EF71E080E090E00E94561719821A8244
:100300001B82CE0101960E949F0019821A821B82D5
:10031000AE014F5F5F4F6CE070E083EE92E00E94B1
:10032000111380EE93E00E949B0064EF71E080E087
:1003300090E00E9456170F900F900F90DF91CF9191
:100340001F910F910895CF93DF9300D01F92CDB7E7
:10035000DEB740ED57E060E070E087EE93E00E948A
:10036000441620E032EC41E050E067E274E087EEB2
:1003700093E00E94571687EE93E00E94411661E2D7
:1003800071E080911804909119040E94221B6AE088
:1003900070E080E090E00E94561741E060E087EE58
:1003A00093E00E94C21620E042E060E180EA92E021
:1003B0000E94F61163E371E080EA92E00E94221B42
:1003C00061E080EA92E00E94611068EB7BE080E0EF
:1003D00090E00E94561780919802811145C01092BA
:1003E0008A02109289028FEF80938D0280938E0291
:1003F00080938F0280939002809391028093920267
:1004000081E08093930210929502109294021092D0
:100410008C0210928B028091DE039091DF03892B76
:1004200031F487E892E09093DF038093DE03E0915C
:10043000DC03F091DD03309721F087E892E09583AB
:10044000848387E892E09093DD038093DC0310922D
:100450009702109296028CEF91E09093880280931D
:10046000870281E08093980220E030E04CE050E089
:1004700063EE72E087E892E00E94151519821A82F5
:100480001B82AE014F5F5F4F6CE070E083EE92E045
:100490000E94111380EE93E00E949B0068EC70E0D4
:1004A00080E090E00E94561761E085E00E947B1892
:1004B00061E086E00E947B1861E083E00E947B1887
:1004C0000E941D0180EA92E00E94BA1162E080EA77
:1004D00092E00E94611040E060E080EA92E00E94B9
:1004E000C1116BE371E080EA92E00E94221B41E0BF
:1004F00060E080EA92E00E94C11163E471E080EA6A
:1005000092E00E94221B6EEE72E080E090E00E947A
:1005100056170E9427176093D9027093DA028093CE
:10052000DB029093DC020E9427176093BE02709357
:10053000BF028093C0029093C1021092D402109225
:10054000D3022091DD023091DE02F901EE0FFF1F90
:10055000EE0FFF1FE859FF4F85919591A591B4913A
:100560009093E0028093DF02F901EE0FFF1FEE0F80
:10057000FF1FE659FF4F85919591A591B4919093F6
:10058000E2028093E1020F900F900F90DF91CF91E4
:100590000895CF92DF92EF92FF92CF93DF9300D036
:1005A0001F92CDB7DEB76091D5027091D6028091CF
:1005B000D7029091D802C090D902D090DA02E09090
:1005C000DB02F090DC026C197D098E099F090E9404
:1005D0004E1C6B017C01609114017091150180919A
:1005E0001601909117010E944E1C2AE939E949E150
:1005F0005EE30E94021D9B01AC01C701B6010E948F
:10060000FE1C18160CF041C060E070E0CB010E94A7
:1006100056178091D5029091D602A091D702B09141
:10062000D8028093D9029093DA02A093DB02B093B0
:10063000DC0290911301809105012FEF280F209388
:10064000050189838FEF8A839B838091BC029091FF
:10065000BD026CE070E00E94891DBC01660F771F2F
:10066000680F791F6D517D4FCE0101960E94631571
:1006700080EE93E00E949B008091BC029091BD02AD
:1006800001969093BD028093BC020F900F900F9043
:10069000DF91CF91FF90EF90DF90CF900895CF92B0
:1006A000DF92EF92FF92CF93DF9300D000D000D083
:1006B000CDB7DEB76091D5027091D6028091D70296
:1006C0009091D802C090D902D090DA02E090DB027B
:1006D000F090DC026C197D098E099F090E944E1C66
:1006E0006B017C01609114017091150180911601DC
:1006F000909117010E944E1C20E030E040E05FE343
:100700000E94021D9B01AC01C701B6010E94FE1CA4
:1007100018168CF560E070E0CB010E9456178091AE
:10072000D5029091D602A091D702B091D8028093C1
:10073000D9029093DA02A093DB02B093DC0290918D
:100740001301809104012FEF280F209304018C8363
:100750008FEF8D839E83BE016F5F7F4FCE01049626
:100760000E9463154091E003BE016F5F7F4F80EEF2
:1007700093E00E94491426960FB6F894DEBF0FBE90
:10078000CDBFDF91CF91FF90EF90DF90CF90089594
:100790008091CC029091CD028730910584F481E064
:1007A000809307011092D1021092D0028091C6026C
:1007B0009091C7029093CF028093CE020895873024
:1007C000910541F41092070181E08093D1021092CB
:1007D000D0020895089739F4109207011092D102BF
:1007E00081E08093D0020895AF92BF92CF92DF92C2
:1007F000EF92FF920F931F93CF93DF9300D000D01F
:1008000000D0CDB7DEB70E942717672B682B692B66
:1008100041F40E942717623071058105910508F4A3
:1008200076C00E9427176093090370930A03809390
:100830000B0390930C0300910D0310910E03209174
:100840000F0330911003601771078207930740F47C
:1008500060930D0370930E0380930F039093100326
:1008600000910D0310910E0320910F03309110039E
:100870006B017C01C01AD10AE20AF30A97018601D2
:100880000A3F11052105310508F441C060930D03AD
:1008900070930E0380930F039093100387EE93E001
:1008A0000E94411669E471E0809118049091190446
:1008B0000E94221B61E571E0809118049091190457
:1008C0000E94221B0E942717AB01BC012AE030E0E6
:1008D00080911804909119040E94C41B63E571E093
:1008E00080911804909119040E94221B65E070E029
:1008F00080E090E00E9456176AE070E080E090E0AF
:100900000E94561761E087EE93E00E9484168EE005
:100910000E94D61790930A0180930901BC01882791
:1009200077FD8095982F1F921F921F922FEF2F9384
:10093000A12CB12C6501EE24EA9413E0F12E00E025
:1009400010E020E030E0A9010E94D81B7093C302A0
:100950006093C2022091130130E00F900F900F902E
:100960000F902617370711F0609313018091130140
:10097000909108012091D2022C839D838E83BE0129
:100980006F5F7F4FCE0104960E946315CE010196E2
:100990000E949F0041E060E080EA92E00E94C11165
:1009A000E091CC02F091CD02EE0FFF1FE35FFE4F0E
:1009B0006081718180EA92E00E94221B0E942717C9
:1009C0000091BE021091BF022091C0023091C1027D
:1009D000601B710B820B930B61317742810591058E
:1009E00028F18091CC029091CD020997FCF480917E
:1009F000060181110FC040E060E080EA92E00E94B1
:100A0000C1116CE571E080EA92E00E94221B81E056
:100A10008093060140E060E080EA92E00E94C1110C
:100A20006BE371E080EA92E00E94221B80EA92E090
:100A30000E94DE12182F0E942717C090BE02D0908D
:100A4000BF02E090C002F090C1026C197D098E09CE
:100A50009F096E3471408105910508F496C11123F8
:100A600009F493C180EA92E00E94BA1140E060E08C
:100A700080EA92E00E94C111812F8870E82E13FF56
:100A800029C08091CA029091CB02009721F48091F5
:100A90000B0190910C0101979093CB028093CA02B5
:100AA0000E9427176093BE027093BF028093C0021A
:100AB0009093C10210920601E091CA02F091CB021C
:100AC000EE0FFF1FE35FFE4F6081718180EA92E0CD
:100AD0000E94221B212F2470F22E12FF31C0209180
:100AE000CA023091CB0280910B0190910C010197C9
:100AF0002817390729F41092CB021092CA0206C0B7
:100B00002F5F3F4F3093CB022093CA020E942717DA
:100B10006093BE027093BF028093C0029093C102A3
:100B200010920601E091CA02F091CB02EE0FFF1F76
:100B3000E35FFE4F6081718180EA92E00E94221B98
:100B40008091CC029091CD02012F0170029709F0A3
:100B500077C040E060E080EA92E00E94C11114FF9B
:100B600029C04091140150911501609116017091B6
:100B700017014333510561057105E4F042535109F2
:100B80006109710940931401509315016093160196
:100B9000709317012AE030E080EA92E00E947A1B0D
:100BA0000E9427176093BE027093BF028093C00219
:100BB0009093C10211FF2AC0409114015091150178
:100BC0006091160170911701483883E1580761055B
:100BD0007105E4F44E5C5F4F6F4F7F4F40931401FB
:100BE0005093150160931601709317012AE030E0CD
:100BF00080EA92E00E947A1B0E9427176093BE024F
:100C00007093BF028093C0029093C1020023C1F091
:100C10008091C8029091C9029093CD028093CC023A
:100C200080EA92E00E94BA1140E060E080EA92E03F
:100C30000E94C1116BE371E080EA92E00E94221BE6
:100C40008091CC029091CD02019709F07CC040E0E8
:100C500060E080EA92E00E94C11114FF15C060912B
:100C6000D20261506093D2024AE050E080EA92E002
:100C70000E94D11B0E9427176093BE027093BF028F
:100C80008093C0029093C10211FF15C06091D202FF
:100C90006F5F6093D2024AE050E080EA92E00E94E7
:100CA000D11B0E9427176093BE027093BF028093EE
:100CB000C0029093C102EE20A9F0609108016F5F1D
:100CC000609308014AE050E080EA92E00E94D11B64
:100CD0000E9427176093BE027093BF028093C002E8
:100CE0009093C102FF20A9F06091080161506093C8
:100CF00008014AE050E080EA92E00E94D11B0E9485
:100D000027176093BE027093BF028093C002909336
:100D1000C1020023D1F18091C8029091C902909341
:100D2000CD028093CC0280EA92E00E94BA1140E0AA
:100D300060E080EA92E00E94C1116BE371E080EA1A
:100D400092E00E94221B002301F18091CC0290913D
:100D5000CD029093C9028093C8028091CA029091FB
:100D6000CB029093CD028093CC0280EA92E00E9465
:100D7000BA1140E060E080EA92E00E94C1116BE3AA
:100D800071E080EA92E00E94221B0E94C8030E9448
:100D900027176093D5027093D6028093D702909361
:100DA000D8028091070181110E94B3008091D10285
:100DB00081110E94C9028091D00281110E944F03CB
:100DC00026960FB6F894DEBF0FBECDBFDF91CF9150
:100DD0001F910F91FF90EF90DF90CF90BF90AF9059
:100DE00008958F929F92AF92BF92CF92DF92EF922F
:100DF000FF920F931F93CF93DF93EC01E881F9816A
:100E000095B1986085B1877F85B938852D81D32EBE
:100E1000D21ADD82AD84AA81BB812B859C848A8411
:100E2000EE80FC8079851F810990D881C02D0981D1
:100E3000002331F0402F0D2D400F08F44FEF01C07B
:100E400040E0042F029F012D1124C0E04C2F5C2FA5
:100E50006C2F002CEA01CC2E4C2D5D2F95B900C0D3
:100E600000C000C000C000C007FF85B962814427F0
:100E7000889400C000C000C000C000C000C0002CAA
:100E800085B961116E0D00C000C0002C00C000C00B
:100E900095B900C000C000C000C000C006FF85B901
:100EA00008F46FEF889400C000C000C000C000C00C
:100EB00000C000C085B990FC460F00C000C0002CE7
:100EC00000C000C095B900C000C000C000C000C094
:100ED00005FF85B94795889491FC460F00C000C076
:100EE00000C000C000C000C0002C85B947958894A0
:100EF00000C000C0002C00C000C095B900C000C0F8
:100F000000C000C000C004FF85B992FC460F4795A1
:100F1000889400C000C000C000C000C000C0002C09
:100F200085B993FC460F00C000C0002C00C000C073
:100F300095B900C000C000C000C000C003FF85B963
:100F40004795889494FC460F00C000C000C000C0C4
:100F500000C000C0002C85B94795889400C000C02F
:100F6000002C00C000C095B900C000C000C000C087
:100F700000C002FF85B995FC460F4795889400C0D4
:100F800000C000C000C000C000C0002C85B996FCA5
:100F9000460F00C000C0002C00C000C095B900C0C2
:100FA00000C000C000C000C001FF85B9479588940B
:100FB00097FC460F00C000C000C000C000C000C0C9
:100FC000002C85B94795889400C000C0002C00C053
:100FD00000C095B900C000C000C000C000C000FF44
:100FE00085B9E194E70E00C000C000C000C000C099
:100FF00000C000C0002C85B9042F00C000C000C094
:1010000000C000C095B900C000C000C000C000C052
:1010100007FF85B960814427889400C000C000C0E4
:1010200000C000C000C0002C85B961116F0D00C068
:1010300000C0002C00C000C095B900C000C000C0B6
:1010400000C000C006FF85B908F46FEF889400C0A7
:1010500000C000C000C000C000C000C085B980FC56
:10106000460F00C000C0002C00C000C095B900C0F1
:1010700000C000C000C000C005FF85B94795889436
:1010800081FC460F00C000C000C000C000C000C00E
:10109000002C85B94795889400C000C0002C00C082
:1010A00000C095B900C000C000C000C000C004FF6F
:1010B00085B982FC460F4795889400C000C000C0E7
:1010C00000C000C000C0002C85B983FC460F00C0E2
:1010D00000C0002C00C000C095B900C000C000C016
:1010E00000C000C003FF85B94795889484FC460F73
:1010F00000C000C000C000C000C000C0002C85B906
:101100004795889400C000C0002C00C000C095B96D
:1011100000C000C000C000C000C002FF85B985FC4F
:10112000460F4795889400C000C000C000C000C0B2
:1011300000C0002C85B986FC460F00C000C0002C02
:1011400000C000C095B900C000C000C000C000C011
:1011500001FF85B94795889487FC460F00C000C001
:1011600000C000C000C000C0002C85B9479588941D
:1011700000C000C0002C00C000C095B900C000C075
:1011800000C000C000C000FF85B9EA0DF11D8894C1
:10119000042F00C000C000C000C000C000C0002C70
:1011A00085B9F194F10E00C000C0002C00C000C051
:1011B00095B900C000C000C000C000C007FF85B9DD
:1011C00061814427889400C000C000C000C000C0F6
:1011D00000C0002C85B961116D0D00C000C0002C4D
:1011E00000C000C095B900C000C000C000C000C071
:1011F00006FF85B908F46FEF889400C000C000C0F6
:1012000000C000C000C000C085B920FD460F00C06E
:1012100000C0002C00C000C095B900C000C000C0D4
:1012200000C000C005FF85B94795889421FD460F91
:1012300000C000C000C000C000C000C0002C85B9C4
:101240004795889400C000C0002C00C000C095B92C
:1012500000C000C000C000C000C004FF85B922FD6E
:10126000460F4795889400C000C000C000C000C071
:1012700000C0002C85B923FD460F00C000C0002C23
:1012800000C000C095B900C000C000C000C000C0D0
:1012900003FF85B94795889424FD460F00C000C020
:1012A00000C000C000C000C0002C85B947958894DC
:1012B00000C000C0002C00C000C095B900C000C034
:1012C00000C000C000C002FF85B925FD460F47954C
:1012D000889400C000C000C000C000C000C0002C46
:1012E00085B926FD460F00C000C0002C00C000C01C
:1012F00095B900C000C000C000C000C001FF85B9A2
:101300004795889427FD460F00C000C000C000C06C
:1013100000C000C0002C85B94795889400C000C06B
:10132000002C00C000C095B900C000C000C000C0C3
:1013300000C000FF85B9D194D30E042F00C000C0B7
:1013400000C000C000C000C000C085B900C000C01F
:10135000002C119709F082CDDF91CF911F910F9151
:10136000FF90EF90DF90CF90BF90AF909F908F90C5
:101370000895FF920F931F93CF93DF93EC01809119
:1013800086028F5F982F97709093860280FD02C02F
:1013900080E001C080E891FD8064947009F0806273
:1013A00030E1F32EF80E20E030E000E011E0FE0125
:1013B000E20FF31F6285662331F070E0C8010E94DE
:1013C000891D6F5F01C060E067834F2D469F412DEF
:1013D00011244483662311F0615067832F5F3F4FD0
:1013E0002330310521F7DF91CF911F910F91FF90AD
:1013F0000895AF92BF92CF92DF92EF92FF920F9338
:10140000CF93DF93CDB7DEB72E970FB6F894DEBF3C
:101410000FBECDBF6C015A01F901DC011C968C9105
:101420007A8369835C834B8390819B8791819C87BE
:1014300092819D87813029F4CE0101960E94B909DD
:1014400006C01A86198618861F821E821D8289810F
:101450009A818E0D911D9A838983002319F083E070
:101460008E0D01C080E08E870E943317F60127851C
:101470003089621B730B6A307105B0F3F894CE01AA
:1014800001960E94F10620EF33E0D5010E94DE1D97
:10149000E4E09695879577956795EA95D1F720E0F2
:1014A00030E04AE9A49E212DB49E200D311D112467
:1014B000620F731F811D911D693EF3E07F07810557
:1014C0009105A8F1DC01CB01885E9340A109B10927
:1014D00042E0B695A795979587954A95D1F740E054
:1014E00050E027E0829F412D929F400D511D112415
:1014F0002091110330E0280F391F240F351F8091F0
:101500001F0490912004A0912104B0912204432F44
:101510005527840F951FA11DB11D80931F04909323
:101520002004A0932104B093220420931103789403
:101530000E943317D60150967C936E931F972E9678
:101540000FB6F894DEBF0FBECDBFDF91CF910F91E4
:10155000FF90EF90DF90CF90BF90AF900895EF9203
:10156000FF920F93E12CF12C00E00E94F9090F91FA
:10157000FF90EF900895EF92FF920F93E12CF12CE2
:1015800001E00E94F9090F91FF90EF900895EF920A
:10159000FF920F93CF93DF9300D01F92CDB7DEB7AA
:1015A000AB0119821A821B82E12CF12C00E09E0112
:1015B0002F5F3F4FB9010E94F9090F900F900F90D4
:1015C000DF91CF910F91FF90EF900895CF92DF922E
:1015D000EF92FF92CF93DF93C0911301D0E0BE0151
:1015E000882777FD8095982F0E944E1C6B017C0107
:1015F00023EC35EF48E25FE30E94021D0E94201CAD
:101600006093080323EC35EF48EA5EE3C701B601B7
:101610000E94021D0E94201C609307038091CC024F
:101620009091CD029093CB028093CA029093C9020D
:101630008093C8028091C6029091C7029093C50220
:101640008093C402D093C302C093C20280EA92E0A6
:10165000DF91CF91FF90EF90DF90CF900C943410FA
:101660008091420390E020914303821B91090895E9
:101670002091430380914203281750F4E22FF0E0B9
:10168000EC5BFC4F808190E02F5F20934303089533
:101690008FEF9FEF0895E091430380914203E81795
:1016A00030F4F0E0EC5BFC4F808190E008958FEF28
:1016B0009FEF08950895CF92DF92EF92FF920F93DC
:1016C0001F93CF93DF937C01CB018A0120911E03EE
:1016D000222389F0EB016B01C40ED51ECC15DD056C
:1016E00069F06991D701ED91FC910190F081E02DB5
:1016F000C7010995F3CF642F0E94180DC801DF912F
:10170000CF911F910F91FF90EF90DF90CF900895B0
:10171000CF93DF931F92CDB7DEB7698320911E036D
:101720002223D1F020911F03203240F021E030E04D
:10173000FC013383228380E090E015C08091200378
:10174000E82FF0E0EF5DFC4F998190838F5F8093ED
:10175000200380931F0305C061E0CE0101960E9423
:10176000180D81E090E00F90DF91CF910895FC017A
:101770001382128248EE53E060E070E044835583A8
:10178000668377838AE092E0918380830895109244
:101790004303109242031092200310921F030C94F3
:1017A0005B0C81E080931E03609341031092200341
:1017B00010921F0308950C94D10B0F93062F21E074
:1017C00040911F0361E273E0809141030E94C10CCC
:1017D0001092200310921F0310921E030F91089580
:1017E0008F929F92AF92BF92CF92DF92EF92FF9231
:1017F0000F931F93CF93DF93EC01F62ED42E480165
:101800005901EE2019F10E94D10B1E2D143008F061
:1018100013E01150B8F0E881F98128E0129FB0017F
:101820001124A501940104C0569547953795279535
:101830006A95D2F7CA01B9010190F081E02DCE017D
:101840000995E7CF60E0CE010E94DD0B4D2D4132BE
:1018500008F040E22C2D64E473E08F2D0E94790C97
:101860001092430380934203DF91CF911F910F9118
:10187000FF90EF90DF90CF90BF90AF909F908F90B0
:101880000895CF92EF920F931F93C22EE12C00E0A8
:1018900010E098010E94F00B1F910F91EF90CF90F4
:1018A000089521E00C94410C61E00C94DD0B82E181
:1018B00093E00C94B70B1092D10381E08093CF0397
:1018C0001092CE0361E082E10E94B41861E083E1EE
:1018D0000E94B418E9EBF0E080818E7F80838081E4
:1018E0008D7F808388E48093B80085E48093BC007A
:1018F0000895413208F043C09091D1039111FCCF7B
:1019000091E09093D1032093CF032FEF20936403B2
:101910001092A903240F2093A8039093D0039091D1
:10192000D003880F892B8093D0038091CE03813020
:1019300061F41092CE038091D0038093BB0080911C
:10194000BC0083FDF8CF85EC01C085EE8093BC0020
:101950008091D1038130E1F38091A903841710F4C1
:101960004091A9032AEA33E0FB01D9018A2F821BA7
:10197000841718F48D918193F9CF842F089580E016
:1019800008950F93413208F04AC09091D10391110C
:10199000FCCF92E09093D1030093CF039FEF9093FD
:1019A00064031092A9034093A803FB016AEA73E061
:1019B000DB019A2F961B941718F491919D93F9CF00
:1019C0001092D0039091D003880F892B8093D0037D
:1019D0008091CE03813061F41092CE038091D003C8
:1019E0008093BB008091BC0083FDF8CF85EC01C0E3
:1019F00085EE8093BC00222321F08091D1038230B8
:101A0000E1F3809164038F3F61F080916403803241
:101A100051F080916403803341F483E007C081E09A
:101A200005C080E003C082E001C084E00F9108950A
:101A3000613298F42091D103243089F460938603B5
:101A4000FC0188E893E0DC012A2F281B261718F4F4
:101A500021912D93F9CF80E0089581E0089582E0EF
:101A6000089585ED8093BC008091BC0084FDFCCF7F
:101A70001092D103089585EC8093BC001092D1039D
:101A800008951F920F920FB60F9211242F933F9338
:101A90004F935F936F937F938F939F93AF93BF9376
:101AA000EF93FF938091B900887F803609F49EC040
:101AB00078F5883209F45DC090F4803109F456C09D
:101AC00038F4882309F4F5C0883009F44FC0F5C014
:101AD000883109F44EC0803209F45FC0EEC0803412
:101AE00009F46AC058F4803309F457C0883309F008
:101AF000E4C0809364030E943B0DDFC0803509F48D
:101B00004FC0883509F45DC0883409F0D6C0D3C011
:101B1000883909F4C4C0A8F4883709F467C038F4D8
:101B2000883609F463C0803709F460C0C6C08838BD
:101B300009F4B5C0803909F45FC0803809F0BDC030
:101B40005BC0803B09F483C038F4803A09F466C076
:101B5000883A09F47CC0B1C0803C09F4A4C0883C38
:101B600009F4A1C0883B09F487C0A7C08091D003C5
:101B700010C09091A9038091A803981770F5E09187
:101B8000A90381E08E0F8093A903F0E0E655FC4F96
:101B900080818093BB0085EC83C0809364038BC0FD
:101BA000E091A90381E08E0F8093A9038091BB008F
:101BB000F0E0E655FC4F80839091A9038091A80343
:101BC0006BC0E091A90381E08E0F8093A9038091FF
:101BD000BB00F0E0E655FC4F80838091CF0381117C
:101BE0006AC081E08093CE0384EA5EC083E0809384
:101BF000D10310926503CFCF80916503803208F046
:101C00004EC0E091650381E08E0F80936503809163
:101C1000BB00F0E0EA59FC4F8083BDCF0E943B0D32
:101C200080916503803230F4E0916503F0E0EA5979
:101C3000FC4F10826091650370E0E091CA03F0915F
:101C4000CB0386E693E009951092650336C084E0E5
:101C50008093D1031092870310928603E091CC0306
:101C6000F091CD03099580918603811105C081E033
:101C70008093860310928803E091870381E08E0FA2
:101C800080938703F0E0E857FC4F80818093BB008E
:101C90009091870380918603981708F47CCF85E89C
:101CA0008093BC000AC085EC8093BC001092D103E5
:101CB00004C0109264030E94310DFF91EF91BF9117
:101CC000AF919F918F917F916F915F914F913F91D4
:101CD0002F910F900FBE0F901F901895682F82E1E3
:101CE00093E00C94880BCF93DF93EC01683008F0FD
:101CF00067E0688382E193E00E94C70B68816062BD
:101D000070E082E193E00E94DB0B80E00E946E0EA7
:101D10008FEF0E946E0E82E193E00E94540C688166
:101D2000606270E082E193E00E94DB0B81E00E9440
:101D30006E0E8FEF0E946E0E82E193E0DF91CF91E5
:101D40000C94540C60E00C94730ECF93DF93D62F59
:101D5000C72FFC0190819062692F70E082E193E0CF
:101D60000E94DB0B82E10E946E0E8D2F0E946E0E90
:101D70008C2F0E946E0E82E193E0DF91CF910C9444
:101D8000540CFF920F931F93CF93DF93EC01162F08
:101D9000F42E603108F045C0683018F018500DE09E
:101DA00001C00CE06881606270E082E193E00E9413
:101DB000DB0B802F0E946E0E82E193E00E94540C98
:101DC0006881606270E041E050E082E193E00E944F
:101DD000510C82E193E00E94380B91E021E030E069
:101DE00001C0220F1A95EAF7122FF91202C0182B20
:101DF00002C0109518236881606270E082E193E070
:101E00000E94DB0B802F0E946E0E812F0E946E0EAF
:101E100082E193E0DF91CF911F910F91FF900C949D
:101E2000540CDF91CF911F910F91FF9008950F9364
:101E30001F93CF93DF93EC01162F603148F5683084
:101E400018F0185003E101C002E16881606270E09F
:101E500082E193E00E94DB0B802F0E946E0E82E1F4
:101E600093E00E94540C6881606270E041E050E0B1
:101E700082E193E00E94510C82E193E00E94380BD2
:101E8000992702C0959587951A95E2F7817001C050
:101E900080E0DF91CF911F910F910895CF93DF9351
:101EA000EC016881606270E082E193E00E94DB0BEC
:101EB00082E10E946E0E82E193E00E94540C6881E0
:101EC000606270E042E050E082E193E00E94510CD9
:101ED00082E193E00E94380BC82F82E193E00E94D8
:101EE000380B982F88278C2BDF91CF910895FF9284
:101EF0000F931F93CF93DF93EC01162FF42E6031D5
:101F000008F044C0683018F0185001E001C000E04B
:101F10006881606270E082E193E00E94DB0B802FB9
:101F20000E946E0E82E193E00E94540C6881606210
:101F300070E041E050E082E193E00E94510C82E1C8
:101F400093E00E94380B21E030E001C0220F1A9587
:101F5000EAF7122FF11002C0182B02C010951823B7
:101F60006881606270E082E193E00E94DB0B802F69
:101F70000E946E0E812F0E946E0E82E193E0DF912F
:101F8000CF911F910F91FF900C94540CDF91CF9142
:101F90001F910F91FF900895CF92DF92FF920F93C0
:101FA0001F93CF93DF931F92CDB7DEB76C01162F2F
:101FB000F42E603108F04FC0683020F0185025E151
:101FC00003E102C024E102E1F6016081606270E099
:101FD00082E193E029830E94DB0B2981822F0E94FA
:101FE0006E0E82E193E00E94540CF6016081606203
:101FF00070E041E050E082E193E00E94510C82E108
:1020000093E00E94380BF1E021E030E001C0220FA4
:102010001A95EAF7122FFF1202C0182B02C0109572
:102020001823F6016081606270E082E193E00E9413
:10203000DB0B802F0E946E0E812F0E946E0E82E1BC
:1020400093E00F90DF91CF911F910F91FF90DF9060
:10205000CF900C94540C0F90DF91CF911F910F9162
:10206000FF90DF90CF900895FC01138212828AE1E5
:1020700092E091838083128E148A8FE084838EE0B5
:1020800085838DE086838CE087838BE080878AE080
:10209000818789E08287178681E0808B82E0818B4F
:1020A00083E0828B84E0838B0895262FFC01328DA0
:1020B0003F3F19F04B960C94CC0F642F822F0C9459
:1020C000B4180F931F93CF93DF93062FEC016B96F9
:1020D00011E062FB442740F9412768E0CE010E94ED
:1020E000CC0F01FB442740F9412767E0CE010E9455
:1020F000CC0F402F4170412766E0CE01DF91CF9198
:102100001F910F910C94CC0F262FFC01328D3F3F75
:1021100019F04B960C94770F642F822F0C947B1838
:10212000CF93DF93EC0140E06E810E94551081E077
:1021300090E00E94901741E06E81CE010E94551000
:1021400081E090E00E94901740E06E81CE010E94F5
:10215000551084E690E0DF91CF910C949017AF92E8
:10216000BF92CF92DF92EF92FF920F931F93CF9384
:10217000DF93EC018A8DA62EB12C8F3F09F472C03B
:102180007E018BE1E80EF11CC7010E944E0F9C01FD
:1021900080E090E061E070E0FE01E80FF91FE78168
:1021A000CC24C394D12CAB010E2E02C0440F551F7A
:1021B0000A94E2F74095509524233523A501082E73
:1021C00002C0559547950A94E2F74170552702C021
:1021D000440F551FEA95E2F7242B352B01968430E6
:1021E0009105D1F686010E8002C0000F111F0A94DE
:1021F000E2F70095109502231323B801C7010E944E
:10220000A50E81E090E00E94901756010E8002C05A
:10221000AA0CBB1C0A94E2F7A02AB12AB501C70197
:102220000E94A50E81E090E00E949017B6010E80FA
:1022300002C0660F771F0A94E2F7609570956A21D5
:102240007B21C7010E94A50E84E690E0DF91CF912B
:102250001F910F91FF90EF90DF90CF90BF90AF90C4
:102260000C94901700E010E07E01E00EF11E41E0BA
:10227000F7016781CE010E948410A501002E02C0E3
:10228000559547950A94E2F74170F7016781CE01B1
:102290000E9455100F5F1F4F0430110529F7CE0122
:1022A000DF91CF911F910F91FF90EF90DF90CF9032
:1022B000BF90AF900C949010CF92DF92EF92FF926C
:1022C0000F931F93CF93DF938C01C0E0D0E0C62E15
:1022D000D12C7801EC0EFD1E41E0F7016781C801A9
:1022E0000E948410A6010C2E02C0559547950A94B1
:1022F000E2F74170F7016781C8010E9455102196ED
:10230000C830D10531F7C801DF91CF911F910F91EE
:10231000FF90EF90DF90CF900C9490101F93CF938D
:10232000DF93EC01162F6C810E9455106D816F3F79
:1023300021F040E0CE010E9455108C89612F84FF6E
:1023400006C0CE01DF91CF911F910C945C1170E01B
:1023500054E0759567955A95E1F7CE010E94AF104C
:10236000612FCE01DF91CF911F910C94AF1040E00F
:102370000C948E1161E00E94B71180ED97E00C94EF
:102380009017CF93DF93CDB7DEB728970FB6F894A9
:10239000DEBF0FBECDBF28E0E9E1F1E0DE0111961E
:1023A00001900D922A95E1F7FC01208D241710F47D
:1023B0004FEF420FFE013196E40FF11DE40FF11DC6
:1023C0002081260F2068622F28960FB6F894DEBF72
:1023D0000FBECDBFDF91CF910C94B711FC01658981
:1023E000262F2460258B6C600C94B711AF92BF929E
:1023F000CF92DF92EF92FF920F931F93CF93DF93D1
:10240000EC01B42EA22E8A8D8F3F41F481E08B1512
:1024100008F05CC08C8988608C8B58C082E193E0A6
:102420000E94C70B8E01055E1F4FC8010E94A20EBD
:1024300041E068E0C8010E94770F41E066E0C80112
:102440000E94770F41E067E0C8010E94770F67E0C4
:10245000CE010E9461106D81662321F041E0C80128
:102460000E94770F41E06C81C8010E94770F41E024
:102470006E81C8010E94770FE12CF12CFE01EE0D58
:10248000FF1D41E06781C8010E94770FEFEFEE1A50
:10249000FE0AF4E0EF16F10489F7E12CF12C6E014D
:1024A000CE0CDF1C40E0F6016785C8010E94770F63
:1024B00041E0F6016785C8010E94C10EFFEFEF1AE7
:1024C000FF0A85E0E816F10451F7A0CFB88E198E07
:1024D000AA2031F0E1E0BE1203C08C8984608C8BAD
:1024E00080E593EC0E94901740E06C81CE010E9441
:1024F000551040E06E81CE010E9455106D816F3FF6
:1025000021F040E0CE010E9455106C8964FD1DC091
:1025100063E0CE010E94AF1084E991E10E94901720
:1025200063E0CE010E94AF1084E991E10E94901710
:1025300063E0CE010E94AF1086E990E00E94901700
:1025400062E0CE010E94AF1016C06062CE010E9410
:10255000B71184E991E10E9490176C896062CE0105
:102560000E94B71186E990E00E9490176C89606222
:10257000CE010E94B7116C896062CE010E94B71132
:1025800084E08D8BCE010E94EE11CE010E94BA1123
:1025900082E08E8B66E0CE01DF91CF911F910F918B
:1025A000FF90EF90DF90CF90BF90AF900C94B71159
:1025B00041E00E948E1181E090E00895DF92EF9259
:1025C000FF920F931F93CF93DF938C01C0E0D0E075
:1025D0006FE1D62E7C018BE1E80EF11CF801EC0FC7
:1025E000FD1F6785C7010E94170F282F30E00C2EB2
:1025F00002C0220F331F0A94E2F7209530958D2DEB
:1026000090E028233923D22E2196C530D10531F709
:10261000822FDF91CF911F910F91FF90EF90DF906C
:102620000895FA0120E030E00396261737076CF48E
:102630004081DC0113974C93418111964C93428168
:1026400011964C932F5F3F4FEFCF08958F929F923B
:10265000AF92BF92EF92FF920F931F93CF93DF93AE
:10266000EC01188219821A824423B9F1E0E0F0E00B
:102670008B010A5F1F4F7B0189E0E80EF11C842E5D
:10268000912CA12CB12CD801AE0FBF1F2C91D701DA
:10269000AE0FBF1F6C912223E1F06623D1F030E032
:1026A00040E050E02F5F3F4F4F4F5F4F70E080E0C2
:1026B00090E06F5F7F4F8F4F9F4F0E94651D9B0182
:1026C000AC01C501B4010E94651DDE01AE0FBF1F44
:1026D0008C933196E330F105B1F6CE01DF91CF91C5
:1026E0001F910F91FF90EF90BF90AF909F908F90B0
:1026F0000895CF92DF92EF92FF92CF93DF93EC0198
:102700008091D6039091D7039C012F5F3F4F309368
:10271000D7032093D603861797079CF10E942717AB
:102720009B01AC01E091D603F091D70388EE93E0D2
:10273000E89FB001E99F700DF89F700D1124882764
:1027400077FD8095982FC090D203D090D303E0906E
:10275000D403F090D5032C193D094E095F090E945E
:102760009D1D3A8329831092D7031092D6030E94AD
:1027700027176093D2037093D3038093D40390936D
:10278000D503DF91CF91FF90EF90DF90CF90089528
:10279000AF92BF92CF92DF92EF92FF920F931F936F
:1027A000CF93DF9300D01F92CDB7DEB78C01B62E4A
:1027B000F80183819481A581B681892B8A2B8B2B8B
:1027C000D1F00E943317C090D803D090D903E09085
:1027D000DA03F090DB036C197D098E099F09D8019B
:1027E0001396CD90DD90ED90FC9016976C157D05BD
:1027F0008E059F05E8F20E9433176093D80370930B
:10280000D9038093DA039093DB03E090DE03F0902A
:10281000DF03E114F10451F1F701A484D80111960A
:102820008D919C9112978436910508F41486D701F6
:10283000ED91FC91C280D3804B2DB701CE01019662
:102840000E942613F70145855685628173819E019A
:102850002F5F3F4FC701F6010995D7011C96AC9237
:102860001C971496ED90FC901597D3CF69E170E01A
:10287000C8010E9479130F900F900F90DF91CF91B4
:102880001F910F91FF90EF90DF90CF90BF90AF908E
:1028900008958F929F92AF92BF92CF92DF92EF9264
:1028A000FF920F931F93CF93DF9300D01F92CDB76A
:1028B000DEB78C017B01D42EF80183819481A58140
:1028C000B681892B8A2B8B2BD1F00E9433178090F5
:1028D000D8039090D903A090DA03B090DB03681975
:1028E00079098A099B09D80113968D909D90AD9026
:1028F000BC901697681579058A059B05E8F20E9439
:1029000033176093D8037093D9038093DA039093BD
:10291000DB03A090DE03B090DF03A114B10449F102
:10292000F501C484D80111968D919C91129784363B
:10293000910508F41486D501ED91FC918080918079
:102940004D2DB501CE0101960E942613F501458556
:1029500056859E012F5F3F4FB701C501F4010995D0
:10296000D5011C96CC921C971496AD90BC901597EF
:10297000D4CF69E170E0C8010E9479130F900F90E5
:102980000F90DF91CF911F910F91FF90EF90DF900B
:10299000CF90BF90AF909F908F900895CF92DF928D
:1029A000EF92FF920F931F93CF93DF93EC01442399
:1029B000F1F06115710581F19B0140E050E060E4A8
:1029C00072E48FE090E00E94BF1DCB80DC80ED8040
:1029D000FE8089019A010C151D052E053F0510F496
:1029E000970186010B831C832D833E8315C06115DF
:1029F000710571F09B0140E050E060E472E48FE00B
:102A000090E00E94BF1D2B833C834D835E8304C0F6
:102A10001B821C821D821E82DF91CF911F910F911C
:102A2000FF90EF90DF90CF900895CF92DF92EF92DA
:102A3000FF920F931F93CF93DF93EC016B018A01F9
:102A40007901121613061CF07A0100E010E0E8810B
:102A5000F9810480F581E02DCE010995C801880F28
:102A6000991F800F911F8C0D9D1D9B838A83FE866D
:102A7000ED86E881F9810084F185E02DCE0109958C
:102A800041E0BC0180EE93E00E94CE14CE01DF91C4
:102A9000CF911F910F91FF90EF90DF90CF9008950D
:102AA0008FEF8093E0031092E2031092E103089508
:102AB000FC012081222321F0269F212D09F02F5F88
:102AC000FC0120830895FF920F931F93CF93DF9310
:102AD00000D000D0CDB7DEB7FC018B014081F18082
:102AE0005281842F8F71880F880F880F282F35E52A
:102AF000239F212D1124342F3074942F907247FD81
:102B000025C031110EC0911106C0822F80958B8394
:102B10002A8319823FC08BEA8B832B5A2A8319821E
:102B200039C091110DC0382F4AEA349F312D11243C
:102B30009BEA931B9B8325552A83198280E02AC038
:102B40001B8280E0822F80958A8312C0311112C0CF
:102B500091110BC01B82282F3AEA239F212D1124AB
:102B60008BEA821B8A832B5A03C02B831A822095FF
:102B7000298310C0911106C085E5820F8B831A82CC
:102B80008BEA06C08BEA820F8B831A8280E085E590
:102B9000821B89832FEFF21601F16F2DCE01039670
:102BA0005C830E9458156F2DCE0102960E94581525
:102BB0006F2DCE0101960E94581511246F2D60953E
:102BC000669F612D11248B81860F8B838A81860FEE
:102BD0008A838981860F89835C815F3FC9F0F12CEC
:102BE0002F2D552321F0559F212D09F02F5FF22E17
:102BF000622FCE0103960E9458156F2DCE010296CA
:102C00000E9458156F2DCE0101960E94581511246F
:102C10008B81F80180838A818183898182830F90EF
:102C20000F900F900F90DF91CF911F910F91FF9018
:102C300008950F931F93CF93DF93EC01662359F010
:102C40000E94271769837A838B839C83DF91CF91BE
:102C50001F910F9108950E94271709811A812B81D6
:102C60003C81601B710B820B930B623371058105F4
:102C7000910530F763E070E080E090E00E94561725
:102C8000EACF60E00C941916FC0113AA14AA15AA45
:102C900016AA118212821382148241155105610510
:102CA000710521F0CB01BA010C9456170895FB0170
:102CB000BA01A901DC01D296FC93EE93D19726E0EC
:102CC000CF010C94CD191F93CF93DF93EC01162FF6
:102CD0006EE172E089A99AA90E94221B4AE050E0A5
:102CE000612F89A99AA90E94D11B65E272E089A986
:102CF0009AA90E94221B62E370E080E090E0DF91DD
:102D0000CF911F910C9456171F93CF93DF93EC0133
:102D1000162F8D81882389F189A99AA9DC01ED916B
:102D2000FC910480F581E02D0995892BA9F307C05A
:102D30002637310519F12835310509F41D8289A995
:102D40009AA9DC01ED91FC910480F581E02D0995B3
:102D50001816190694F489A99AA9DC01ED91FC9141
:102D60000680F781E02D09959C0133272336310534
:102D7000F9F6612FCE010E94631683E6DF91CF91B1
:102D80001F9108950F931F93CF93DF931F92CDB799
:102D9000DEB78C01662349F081E0F801858360E0AD
:102DA000C80149830E9484164981F80145830F9028
:102DB000DF91CF911F910F9108951F920F920FB63F
:102DC0000F9211242F933F938F939F93AF93BF93B1
:102DD00080911F0490912004A0912104B0912204BD
:102DE00030911E0423E0230F2D3720F40196A11DFE
:102DF000B11D05C026E8230F0296A11DB11D209329
:102E00001E0480931F0490932004A0932104B09388
:102E100022048091230490912404A0912504B09170
:102E200026040196A11DB11D8093230490932404D0
:102E3000A0932504B0932604BF91AF919F918F91E9
:102E40003F912F910F900FBE0F901F9018952FB7A5
:102E5000F89460911F047091200480912104909156
:102E600022042FBF08953FB7F894809123049091D6
:102E70002404A0912504B091260426B5A89B05C082
:102E80002F3F19F00196A11DB11D3FBF6627782F76
:102E9000892F9A2F620F711D811D911D42E0660FCF
:102EA000771F881F991F4A95D1F708958F929F9297
:102EB000AF92BF92CF92DF92EF92FF926B017C01B3
:102EC0000E9433174B015C01C114D104E104F104E9
:102ED000F1F00E941F1C0E943317681979098A09B2
:102EE0009B09683E73408105910570F321E0C21A89
:102EF000D108E108F10888EE880E83E0981EA11C35
:102F0000B11CC114D104E104F10429F7DDCFFF9015
:102F1000EF90DF90CF90BF90AF909F908F900895EB
:102F20008230910538F0880F991F880F991F0597F7
:102F30000197F1F70895789484B5826084BD84B5D3
:102F4000816084BD85B5826085BD85B5816085BDA4
:102F5000EEE6F0E0808181608083E1E8F0E01082BD
:102F6000808182608083808181608083E0E8F0E0FE
:102F7000808181608083E1EBF0E0808184608083E8
:102F8000E0EBF0E0808181608083EAE7F0E080811F
:102F9000846080838081826080838081816080837F
:102FA0008081806880831092C10008958E3008F07F
:102FB0008E5087702091180190E4299F9001112470
:102FC000822B80937C0080917A00806480937A00C9
:102FD00080917A0086FDFCCF809178002091790065
:102FE00090E0922B08951F93CF93DF93182FEB015E
:102FF00061E00E947B18209711F460E004C0CF3F8D
:10300000D10539F461E0812FDF91CF911F910C94AC
:10301000B418E12FF0E0E058FF4FE491E330F9F00D
:1030200048F4E130B9F0E230A1F584B5806284BDA6
:10303000C8BD34C0E730E9F0E83019F1E43049F5B3
:1030400080918000806280938000D0938B00C09339
:103050008A0024C084B5806884BDC7BD1FC080912C
:103060008000806880938000D0938900C09388009E
:1030700015C08091B00080688093B000C093B30009
:103080000DC08091B00080628093B000C093B40006
:1030900005C0C038D1050CF0B5CFAFCFDF91CF91CF
:1030A0001F910895833081F028F4813099F08230A7
:1030B000A1F008958730A9F08830B9F08430D1F4B8
:1030C000809180008F7D03C0809180008F778093F6
:1030D0008000089584B58F7702C084B58F7D84BD4C
:1030E00008958091B0008F7703C08091B0008F7DEC
:1030F0008093B0000895CF93DF9390E0FC01EC56ED
:10310000FF4F2491FC01E855FF4F8491882349F13A
:1031100090E0880F991FFC01EA53FF4FA591B491ED
:1031200084549F4FFC01C591D4919FB7611108C091
:10313000F8948C91209582238C93888182230AC0F5
:10314000623051F4F8948C91322F309583238C9314
:103150008881822B888304C0F8948C91822B8C9375
:103160009FBFDF91CF9108950F931F93CF93DF936C
:103170001F92CDB7DEB7282F30E0F901E058FF4F9E
:103180008491F901EC56FF4F1491F901E855FF4F76
:1031900004910023C9F0882321F069830E9452180A
:1031A0006981E02FF0E0EE0FFF1FE454FF4FA5917F
:1031B000B4919FB7F8948C91611103C0109581234D
:1031C00001C0812B8C939FBF0F90DF91CF911F91F6
:1031D0000F910895FC01818D228D90E0805C9F4FBE
:1031E000821B91098F7399270895FC01918D828D1F
:1031F000981731F0828DE80FF11D858D90E00895CC
:103200008FEF9FEF0895FC01918D828D981761F0EB
:10321000828DDF01A80FB11D5D968C91928D9F5F0D
:103220009F73928F90E008958FEF9FEF089587E846
:103230009AE1892B49F080E090E0892B29F00E94E7
:10324000871A81110C9400000895FC01848DDF0120
:10325000A80FB11DA35ABF4F2C91848D90E0019609
:103260008F739927848FA689B7892C93A089B189F8
:103270008C9180648C93938D848D981306C0028802
:10328000F389E02D80818F7D80830895CF93DF9334
:10329000EC01888D8823C9F0EA89FB89808185FD4E
:1032A00005C0A889B9898C9186FD0FC00FB607FCAF
:1032B000F5CF808185FFF2CFA889B9898C9185FFF0
:1032C000EDCFCE010E942519E7CFDF91CF91089570
:1032D000CF92DF92FF920F931F93CF93DF931F92B2
:1032E000CDB7DEB76C0181E0D60158968C93589724
:1032F0005B969C915B975C968C915C97981307C04A
:103300005096ED91FC915197808185FD2EC0F6017C
:10331000038D10E00F5F1F4F0F731127F02EF60182
:10332000848DF81211C00FB607FCF9CFD601509664
:10333000ED91FC915197808185FFF1CFC6016983A2
:103340000E9425196981EBCF838DE80FF11DE35AA7
:10335000FF4F6083D6015B960C935B975296ED917D
:10336000FC915397808180620CC0D6015696ED91F6
:10337000FC91579760835096ED91FC915197808115
:103380008064808381E090E00F90DF91CF911F9166
:103390000F91FF90DF90CF900895BF92CF92DF9270
:1033A000EF92FF92CF93DF93EC016A017B01B22E83
:1033B000E889F98982E08083411581EE580761052B
:1033C0007105A1F060E079E08DE390E0A70196013E
:1033D0000E949D1D2150310941095109569547957B
:1033E00037952795211580E1380798F0E889F98904
:1033F000108260E874E88EE190E0A70196010E94D7
:103400009D1D215031094109510956954795379520
:103410002795EC85FD853083EE85FF852083188E0A
:10342000EC89FD89B082EA89FB8980818061808393
:10343000EA89FB89808188608083EA89FB898081B1
:1034400080688083EA89FB8980818F7D8083DF911A
:10345000CF91FF90EF90DF90CF90BF9008951F9293
:103460000F920FB60F9211242F938F939F93EF9388
:10347000FF93E0913704F09138048081E0913D049E
:10348000F0913E0482FD12C09081809140048F5FD4
:103490008F7320914104821751F0E0914004F0E0D5
:1034A000E95DFB4F958F8093400401C08081FF91BF
:1034B000EF919F918F912F910F900FBE0F901F90C2
:1034C00018951F920F920FB60F9211242F933F93CE
:1034D0004F935F936F937F938F939F93AF93BF931C
:1034E000EF93FF9387E294E00E942519FF91EF91FB
:1034F000BF91AF919F918F917F916F915F914F910C
:103500003F912F910F900FBE0F901F90189587E25B
:1035100094E00E94EA1821E0892B09F420E0822F30
:10352000089510922A041092290488EE93E0A0E0F6
:10353000B0E080932B0490932C04A0932D04B093BF
:103540002E048AE792E0909328048093270485EC68
:1035500090E0909334048093330484EC90E0909353
:1035600036048093350480EC90E090933804809387
:10357000370481EC90E090933A048093390482EC14
:1035800090E090933C0480933B0486EC90E0909311
:103590003E0480933D041092400410924104109226
:1035A000420410924304089508950E949B170E94BC
:1035B000D41A0E94A301C7E1D9E10E94F403209725
:1035C000E1F30E941719F9CFCF92DF92EF92FF92A9
:1035D0000F931F93CF93DF937C016A01EB0100E00F
:1035E00010E00C151D0571F06991D701ED91FC916A
:1035F0000190F081E02DC7010995892B19F00F5F2B
:103600001F4FEFCFC801DF91CF911F910F91FF9016
:10361000EF90DF90CF9008956115710581F0DB0187
:103620000D900020E9F7AD0141505109461B570BA1
:10363000DC01ED91FC910280F381E02D099480E0A2
:1036400090E008950C940C1BDC01ED91FC9101902D
:10365000F081E02D09948F929F92AF92BF92DF92FA
:10366000EF92FF920F931F93CF93DF93CDB7DEB707
:10367000A1970FB6F894DEBF0FBECDBF7C01F42F2B
:10368000D52ECB0119A2223008F42AE08E010F5D5D
:103690001F4F822E912CA12CB12C6F2F7D2DA501B7
:1036A00094010E949D1DF22FD32ECA0101501109D1
:1036B0006A3014F4E0E301C0E7E3E60FD801EC93CD
:1036C000232B242B252B49F7B801C7010E940C1B83
:1036D000A1960FB6F894DEBF0FBECDBFDF91CF919C
:1036E0001F910F91FF90EF90DF90BF90AF909F9050
:1036F0008F900895CF92DF92EF92FF920F931F93D6
:10370000CF93DF93EC016A017B012115310579F438
:10371000E881F9810190F081E02D642FDF91CF9154
:103720001F910F91FF90EF90DF90CF9009942A3076
:103730003105E9F477FF1AC06DE20E94241B8C0169
:1037400044275527BA014C195D096E097F092AE003
:10375000CE010E942B1B800F911FDF91CF911F91F3
:103760000F91FF90EF90DF90CF9008952AE0B7017E
:10377000A601CE01DF91CF911F910F91FF90EF90A5
:10378000DF90CF900C942B1B2115310541F4DC0107
:10379000ED91FC910190F081E02D642F09940C943F
:1037A0002B1B9A01462F50E060E070E00C94C41B84
:1037B0004F925F926F927F92AF92BF92CF92DF92C1
:1037C000EF92FF920F931F93CF93DF93CDB7DEB7A6
:1037D00029013A01621B730B840B950B29893A89E5
:1037E0004B895C892A193B094C095D09298B3A8B65
:1037F0004B8B5C8B9B01AC0169897A898B899C8995
:103800000E94651DE418F50806091709A80197012B
:103810000E94BF1D2A0D3B1D4C1D5D1DCA01B90133
:10382000DF91CF911F910F91FF90EF90DF90CF909C
:10383000BF90AF907F906F905F904F9008950895E4
:10384000BCD088F09F5790F0B92F9927B751A0F0BE
:10385000D1F0660F771F881F991F1AF0BA95C9F724
:1038600012C0B13081F0C3D0B1E00895C0C0672F5D
:10387000782F8827B85F39F0B93FCCF386957795D4
:103880006795B395D9F73EF49095809570956195BD
:103890007F4F8F4F9F4F0895E89409C097FB3EF4E8
:1038A00090958095709561957F4F8F4F9F4F99238D
:1038B000A9F0F92F96E9BB279395F695879577950B
:1038C0006795B795F111F8CFFAF4BB0F11F460FFCB
:1038D0001BC06F5F7F4F8F4F9F4F16C0882311F023
:1038E00096E911C0772321F09EE8872F762F05C037
:1038F000662371F096E8862F70E060E02AF09A95D2
:10390000660F771F881FDAF7880F9695879597F9C6
:103910000895990F0008550FAA0BE0E8FEEF161660
:103920001706E807F907C0F012161306E407F507B3
:1039300098F0621B730B840B950B39F40A2661F027
:10394000232B242B252B21F408950A2609F4A140CA
:10395000A6958FEF811D811D089597F99F6780E8D7
:1039600070E060E008959FEF80EC089500240A94D1
:103970001616170618060906089500240A9412164A
:103980001306140605060895092E0394000C11F47D
:10399000882352F0BB0F40F4BF2B11F460FF04C02A
:1039A0006F5F7F4F8F4F9F4F089557FD9058440F83
:1039B000551F59F05F3F71F04795880F97FB991F8E
:1039C00061F09F3F79F0879508951216130614064B
:1039D000551FF2CF4695F1DF08C0161617061806D8
:1039E000991FF1CF86957105610508940895E894B3
:1039F000BB2766277727CB0197F908958ADF08F45C
:103A00008FEF08950BD0C0CFB1DF28F0B6DF18F0EC
:103A1000952309F0A2CFA7CF1124EACFC6DFA0F3E8
:103A2000959FD1F3950F50E0551F629FF001729F53
:103A3000BB27F00DB11D639FAA27F00DB11DAA1F72
:103A4000649F6627B00DA11D661F829F2227B00DBF
:103A5000A11D621F739FB00DA11D621F839FA00D4A
:103A6000611D221F749F3327A00D611D231F849F9A
:103A7000600D211D822F762F6A2F11249F575040F1
:103A80008AF0E1F088234AF0EE0FFF1FBB1F661F8C
:103A9000771F881F91505040A9F79E3F510570F045
:103AA0005CCFA6CF5F3FECF3983EDCF3869577952D
:103AB0006795B795F795E7959F5FC1F7FE2B880F40
:103AC000911D9695879597F90895DB018F939F93A4
:103AD0000E94E51DBF91AF91A29F800D911DA39FF4
:103AE000900DB29F900D11240895AA1BBB1B51E1AC
:103AF00007C0AA1FBB1FA617B70710F0A61BB70B5E
:103B0000881F991F5A95A9F780959095BC01CD0102
:103B1000089597FB072E16F4009407D077FD09D07F
:103B20000E94751D07FC05D03EF4909581959F4F2E
:103B30000895709561957F4F0895A1E21A2EAA1BF2
:103B4000BB1BFD010DC0AA1FBB1FEE1FFF1FA2174D
:103B5000B307E407F50720F0A21BB30BE40BF50B4A
:103B6000661F771F881F991F1A9469F760957095D3
:103B7000809590959B01AC01BD01CF010895052E64
:103B800097FB1EF400940E94D61D57FD07D00E949B
:103B90009D1D07FC03D04EF40C94D61D5095409506
:103BA000309521953F4F4F4F5F4F089590958095E9
:103BB000709561957F4F8F4F9F4F08950E94F61D1E
:103BC000B7FF0895821B930B08950E94F61DA59FD1
:103BD000900DB49F900DA49F800D911D1124089508
:103BE000EE0FFF1F0590F491E02D0994A29FB00104
:103BF000B39FC001A39F700D811D1124911DB29F21
:0E3C0000700D811D1124911D0895F894FFCFC1
:103C0E000100000040400101FF80000300E401ECD0
:103C1E0001F2018032000000010000400014005447
:103C2E0000564D4450565F317C315F564D445056D0
:103C3E000D0A00426F6F74696E67004265726B61A8
:103C4E006E6100526561647900564D4450455F3196
:103C5E00007C005F564D4450450D0A002020202068
:103C6E00202020202020202020202020004B656CAA
:103C7E006C65792059656C6C6F77004B656C6C6563
:103C8E007920526564004B656C6C657920426C75C9
:103C9E0065004B656C6C657920477265656E004BEF
:103CAE00656C6C657920507572706C65004B656C37
:103CBE006C6579205768697465004B656C6C657925
:103CCE0020637573746F6D005261696E626F772039
:103CDE006368617365005261696E626F7720637904
:103CEE00636C65005061747465726E00436F6C6F27
:103CFE00720053706565640000000000AF0ABB0AD5
:103D0E009900C70A960000000000880B5B0B300B71
:103D1E00380B4B0B5A0B00000000D812E41A564D0C
:103D2E004450435F005F564D4450430D0A004572A8
:103D3E00726F723A20417474656D707420746F20C6
:103D4E00736574206120726561642D6F6E6C7920CD
:103D5E007661726961626C65206F72206461746154
:103D6E002074797065206E6F7420737570706F7229
:103D7E007465640D0A00000000006819E41AEA1860
:063D8E000319F5184619A7
:00000001FF
