:100000000C946F000C9497000C9497000C9497003C
:100010000C9497000C9497000C9497000C94970004
:100020000C9497000C9497000C9497000C949700F4
:100030000C9497000C9497000C9497000C949700E4
:100040000C94E0030C9497000C9443030C941D0350
:100050000C9497000C9497000C9497000C949700C4
:100060000C9471070C94970070158415A015B615A3
:10007000CC15E215F81502165D16C5160E17000010
:100080000008000201000003040700000000000057
:10009000000040FF00FFA0FF60FFC0FFFF00000066
:1000A0000000250028002B0000000000240027008D
:1000B0002A000404040404040404020202020202EA
:1000C000030303030303010204081020408001021C
:1000D00004081020010204081020D517E010112494
:1000E0001FBECFEFD8E0DEBFCDBF12E0A0E0B1E091
:1000F000E2EEF6E302C005900D92A234B107D9F703
:1001000024E0A2E4B2E001C01D92A83CB207E1F7EE
:1001100010E0CEE6D0E004C02197FE010E949518C1
:10012000CD36D107C9F70E94F0100C94641B0C94D3
:100130000000FC01918D828D981761F0828DDF01A6
:10014000A80FB11D5D968C91928D9F5F9F73928FCA
:1001500090E008958FEF9FEF0895FC01918D828DBF
:10016000981731F0828DE80FF11D858D90E008958C
:100170008FEF9FEF0895FC01918D228D892F90E0E4
:10018000805C9F4F821B91098F73992708958BEA9A
:1001900093E00E94BB0021E0892B09F420E0822F2C
:1001A0000895FC01848DDF01A80FB11DA35ABF4F34
:1001B0002C91848D90E001968F739927848FA68966
:1001C000B7892C93A089B1898C9180648C93938D8D
:1001D000848D981306C00288F389E02D80818F7D7D
:1001E00080830895EF92FF920F931F93CF93DF9335
:1001F000EC0181E0888F9B8D8C8D981305C0E88978
:10020000F989808185FD24C0F62E0B8D10E00F5FEB
:100210001F4F0F731127E02E8C8DE8120CC00FB604
:1002200007FCFACFE889F989808185FFF5CFCE01F7
:100230000E94D100F1CF8B8DFE01E80FF11DE35A32
:10024000FF4FF0820B8FEA89FB898081806207C0B3
:10025000EE89FF896083E889F989808180648083E1
:1002600081E090E0DF91CF911F910F91FF90EF908F
:100270000895CF93DF93EC01888D8823C9F0EA8934
:10028000FB89808185FD05C0A889B9898C9186FD8F
:100290000FC00FB607FCF5CF808185FFF2CFA8898C
:1002A000B9898C9185FFEDCFCE010E94D100E7CFB7
:1002B000DF91CF91089580E090E0892B29F00E9492
:1002C000C70081110C940000089590E0FC01E258F1
:1002D000FF4F3491FC01EA53FF4F2491FC01EE548F
:1002E000FF4FE491EE2309F43BC0332339F133305F
:1002F00091F038F43130A9F0323001F584B58F7DBA
:1003000012C0373091F03830A1F03430B9F4809118
:1003100080008F7D03C0809180008F778093800064
:100320000DC084B58F7784BD09C08091B0008F77F0
:1003300003C08091B0008F7D8093B000F0E0EE0F9D
:10034000FF1FE256FF4FA591B4918FB7F894EC913F
:10035000611103C020952E2301C02E2B2C938FBF3B
:100360000895FC012081222321F0269F212D09F0F0
:100370002F5F2083089585ED8093BC008091BC00A1
:1003800084FDFCCF10928703089540916602262FCA
:1003900030E0240F311D21323105DCF42091870338
:1003A0002430C9F4FC0180E090E0861758F43091C5
:1003B00066022191DC01AC5BBD4FA30FB11D2C93F4
:1003C0000196F3CF80916602680F6093660280E029
:1003D000089581E0089582E008950895E091400332
:1003E00080913F03E81730F4F0E0EF5BFC4F808131
:1003F00090E008958FEF9FEF0895909140038091D2
:100400003F03981750F4E92FF0E0EF5BFC4F208199
:1004100030E09F5F9093400302C02FEF3FEFC90190
:10042000089580913F0390E020914003821B910941
:100430000895CF92DF92EF92FF920F931F93CF9385
:10044000DF937C01262F972F8A018091AA038823AE
:1004500091F0C62FD72F6E01C40ED51ECC15DD0529
:1004600071F06991D701ED91FC910190F081E02D3F
:10047000C7010995F3CF642F822F0E94C501C801DF
:10048000DF91CF911F910F91FF90EF90DF90CF9070
:100490000895CF93DF931F92CDB7DEB76983209184
:1004A000AA032223D1F02091A803203240F021E0BA
:1004B00030E0FC013383228380E090E015C080911E
:1004C000A903E82FF0E0E857FC4F998190838F5FF4
:1004D0008093A9038093A80305C061E0CE01019633
:1004E0000E94C50181E090E00F90DF91CF910895C7
:1004F00080E991E00895239A089580E090E00895BE
:10050000FC01DB013C912081230F08F42FEF2083B5
:1005100011963C9111972181230F08F42FEF21832D
:1005200012963C912281230F08F42FEF2283089525
:100530000E94AD1A1F93CF93DF93182FEB010E94F7
:10054000840E209711F460E004C0CF3FD10539F448
:1005500061E0812FDF91CF911F910C946501E12F14
:10056000F0E0E258FF4FE491E330F9F048F4E13075
:10057000B9F0E230A1F584B5806284BDC8BD34C055
:10058000E730E9F0E83019F1E43049F58091800076
:10059000806280938000D0938B00C0938A0024C037
:1005A00084B5806884BDC7BD1FC08091800080680D
:1005B00080938000D0938900C093880015C08091FB
:1005C000B00080688093B000C093B3000DC08091EC
:1005D000B00080628093B000C093B40005C0C03802
:1005E000D1050CF0B5CFAFCFDF91CF911F9108951A
:1005F0000F93CF93DF9300D01F92CDB7DEB7AB013F
:1006000019821A821B8200E09E012F5F3F4FB901C1
:100610000E94DF090F900F900F90DF91CF910F9103
:1006200008950F9301E00E94DF090F9108950F9341
:1006300000E00E94DF090F9108951F920F920FB6FC
:100640000F9211242F933F934F935F936F937F9358
:100650008F939F93AF93BF93EF93FF938BEA93E0B6
:100660000E94D100FF91EF91BF91AF919F918F9127
:100670007F916F915F914F913F912F910F900FBE9E
:100680000F901F9018951F920F920FB60F92112482
:100690002F938F939F93EF93FF93E091BB03F09180
:1006A000BC038081E091C103F091C20382FD12C0BE
:1006B00090818091C4038F5F8F732091C50382174F
:1006C00051F0E091C403F0E0E555FC4F958F809325
:1006D000C40301C08081FF91EF919F918F912F9171
:1006E0000F900FBE0F901F9018953FB7F894809110
:1006F0008C0290918D02A0918E02B0918F0226B54E
:10070000A89B05C02F3F19F00196A11DB11D3FBF49
:10071000BA2FA92F982F8827820F911DA11DB11DD7
:10072000BC01CD0142E0660F771F881F991F4A95D3
:10073000D1F708958F929F92AF92BF92CF92DF929E
:10074000EF92FF926B017C010E9475034B015C01EB
:10075000C114D104E104F104F1F00E947503DC013D
:10076000CB0188199909AA09BB09883E9340A105C4
:10077000B10570F321E0C21AD108E108F10888EE52
:10078000880E83E0981EA11CB11CC114D104E104A1
:10079000F10419F7DDCFFF90EF90DF90CF90BF907D
:1007A000AF909F908F9008952FB7F894609190022A
:1007B0007091910280919202909193022FBF0895BF
:1007C0001F920F920FB60F9211242F933F938F9386
:1007D0009F93AF93BF938091900290919102A091CB
:1007E0009202B091930230918B0223E0230F2D37B8
:1007F00020F40196A11DB11D05C026E8230F029625
:10080000A11DB11D20938B028093900290939102C1
:10081000A0939202B093930280918C0290918D02EA
:10082000A0918E02B0918F020196A11DB11D8093FF
:100830008C0290938D02A0938E02B0938F02BF9191
:10084000AF919F918F913F912F910F900FBE0F907D
:100850001F901895FF920F931F93CF93DF9300D0B3
:1008600000D0CDB7DEB7FC018B016081F180428101
:10087000262F2F71220F220F822F880F35E5282F68
:10088000239F212D1124562F5074962F907267FDAF
:1008900022C051110CC0911104C0822F80958B830E
:1008A00011C08BEA8B832B5A2A83198239C091118C
:1008B0000CC0382F5AEA359F312D11248BEA831B47
:1008C0008B8325552A8319822BC01B8280E0822FBF
:1008D00080958A830EC0511112C091110CC01B82E9
:1008E000282F3AEA239F212D11248BEA821B8A8329
:1008F0002B5A298315C02B831A822095FACF911188
:1009000008C085E5820F8B831A828BEA821B89835C
:1009100007C08BEA820F8B831A8280E0321B3983F7
:100920002FEFF21601F16F2DCE0103964C830E943A
:10093000B1016F2DCE0102960E94B1016F2DCE0143
:1009400001960E94B10111246F2D6095669F612D63
:1009500011248B81860F8B838A81860F8A838981FC
:10096000680F69834C814F3FC9F0F12C2F2D442330
:1009700021F0449F212D09F02F5FF22E622FCE012E
:1009800003960E94B1016F2DCE0102960E94B10123
:100990006F2DCE0101960E94B10111248B81F801C7
:1009A00080838A818183898182830F900F900F9049
:1009B0000F90DF91CF911F910F91FF9008954F926B
:1009C0005F926F927F92AF92BF92CF92DF92EF923F
:1009D000FF920F931F93CF93DF93FC01108211823C
:1009E00012824423B9F18B01075F1F4F5C01EB01B9
:1009F0002C96442E512C612C712CD8011397CC903D
:100A0000D8012D918D01CC20F9F02223E9F0822F1D
:100A100090E0A0E0B0E09C01AD012F5F3F4F4F4F51
:100A20005F4FC301B2010E94C21A9B01AC01D12CDD
:100A3000E12CF12CC701B6016F5F7F4F8F4F9F4FA5
:100A40000E94C21AD5018C93BFEFAB1ABB0A0C17D8
:100A50001D0799F6CF01DF91CF911F910F91FF9064
:100A6000EF90DF90CF90BF90AF907F906F905F90AE
:100A70004F900895682F8FE494E00C944902EF9210
:100A8000FF920F931F93CF93DF9300D0CDB7DEB7C4
:100A90007C01162F683020F0185095E103E102C068
:100AA00094E102E1F701808180624A8399830E9488
:100AB000770D9981892F0E943A050E94810DF701D7
:100AC0009081892F806261E070E090E00E94DE0DED
:100AD0008FE494E00E94FD014A8121E030E001C0F2
:100AE000220F1A95EAF7413019F4122F182B03C080
:100AF0002095122F1823F701808180620E94770DC4
:100B0000802F0E943A05812F0E943A050F900F9086
:100B1000DF91CF911F910F91FF90EF900C94810D79
:100B2000FC01962F828D8F3F31F0603140F4CF0170
:100B30004B960C943F05642F892F0C946501089502
:100B4000CF93DF93EC0140E06E810E94900541E07D
:100B50006E81CE010E94900540E06E81CE010E9420
:100B600090058BE891E00197F1F7DF91CF9108951F
:100B7000EF92FF920F931F93CF93DF931F92CDB706
:100B8000DEB77C01162F683018F0185001E001C064
:100B900000E0F7018081806249830E94770D802FF9
:100BA0000E943A050E94810DF7018081806261E018
:100BB00070E090E00E94DE0D8FE494E00E94FD0161
:100BC000498121E030E001C0220F1A95EAF7411176
:100BD00003C0122F182B03C02095122F1823F701E2
:100BE000808180620E94770D802F0E943A05812FBC
:100BF0000E943A050F90DF91CF911F910F91FF90C6
:100C0000EF900C94810D603110F40C94B8050895A8
:100C1000CF93DF9300D0CDB7DEB7FC018081806237
:100C200069837A830E94770D82E10E943A05698187
:100C3000862F0E943A057A81872F0E943A050F90ED
:100C40000F90DF91CF910C94810D8F929F92AF9274
:100C5000BF92CF92DF92EF92FF920F931F93CF93A9
:100C6000DF93EC018A8D8E01095F1F4FC62ED12CB8
:100C70008F3F09F483C07E018BE1E80EF11C8B8D60
:100C800080620E94770D82E10E943A050E94810DE8
:100C90008B8D806262E070E090E00E94DE0D8FE458
:100CA00094E00E94FD01B82E8FE494E00E94FD01C3
:100CB000982F88279C012B29F801A0E0B0E061E083
:100CC00070E0B19001E010E0CB010B2C02C0880F66
:100CD000991F0A94E2F78095909528233923A6015D
:100CE0000A2E02C0559547950A94E2F741705527A0
:100CF00002C0440F551FBA94E2F7242B352B1196EE
:100D0000A430B105F1F668010E8002C0CC0CDD1CE8
:100D10000A94E2F7C094D094C222D322B601C7014C
:100D20000E940806B8010E8002C0660F771F0A9461
:100D3000E2F7C62AD72AB601C7010E9408060E802C
:100D400002C0000F111F0A94E2F700951095B6013A
:100D500060237123C7010E9408068BE891E0019788
:100D6000F1F7DF91CF911F910F91FF90EF90DF90FE
:100D7000CF90BF90AF909F908F900895E12CF12C71
:100D80004E01EBE18E0E911C5801F80180819A8D85
:100D90009F3F31F041E0682FC4010E94030602C06A
:100DA0000E94840E0F5F1F4FA6010E2C02C05595A6
:100DB00047950A94E2F74170F5016081CE010E94E7
:100DC0009005FFEFEF1AFF0A84E0E816F104E1F660
:100DD000CE01DF91CF911F910F91FF90EF90DF90A7
:100DE000CF90BF90AF909F908F900C94A0058F9262
:100DF0009F92AF92BF92CF92DF92EF92FF920F93AA
:100E00001F93CF93DF93EC01F62E6C810E94900527
:100E10006D816F3F21F040E0CE010E9490058C89EA
:100E20000F2D10E084FF3EC06E0187E0C80ED11C7C
:100E3000E12CF12C4E01EBE18E0E911C5601F601D6
:100E400080819A8D9F3F31F041E0682FC4010E945C
:100E5000030602C00E94840EFFEFCF1ADF0AA8012A
:100E60000E2C02C0559547950A94E2F74170F501A2
:100E70006081CE010E949005FFEFEF1AFF0A88E023
:100E8000E816F104D9F6CE01DF91CF911F910F91B1
:100E9000FF90EF90DF90CF90BF90AF909F908F909A
:100EA0000C94A005B80184E0759567958A95E1F7E3
:100EB000CE010E9425066F2DCE01DF91CF911F91AB
:100EC0000F91FF90EF90DF90CF90BF90AF909F90E9
:100ED0008F900C94250641E00E94F70681E090E097
:100EE00008951F920F920FB60F9211242F933F93E4
:100EF0004F935F936F937F938F939F93AF93BF9322
:100F0000EF93FF938091B900887F803609F49CC0ED
:100F100068F5883209F45BC090F4803109F454C05C
:100F200038F4882309F4F6C0883009F44DC0F6C0BF
:100F3000883109F44CC0803209F45DC0EFC08034C0
:100F400009F468C048F4803309F455C0883309F0C7
:100F5000E5C080938503D8C0803509F44FC088353B
:100F600009F45DC0883409F0D9C0D6C0883909F4C5
:100F7000C7C0A8F4883709F467C038F4883609F484
:100F800063C0803709F460C0C9C0883809F4B8C0AC
:100F9000803909F45FC0803809F0C0C05BC0803B75
:100FA00009F486C038F4803A09F466C0883A09F436
:100FB0007FC0B4C0803C09F4A7C0883C09F4A4C039
:100FC000883B09F48AC0AAC08091620310C0909146
:100FD000840380918303981770F5E091840381E086
:100FE0008E0F80938403F0E0ED59FC4F8081809355
:100FF000BB0085EC86C0809385038EC0E09184039E
:1010000081E08E0F809384038091BB00F0E0ED5966
:10101000FC4F808390918403809183036EC0E091A4
:10102000840381E08E0F809384038091BB00F0E005
:10103000ED59FC4F80838091860381116DC081E062
:101040008093610384EA61C083E0809387031092F8
:101050008A02CFCF80918A02803208F051C0E0919D
:101060008A0281E08E0F80938A028091BB00F0E0BB
:10107000E659FD4F8083BDCF85EC8093BC00109274
:10108000870380918A02803230F4E0918A02F0E096
:10109000E659FD4F108260918A0270E0E09168028B
:1010A000F09169028AE692E0099510928A0236C0B0
:1010B00084E0809387031092670210926602E091A9
:1010C0006402F0916502099580916602811105C064
:1010D00081E08093660210924402E091670281E011
:1010E0008E0F80936702F0E0EC5BFD4F8081809370
:1010F000BB009091670280916602981708F479CF3F
:1011000085E88093BC000AC085EC8093BC001092F7
:10111000870304C0109285030E94BB01FF91EF91E9
:10112000BF91AF919F918F917F916F915F914F91FF
:101130003F912F910F900FBE0F901F901895109216
:10114000870381E0809386031092610361E082E16E
:101150000E94650161E083E10E946501E9EBF0E036
:1011600080818E7F808380818D7F808388E48093DF
:10117000B80085E48093BC0008950F931F930E94EC
:10118000D4030091AE021091AF022091B0023091D1
:10119000B102DC01CB01801B910BA20BB30B8B3F87
:1011A0009105A105B10508F44DC00E94290E8430B7
:1011B000B1F08830E1F0813009F044C080917904C9
:1011C0008093780480917A04809379040E94A90E18
:1011D000109202010E94B70F0E94010F29C0809156
:1011E0007A048F5F8B3050F010927A0409C080919E
:1011F0007A04811102C08AE001C0815080937A0490
:1012000080E00E94830F61E671E08BE594E00E942C
:10121000DE1080E00E94830F80917A0426E0829F96
:10122000C001112485589B4F0E94AE0F10920201FD
:101230000E94D4036093AE027093AF028093B00219
:101240009093B1021F910F910895AF92BF92CF92E8
:10125000DF92EF92FF920F931F93CF93DF9300D013
:1012600000D000D0CDB7DEB780914202909143020A
:101270009C012E5F3F4F203631052CF43093430202
:101280002093420206C08E559109909343028093A9
:1012900042020E94B70F10914202812F90914302A7
:1012A00097FD0F967C0164E0F594E7946A95E1F769
:1012B0001295107F1095012F0095C12CD12C809193
:1012C0000401909103019C838D831E83BE016F5F97
:1012D0007F4FCE0104960E942A045701AA0CBB1C22
:1012E000F501EE55FD4F808191819C01220F331F46
:1012F000820F931FBE016F5F7F4F8B5E9C4F0E94DA
:10130000800280910401909103019C838D831E8350
:10131000BE016F5F7F4FCE0104960E942A04F50143
:10132000EA56FD4F808191819C01220F331F820F6D
:10133000931FBE016F5F7F4F8B5E9C4F0E948002A8
:101340008FEFE81AF80A86E0E816F10411F4E12CB0
:10135000F12C8FEFC81AD80A83E0C816D10441F0E7
:1013600082E0C816D10411F4102FA9CF1FEFA7CF28
:101370000E94010F26960FB6F894DEBF0FBECDBFB8
:10138000DF91CF911F910F91FF90EF90DF90CF9061
:10139000BF90AF900895CF93DF93EC01688170E028
:1013A00085E00E949A02698170E086E00E949A02BC
:1013B0006A8170E083E0DF91CF910C949A024F92A2
:1013C0005F926F927F928F929F92AF92BF92CF92D5
:1013D000DF92EF92FF920F931F93CF93DF93CDB7DE
:1013E000DEB72E970FB6F894DEBF0FBECDBF6C01EF
:1013F0007B015A01F901DC011C968C9190819B873D
:1014000091819C8792819D87813009F03BC08091BA
:1014100094028F5F982F97709093940280FF02C080
:1014200080E801C080E091FD8064947009F08062E2
:1014300010E1180FFE013B969E01225F3F4F812C69
:10144000992493946191662331F070E0C4010E9465
:1014500081186F5F01C060E0CF010497DC016C93DD
:10146000712F769F712D1124AF0147505109DA0178
:101470007C93662319F06150DC016C93E217F3074B
:1014800009F706C01A86198618861F821E821D82D9
:10149000002311F003E001C000E00E947503F60193
:1014A00027853089621B730B6A307105B0F3F8949D
:1014B00015B1186085B1877F85B989849E81482DD3
:1014C000491B9C847D846B843F815D815A84488460
:1014D000D70111967C91772319F0740F08F47FEFF0
:1014E000292D729F712D1124D501F70120E0942F31
:1014F000422F622F002C15B900C000C000C000C0F0
:1015000000C077FF85B962812227889400C000C09F
:1015100000C000C000C000C0002C85B96111630F7D
:1015200000C000C0002C00C000C015B900C000C041
:1015300000C000C000C076FF85B908F46FEF889442
:1015400000C000C000C000C000C000C000C085B91D
:1015500070FC260F00C000C0002C00C000C015B9F0
:1015600000C000C000C000C000C075FF85B927954D
:10157000889471FC260F00C000C000C000C000C0ED
:1015800000C0002C85B92795889400C000C0002CAD
:1015900000C000C015B900C000C000C000C000C03D
:1015A00074FF85B972FC260F2795889400C000C08F
:1015B00000C000C000C000C0002C85B973FC260F1D
:1015C00000C000C0002C00C000C015B900C000C0A1
:1015D00000C000C000C073FF85B92795889474FCD3
:1015E000260F00C000C000C000C000C000C0002C1A
:1015F00085B92795889400C000C0002C00C000C0A9
:1016000015B900C000C000C000C000C072FF85B99D
:1016100075FC260F2795889400C000C000C000C04C
:1016200000C000C0002C85B976FC260F00C000C0A9
:10163000002C00C000C015B900C000C000C000C030
:1016400000C071FF85B92795889477FC260F00C0EC
:1016500000C000C000C000C000C0002C85B92795A4
:10166000889400C000C0002C00C000C015B900C0A4
:1016700000C000C000C000C070FF85B93195350DB5
:1016800000C000C000C000C000C000C000C0002CEE
:1016900085B9722F00C000C000C000C000C015B9DD
:1016A00000C000C000C000C000C077FF85B96081E5
:1016B0002227889400C000C000C000C000C000C045
:1016C000002C85B96111650F00C000C0002C00C05E
:1016D00000C015B900C000C000C000C000C076FF47
:1016E00085B908F46FEF889400C000C000C000C046
:1016F00000C000C000C085B960FC260F00C000C05B
:10170000002C00C000C015B900C000C000C000C05F
:1017100000C075FF85B92795889461FC260F00C02D
:1017200000C000C000C000C000C0002C85B92795D3
:10173000889400C000C0002C00C000C015B900C0D3
:1017400000C000C000C000C074FF85B962FC260F55
:101750002795889400C000C000C000C000C000C031
:10176000002C85B963FC260F00C000C0002C00C00F
:1017700000C015B900C000C000C000C000C073FFA9
:1017800085B92795889464FC260F00C000C000C06E
:1017900000C000C000C0002C85B92795889400C007
:1017A00000C0002C00C000C015B900C000C000C0BF
:1017B00000C000C072FF85B965FC260F279588948C
:1017C00000C000C000C000C000C000C0002C85B92F
:1017D00066FC260F00C000C0002C00C000C015B978
:1017E00000C000C000C000C000C071FF85B92795CF
:1017F000889467FC260F00C000C000C000C000C075
:1018000000C0002C85B92795889400C000C0002C2A
:1018100000C000C015B900C000C000C000C000C0BA
:1018200070FF85B9E00FF11D8894722F00C000C0D1
:1018300000C000C000C000C0002C85B95195540DF7
:1018400000C000C0002C00C000C015B900C000C01E
:1018500000C000C000C077FF85B96181222788944D
:1018600000C000C000C000C000C000C0002C85B98E
:101870006111690F00C000C0002C00C000C015B984
:1018800000C000C000C000C000C076FF85B908F4E9
:101890006FEF889400C000C000C000C000C000C04E
:1018A00000C085B990FC260F00C000C0002C00C00D
:1018B00000C015B900C000C000C000C000C075FF66
:1018C00085B92795889491FC260F00C000C000C000
:1018D00000C000C000C0002C85B92795889400C0C6
:1018E00000C0002C00C000C015B900C000C000C07E
:1018F00000C000C074FF85B992FC260F279588941C
:1019000000C000C000C000C000C000C0002C85B9ED
:1019100093FC260F00C000C0002C00C000C015B909
:1019200000C000C000C000C000C073FF85B927958B
:10193000889494FC260F00C000C000C000C000C006
:1019400000C0002C85B92795889400C000C0002CE9
:1019500000C000C015B900C000C000C000C000C079
:1019600072FF85B995FC260F2795889400C000C0AA
:1019700000C000C000C000C0002C85B996FC260F36
:1019800000C000C0002C00C000C015B900C000C0DD
:1019900000C000C000C071FF85B92795889497FCEE
:1019A000260F00C000C000C000C000C000C0002C56
:1019B00085B92795889400C000C0002C00C000C0E5
:1019C00015B900C000C000C000C000C070FF85B9DC
:1019D0009195980D722F00C000C000C000C000C0DB
:1019E00000C000C085B900C000C0002C119709F0EC
:1019F00082CD20EF33E0D5010E949B18DC01CB01A2
:101A0000F4E0B695A79597958795FA95D1F720E0DC
:101A100030E0A9016AE9A69E412DB69E400D511DF8
:101A20001124840F951FA11DB11D893E43E0940729
:101A3000A105B10588F1885E9340A109B10942E092
:101A4000B695A795979587954A95D1F747E0849FD6
:101A5000212D949F200D311D11246091950270E07D
:101A6000860F971F820F931F409190025091910211
:101A70006091920270919302292F3327420F531FD6
:101A8000611D711D409390025093910260939202E8
:101A9000709393028093950278940E947503D60107
:101AA00050967C936E931F972E960FB6F894DEBFD8
:101AB0000FBECDBFDF91CF911F910F91FF90EF909F
:101AC000DF90CF90BF90AF909F908F907F906F905E
:101AD0005F904F90089520E0DC0160FF03C001C0DB
:101AE0002D932D936250E0F77040D0F7089591E068
:101AF0009093AA038093C3041092A9031092A803A1
:101B000008952091A8039091C304213208F04AC09F
:101B1000809187038111FCCF32E03093870331E05D
:101B2000309386033FEF3093850310928403209314
:101B30008303A8E8B3E043E653E0FA013E2F341BE9
:101B4000321718F43D913193F9CF1092620320912E
:101B50006203990F922B90936203909161039130ED
:101B600061F410926103909162039093BB00909195
:101B7000BC0093FDF8CF95EC01C095EE9093BC00AE
:101B8000909187039230E1F3909185039F3F79F024
:101B900080918503803241F080918503803331F05C
:101BA00084E005C081E003C082E001C083E01092C0
:101BB000A9031092A8031092AA0308959091870395
:101BC0009111FCCF613208F060E291E090938703BD
:101BD000909386032FEF2093850310928403260FA2
:101BE000209383039093620390916203880F892B63
:101BF0008093620380916103813061F410926103EC
:101C0000809162038093BB008091BC0083FDF8CF7C
:101C100085EC01C085EE8093BC0080918703813004
:101C2000E1F380918403861710F460918403A3E6A6
:101C3000B3E021E433E0F9018E2F821B861718F4FC
:101C40008D918193F9CF1092400360933F03862FCB
:101C50000895CF92DF92FF920F931F93CF93DF935C
:101C60001F92CDB7DEB7C12CD12C0FE1FC2CF601B1
:101C7000E55AFB4F1785103140F5183018F0185011
:101C800093E101C092E180917604806299830E9481
:101C9000770D9981892F0E943A050E94810D9091BC
:101CA0007604892F806261E070E090E00E94DE0D92
:101CB0008FE494E00E94FD019C01332702C035951A
:101CC00027951A95E2F7217001C020E030E002C0AC
:101CD000220F331FFA94E2F720953095802F90E081
:101CE00082239323082F2FEFC21AD20A25E0C216AF
:101CF000D10409F0BBCF0F90DF91CF911F910F91CD
:101D0000FF90DF90CF90089590E0FC01EA53FF4FE1
:101D10002491FC01EE54FF4F8491882399F090E0C8
:101D2000880F991FFC01E855FF4FA591B491FC0164
:101D3000E256FF4F859194918FB7F894EC91E22B86
:101D4000EC938FBF089540E0682F8BE594E00C94EE
:101D5000F70681E00E94A30E8BE39FE10197F1F764
:101D60000895CF92DF92EF92FF920F931F93CF933C
:101D7000DF938091C1049091C204EC012196D0932D
:101D8000C204C093C10449979CF10E94D4038B0103
:101D90009C0188EE93E0C89FB001C99F700DD89F49
:101DA000700D1124072E000C880B990BC090BD04F8
:101DB000D090BE04E090BF04F090C004A901980147
:101DC0002C193D094E095F090E94D21A30934A042A
:101DD000209349041092C2041092C1040E94D403BB
:101DE0006093BD047093BE048093BF049093C004BD
:101DF000DF91CF911F910F91FF90EF90DF90CF90E7
:101E00000895CF92DF92EF92FF920F931F93CF939B
:101E1000DF9300D01F92CDB7DEB7F09048048091D9
:101E20004B0490914C04A0914D04B0914E04892B29
:101E30008A2B8B2BE9F00E94750300913B031091D4
:101E40003C0320913D0330913E03DC01CB01801B1C
:101E5000910BA20BB30B00914B0410914C042091F9
:101E60004D0430914E0480179107A207B307B8F2D2
:101E70000E94750360933B0370933C0380933D0382
:101E800090933E030091390310913A030115110517
:101E900061F1D8011C96EC901C97809149049091B7
:101EA0004A048436910510F41C961C92D801ED91D9
:101EB000FC91C280D3804F2DB801CE0101960E94C3
:101EC000DF04F80145855685628173819E012F5F8D
:101ED0003F4FC801F6010995D8011C96EC921C975A
:101EE00014960D911C911597D1CF0E94B10E0F90B1
:101EF0000F900F90DF91CF911F910F91FF90EF9076
:101F0000DF90CF900895CF93DF93CDB7DEB72897BA
:101F10000FB6F894DEBF0FBECDBF98E0E1E3F1E06D
:101F2000DE01119601900D929A95E1F7909173045C
:101F3000981710F48FEF890FFE013196E80FF11D0D
:101F4000E80FF11D8081806828960FB6F894DEBFF7
:101F50000FBECDBFDF91CF910C94A30EFC01448145
:101F60005581608171818BE594E00C940910CF93C9
:101F7000DF93C0913903D0913A03209789F08A8189
:101F80009B81009749F06D857E859B01220F331F51
:101F9000620F731F0E946B0D0C80DD81C02DEDCF91
:101FA000DF91CF910895DC0120E030E08C91F901C0
:101FB000EB5EFC4F808311968C9111978183129672
:101FC0008C91129782832D5F3F4F2432310571F738
:101FD0000895CF93DF93D82FC1E082FB442740F9C7
:101FE0004C2768E086E794E00E943F05D1FB442738
:101FF00040F94C2767E086E794E00E943F054D2FAB
:1020000041704C2766E086E794E0DF91CF910C9415
:102010003F05CF92DF92EF92FF920F931F93CF93E2
:10202000DF936C017A018B01C0E0D0E0CE15DF05B3
:1020300089F0D8016D918D01D601ED91FC9101904F
:10204000F081E02DC6010995892B11F47E0102C0B3
:102050002196ECCFC701DF91CF911F910F91FF9097
:10206000EF90DF90CF9008956115710579F0FB0135
:1020700001900020E9F73197AF01461B570BDC01B7
:10208000ED91FC910280F381E02D099480E090E0D5
:102090000895EF92FF920F931F93CF93DF93EC017C
:1020A000198218821B821A821D821C826115710599
:1020B000A9F17B01FB0101900020E9F731978F0125
:1020C000061B170BB8016F5F7F4F80E090E00E9406
:1020D000E319009759F0998388831B830A832C8125
:1020E0003D81232B81F4FC0110820DC088819981F0
:1020F000009711F00E944B19198218821D821C82D0
:102100001B821A820BC01D830C83B701DF91CF9114
:102110001F910F91FF90EF900C94BB1ADF91CF911C
:102120001F910F91FF90EF9008954F925F926F92E1
:102130007F92EF92FF920F931F93CF93DF93CDB7D0
:10214000DEB7A1970FB6F894DEBF0FBECDBF7C01FE
:10215000FA01CB0119A2223008F42AE08E010F5DAA
:102160001F4F422E512C612C712CBF01A3019201F3
:102170000E94D21AF901CA01015011096A3014F4FF
:10218000605D01C0695CD8016C93232B242B252B47
:1021900061F7B801C7010E943410A1960FB6F894F8
:1021A000DEBF0FBECDBFDF91CF911F910F91FF908A
:1021B000EF907F906F905F904F9008950C94341043
:1021C000CF93DF93CDEBD4E02697888199810E944D
:1021D0004B1984E0CB37D807B9F7DF91CF91089539
:1021E000CF93DF93CDB7DEB72A970FB6F894DEBF53
:1021F0000FBECDBF789484B5826084BD84B5816004
:1022000084BD85B5826085BD85B5816085BD8091C1
:102210006E00816080936E00109281008091810039
:102220008260809381008091810081608093810031
:10223000809180008160809380008091B1008460F3
:102240008093B1008091B00081608093B000809154
:102250007A00846080937A0080917A008260809313
:102260007A0080917A00816080937A0080917A0070
:10227000806880937A001092C10010920D03109232
:102280000E0310920F03109210031092DB021092B3
:10229000DC021092DD021092DE0260ED77E080E059
:1022A00090E00E949A038BEA93E090930C03809352
:1022B0000B03E091BB03F091BC0382E08083E091CB
:1022C000B703F091B8031082E091B903F091BA031B
:1022D00080E180831092C303E091BF03F091C003BB
:1022E00086E08083E091BD03F091BE038081806130
:1022F0008083E091BD03F091BE038081886080837C
:10230000E091BD03F091BE03808180688083E091FD
:10231000BD03F091BE0380818F7D80830E94D40332
:102320000091DB021091DC022091DD023091DE028F
:10233000DC01CB01801B910BA20BB30BC297A10553
:10234000B10538F463E070E080E090E00E949A0309
:10235000E5CF0E94D4036093DB027093DC0280938C
:10236000DD029093DE0262E771E080910B039091B1
:102370000C030E94DE106AE070E080E090E00E94B2
:102380009A03809175048F3F39F580916F048860BE
:1023900080936F0482E080937304109274048BE343
:1023A0009DE00197F1F740E060915F048BE594E0D8
:1023B0000E94900540E0609161048BE594E00E94EA
:1023C0009005609160046F3F09F4BAC040E08BE56E
:1023D00094E00E949005B4C01092400310923F0315
:1023E0001092A9031092A8030E949F0810927604ED
:1023F0001092400310923F031092A9031092A80379
:102400000E949F088091760480620E94770D80E090
:102410000E943A058FEF0E943A050E94810D80913B
:10242000760480620E94770D81E00E943A058FEF6A
:102430000E943A050E94810D41E068E086E794E041
:102440000E94B80541E066E086E794E00E94B80586
:1024500041E067E086E794E00E94B80587E00E94CB
:10246000E90F60916004662329F041E086E794E07B
:102470000E94030641E060915F0486E794E00E94B9
:10248000030641E06091610486E794E00E94030640
:1024900002E614E0F4E0FF2EF00ED8016D918D01FC
:1024A00041E086E794E00E940306F012F6CF0AE6C8
:1024B00014E0E5E0EE2EE00E40E0F801608186E7F2
:1024C00094E00E940306D8012D918D012031A8F5DA
:1024D000283020F028507DE0F72E02C06CE0F62E68
:1024E0008091760480622A870E94770D8F2D0E944A
:1024F0003A050E94810D80917604806261E070E06F
:1025000090E00E94DE0D8FE494E00E94FD01D82E41
:102510008091760480620E94770D8F2D0E943A058B
:1025200041E050E02A85CA0101C0880F2A95EAF7E8
:102530008D290E943A050E94810DE012BDCF25CF62
:1025400080916F0484FD21C063E08BE594E00E94DC
:1025500025060BE416E4C8010197F1F763E08BE56B
:1025600094E00E942506C8010197F1F763E08BE52E
:1025700094E00E94250683E592E00197F1F762E07E
:102580008BE594E00E94250615C080620E94A30E90
:102590008BE496E40197F1F780916F0480620E94CA
:1025A000A30E83E592E00197F1F780916F048062BA
:1025B0000E94A30E80916F0480620E94A30E84E0AB
:1025C000809370048CE00E94A30E0E94A90E82E00A
:1025D0008093710486E00E94A30E81E00E94E90FBF
:1025E00064E871E08BE594E00E94DE10E2EAF2E03C
:1025F000A6E9B2E022E030E081E090E0219331935F
:102600008D939D93A9014F5F5F4F019762E0EE3A72
:10261000F60771F04C3051051CF0A9014B505109DF
:102620008F3F2FEF920711F48BE090E09A01E6CFF5
:1026300068EB7BE080E090E00E949A038091C50205
:10264000811145C01092B7021092B6028FEF8093AD
:10265000BA028093BB028093BC028093BD02809338
:10266000BE028093BF0281E08093C0021092C2023A
:102670001092C1021092B9021092B80280913903EF
:1026800090913A03892B31F484EB92E090933A03D2
:1026900080933903E091B202F091B302309721F0B8
:1026A00084EB92E09583848384EB92E09093B30271
:1026B0008093B2021092C4021092C30285E291E0AC
:1026C0009093B5028093B40281E08093C502E091BB
:1026D000B402F091B5020480F581E02D84EB92E024
:1026E000099585E193E09093B7028093B6028CE060
:1026F00090E09093C2028093C102E091B402F09105
:10270000B5020084F185E02D84EB92E009950097F5
:1027100029F19C0140E050E060E472E48FE090E039
:102720000E94F41A722F632F00914B0410914C04F5
:1027300020914D0430914E04872F962FDA01801797
:102740009107A207B30710F4D901C80180934B0485
:1027500090934C04A0934D04B0934E040E94B70F85
:102760000E94010F80E28093480468EC70E080E0F2
:1027700090E00E949A0385E00E94840E86E00E9409
:10278000840E83E00E94840E1FEF19831A821B823D
:10279000CE0101960E94CB0919831A821B82CE01B9
:1027A00001960E94D30F0E94010F6CE271E080E05D
:1027B00090E00E949A03198200E80A831B82CE01EE
:1027C00001960E94CB0919820A831B82CE010196D1
:1027D0000E94D30F0E94010F6CE271E080E090E054
:1027E0000E949A0319821A821B83CE0101960E94CD
:1027F000CB0919821A821B83CE0101960E94D30F46
:102800000E94010F6CE271E080E090E00E949A0368
:1028100019821A821B82CE0101960E94CB0919826D
:102820001A821B82CE0101960E94D30F0E94010FD3
:102830000E94A90E82E00E94E90F80E00E94830FAF
:102840006CE871E08BE594E00E94DE1081E00E946C
:10285000830F64E971E08BE594E00E94DE106EEE78
:1028600072E080E090E00E949A0332E9E32E30E0CB
:10287000F32EF70185919591A591B4918093D7029C
:1028800043E9C42E40E0D42EF60185919591A5919F
:10289000B4918093D8020E94D4036093AE027093E7
:1028A000AF028093B0029093B1020E94D403609370
:1028B000CF027093D0028093D1029093D2020E94F3
:1028C000D4036093110370931203809313039093C6
:1028D000140344244A9453E0552E612C712C0E9419
:1028E000D40300911103109112032091130330912E
:1028F00014034B015C01801A910AA20AB30A0E94D8
:10290000D403609311037093120380931303909385
:10291000140380E480937C0080917A00806480932B
:102920007A0080917A0086FDFCCF2091780080911A
:10293000790030E0382B3093070120930601A5EA97
:10294000B0E00E94551B6A35A7E97A07A2E08A0722
:10295000910534F4A30192010E94F41A265A01C091
:102960002FEF209377040E94D4030091DB02109193
:10297000DC022091DD023091DE02DC01CB01801B04
:10298000910BA20BB30BC297A105B10538F463E01C
:1029900070E080E090E00E949A03E5CF0E94D403AB
:1029A0006093DB027093DC028093DD029093DE0281
:1029B0006AE971E080910B0390910C030E94DE1094
:1029C00062EA71E080910B0390910C030E94DE108B
:1029D0004091770450E060E070E02AE080910B03C2
:1029E00090910C030E94951062EA71E080910B03B4
:1029F00090910C030E94DE102AE0B501A4018091A1
:102A00000B0390910C030E94951064EA71E0809191
:102A10000B0390910C030E94DE1065E070E080E0F3
:102A200090E00E949A038091770490910801981396
:102A30008093080180917904895090910801823037
:102A400028F4809105012091D90204C080910401ED
:102A5000209103012C838D839E83BE016F5F7F4F86
:102A6000CE0104960E942A04CE0101960E94CB0951
:102A7000809177048093480481E00E94830F8091C5
:102A80007904B6E08B9FC001112485589B4F0E94AA
:102A9000AE0F0E94D4030091AE021091AF022091BC
:102AA000B0023091B102DC01CB01801B910BA20B73
:102AB000B30B81319742A105B10528F08091020145
:102AC000882309F414C2E09179048E2F90E08B30B2
:102AD000910508F0FFC1FC01EC5CFF4F0C949518C8
:102AE000F70185919591A591B4918093D702F60154
:102AF00045915591659174914093D802809303015B
:102B00004093040183E015C0E4E9F0E085919591DC
:102B1000A591B4918093D702E5E9F0E045915591F4
:102B2000659174914093D80280930301409304010E
:102B300081E00E94E90F0E9425090E94BD08CAC1D8
:102B4000E6E9F0E085919591A591B4918093D70243
:102B5000E7E9F0E045915591659174914093D80271
:102B6000809303014093040184E0E3CFE8E9F0E0BF
:102B700085919591A591B4918093D702E9E9F0E010
:102B800045915591659174914093D80280930301CA
:102B90004093040182E0CDCFEAE9F0E08591959180
:102BA000A591B4918093D702EBE9F0E0459155915E
:102BB000659174914093D80280930301409304017E
:102BC00085E0B7CFECE9F0E085919591A591B491BE
:102BD0008093D702EDE9F0E04591559165917491AC
:102BE0004093D802809303014093040187E0A1CF72
:102BF0008091D902809303018091050180930401A3
:102C000086E097CF8090D3029090D402A090D50216
:102C1000B090D6028091CF029091D002A091D102C3
:102C2000B091D202A5019401281B390B4A0B5B0B12
:102C30002730310541055105E0F160E070E0CB013E
:102C40000E949A038092CF029092D002A092D10269
:102C5000B092D20290910801809100010FEF080F0D
:102C60000093000189831FEF1A839B838091CD021B
:102C70009091CE026CE070E00E948118BC01660F5A
:102C8000771F860F971FBC016B5E7C4FCE010196AC
:102C90000E942A0400930301109304010E94010F73
:102CA0008091CD029091CE0201969093CE028093B6
:102CB000CD0286E00E94E90F40CF8090D302909031
:102CC000D402A090D502B090D6028091CF0290910C
:102CD000D002A091D102B091D202A5019401281B8B
:102CE000390B4A0B5B0B293131054105510508F3BE
:102CF00060E070E0CB010E949A038092CF02909234
:102D0000D002A092D102B092D2029091080180919B
:102D100001012FEF280F209301018C838FEF8D830A
:102D20009E83BE01695F7F4FCE0104960E942A04F4
:102D30003090480480914B0490914C04A0914D0434
:102D4000B0914E04892B8A2B8B2B09F4E6C00E948C
:102D5000750300913B0310913C0320913D0330919A
:102D60003E03DC01CB01801B910BA20BB30B009146
:102D70004B0410914C0420914D0430914E04801767
:102D80009107A207B307B0F2C8C087E00E94E90F1D
:102D900080E00E94830F61E671E08BE594E00E9481
:102DA000DE1080E00E94830F4091050150E060E05A
:102DB00070E02AE08BE594E00E9495100E94D40315
:102DC0000091AE021091AF022091B0023091B10299
:102DD000DC01CB01801B910BA20BB30B8435910559
:102DE000A105B10508F476C00E94290E823069F071
:102DF000803109F047C080910501811102C08FEF39
:102E000001C081508093050159C0809105018F3F19
:102E100019F41092050152C08F5FF4CF87E00E9431
:102E2000E90F80E00E94830F61E671E08BE594E09A
:102E30000E94DE1080E00E94830F4091D90250E092
:102E400060E070E02AE08BE594E00E9495100E941B
:102E5000D4030091AE021091AF022091B0023091E4
:102E6000B102DC01CB01801B910BA20BB30B8435AB
:102E70009105A105B10570F10E94290E8230A9F0DB
:102E8000803149F0813031F5809178048093790464
:102E90000E94A90E13C08091D902811102C08FEF48
:102EA00001C081508093D90209C08091D9028F3F1F
:102EB00019F41092D90202C08F5FF4CF1092020170
:102EC0000E94D4036093AE027093AF028093B0026D
:102ED0009093B1020E94D4036093D3027093D40202
:102EE0008093D5029093D6020E945B01F8CC80E0DB
:102EF0000E94830F61E671E08BE594E00E94DE1092
:102F000080E00E94830F6CE871E08BE594E00E9402
:102F1000DE1081E080930201D6CD0E94750360939C
:102F20003B0370933C0380933D0390933E030091D9
:102F3000390310913A030115110569F1D8011C9666
:102F40002C901C978091490490914A0484369105F5
:102F500010F41C961C92D801ED91FC918080918018
:102F6000432DB801CE0101960E94DF04F80145858A
:102F700056859E012F5F3F4FBE01695F7F4FC8019D
:102F8000F4010995D8011C962C921C9714960D916A
:102F90001C911597D0CF0E94B10E809101018093B2
:102FA00003018FEF8093040184CEEBEAF3E01382F8
:102FB000128288EE93E0A0E0B0E084839583A6833C
:102FC000B7832DE331E03183208325EC30E0358772
:102FD000248724EC30E03787268720EC30E0318BE3
:102FE000208B21EC30E0338B228B22EC30E0358BD0
:102FF000248B26EC30E0378B268B118E128E138EAD
:10300000148EE8E4F4E02FEF208312821182EFE4C3
:10301000F4E01382128284839583A683B7838DE4C0
:1030200091E0918380836DEA71E08BE794E00E94E8
:1030300049106BEB71E081E894E00E94491066EC66
:1030400071E087E894E00E94491062ED71E08DE83C
:1030500094E00E9449106FED71E083E994E00E94D2
:1030600049106DEE71E089E994E00E9449106AEF21
:1030700071E08FE994E00E94491068E072E085EA0F
:1030800094E00E94491066E172E08BEA94E00E94AD
:10309000491064E272E081EB94E00E94491066E31B
:1030A00072E087EB94E00E94491080917A0480934B
:1030B0007904809378048091080180937704EBE58C
:1030C000F4E0138212828DE591E091838083128E69
:1030D000148A8FE084838EE085838DE086838CE084
:1030E00087838BE080878AE0818789E082871786E3
:1030F00081E0808B82E0818B83E0828B84E0838B14
:10310000089597FB072E16F4009407D077FD09D099
:103110000E94A21807FC05D03EF4909581959F4F20
:103120000895709561957F4F0895EE0FFF1F0590EC
:10313000F491E02D09940E94551BB7FF0895821B5E
:10314000930B0895AA1BBB1B51E107C0AA1FBB1F0D
:10315000A617B70710F0A61BB70B881F991F5A9523
:10316000A9F780959095BC01CD010895CF93DF9389
:103170008230910510F482E090E0E091C604F09175
:10318000C70420E030E0C0E0D0E0309711F140818A
:10319000518148175907C0F04817590761F48281D7
:1031A0009381209719F09B838A832BC09093C70447
:1031B0008093C60426C02115310519F04217530724
:1031C00018F49A01BE01DF01EF010280F381E02DC6
:1031D000DCCF2115310509F1281B390B24303105CD
:1031E00090F412968D919C9113976115710521F0C1
:1031F000FB019383828304C09093C7048093C60429
:10320000FD01329644C0FD01E20FF31F81939193BB
:10321000225031092D933C933AC02091C40430913F
:10322000C504232B41F420910B0130910C01309304
:10323000C5042093C4042091090130910A0121158D
:10324000310541F42DB73EB740910D0150910E016B
:10325000241B350BE091C404F091C504E217F30779
:10326000A0F42E1B3F0B2817390778F0AC014E5FF6
:103270005F4F2417350748F04E0F5F1F5093C5046A
:103280004093C4048193919302C0E0E0F0E0CF0149
:10329000DF91CF9108950F931F93CF93DF93009702
:1032A00009F48CC0FC013297138212820091C6048B
:1032B0001091C7040115110581F420813181820F1D
:1032C000931F2091C4043091C5042817390779F55C
:1032D000F093C504E093C40471C0D80140E050E00D
:1032E000AE17BF0750F412962D913C911397AD0184
:1032F0002115310509F1D901F3CF9D01DA0133839D
:10330000228360817181860F971F8217930769F46A
:10331000EC0128813981260F371F2E5F3F4F318303
:1033200020838A819B8193838283452B29F4F093A8
:10333000C704E093C60442C01396FC93EE93129721
:10334000ED01499159919E01240F351FE217F307B2
:1033500071F480819181840F951F029611969C9340
:103360008E938281938113969C938E931297E0E0C3
:10337000F0E0D80112968D919C911397009719F067
:10338000F8018C01F6CF8D919C9198012E5F3F4FF3
:10339000820F931F2091C4043091C5042817390768
:1033A00069F4309729F41092C7041092C60402C041
:1033B000138212821093C5040093C404DF91CF914D
:1033C0001F910F910895A0E0B0E0E9EEF9E10C94AF
:1033D000221BEC01009721F4CB010E94B618B8C063
:1033E000FC01E60FF71F9C0122503109E217F30799
:1033F00008F4ACC0D9010D911C911197061717075D
:10340000B0F00530110508F49FC0C8010497861775
:10341000970708F499C002501109061B170B019376
:1034200011936D937C93CF010E944B198DC05B016A
:10343000A01AB10A4C01800E911EA091C604B09151
:10344000C70440E050E0E12CF12C109709F44AC089
:10345000A815B905D1F56D907C901197630182E0B4
:10346000C80ED11CCA14DB0480F1A3014A195B0900
:103470006A0182E0C80ED11C1296BC901297139676
:10348000AC91B5E0CB16D10440F0B282A383518356
:103490004083D9016D937C930AC00E5F1F4FC30117
:1034A000800F911FF90191838083EB2DFA2FE11496
:1034B000F10431F0D7011396FC93EE93129744C0B8
:1034C000F093C704E093C6043FC08D919C9111977F
:1034D0004817590708F4AC017D0112960D90BC9174
:1034E000A02DB3CF8091C4049091C504881599058F
:1034F000E1F446175707C8F48091090190910A0139
:10350000009741F48DB79EB740910D0150910E0187
:10351000841B950BE817F907C8F4F093C504E093F2
:10352000C404F901718360830FC0CB010E94B618F7
:103530007C01009759F0A801BE010E94B21ACE0189
:103540000E944B19C70104C0CE0102C080E090E088
:10355000CDB7DEB7EEE00C943E1B81E090E0F8942E
:103560000C94641BFB01DC0102C001900D924150E0
:103570005040D8F70895FB01DC0101900D92002026
:10358000E1F70895DB018F939F930E94131BBF9176
:10359000AF91A29F800D911DA39F900DB29F900DA2
:1035A00011240895A1E21A2EAA1BBB1BFD010DC018
:1035B000AA1FBB1FEE1FFF1FA217B307E407F507E3
:1035C00020F0A21BB30BE40BF50B661F771F881FBF
:1035D000991F1A9469F760957095809590959B0155
:1035E000AC01BD01CF010895052E97FB1EF4009498
:1035F0000E940B1B57FD07D00E94D21A07FC03D074
:103600004EF40C940B1B50954095309521953F4FEF
:103610004F4F5F4F089590958095709561957F4FBE
:103620008F4F9F4F08950E94551BA59F900DB49FEB
:10363000900DA49F800D911D112408952F923F920B
:103640004F925F926F927F928F929F92AF92BF92B2
:10365000CF92DF92EF92FF920F931F93CF93DF935E
:10366000CDB7DEB7CA1BDB0B0FB6F894DEBF0FBEBB
:10367000CDBF09942A88398848885F846E847D8408
:103680008C849B84AA84B984C884DF80EE80FD800A
:103690000C811B81AA81B981CE0FD11D0FB6F89480
:1036A000DEBF0FBECDBFED010895A29FB001B39F55
:1036B000C001A39F700D811D1124911DB29F700D3B
:1036C000811D1124911D089510E0CEE6D0E004C0C4
:1036D000FE010E9495182196CF36D107C9F7F894BC
:0236E000FFCF1A
:1036E20040400140FFFF0002800000C8048000014A
:1036F2000000000000000098029802980298027DE3
:103702000200000000170311037B02F8027802FA9C
:1037120000000040001400540000000000F2000904
:1037220010BB009900AD00390100000000490219E8
:10373200021102FD01EE01ED01000000006B07091C
:103742001020202020202020202020202020202087
:103752002000564D4450565F317C305F564D4450E8
:10376200560D0A00426F6F74696E67004265726B94
:10377200616E6100526561647900564D4450455F47
:1037820031007C005F564D4450450D0A004B656C7C
:103792006C65792059656C6C6F77004B656C6C6554
:1037A2007920526564004B656C6C657920426C75BA
:1037B20065004B656C6C657920477265656E004BE0
:1037C200656C6C657920507572706C65004B656C28
:1037D2006C6579205768697465004B656C6C657916
:1037E20020637573746F6D005261696E626F77202A
:1037F2006368617365005261696E626F77206379F5
:10380200636C6500437573746F6D205361747572D8
:103812006174696F6E00437573746F6D20487565CE
:023822000000A4
:00000001FF
