:100000000C946F000C9497000C9497000C9497003C
:100010000C9497000C9497000C9497000C94970004
:100020000C9497000C9497000C9497000C949700F4
:100030000C9497000C9497000C9497000C949700E4
:100040000C9448060C9497000C9497000C9497001D
:100050000C9497000C9497000C9497000C949700C4
:100060000C94D9090C94970036134A1366137C1329
:100070009213A813BE13C81323148B14CC140000BE
:100080000008000201000003040700000000000057
:10009000000040FF00FFA0FF60FFC0FFFF00000066
:1000A0000000250028002B0000000000240027008D
:1000B0002A000404040404040404020202020202EA
:1000C000030303030303010204081020408001021C
:1000D000040810200102040810208C15AC0F112414
:1000E0001FBECFEFD8E0DEBFCDBF12E0A0E0B1E091
:1000F000E0E0F2E302C005900D92AC30B107D9F711
:1001000023E0ACE0B2E001C01D92AE3BB207E1F7E4
:1001100010E0CEE6D0E004C02197FE010E94341624
:10012000CD36D107C9F70E94BC0F0C94F3180C947C
:1001300000004F925F926F927F928F929F92AF9248
:10014000BF92CF92DF92EF92FF920F931F93CF93C4
:10015000DF93CDB7DEB72E970FB6F894DEBF0FBE94
:10016000CDBF6C017B015A01F901DC011C968C9119
:1001700090819B8791819C8792819D87813009F036
:100180003BC0809110028F5F982F97709093100260
:1001900080FF02C080E801C080E091FD806494701F
:1001A00009F0806210E1180FFE013B969E01225F6C
:1001B0003F4F812C992493946191662331F070E034
:1001C000C4010E9420166F5F01C060E0CF01049758
:1001D000DC016C93712F769F712D1124AF01475074
:1001E0005109DA017C93662319F06150DC016C93AC
:1001F000E217F30709F706C01A86198618861F82C8
:100200001E821D82002311F003E001C000E00E9465
:10021000DD05F60127853089621B730B6A30710595
:10022000B0F3F89415B1186085B1877F85B98984DA
:100230009E81482D491B9C847D846B843F815D8118
:100240005A844884D70111967C91772319F0740F52
:1002500008F47FEF292D729F712D1124D501F7012C
:1002600020E0942F422F622F002C15B900C000C04F
:1002700000C000C000C077FF85B962812227889442
:1002800000C000C000C000C000C000C0002C85B984
:100290006111630F00C000C0002C00C000C015B980
:1002A00000C000C000C000C000C076FF85B908F4DF
:1002B0006FEF889400C000C000C000C000C000C044
:1002C00000C085B970FC260F00C000C0002C00C023
:1002D00000C015B900C000C000C000C000C075FF5C
:1002E00085B92795889471FC260F00C000C000C016
:1002F00000C000C000C0002C85B92795889400C0BC
:1003000000C0002C00C000C015B900C000C000C073
:1003100000C000C074FF85B972FC260F2795889431
:1003200000C000C000C000C000C000C0002C85B9E3
:1003300073FC260F00C000C0002C00C000C015B91F
:1003400000C000C000C000C000C073FF85B9279581
:10035000889474FC260F00C000C000C000C000C01C
:1003600000C0002C85B92795889400C000C0002CDF
:1003700000C000C015B900C000C000C000C000C06F
:1003800072FF85B975FC260F2795889400C000C0C0
:1003900000C000C000C000C0002C85B976FC260F4C
:1003A00000C000C0002C00C000C015B900C000C0D3
:1003B00000C000C000C071FF85B92795889477FC04
:1003C000260F00C000C000C000C000C000C0002C4C
:1003D00085B92795889400C000C0002C00C000C0DB
:1003E00015B900C000C000C000C000C070FF85B9D2
:1003F0003195350D00C000C000C000C000C000C075
:1004000000C0002C85B9722F00C000C000C000C021
:1004100000C015B900C000C000C000C000C077FF18
:1004200085B960812227889400C000C000C000C048
:1004300000C000C0002C85B96111650F00C000C06C
:10044000002C00C000C015B900C000C000C000C032
:1004500000C076FF85B908F46FEF889400C000C033
:1004600000C000C000C000C000C085B960FC260FFD
:1004700000C000C0002C00C000C015B900C000C002
:1004800000C000C000C075FF85B92795889461FC45
:10049000260F00C000C000C000C000C000C0002C7B
:1004A00085B92795889400C000C0002C00C000C00A
:1004B00015B900C000C000C000C000C074FF85B9FD
:1004C00062FC260F2795889400C000C000C000C0C1
:1004D00000C000C0002C85B963FC260F00C000C01E
:1004E000002C00C000C015B900C000C000C000C092
:1004F00000C073FF85B92795889464FC260F00C05F
:1005000000C000C000C000C000C0002C85B9279505
:10051000889400C000C0002C00C000C015B900C005
:1005200000C000C000C000C072FF85B965FC260F86
:100530002795889400C000C000C000C000C000C063
:10054000002C85B966FC260F00C000C0002C00C03E
:1005500000C015B900C000C000C000C000C071FFDD
:1005600085B92795889467FC260F00C000C000C09D
:1005700000C000C000C0002C85B92795889400C039
:1005800000C0002C00C000C015B900C000C000C0F1
:1005900000C000C070FF85B9E00FF11D8894722F74
:1005A00000C000C000C000C000C000C0002C85B961
:1005B0005195540D00C000C0002C00C000C015B9FA
:1005C00000C000C000C000C000C077FF85B96181D5
:1005D0002227889400C000C000C000C000C000C036
:1005E000002C85B96111690F00C000C0002C00C04B
:1005F00000C015B900C000C000C000C000C076FF38
:1006000085B908F46FEF889400C000C000C000C036
:1006100000C000C000C085B990FC260F00C000C01B
:10062000002C00C000C015B900C000C000C000C050
:1006300000C075FF85B92795889491FC260F00C0EE
:1006400000C000C000C000C000C0002C85B92795C4
:10065000889400C000C0002C00C000C015B900C0C4
:1006600000C000C000C000C074FF85B992FC260F16
:100670002795889400C000C000C000C000C000C022
:10068000002C85B993FC260F00C000C0002C00C0D0
:1006900000C015B900C000C000C000C000C073FF9A
:1006A00085B92795889494FC260F00C000C000C02F
:1006B00000C000C000C0002C85B92795889400C0F8
:1006C00000C0002C00C000C015B900C000C000C0B0
:1006D00000C000C072FF85B995FC260F279588944D
:1006E00000C000C000C000C000C000C0002C85B920
:1006F00096FC260F00C000C0002C00C000C015B939
:1007000000C000C000C000C000C071FF85B92795BF
:10071000889497FC260F00C000C000C000C000C035
:1007200000C0002C85B92795889400C000C0002C1B
:1007300000C000C015B900C000C000C000C000C0AB
:1007400070FF85B99195980D722F00C000C000C050
:1007500000C000C000C000C085B900C000C0002CAF
:10076000119709F082CD20EF33E0D5010E943A16AF
:10077000DC01CB01F4E0B695A79597958795FA959E
:10078000D1F720E030E0A9016AE9A69E412DB69E8E
:10079000400D511D1124840F951FA11DB11D893ECF
:1007A00043E09407A105B10588F1885E9340A10953
:1007B000B10942E0B695A795979587954A95D1F7E7
:1007C00047E0849F212D949F200D311D11246091BD
:1007D000110270E0860F971F820F931F40910C0249
:1007E00050910D0260910E0270910F02292F332754
:1007F000420F531F611D711D40930C0250930D0257
:1008000060930E0270930F028093110278940E94FD
:10081000DD05D60150967C936E931F972E960FB6EA
:10082000F894DEBF0FBECDBFDF91CF911F910F9126
:10083000FF90EF90DF90CF90BF90AF909F908F9000
:100840007F906F905F904F90089590E0FC01E25888
:10085000FF4F3491FC01EA53FF4F2491FC01EE5409
:10086000FF4FE491EE2309F43BC0332339F13330D9
:1008700091F038F43130A9F0323001F584B58F7D34
:1008800012C0373091F03830A1F03430B9F4809193
:1008900080008F7D03C0809180008F7780938000DF
:1008A0000DC084B58F7784BD09C08091B0008F776B
:1008B00003C08091B0008F7D8093B000F0E0EE0F18
:1008C000FF1FE256FF4FA591B4918FB7F894EC91BA
:1008D000611103C020952E2301C02E2B2C938FBFB6
:1008E0000895FC012081222321F0269F212D09F06B
:1008F0002F5F2083089585ED8093BC008091BC001C
:1009000084FDFCCF10921A03089540913602262FE1
:1009100030E0240F311D21323105DCF420911A031F
:100920002430C9F4FC0180E090E0861758F430913F
:1009300036022191DC01AC5EBD4FA30FB11D2C939B
:100940000196F3CF80913602680F6093360280E003
:10095000089581E0089582E008950895E091D3021A
:100960008091D202E81730F4F0E0EC52FD4F808124
:1009700090E008958FEF9FEF08959091D3028091BA
:10098000D202981750F4E92FF0E0EC52FD4F20818D
:1009900030E09F5F9093D30202C02FEF3FEFC90179
:1009A00008958091D20290E02091D302821B910998
:1009B0000895CF92DF92EF92FF920F931F93CF9300
:1009C000DF937C01262F972F8A0180913D03882396
:1009D00091F0C62FD72F6E01C40ED51ECC15DD05A4
:1009E00071F06991D701ED91FC910190F081E02DBA
:1009F000C7010995F3CF642F822F0E948504C80197
:100A0000DF91CF911F910F91FF90EF90DF90CF90EA
:100A10000895CF93DF931F92CDB7DEB769832091FE
:100A20003D032223D1F020913B03203240F021E00E
:100A300030E0FC013383228380E090E015C0809198
:100A40003C03E82FF0E0E55EFC4F998190838F5FD7
:100A500080933C0380933B0305C061E0CE01019687
:100A60000E94850481E090E00F90DF91CF9108957E
:100A700080E991E00895239A089580E090E0089538
:100A8000FC01DB013C912081230F08F42FEF208330
:100A900011963C9111972181230F08F42FEF2183A8
:100AA00012963C912281230F08F42FEF22830895A0
:100AB0000E944C181F93CF93DF93182FEB010E94D5
:100AC000700D209711F460E004C0CF3FD10539F4D8
:100AD00061E0812FDF91CF911F910C942504E12FCC
:100AE000F0E0E258FF4FE491E330F9F048F4E130F0
:100AF000B9F0E230A1F584B5806284BDC8BD34C0D0
:100B0000E730E9F0E83019F1E43049F580918000F0
:100B1000806280938000D0938B00C0938A0024C0B1
:100B200084B5806884BDC7BD1FC080918000806887
:100B300080938000D0938900C093880015C0809175
:100B4000B00080688093B000C093B3000DC0809166
:100B5000B00080628093B000C093B40005C0C0387C
:100B6000D1050CF0B5CFAFCFDF91CF911F91089594
:100B70000F93CF93DF9300D01F92CDB7DEB7AB01B9
:100B800019821A821B8200E09E012F5F3F4FB9013C
:100B90000E9499000F900F900F90DF91CF910F91CD
:100BA00008950F9301E00E9499000F9108950F930B
:100BB00000E00E9499000F9108953FB7F89480914A
:100BC0005C0290915D02A0915E02B0915F0226B539
:100BD000A89B05C02F3F19F00196A11DB11D3FBF75
:100BE000BA2FA92F982F8827820F911DA11DB11D03
:100BF000BC01CD0142E0660F771F881F991F4A95FF
:100C0000D1F708958F929F92AF92BF92CF92DF92C9
:100C1000EF92FF926B017C010E94DD054B015C01AC
:100C2000C114D104E104F104F1F00E94DD05DC01FE
:100C3000CB0188199909AA09BB09883E9340A105EF
:100C4000B10570F321E0C21AD108E108F10888EE7D
:100C5000880E83E0981EA11CB11CC114D104E104CC
:100C6000F10419F7DDCFFF90EF90DF90CF90BF90A8
:100C7000AF909F908F9008952FB7F89460910C02D9
:100C800070910D0280910E0290910F022FBF089576
:100C90001F920F920FB60F9211242F933F938F93B1
:100CA0009F93AF93BF9380910C0290910D02A091FE
:100CB0000E02B0910F0230915B0223E0230F2D371B
:100CC00020F40196A11DB11D05C026E8230F029650
:100CD000A11DB11D20935B0280930C0290930D0225
:100CE000A0930E02B0930F0280915C0290915D027E
:100CF000A0915E02B0915F020196A11DB11D80938B
:100D00005C0290935D02A0935E02B0935F02BF917C
:100D1000AF919F918F913F912F910F900FBE0F90A8
:100D20001F901895FF920F931F93CF93DF9300D0DE
:100D300000D0CDB7DEB7FC018B016081F18042812C
:100D4000262F2F71220F220F822F880F35E5282F93
:100D5000239F212D1124562F5074962F907267FDDA
:100D600022C051110CC0911104C0822F80958B8339
:100D700011C08BEA8B832B5A2A83198239C09111B7
:100D80000CC0382F5AEA359F312D11248BEA831B72
:100D90008B8325552A8319822BC01B8280E0822FEA
:100DA00080958A830EC0511112C091110CC01B8214
:100DB000282F3AEA239F212D11248BEA821B8A8354
:100DC0002B5A298315C02B831A822095FACF9111B3
:100DD00008C085E5820F8B831A828BEA821B898388
:100DE00007C08BEA820F8B831A8280E0321B398323
:100DF0002FEFF21601F16F2DCE0103964C830E9466
:100E000071046F2DCE0102960E9471046F2DCE01E8
:100E100001960E94710411246F2D6095669F612DCB
:100E200011248B81860F8B838A81860F8A83898127
:100E3000680F69834C814F3FC9F0F12C2F2D44235B
:100E400021F0449F212D09F02F5FF22E622FCE0159
:100E500003960E9471046F2DCE0102960E947104C8
:100E60006F2DCE0101960E94710411248B81F8012F
:100E700080838A818183898182830F900F900F9074
:100E80000F90DF91CF911F910F91FF9008954F9296
:100E90005F926F927F92AF92BF92CF92DF92EF926A
:100EA000FF920F931F93CF93DF93FC011082118267
:100EB00012824423B9F18B01075F1F4F5C01EB01E4
:100EC0002C96442E512C612C712CD8011397CC9068
:100ED000D8012D918D01CC20F9F02223E9F0822F49
:100EE00090E0A0E0B0E09C01AD012F5F3F4F4F4F7D
:100EF0005F4FC301B2010E9410169B01AC01D12CBF
:100F0000E12CF12CC701B6016F5F7F4F8F4F9F4FD0
:100F10000E941016D5018C93BFEFAB1ABB0A0C17B9
:100F20001D0799F6CF01DF91CF911F910F91FF908F
:100F3000EF90DF90CF90BF90AF907F906F905F90D9
:100F40004F900895682F85E493E00C940905EF9283
:100F5000FF920F931F93CF93DF9300D0CDB7DEB7EF
:100F60007C01162F683020F0185095E103E102C093
:100F700094E102E1F701808180624A8399830E94B3
:100F8000630C9981892F0E94A2070E946D0CF701C2
:100F90009081892F806261E070E090E00E94CA0C2D
:100FA00085E493E00E94BD044A8121E030E001C065
:100FB000220F1A95EAF7413019F4122F182B03C0AB
:100FC0002095122F1823F701808180620E94630C04
:100FD000802F0E94A207812F0E94A2070F900F90DE
:100FE000DF91CF911F910F91FF90EF900C946D0CBA
:100FF000FC01962F828D8F3F31F0603140F4CF019C
:101000004B960C94A707642F892F0C942504089500
:10101000CF93DF93EC0140E06E810E94F80741E03E
:101020006E81CE010E94F80740E06E81CE010E94E1
:10103000F8078BE891E00197F1F7DF91CF910895E0
:10104000EF92FF920F931F93CF93DF931F92CDB731
:10105000DEB77C01162F683018F0185001E001C08F
:1010600000E0F7018081806249830E94630C802F39
:101070000E94A2070E946D0CF7018081806261E0EE
:1010800070E090E00E94CA0C85E493E00E94BD04E9
:10109000498121E030E001C0220F1A95EAF74111A1
:1010A00003C0122F182B03C02095122F1823F7010D
:1010B000808180620E94630C802F0E94A207812F92
:1010C0000E94A2070F90DF91CF911F910F91FF9087
:1010D000EF900C946D0C603110F40C94200808957E
:1010E000CF93DF9300D0CDB7DEB7FC018081806263
:1010F00069837A830E94630C82E10E94A20769815E
:10110000862F0E94A2077A81872F0E94A2070F9044
:101110000F90DF91CF910C946D0C8F929F92AF92B4
:10112000BF92CF92DF92EF92FF920F931F93CF93D4
:10113000DF93EC018A8D8E01095F1F4FC62ED12CE3
:101140008F3F09F483C07E018BE1E80EF11C8B8D8B
:1011500080620E94630C82E10E94A2070E946D0CD3
:101160008B8D806262E070E090E00E94CA0C85E4A2
:1011700093E00E94BD04B82E85E493E00E94BD0474
:10118000982F88279C012B29F801A0E0B0E061E0AE
:1011900070E0B19001E010E0CB010B2C02C0880F91
:1011A000991F0A94E2F78095909528233923A60188
:1011B0000A2E02C0559547950A94E2F741705527CB
:1011C00002C0440F551FBA94E2F7242B352B119619
:1011D000A430B105F1F668010E8002C0CC0CDD1C14
:1011E0000A94E2F7C094D094C222D322B601C70178
:1011F0000E947008B8010E8002C0660F771F0A9423
:10120000E2F7C62AD72AB601C7010E9470080E80ED
:1012100002C0000F111F0A94E2F700951095B60165
:1012200060237123C7010E9470088BE891E0019749
:10123000F1F7DF91CF911F910F91FF90EF90DF9029
:10124000CF90BF90AF909F908F900895E12CF12C9C
:101250004E01EBE18E0E911C5801F80180819A8DB0
:101260009F3F31F041E0682FC4010E946B0802C02B
:101270000E94700D0F5F1F4FA6010E2C02C05595E6
:1012800047950A94E2F74170F5016081CE010E9412
:10129000F807FFEFEF1AFF0A84E0E816F104E1F621
:1012A000CE01DF91CF911F910F91FF90EF90DF90D2
:1012B000CF90BF90AF909F908F900C9408088F9222
:1012C0009F92AF92BF92CF92DF92EF92FF920F93D5
:1012D0001F93CF93DF93EC01F62E6C810E94F807E9
:1012E0006D816F3F21F040E0CE010E94F8078C89AC
:1012F0000F2D10E084FF3EC06E0187E0C80ED11CA8
:10130000E12CF12C4E01EBE18E0E911C5601F60101
:1013100080819A8D9F3F31F041E0682FC4010E9487
:101320006B0802C00E94700DFFEFCF1ADF0AA80100
:101330000E2C02C0559547950A94E2F74170F501CD
:101340006081CE010E94F807FFEFEF1AFF0A88E0E4
:10135000E816F104D9F6CE01DF91CF911F910F91DC
:10136000FF90EF90DF90CF90BF90AF909F908F90C5
:101370000C940808B80184E0759567958A95E1F7A3
:10138000CE010E948D086F2DCE01DF91CF911F916C
:101390000F91FF90EF90DF90CF90BF90AF909F9014
:1013A0008F900C948D0841E00E945F0981E090E0ED
:1013B00008951F920F920FB60F9211242F933F930F
:1013C0004F935F936F937F938F939F93AF93BF934D
:1013D000EF93FF938091B900887F803609F49CC019
:1013E00068F5883209F45BC090F4803109F454C088
:1013F00038F4882309F4F6C0883009F44DC0F6C0EB
:10140000883109F44CC0803209F45DC0EFC08034EB
:1014100009F468C048F4803309F455C0883309F0F2
:10142000E5C080931803D8C0803509F44FC08835D3
:1014300009F45DC0883409F0D9C0D6C0883909F4F0
:10144000C7C0A8F4883709F467C038F4883609F4AF
:1014500063C0803709F460C0C9C0883809F4B8C0D7
:10146000803909F45FC0803809F0C0C05BC0803BA0
:1014700009F486C038F4803A09F466C0883A09F461
:101480007FC0B4C0803C09F4A7C0883C09F4A4C064
:10149000883B09F48AC0AAC08091F50210C09091DF
:1014A000170380911603981770F5E091170381E0F8
:1014B0008E0F80931703F0E0EA50FD4F80818093F8
:1014C000BB0085EC86C0809318038EC0E0911703A3
:1014D00081E08E0F809317038091BB00F0E0EA500B
:1014E000FD4F808390911703809116036EC0E091A9
:1014F000170381E08E0F809317038091BB00F0E00B
:10150000EA50FD4F80838091190381116DC081E005
:101510008093F40284EA61C083E080931A031092FE
:101520005A02CFCF80915A02803208F051C0E09128
:101530005A0281E08E0F80935A028091BB00F0E046
:10154000E65CFD4F8083BDCF85EC8093BC0010929C
:101550001A0380915A02803230F4E0915A02F0E08E
:10156000E65CFD4F108260915A0270E0E091380213
:10157000F09139028AE392E0099510925A0236C03E
:1015800084E080931A031092370210923602E091A1
:101590003402F0913502099580913602811105C01F
:1015A00081E08093360210921402E091370281E0CC
:1015B0008E0F80933702F0E0EC5EFD4F80818093C8
:1015C000BB009091370280913602981708F479CFCA
:1015D00085E88093BC000AC085EC8093BC00109223
:1015E0001A0304C0109218030E947B04FF91EF912C
:1015F000BF91AF919F918F917F916F915F914F912B
:101600003F912F910F900FBE0F901F901895109241
:101610001A0381E0809319031092F40261E082E1E1
:101620000E94250461E083E10E942504E9EBF0E0DB
:1016300080818E7F808380818D7F808388E480930A
:10164000B80085E48093BC0008950F931F930E9417
:101650003C06009178021091790220917A02309133
:101660007B02DC01CB01801B910BA20BB30B8B3FE8
:101670009105A105B10508F44BC00E94150D8430F9
:10168000B1F08830E1F0813009F042C080916F0301
:1016900080936E038091700380936F030E94950D79
:1016A000109202010E94A50E0E94ED0D27C08091AC
:1016B00070038F5F8B3050F01092700309C08091DF
:1016C0007003811102C08AE001C0815080937003D1
:1016D00080E00E946F0E81E591E00E949A0E80E00A
:1016E0000E946F0E8091700326E0829FC00111243A
:1016F0008F589C4F0E949C0E109202010E943C0643
:10170000609378027093790280937A0290937B02BF
:101710001F910F910895AF92BF92CF92DF92EF92F7
:10172000FF920F931F93CF93DF9300D000D000D090
:10173000CDB7DEB780911202909113029C012E5F0B
:101740003F4F203631052CF43093130220931202C0
:1017500006C08E55910990931302809312020E9445
:10176000A50E10911202812F9091130297FD0F96F2
:101770007C0164E0F594E7946A95E1F71295107F97
:101780001095012F0095C12CD12C809104019091CE
:1017900003019C838D831E83BE016F5F7F4FCE014B
:1017A00004960E9492065701AA0CBB1CF501E4594D
:1017B000FD4F808191819C01220F331F820F931F67
:1017C000BE016F5F7F4F88559D4F0E9440058091FD
:1017D0000401909103019C838D831E83BE016F5F82
:1017E0007F4FCE0104960E949206F501E05AFD4F0C
:1017F000808191819C01220F331F820F931FBE01B4
:101800006F5F7F4F88559D4F0E9440058FEFE81A0C
:10181000F80A86E0E816F10411F4E12CF12C8FEFC0
:10182000C81AD80A84E0C816D10441F083E0C8166B
:10183000D10411F4102FA9CF1FEFA7CF0E94ED0DF7
:1018400026960FB6F894DEBF0FBECDBFDF91CF91C5
:101850001F910F91FF90EF90DF90CF90BF90AF90CE
:101860000895CF93DF93EC01688170E085E00E94DA
:101870005A05698170E086E00E945A056A8170E02D
:1018800083E0DF91CF910C945A0520E0DC0160FFEA
:1018900003C001C02D932D936250E0F77040D0F744
:1018A0000895009769F0FC0101900020E9F7319755
:1018B000AF01481B590BBC0181E593E00C94150F57
:1018C00080E090E0089591E090933D038093B90308
:1018D00010923C0310923B03089520913B0390919A
:1018E000B903213208F04AC080911A038111FCCF5C
:1018F00032E030931A0331E0309319033FEF309315
:1019000018031092170320931603ABE1B3E046EFE0
:1019100052E0FA013E2F341B321718F43D913193F7
:10192000F9CF1092F5022091F502990F922B909326
:10193000F5029091F402913061F41092F4029091CA
:10194000F5029093BB009091BC0093FDF8CF95EC0D
:1019500001C095EE9093BC0090911A039230E1F390
:10196000909118039F3F79F080911803803241F0E5
:1019700080911803803331F084E005C081E003C01A
:1019800082E001C083E010923C0310923B0310926E
:101990003D03089590911A039111FCCF613208F034
:1019A00060E291E090931A03909319032FEF209334
:1019B000180310921703260F209316039093F50235
:1019C0009091F502880F892B8093F5028091F402A3
:1019D000813061F41092F4028091F5028093BB0093
:1019E0008091BC0083FDF8CF85EC01C085EE80932B
:1019F000BC0080911A038130E1F3809117038617B0
:101A000010F460911703A6EFB2E024ED32E0F90183
:101A10008E2F821B861718F48D918193F9CF109227
:101A2000D3026093D202862F0895CF92DF92FF9265
:101A30000F931F93CF93DF931F92CDB7DEB7C12CC7
:101A4000D12C0FE1FC2CF601EF5AFC4F1785103119
:101A500040F5183018F0185093E101C092E18091E0
:101A60006C03806299830E94630C9981892F0E9484
:101A7000A2070E946D0C90916C03892F806261E037
:101A800070E090E00E94CA0C85E493E00E94BD04DF
:101A90009C01332702C0359527951A95E2F72170EE
:101AA00001C020E030E002C0220F331FFA94E2F7B9
:101AB00020953095802F90E082239323082F2FEFDD
:101AC000C21AD20A25E0C216D10409F0BBCF0F908A
:101AD000DF91CF911F910F91FF90DF90CF900895EC
:101AE00090E0FC01EA53FF4F2491FC01EE54FF4FBC
:101AF0008491882399F090E0880F991FFC01E855A4
:101B0000FF4FA591B491FC01E256FF4F859194914E
:101B10008FB7F894EC91E22BEC938FBF089540E0DF
:101B2000682F81E593E00C945F0981E00E948F0D9E
:101B30008BE39FE10197F1F70895CF92DF92EF9247
:101B4000FF920F931F93CF93DF938091B7039091F0
:101B5000B803EC012196D093B803C093B70349971B
:101B60009CF10E943C068B019C0188EE93E0C89F8B
:101B7000B001C99F700DD89F700D1124072E000C65
:101B8000880B990BC090B303D090B403E090B503D9
:101B9000F090B603A90198012C193D094E095F097F
:101BA0000E94C2183093400320933F031092B80361
:101BB0001092B7030E943C066093B3037093B40382
:101BC0008093B5039093B603DF91CF911F910F914E
:101BD000FF90EF90DF90CF900895CF92DF92EF9239
:101BE000FF920F931F93CF93DF9300D01F92CDB737
:101BF000DEB7F0903E038091410390914203A091A3
:101C00004303B0914403892B8A2B8B2BE9F00E946C
:101C1000DD050091CE021091CF022091D0023091CB
:101C2000D102DC01CB01801B910BA20BB30B009105
:101C300041031091420320914303309144038017E4
:101C40009107A207B307B8F20E94DD056093CE02A8
:101C50007093CF028093D0029093D1020091CC0276
:101C60001091CD020115110561F1D8011C96EC907F
:101C70001C9780913F03909140038436910510F4A6
:101C80001C961C92D801ED91FC91C280D3804F2DFF
:101C9000B801CE0101960E944707F8014585568597
:101CA000628173819E012F5F3F4FC801F601099544
:101CB000D8011C96EC921C9714960D911C911597C7
:101CC000D1CF0E949D0D0F900F900F90DF91CF917B
:101CD0001F910F91FF90EF90DF90CF900895CF93D9
:101CE000DF93CDB7DEB728970FB6F894DEBF0FBEEF
:101CF000CDBF98E0E1E3F1E0DE01119601900D9295
:101D00009A95E1F790916903981710F48FEF890F76
:101D1000FE013196E80FF11DE80FF11D808180680A
:101D200028960FB6F894DEBF0FBECDBFDF91CF91DE
:101D30000C948F0D0C94510CFC01448155816081F1
:101D4000718181E593E00C94150FCF93DF93C091DF
:101D5000CC02D091CD02209789F08A819B81009797
:101D600049F06D857E859B01220F331F620F731F23
:101D70000E94450C0C80DD81C02DEDCFDF91CF910D
:101D80000895DC0120E030E08C91F901E855FD4F29
:101D9000808311968C911197818312968C91129762
:101DA00082832D5F3F4F2432310571F70895CF9222
:101DB000DF92EF92FF920F931F93CF93DF93CDB7F4
:101DC000DEB7A1970FB6F894DEBF0FBECDBF282FA8
:101DD00030E040E050E019A28E010F5D1F4F8AE015
:101DE000C82ED12CE12CF12CCA01B901A701960112
:101DF0000E94C218605DF80162938F0121153105C0
:101E00004105510589F7CF010E94510CA1960FB6EB
:101E1000F894DEBF0FBECDBFDF91CF911F910F9120
:101E2000FF90EF90DF90CF900895CF92DF92EF92E6
:101E3000FF920F931F93CF93DF936C017A018B0175
:101E4000C0E0D0E0CE15DF0589F0D8016D918D019D
:101E5000D601ED91FC910190F081E02DC60109952C
:101E6000892B11F47E0102C02196ECCFC701DF91CE
:101E7000CF911F910F91FF90EF90DF90CF90089539
:101E8000EF92FF920F931F93CF93DF93EC01198290
:101E900018821B821A821D821C8261157105A9F1AC
:101EA0007B01FB0101900020E9F731978F01061BB0
:101EB000170BB8016F5F7F4F80E090E00E948217A0
:101EC000009759F0998388831B830A832C813D8175
:101ED000232B81F4FC0110820DC088819981009729
:101EE00011F00E94EA16198218821D821C821B8240
:101EF0001A820BC01D830C83B701DF91CF911F9114
:101F00000F91FF90EF900C945A18DF91CF911F9191
:101F10000F91FF90EF900895CF93DF93D82FC1E0FA
:101F200082FB442740F94C2768E08CE693E00E944E
:101F3000A707D1FB442740F94C2767E08CE693E0E4
:101F40000E94A7074D2F41704C2766E08CE693E076
:101F5000DF91CF910C94A707CF93DF93C3EBD3E02E
:101F60002697888199810E94EA1683E0C137D807B5
:101F7000B9F7DF91CF910895CF93DF93CDB7DEB757
:101F80002A970FB6F894DEBF0FBECDBF789484B504
:101F9000826084BD84B5816084BD85B5826085BD65
:101FA00085B5816085BD80916E00816080936E00F3
:101FB00010928100809181008260809381008091E5
:101FC0008100816080938100809180008160809396
:101FD00080008091B10084608093B1008091B00056
:101FE00081608093B00080917A00846080937A0051
:101FF00080917A00826080937A0080917A0081607B
:1020000080937A0080917A00806880937A001092A1
:10201000C10080916B038F3F39F580916503886023
:102020008093650382E08093690310926A038BE3D7
:102030009DE00197F1F740E06091550381E593E061
:102040000E94F80740E06091570381E593E00E9409
:10205000F807609156036F3F09F4BAC040E081E58C
:1020600093E00E94F807B4C01092D3021092D202FB
:1020700010923C0310923B030E94070B10926C03DA
:102080001092D3021092D20210923C0310923B03A2
:102090000E94070B80916C0380620E94630C80E0B9
:1020A0000E94A2078FEF0E94A2070E946D0C8091F0
:1020B0006C0380620E94630C81E00E94A2078FEF94
:1020C0000E94A2070E946D0C41E068E08CE693E05C
:1020D0000E94200841E066E08CE693E00E94200820
:1020E00041E067E08CE693E00E94200887E00E94D0
:1020F0008C0F60915603662329F041E08CE693E053
:102100000E946B0841E0609155038CE693E00E94C9
:102110006B0841E0609157038CE693E00E946B08E6
:1021200008E513E0F4E0FF2EF00ED8016D918D016B
:1021300041E08CE693E00E946B08F012F6CF00E6D7
:1021400013E0E5E0EE2EE00E40E0F80160818CE661
:1021500093E00E946B08D8012D918D012031A8F5E4
:10216000283020F028507DE0F72E02C06CE0F62EDB
:1021700080916C0380622A870E94630C8F2D0E94DD
:10218000A2070E946D0C80916C03806261E070E098
:1021900090E00E94CA0C85E493E00E94BD04D82E12
:1021A00080916C0380620E94630C8F2D0E94A207B5
:1021B00041E050E02A85CA0101C0880F2A95EAF75C
:1021C0008D290E94A2070E946D0CE012BDCF25CF81
:1021D0008091650384FD21C063E081E593E00E9466
:1021E0008D080BE416E4C8010197F1F763E081E57F
:1021F00093E00E948D08C8010197F1F763E081E543
:1022000093E00E948D0883E592E00197F1F762E088
:1022100081E593E00E948D0815C080620E948F0DB9
:102220008BE496E40197F1F78091650380620E9448
:102230008F0D83E592E00197F1F78091650380624D
:102240000E948F0D8091650380620E948F0D84E053
:10225000809366038CE00E948F0D0E94950D82E0B2
:102260008093670386E00E948F0D81E00E948C0FAF
:1022700082E691E00E949A0EECE6F2E0A0E6B2E07F
:1022800022E030E081E090E0219331938D939D93A3
:10229000A9014F5F5F4F019762E0E837F60771F0E1
:1022A0004C3051051CF0A9014B5051098F3F2FEFC5
:1022B000920711F48BE090E09A01E6CF68EB7BE0A7
:1022C00080E090E00E94020680918F02811145C05B
:1022D00010928102109280028FEF8093840280938B
:1022E0008502809386028093870280938802809380
:1022F000890281E080938A0210928C0210928B02F4
:1023000010928302109282028091CC029091CD02B1
:10231000892B31F48EE792E09093CD028093CC022A
:10232000E0917C02F0917D02309721F08EE792E0FF
:10233000958384838EE792E090937D0280937C0264
:1023400010928E0210928D0285E291E090937F02AE
:1023500080937E0281E080938F02E0917E02F09173
:102360007F020480F581E02D8EE792E0099588EAEE
:1023700092E090938102809380028CE090E09093B1
:102380008C0280938B02E0917E02F0917F020084A8
:10239000F185E02D8EE792E00995009729F19C01E7
:1023A00040E050E060E472E48FE090E00E94611849
:1023B000722F632F00914103109142032091430338
:1023C00030914403872F962FDA0180179107A207D7
:1023D000B30710F4D901C8018093410390934203DD
:1023E000A0934303B09344030E94A50E0E94ED0DF9
:1023F00080E280933E0368EC70E080E090E00E9411
:10240000020685E00E94700D86E00E94700D83E058
:102410000E94700D1FEF19831A821B82CE01019654
:102420000E94310C19831A821B82CE0101960E94F0
:10243000C10E0E94ED0D6CE271E080E090E00E9420
:102440000206198200E80A831B82CE0101960E94CF
:10245000310C19820A831B82CE0101960E94C10EA3
:102460000E94ED0D6CE271E080E090E00E940206B7
:1024700019821A821B83CE0101960E94310C1982A7
:102480001A821B83CE0101960E94C10E0E94ED0D9F
:102490006CE271E080E090E00E94020619821A82EC
:1024A0001B82CE0101960E94310C19821A821B8276
:1024B000CE0101960E94C10E0E94ED0D0E94950D65
:1024C00082E00E948C0F80E00E946F0E8AE691E00D
:1024D0000E949A0E81E00E946F0E82E791E00E94B6
:1024E0009A0E6EEE72E080E090E00E94020632E901
:1024F000E32E30E0F32EF70185919591A591B491EB
:102500008093A50243E9C42E40E0D42EF6018591C4
:102510009591A591B4918093A6020E943C06609388
:1025200078027093790280937A0290937B020E94E2
:102530003C0660939D0270939E0280939F0290934D
:10254000A0020E943C0660939702709398028093C9
:10255000990290939A0222242A9453E0352E412C1A
:10256000512C80E480937C0080917A008064809379
:102570007A0080917A0086FDFCCF209178008091CE
:10258000790030E0382B3093070120930601A5EA4B
:10259000B0E00E94E4186A35A7E97A07A2E08A074A
:1025A000910534F4A20191010E946118265A01C0DC
:1025B0002FEF20936D03809108018213209308016F
:1025C00080916F03895090910801823028F48091A6
:1025D00005012091A70204C080910401209103010C
:1025E0002C838D839E83BE016F5F7F4FCE01049647
:1025F0000E949206CE0101960E94310C80916D03DB
:1026000080933E0381E00E946F0E80916F03B6E0DD
:102610008B9FC00111248F589C4F0E949C0E0E94DA
:102620003C06009178021091790220917A02309153
:102630007B02DC01CB01801B910BA20BB30B813120
:102640009742A105B10528F080910201882309F481
:1026500009C2E0916F038E2F90E08B30910508F056
:10266000EFC1FC01EC5CFF4F0C943416F70185912F
:102670009591A591B4918093A502F601459155914C
:10268000659174914093A6028093030140930401E5
:1026900083E015C0E4E9F0E085919591A591B491AE
:1026A0008093A502E5E9F0E045915591659174911B
:1026B0004093A602809303014093040181E00E94AD
:1026C0008C0F0E948B0B0E94250BBAC1E6E9F0E04B
:1026D00085919591A591B4918093A502E7E9F0E0E9
:1026E00045915591659174914093A60280930301A1
:1026F0004093040184E0E3CFE8E9F0E0859195910F
:10270000A591B4918093A502E9E9F0E04591559136
:10271000659174914093A602809303014093040154
:1027200082E0CDCFEAE9F0E085919591A591B49151
:102730008093A502EBE9F0E0459155916591749184
:102740004093A602809303014093040185E0B7CF34
:10275000ECE9F0E085919591A591B4918093A50263
:10276000EDE9F0E045915591659174914093A60291
:10277000809303014093040187E0A1CF8091A702D9
:1027800080930301809105018093040186E097CF37
:102790008090A1029090A202A090A302B090A40207
:1027A00080919D0290919E02A0919F02B091A00203
:1027B000A5019401281B390B4A0B5B0B273031050F
:1027C00041055105E0F160E070E0CB010E94020696
:1027D00080929D0290929E02A0929F02B092A002CF
:1027E00090910801809100010FEF080F0093000104
:1027F00089831FEF1A839B8380919B0290919C0297
:102800006CE070E00E942016BC01660F771F860FF7
:10281000971FBC0168557D4FCE0101960E9492061C
:1028200000930301109304010E94ED0D80919B021F
:1028300090919C02019690939C0280939B0286E06B
:102840000E948C0F40CF8090A1029090A202A09095
:10285000A302B090A40280919D0290919E02A0914B
:102860009F02B091A002A5019401281B390B4A0BCD
:102870005B0B293131054105510508F360E070E03B
:10288000CB010E94020680929D0290929E02A0922D
:102890009F02B092A00290910801809101012FEF58
:1028A000280F209301018C838FEF8D839E83BE01BF
:1028B000695F7F4FCE0104960E949206B0903E035E
:1028C0008091410390914203A0914303B09144034E
:1028D000892B8A2B8B2B09F4D7C00E94DD05009130
:1028E000CE021091CF022091D0023091D102DC01B2
:1028F000CB01801B910BA20BB30B009141031091F4
:102900004203209143033091440380179107A207AB
:10291000B307B0F2B9C087E00E948C0F80E00E943C
:102920006F0E81E591E00E949A0E80E00E946F0E8A
:10293000809105010E94D70E0E943C06009178020A
:102940001091790220917A0230917B02DC01CB0157
:10295000801B910BA20BB30B84359105A105B1052A
:1029600008F46EC00E94150D823069F0803109F0C4
:102970003FC080910501811102C08FEF01C08150DD
:102980008093050151C0809105018F3F19F4109289
:1029900005014AC08F5FF4CF87E00E948C0F80E072
:1029A0000E946F0E81E591E00E949A0E80E00E94E5
:1029B0006F0E8091A7020E94D70E0E943C060091E4
:1029C00078021091790220917A0230917B02DC0129
:1029D000CB01801B910BA20BB30B84359105A10594
:1029E000B10570F10E94150D8230A9F0803149F0D7
:1029F000813031F580916E0380936F030E94950DB5
:102A000013C08091A702811102C08FEF01C08150D5
:102A10008093A70209C08091A7028F3F19F41092FA
:102A2000A70202C08F5FF4CF109202010E943C0601
:102A3000609378027093790280937A0290937B027C
:102A40000E943C066093A1027093A2028093A302AD
:102A50009093A40280E090E0892B09F482CD0E943B
:102A600000007FCD80E00E946F0E81E591E00E9422
:102A70009A0E80E00E946F0E8AE691E00E949A0E04
:102A800081E080930201E5CD0E94DD056093CE02D6
:102A90007093CF028093D0029093D1020091CC0228
:102AA0001091CD020115110569F1D8011C96AC9069
:102AB0001C9780913F03909140038436910510F458
:102AC0001C961C92D801ED91FC91608071804B2D79
:102AD000B801CE0101960E944707F8014585568549
:102AE0009E012F5F3F4FBE01695F7F4FC801F30119
:102AF0000995D8011C96AC921C9714960D911C91C7
:102B00001597D0CF0E949D0D809101018093030104
:102B10008FEF8093040193CEEEE3F3E08FEF808399
:102B200012821182E5E4F3E01382128288EE93E0D0
:102B3000A0E0B0E084839583A683B7838DE391E022
:102B40009183808368E771E081E793E00E94400F02
:102B500066E871E087E793E00E94400F61E971E069
:102B60008DE793E00E94400F6DE971E083E893E008
:102B70000E94400F6AEA71E089E893E00E94400FEA
:102B800068EB71E08FE893E00E94400F65EC71E024
:102B900085E993E00E94400F63ED71E08BE993E0DB
:102BA0000E94400F61EE71E081EA93E00E94400FC5
:102BB0006FEE71E087EA93E00E94400F61E072E0FF
:102BC0008DEA93E00E94400F8091700380936F0321
:102BD00080936E038091080180936D03E1E5F3E03B
:102BE000138212828DE491E091838083128E148A85
:102BF0008FE084838EE085838DE086838CE08783FD
:102C00008BE080878AE0818789E08287178681E070
:102C1000808B82E0818B83E0828B84E0838B0895BC
:102C2000DB018F939F930E948018BF91AF91A29F69
:102C3000800D911DA39F900DB29F900D11240895BA
:102C400097FB072E16F4009407D077FD09D00E9459
:102C5000411607FC05D03EF4909581959F4F08954D
:102C6000709561957F4F0895EE0FFF1F0590F491C9
:102C7000E02D09940E94E418B7FF0895821B930B7E
:102C80000895AA1BBB1B51E107C0AA1FBB1FA617B3
:102C9000B70710F0A61BB70B881F991F5A95A9F705
:102CA00080959095BC01CD010895CF93DF9382303C
:102CB000910510F482E090E0E091BC03F091BD0337
:102CC00020E030E0C0E0D0E0309711F14081518148
:102CD00048175907C0F04817590761F4828193815A
:102CE000209719F09B838A832BC09093BD03809318
:102CF000BC0326C02115310519F04217530718F4FB
:102D00009A01BE01DF01EF010280F381E02DDCCFEB
:102D10002115310509F1281B390B2430310590F4B8
:102D200012968D919C9113976115710521F0FB010D
:102D30009383828304C09093BD038093BC03FD0101
:102D4000329644C0FD01E20FF31F8193919322500C
:102D500031092D933C933AC02091BA033091BB03C3
:102D6000232B41F420910B0130910C013093BB03D4
:102D70002093BA032091090130910A0121153105F0
:102D800041F42DB73EB740910D0150910E01241B27
:102D9000350BE091BA03F091BB03E217F307A0F4FF
:102DA0002E1B3F0B2817390778F0AC014E5F5F4FA1
:102DB0002417350748F04E0F5F1F5093BB03409315
:102DC000BA038193919302C0E0E0F0E0CF01DF917C
:102DD000CF9108950F931F93CF93DF93009709F43A
:102DE0008CC0FC013297138212820091BC031091B7
:102DF000BD030115110581F420813181820F931FDC
:102E00002091BA033091BB032817390779F5F09365
:102E1000BB03E093BA0371C0D80140E050E0AE17A5
:102E2000BF0750F412962D913C911397AD012115D7
:102E3000310509F1D901F3CF9D01DA0133832283F2
:102E400060817181860F971F8217930769F4EC01E7
:102E500028813981260F371F2E5F3F4F3183208312
:102E60008A819B8193838283452B29F4F093BD0350
:102E7000E093BC0342C01396FC93EE931297ED01CE
:102E8000499159919E01240F351FE217F30771F400
:102E900080819181840F951F029611969C938E9349
:102EA0008281938113969C938E931297E0E0F0E0D9
:102EB000D80112968D919C911397009719F0F80103
:102EC0008C01F6CF8D919C9198012E5F3F4F820F20
:102ED000931F2091BA033091BB032817390769F477
:102EE000309729F41092BD031092BC0302C01382E4
:102EF00012821093BB030093BA03DF91CF911F910D
:102F00000F910895A0E0B0E0E8E8F7E10C948F1885
:102F1000EC01009721F4CB010E945516B8C0FC01CA
:102F2000E60FF71F9C0122503109E217F30708F45E
:102F3000ACC0D9010D911C91119706171707B0F07D
:102F40000530110508F49FC0C8010497861797073C
:102F500008F499C002501109061B170B0193119335
:102F60006D937C93CF010E94EA168DC05B01A01A7D
:102F7000B10A4C01800E911EA091BC03B091BD031B
:102F800040E050E0E12CF12C109709F44AC0A8155C
:102F9000B905D1F56D907C901197630182E0C80E60
:102FA000D11CCA14DB0480F1A3014A195B096A0130
:102FB00082E0C80ED11C1296BC9012971396AC9169
:102FC000B5E0CB16D10440F0B282A3835183408395
:102FD000D9016D937C930AC00E5F1F4FC301800F10
:102FE000911FF90191838083EB2DFA2FE114F104F5
:102FF00031F0D7011396FC93EE93129744C0F093EF
:10300000BD03E093BC033FC08D919C91119748177D
:10301000590708F4AC017D0112960D90BC91A02DCA
:10302000B3CF8091BA039091BB0388159905E1F461
:1030300046175707C8F48091090190910A0100973B
:1030400041F48DB79EB740910D0150910E01841B44
:10305000950BE817F907C8F4F093BB03E093BA03A4
:10306000F901718360830FC0CB010E9455167C016A
:10307000009759F0A801BE010E945118CE010E948C
:10308000EA16C70104C0CE0102C080E090E0CDB7CF
:10309000DEB7EEE00C94AB1881E090E0F8940C946D
:1030A000F318FB01DC0102C001900D924150504029
:1030B000D8F70895FB01DC0101900D920020E1F7A3
:1030C0000895052E97FB1EF400940E94781857FD72
:1030D00007D00E94C21807FC03D04EF40C94781855
:1030E00050954095309521953F4F4F4F5F4F089534
:1030F00090958095709561957F4F8F4F9F4F089564
:103100000E94E418A59F900DB49F900DA49F800D80
:10311000911D112408952F923F924F925F926F92CA
:103120007F928F929F92AF92BF92CF92DF92EF9257
:10313000FF920F931F93CF93DF93CDB7DEB7CA1BD8
:10314000DB0B0FB6F894DEBF0FBECDBF09942A8803
:10315000398848885F846E847D848C849B84AA84AB
:10316000B984C884DF80EE80FD800C811B81AA8138
:10317000B981CE0FD11D0FB6F894DEBF0FBECDBF03
:10318000ED010895A1E21A2EAA1BBB1BFD010DC083
:10319000AA1FBB1FEE1FFF1FA217B307E407F50707
:1031A00020F0A21BB30BE40BF50B661F771F881FE3
:1031B000991F1A9469F760957095809590959B0179
:1031C000AC01BD01CF010895A29FB001B39FC00122
:1031D000A39F700D811D1124911DB29F700D811D43
:1031E0001124911D089510E0CEE6D0E004C0FE0148
:1031F0000E9434162196CF36D107C9F7F894FFCF35
:1032000040400140FFFF0002800000BE038000013B
:103210000000000000000058055805580558053DFD
:103220000500000000D705D1053B05B8053805FAB3
:10323000000000400014005400000000000905D9FF
:1032400004D104BD04AE04AD0400000000D3091590
:103250000F2020202020202020202020202020207F
:103260002000426F6F74696E67004265726B616E19
:1032700061005265616479004B656C6C6579205919
:10328000656C6C6F77004B656C6C6579205265647A
:10329000004B656C6C657920426C7565004B656C04
:1032A0006C657920477265656E004B656C6C65795D
:1032B00020507572706C65004B656C6C6579205799
:1032C00068697465004B656C6C657920637573740F
:1032D0006F6D005261696E626F772063686173651C
:1032E000005261696E626F77206379636C65004399
:1032F0007573746F6D2053617475726174696F6E4C
:0C33000000437573746F6D204875650004
:00000001FF
