:100000000C946F000C9497000C9497000C9497003C
:100010000C9497000C9497000C9497000C94970004
:100020000C9497000C9497000C9497000C949700F4
:100030000C9497000C9497000C9497000C949700E4
:100040000C943A050C9497000C9497000C9497002C
:100050000C9497000C9497000C9497000C949700C4
:100060000C9461080C94970007141914311443146C
:100070005514661477148114DC144415631540FF7D
:1000800000FFA0FF60FFC0FFFF00000000080002AB
:100090000100000304070000000000000000000051
:1000A0000000250028002B0000000000240027008D
:1000B0002A000404040404040404020202020202EA
:1000C000030303030303010204081020408001021C
:1000D00004081020010204081020781605171124C6
:1000E0001FBECFEFD8E0DEBFCDBF12E0A0E0B1E091
:1000F000EAE0F4E302C005900D92AE30B107D9F703
:1001000023E0AEE0B2E001C01D92A43CB207E1F7EB
:1001100010E0CEE6D0E004C02197FE010E94CB178C
:10012000CD36D107C9F70E9484100C94F8190C94AD
:1001300000004F925F926F927F928F92AF92BF9228
:10014000CF92EF92FF920F931F93CF93DF933C01D7
:10015000EB010E94CF04F30127853089621B730BEA
:100160006A307105B0F3F894E881F98155B15860AF
:1001700085B1877F85B96A859F81262F291B922F9C
:100180002F83BF844A805B807D85FE84EC847F5F03
:10019000F394E39438854E81AB84C9841181D201F4
:1001A00020E0C32F022F322F318111278894311183
:1001B000390F08F43FEF9195889470FD130F179550
:1001C000889471FD130F1795889472FD130F17957E
:1001D000889473FD130F1795889474FD130F17956A
:1001E000889475FD130F1795889476FD130F179556
:1001F000889477FD130F17958894232F7111212F61
:10020000960F122F002C55B900C000C000C000C0CE
:1002100000C017FF85B932812227889400C000C032
:1002200000C000C000C000C0002C85B931113C0FD7
:1002300000C000C0002C00C000C055B900C000C004
:1002400000C000C000C016FF85B908F43FEFC1959B
:10025000889400C000C000C000C000C000C0002CD6
:1002600085B9F0FC230F00C000C0002C00C000C006
:1002700055B900C000C000C000C000C015FF85B95E
:1002800027958894F1FC230F00C000C000C000C077
:1002900000C000C0002C85B92795889400C000C01C
:1002A000002C00C000C055B900C000C000C000C094
:1002B00000C014FF85B9F2FC230F2795889400C075
:1002C00000C000C000C000C000C0002C85B9F3FC15
:1002D000230F00C000C0002C00C000C055B900C0F2
:1002E00000C000C000C000C013FF85B927958894E6
:1002F000F4FC230F00C000C000C000C000C000C05C
:10030000002C85B92795889400C000C0002C00C03F
:1003100000C055B900C000C000C000C000C012FF3E
:1003200085B9F5FC230F2795889400C000C000C054
:1003300000C000C000C0002C85B9F6FC230F00C02F
:1003400000C0002C00C000C055B900C000C000C0F3
:1003500000C000C011FF85B927958894F7FC230FD2
:1003600000C000C000C000C000C000C0002C85B9A3
:100370002795889400C000C0002C00C000C055B96B
:1003800000C000C000C000C000C010FF85B9132F1E
:10039000F110122FCA0D00C000C000C000C000C084
:1003A00000C0002C85B900C000C000C000C000C063
:1003B000002C55B900C000C000C000C000C017FF2D
:1003C00085B930812227889400C000C000C000C0D9
:1003D00000C000C0002C85B93111340F00C000C02E
:1003E000002C00C000C055B900C000C000C000C053
:1003F00000C016FF85B908F43FEFEB0DF11D00C0FA
:1004000000C000C000C000C000C0002C85B9E0FCE6
:10041000230F00C000C0002C00C000C055B900C0B0
:1004200000C000C000C000C015FF85B927958894A2
:10043000E1FC230F00C000C000C000C000C000C02D
:10044000002C85B92795889400C000C0002C00C0FE
:1004500000C055B900C000C000C000C000C014FFFB
:1004600085B9E2FC230F2795889400C000C000C026
:1004700000C000C000C0002C85B9E3FC230F00C001
:1004800000C0002C00C000C055B900C000C000C0B2
:1004900000C000C013FF85B927958894E4FC230FA2
:1004A00000C000C000C000C000C000C0002C85B962
:1004B0002795889400C000C0002C00C000C055B92A
:1004C00000C000C000C000C000C012FF85B9E5FC3C
:1004D000230F2795889400C000C000C000C000C052
:1004E00000C0002C85B9E6FC230F00C000C0002C22
:1004F00000C000C055B900C000C000C000C000C0AE
:1005000011FF85B927958894E7FC230F00C000C030
:1005100000C000C000C000C0002C85B92795889499
:1005200000C000C0002C00C000C055B900C000C011
:1005300000C000C000C010FF85B9132FE110122FBA
:10054000419500C000C000C000C000C000C0002C29
:1005500085B94C0D00C000C000C000C000C055B936
:1005600000C000C000C000C000C017FF85B93181C5
:100570002227889400C000C000C000C000C000C096
:10058000002C85B93111390F00C000C0002C00C00B
:1005900000C055B900C000C000C000C000C016FFB8
:1005A00085B908F43FEF9195889400C000C000C061
:1005B00000C000C000C0002C85B970FD230F00C032
:1005C00000C0002C00C000C055B900C000C000C071
:1005D00000C000C015FF85B92795889471FD230FD1
:1005E00000C000C000C000C000C000C0002C85B921
:1005F0002795889400C000C0002C00C000C055B9E9
:1006000000C000C000C000C000C014FF85B972FD6A
:10061000230F2795889400C000C000C000C000C010
:1006200000C0002C85B973FD230F00C000C0002C52
:1006300000C000C055B900C000C000C000C000C06C
:1006400013FF85B92795889474FD230F00C000C05F
:1006500000C000C000C000C0002C85B92795889458
:1006600000C000C0002C00C000C055B900C000C0D0
:1006700000C000C000C012FF85B975FD230F27958B
:10068000889400C000C000C000C000C000C0002CA2
:1006900085B976FD230F00C000C0002C00C000C04B
:1006A00055B900C000C000C000C000C011FF85B92E
:1006B0002795889477FD230F00C000C000C000C0BC
:1006C00000C000C0002C85B92795889400C000C0E8
:1006D000002C00C000C055B900C000C000C000C060
:1006E00000C010FF85B9132F7111122F960F00C093
:1006F00000C000C000C000C000C0002C85B900C010
:1007000000C000C0119709F07ECD20EF33E0D20188
:100710000E94D117DC01CB01F4E0B695A79597951F
:100720008795FA95D1F720E030E0A9016AE9469E65
:10073000412D569E400D511D1124840F951FA11D62
:10074000B11D893E43E09407A105B10588F1885E9B
:100750009340A109B10942E0B695A7959795879571
:100760004A95D1F747E0849F212D949F200D311D9C
:10077000112460910E0270E0860F971F820F931F65
:100780004091550250915602609157027091580263
:10079000292F3327420F531F611D711D40935502AE
:1007A00050935602609357027093580280930E0242
:1007B00078940E94CF04F301708B6787DF91CF910B
:1007C0001F910F91FF90EF90CF90BF90AF908F90BF
:1007D0007F906F905F904F90089590E0FC01E657F6
:1007E000FF4F3491FC01EA53FF4F2491FC01EE547A
:1007F000FF4FE491EE2309F43BC0332339F133304A
:1008000091F038F43130A9F0323001F584B58F7DA4
:1008100012C0373091F03830A1F03430B9F4809103
:1008200080008F7D03C0809180008F77809380004F
:100830000DC084B58F7784BD09C08091B0008F77DB
:1008400003C08091B0008F7D8093B000F0E0EE0F88
:10085000FF1FE256FF4FA591B4918FB7F894EC912A
:10086000611103C020952E2301C02E2B2C938FBF26
:10087000089585ED8093BC008091BC0084FDFCCF81
:100880001092ED0208950895E091A6028091A502CC
:10089000E81730F4F0E0E955FD4F808190E00895CD
:1008A0008FEF9FEF08959091A6028091A50298176F
:1008B00050F4E92FF0E0E955FD4F208130E09F5FD3
:1008C0009093A60202C02FEF3FEFC90108958091D7
:1008D000A50290E02091A602821B910908950E9432
:1008E000E3191F93CF93DF93182FEB010E94D60AD1
:1008F000209711F460E004C0CF3FD10539F461E0E6
:10090000812FDF91CF911F910C94ED03E12FF0E047
:10091000E657FF4FE491E330F9F048F4E130B9F0E5
:10092000E230A1F584B5806284BDC8BD34C0E73033
:10093000E9F0E83019F1E43049F5809180008062F7
:1009400080938000D0938B00C0938A0024C084B52C
:10095000806884BDC7BD1FC080918000806880937F
:100960008000D0938900C093880015C08091B000AA
:1009700080688093B000C093B3000DC08091B00038
:1009800080628093B000C093B40005C0C038D10528
:100990000CF0B5CFAFCFDF91CF911F9108953FB746
:1009A000F8948091A1029091A202A091A302B0912B
:1009B000A40226B5A89B05C02F3F19F00196A11DE2
:1009C000B11D3FBFBA2FA92F982F8827820F911DE5
:1009D000A11DB11DBC01CD0142E0660F771F881F2C
:1009E000991F4A95D1F708958F929F92AF92BF9227
:1009F000CF92DF92EF92FF926B017C010E94CF04B5
:100A00004B015C01C114D104E104F104F1F00E9436
:100A1000CF04DC01CB0188199909AA09BB09883EDA
:100A20009340A105B10570F321E0C21AD108E10895
:100A3000F10888EE880E83E0981EA11CB11CC11439
:100A4000D104E104F10419F7DDCFFF90EF90DF90BE
:100A5000CF90BF90AF909F908F9008952FB7F8944C
:100A60006091550270915602809157029091580200
:100A70002FBF08951F920F920FB60F9211242F933C
:100A80003F938F939F93AF93BF9380915502909123
:100A90005602A0915702B09158023091A00223E073
:100AA000230F2D3720F40196A11DB11D05C026E8A6
:100AB000230F0296A11DB11D2093A0028093550221
:100AC00090935602A0935702B09358028091A102CE
:100AD0009091A202A091A302B091A4020196A11D3F
:100AE000B11D8093A1029093A202A093A302B093A0
:100AF000A402BF91AF919F918F913F912F910F9041
:100B00000FBE0F901F901895DC01FB014C911196C0
:100B10005C91119712967C91342F3F71330F330FF4
:100B2000832F880F35E5282F239F020E20E0211DFB
:100B30001124642F6074942F907247FD21C06111BD
:100B40000BC0911104C0822F8095422F11C045E542
:100B5000420F30E02BEA33C091110DC0382F4AEA22
:100B6000349F030E30E0311D11248BEA831B420FAA
:100B7000282F30E024C080E0422F4095322F0EC055
:100B8000611111C091110CC0382F2AEA329F030E57
:100B900030E0311D11244BEA431B3B5A20E00FC0CB
:100BA000322F30950BC0911104C085E5820F3BEACE
:100BB00003C08AEA820F90E0321B282F40E05F3F9B
:100BC00011F15523E9F0222321F0259F020E20E0A8
:100BD000211D442321F0459F040E40E0411D332395
:100BE00021F0359F030E30E0311D11245095559FA3
:100BF000050E50E0511D1124250F450F350F03C080
:100C00003FEF4FEF2FEF7F3F09F420C050E07723F5
:100C100021F0779F512D09F05F5F5523A1F022232A
:100C200021F0259F020E20E0211D442321F0459F45
:100C3000040E40E0411D332321F0359F030E30E0C8
:100C4000311D112403C030E040E020E020834183C7
:100C500032830895682F88E493E00C94910FEF920B
:100C6000FF920F931F93CF93DF9300D0CDB7DEB7E2
:100C70007C01162F683020F0185095E103E102C086
:100C800094E102E1F701808180624A8399830E94A6
:100C9000300B9981892F0E942A060E943A0BF70196
:100CA0009081892F806261E070E090E00E94970B54
:100CB00088E493E00E9453044A8121E030E001C0BF
:100CC000220F1A95EAF7413019F4122F182B03C09E
:100CD0002095122F1823F701808180620E94300B2B
:100CE000802F0E942A06812F0E942A060F900F90C3
:100CF000DF91CF911F910F91FF90EF900C943A0BE1
:100D0000FC01962F828D8F3F31F0603140F4CF018E
:100D10004B960C942F06642F892F0C94ED030895A5
:100D2000CF93DF93EC0140E06E810E94800641E0AA
:100D30006E81CE010E94800640E06E81CE010E944D
:100D400080068BE891E00197F1F7DF91CF9108954C
:100D5000EF92FF920F931F93CF93DF931F92CDB724
:100D6000DEB77C01162F683018F0185001E001C082
:100D700000E0F7018081806249830E94300B802F60
:100D80000E942A060E943A0BF7018081806261E08E
:100D900070E090E00E94970B88E493E00E94530477
:100DA000498121E030E001C0220F1A95EAF7411194
:100DB00003C0122F182B03C02095122F1823F70100
:100DC000808180620E94300B802F0E942A06812F32
:100DD0000E942A060F90DF91CF911F910F91FF90F3
:100DE000EF900C943A0B603110F40C94A80608951F
:100DF000CF93DF9300D0CDB7DEB7FC018081806256
:100E000069837A830E94300B82E10E942A066981FD
:100E1000862F0E942A067A81872F0E942A060F9029
:100E20000F90DF91CF910C943A0B8F929F92AF92DB
:100E3000BF92CF92DF92EF92FF920F931F93CF93C7
:100E4000DF93EC018A8D8E01095F1F4FC62ED12CD6
:100E50008F3F09F483C07E018BE1E80EF11C8B8D7E
:100E600080620E94300B82E10E942A060E943A0BA7
:100E70008B8D806262E070E090E00E94970B88E4C6
:100E800093E00E945304B82E88E493E00E94530438
:100E9000982F88279C012B29F801A0E0B0E061E0A1
:100EA00070E0B19001E010E0CB010B2C02C0880F84
:100EB000991F0A94E2F78095909528233923A6017B
:100EC0000A2E02C0559547950A94E2F741705527BE
:100ED00002C0440F551FBA94E2F7242B352B11960C
:100EE000A430B105F1F668010E8002C0CC0CDD1C07
:100EF0000A94E2F7C094D094C222D322B601C7016B
:100F00000E94F806B8010E8002C0660F771F0A948F
:100F1000E2F7C62AD72AB601C7010E94F8060E805A
:100F200002C0000F111F0A94E2F700951095B60158
:100F300060237123C7010E94F8068BE891E00197B6
:100F4000F1F7DF91CF911F910F91FF90EF90DF901C
:100F5000CF90BF90AF909F908F900895E12CF12C8F
:100F60004E01EBE18E0E911C5801F80180819A8DA3
:100F70009F3F31F041E0682FC4010E94F30602C098
:100F80000E94D60A0F5F1F4FA6010E2C02C0559576
:100F900047950A94E2F74170F5016081CE010E9405
:100FA0008006FFEFEF1AFF0A84E0E816F104E1F68D
:100FB000CE01DF91CF911F910F91FF90EF90DF90C5
:100FC000CF90BF90AF909F908F900C9490068F928F
:100FD0009F92AF92BF92CF92DF92EF92FF920F93C8
:100FE0001F93CF93DF93EC01F62E6C810E94800655
:100FF0006D816F3F21F040E0CE010E9480068C8918
:101000000F2D10E084FF3EC06E0187E0C80ED11C9A
:10101000E12CF12C4E01EBE18E0E911C5601F601F4
:1010200080819A8D9F3F31F041E0682FC4010E947A
:10103000F30602C00E94D60AFFEFCF1ADF0AA8010A
:101040000E2C02C0559547950A94E2F74170F501C0
:101050006081CE010E948006FFEFEF1AFF0A88E050
:10106000E816F104D9F6CE01DF91CF911F910F91CF
:10107000FF90EF90DF90CF90BF90AF909F908F90B8
:101080000C949006B80184E0759567958A95E1F710
:10109000CE010E9415076F2DCE01DF91CF911F91D8
:1010A0000F91FF90EF90DF90CF90BF90AF909F9007
:1010B0008F900C94150741E00E94E70781E090E0D3
:1010C00008951F920F920FB60F9211242F933F9302
:1010D0004F935F936F937F938F939F93AF93BF9340
:1010E000EF93FF938091B900887F803609F49CC00C
:1010F00068F5883209F45BC090F4803109F454C07B
:1011000038F4882309F4F6C0883009F44DC0F6C0DD
:10111000883109F44CC0803209F45DC0EFC08034DE
:1011200009F468C048F4803309F455C0883309F0E5
:10113000E5C08093EB02D8C0803509F44FC08835F4
:1011400009F45DC0883409F0D9C0D6C0883909F4E3
:10115000C7C0A8F4883709F467C038F4883609F4A2
:1011600063C0803709F460C0C9C0883809F4B8C0CA
:10117000803909F45FC0803809F0C0C05BC0803B93
:1011800009F486C038F4803A09F466C0883A09F454
:101190007FC0B4C0803C09F4A7C0883C09F4A4C057
:1011A000883B09F48AC0AAC08091C80210C09091FF
:1011B000EA028091E902981770F5E091EA0281E075
:1011C0008E0F8093EA02F0E0E753FD4F8081809319
:1011D000BB0085EC86C08093EB028EC0E091EA02F2
:1011E00081E08E0F8093EA028091BB00F0E0E7532C
:1011F000FD4F80839091EA028091E9026EC0E091F8
:10120000EA0281E08E0F8093EA028091BB00F0E059
:10121000E753FD4F80838091EC0281116DC081E026
:101220008093C70284EA61C083E08093ED0210924C
:101230009F02CFCF80919F02803208F051C0E09191
:101240009F0281E08E0F80939F028091BB00F0E0AF
:10125000E158FD4F8083BDCF85EC8093BC00109298
:10126000ED0280919F02803230F4E0919F02F0E025
:10127000E158FD4F108260919F0270E0E0917D0285
:10128000F0917E028FE792E0099510929F0236C09E
:1012900084E08093ED0210927C0210927B02E09138
:1012A0007902F0917A02099580917B02811105C043
:1012B00081E080937B0210925902E0917C0281E0F0
:1012C0008E0F80937C02F0E0E75AFD4F808180937F
:1012D000BB0090917C0280917B02981708F479CF33
:1012E00085E88093BC000AC085EC8093BC00109216
:1012F000ED0204C01092EB020E943904FF91EF91BD
:10130000BF91AF919F918F917F916F915F914F911D
:101310003F912F910F900FBE0F901F901895409105
:101320007B02262F30E0240F311D21323105DCF401
:101330002091ED022430C9F4FC0180E090E0861792
:1013400058F430917B022191DC01A75ABD4FA30FC5
:10135000B11D2C930196F3CF80917B02680F6093AF
:101360007B0280E0089581E0089582E00895109264
:10137000ED0281E08093EC021092C70261E082E10D
:101380000E94ED0361E083E10E94ED03E9EBF0E0F0
:1013900080818E7F808380818D7F808388E48093AD
:1013A000B80085E48093BC00089520E0DC0160FF74
:1013B00003C001C02D932D936250E0F77040D0F729
:1013C0000895009769F0FC0101900020E9F731973A
:1013D000AF01481B590BBC0184E593E00C940D1040
:1013E00080E090E00895CF92DF92EF92FF920F930A
:1013F0001F93CF93DF938091BB039091BC03EC01CB
:101400002196D093BC03C093BB0349979CF10E94E3
:101410002E058B019C0188EE93E0C89FB001C99F07
:10142000700DD89F700D1124072E000C880B990B9E
:10143000C090B703D090B803E090B903F090BA031E
:10144000A90198012C193D094E095F090E947617E0
:1014500030933D0320933C031092BC031092BB03D6
:101460000E942E056093B7037093B8038093B9036D
:101470009093BA03DF91CF911F910F91FF90EF905E
:10148000DF90CF900895CF92DF92EF92FF920F936B
:101490001F93CF93DF9300D01F92CDB7DEB7F090AC
:1014A0003B0380913E0390913F03A0914003B09194
:1014B0004103892B8A2B8B2BE9F00E94CF040091EA
:1014C0003703109138032091390330913A03DC013E
:1014D000CB01801B910BA20BB30B00913E0310912B
:1014E0003F03209140033091410380179107A207E9
:1014F000B307B8F20E94CF046093370370933803A8
:101500008093390390933A03E0914603F0914703A7
:10151000309759F040914203509143036091440346
:10152000709145038F2D0995F82E00913503109188
:1015300036030115110561F1D8011C96EC901C973A
:1015400080913C0390913D038436910510F41C96E4
:101550001C92D801ED91FC91C280D3804F2DB8012F
:10156000CE0101960E94060FF801458556856281DD
:1015700073819E012F5F3F4FC801F6010995D80185
:101580001C96EC921C9714960D911C911597D1CF37
:101590000E94F3090F900F900F90DF91CF911F9150
:1015A0000F91FF90EF90DF90CF90089590E0FC01B5
:1015B000EA53FF4F2491FC01EE54FF4F849188239E
:1015C00099F090E0880F991FFC01E855FF4FA59115
:1015D000B491FC01E256FF4F859194918FB7F89436
:1015E000EC91E22BEC938FBF0895DC0120E030E01A
:1015F0008C91F901EF5EFC4F808311968C911197CD
:10160000818312968C91129782832D5F3F4F2432F3
:10161000310571F70895CF93DF93C0913503D091D1
:101620003603209789F08A819B81009749F06D8568
:101630007E859B01220F331F620F731F0E94D50905
:101640000C80DD81C02DEDCFDF91CF910895FC019D
:10165000448155816081718184E593E00C940D1083
:1016600091E0909310038093B60310920F031092B1
:101670000E03089520910E039091B603213208F0D5
:101680004AC08091ED028111FCCF32E03093ED022F
:1016900031E03093EC023FEF3093EB021092EA021C
:1016A0002093E902AEEEB2E049EC52E0FA013E2F9F
:1016B000341B321718F43D913193F9CF1092C802C0
:1016C0002091C802990F922B9093C8029091C70263
:1016D000913061F41092C7029091C8029093BB00C0
:1016E0009091BC0093FDF8CF95EC01C095EE9093DE
:1016F000BC009091ED029230E1F39091EB029F3F9C
:1017000079F08091EB02803241F08091EB028033DE
:1017100031F084E005C081E003C082E001C083E0D5
:1017200010920F0310920E031092100308959091DF
:10173000ED029111FCCF613208F060E291E09093EC
:10174000ED029093EC022FEF2093EB021092EA024D
:10175000260F2093E9029093C8029091C802880F47
:10176000892B8093C8028091C702813061F4109266
:10177000C7028091C8028093BB008091BC0083FDAA
:10178000F8CF85EC01C085EE8093BC008091ED021E
:101790008130E1F38091EA02861710F46091EA0249
:1017A000A9ECB2E027EA32E0F9018E2F821B8617FE
:1017B00018F48D918193F9CF1092A6026093A5023F
:1017C000862F089540E0682F84E593E00C94E707A6
:1017D000CF93DF93CDB7DEB728970FB6F894DEBF6F
:1017E0000FBECDBF98E0E3E3F1E0DE01119601907A
:1017F0000D929A95E1F790916C03981710F48FEF82
:10180000890FFE013196E80FF11DE80FF11D80816F
:10181000806828960FB6F894DEBF0FBECDBFDF916B
:10182000CF910C94E20B0C94E10981E00E94E20B51
:101830008BE39FE10197F1F70895CF92DF92FF923A
:101840000F931F93CF93DF931F92CDB7DEB7C12CB9
:10185000D12C0FE1FC2CF601EC5AFC4F178510310E
:1018600040F5183018F0185093E101C092E18091D2
:101870006F03806299830E94300B9981892F0E94A7
:101880002A060E943A0B90916F03892F806261E0D3
:1018900070E090E00E94970B88E493E00E9453046C
:1018A0009C01332702C0359527951A95E2F72170E0
:1018B00001C020E030E002C0220F331FFA94E2F7AB
:1018C00020953095802F90E082239323082F2FEFCF
:1018D000C21AD20A25E0C216D10409F0BBCF0F907C
:1018E000DF91CF911F910F91FF90DF90CF900895DE
:1018F0008F929F92AF92BF920F931F93CF93DF93DC
:10190000CDB7DEB7A1970FB6F894DEBF0FBECDBF3F
:1019100019A2423008F44AE08E010F5D1F4F842E59
:10192000912CA12CB12CA50194010E947617E62FD1
:10193000B901CA0101501109EA3014F4E05D01C097
:10194000E95CD801EC93232B242B252B61F7C801EC
:101950000E94E109A1960FB6F894DEBF0FBECDBF7D
:10196000DF91CF911F910F91BF90AF909F908F907B
:101970000895CF93DF93D82FC1E082FB442740F92D
:101980004C2768E08FE693E00E942F06D1FB4427A6
:1019900040F94C2767E08FE693E00E942F064D2F19
:1019A00041704C2766E08FE693E0DF91CF910C9475
:1019B0002F0680E991E00895239A089580E090E051
:1019C0000895FC01858596850895CF93DF9300D017
:1019D00000D000D0CDB7DEB7AB011C821D821E82C5
:1019E000DC01ED91FC910190F081E02D19821A82C9
:1019F0001B829E012F5F3F4FBE016C5F7F4F099599
:101A000026960FB6F894DEBF0FBECDBFDF91CF9103
:101A10000895FC01DB013C912081230F08F42FEF96
:101A2000208311963C9111972181230F08F42FEF09
:101A3000218312963C912281230F08F42FEF2283F9
:101A400008950F931F93CF93DF93CDB7DEB76297BF
:101A50000FB6F894DEBF0FBECDBF8C01F901DC01DB
:101A60001C968C917A8369835C834B835E834D8360
:101A700090819D8791819E8792819F87813029F4F3
:101A8000CE0101960E94C00F06C01C861B861A86D6
:101A9000198618861F8283E0888B1A8A198AD801D2
:101AA000ED91FC910484F585E02DBE016F5F7F4FC1
:101AB000C801099562960FB6F894DEBF0FBECDBF80
:101AC000DF91CF911F910F9108950F931F93CF93A3
:101AD000DF93CDB7DEB762970FB6F894DEBF0FBEC7
:101AE000CDBF8C01F901DC011C968C917A8369834E
:101AF0005C834B835E834D8390819D8791819E871C
:101B000092819F87813029F4CE0101960E94C00FF7
:101B100006C01C861B861A86198618861F82188A9C
:101B20001A8A198AD801ED91FC910484F585E02D7B
:101B3000BE016F5F7F4FC801099562960FB6F8949A
:101B4000DEBF0FBECDBFDF91CF911F910F910895E2
:101B50000F931F93CF930E941D0CC82F882309F465
:101B600073C00E942E0500912F0210913002209127
:101B7000310230913202DC01CB01801B910BA20BB0
:101B8000B30B8B3F9105A105B10508F45DC0C430CE
:101B900041F4809173038F5F8B3050F01092730388
:101BA00009C0C830F1F48091730381114BC08AE001
:101BB0008093730380E00E94E80B89E691E00E9425
:101BC000130C80E00E94E80B8091730326E0829F53
:101BD000C00111248C589C4F0E94270B10920201C7
:101BE00026C0C13089F58091720380937103809182
:101BF0007303809372030E94150C80E00E94E80B2F
:101C00008BE591E00E94130C81E00E94E80B80912B
:101C1000720326E0829FC00111248C589C4F0E94C1
:101C2000270B109202010E940B0B0E94430A0E9494
:101C30002E0560932F0270933002809331029093AF
:101C4000320202C08150B4CFCF911F910F910895FD
:101C5000AF92BF92CF92DF92EF92FF920F931F93BA
:101C6000CF93DF9300D000D000D0CDB7DEB7809106
:101C70002B0290912C02A0912D02B0912E02409146
:101C80002702509128026091290270912A028C014A
:101C90009D01041B150B260B370B0B30110521057D
:101CA000310508F48EC08093270290932802A093F8
:101CB0002902B0932A028091BD039091BE039C013A
:101CC0002F5F3F4F203631052CF43093BE03209315
:101CD000BD0306C08F5591099093BE038093BD0349
:101CE0000E940B0B1091BD03812F9091BE0397FDB5
:101CF0000F967C0164E0F594E7946A95E1F71295FC
:101D0000107F1095012F0095C12CD12C80910401DA
:101D1000909103019C838D831E83BE016F5F7F4F73
:101D2000CE0104960E9484055701AA0CBB1CF50144
:101D3000E55EFD4F808191819C01220F331F820F50
:101D4000931FBE016F5F7F4F8F5E9C4F0E94090DF6
:101D500080910401909103019C838D831E83BE01B9
:101D60006F5F7F4FCE0104960E948405F501E15F0D
:101D7000FD4F808191819C01220F331F820F931FA1
:101D8000BE016F5F7F4F8F5E9C4F0E94090D2FEF4A
:101D9000E21AF20A36E0E316F10411F4E12CF12C18
:101DA0008FEFC81AD80A14E0C116D10441F013E02D
:101DB000C116D10411F4102FA9CF1FEFA7CF0E9495
:101DC000430A26960FB6F894DEBF0FBECDBFDF9153
:101DD000CF911F910F91FF90EF90DF90CF90BF9028
:101DE000AF900895CF93DF93EC01688170E085E0B8
:101DF0000E947104698170E086E00E9471046A812A
:101E000070E083E0DF91CF910C9471044F925F9268
:101E10006F927F92AF92BF92CF92DF92EF92FF923A
:101E20000F931F93CF93DF93FC01108211821282D4
:101E30004423B9F18B01075F1F4F5C01EB012C9626
:101E4000442E512C612C712CD8011397CC90D801C1
:101E50002D918D01CC20F9F02223E9F0822F90E022
:101E6000A0E0B0E09C01AD012F5F3F4F4F4F5F4FAF
:101E7000C301B2010E94A7179B01AC01D12CE12C38
:101E8000F12CC701B6016F5F7F4F8F4F9F4F0E94AC
:101E9000A717D5018C93BFEFAB1ABB0A0C171D0710
:101EA00099F6CF01DF91CF911F910F91FF90EF90A5
:101EB000DF90CF90BF90AF907F906F905F904F90EA
:101EC0000895CF92DF92EF92FF920F931F93CF93DB
:101ED000DF937C01262F972F8A018091100388239E
:101EE00091F0C62FD72F6E01C40ED51ECC15DD057F
:101EF00071F06991D701ED91FC910190F081E02D95
:101F0000C7010995F3CF642F822F0E948F09C80162
:101F1000DF91CF911F910F91FF90EF90DF90CF90C5
:101F20000895CF93DF931F92CDB7DEB769832091D9
:101F300010032223D1F020910E03203240F021E043
:101F400030E0FC013383228380E090E015C0809173
:101F50000F03E82FF0E0E251FD4F998190838F5FEE
:101F600080930F0380930E0305C061E0CE010196BC
:101F70000E948F0981E090E00F90DF91CF9108954A
:101F8000EF92FF920F931F93CF93DF93EC01909109
:101F9000BF039F5F292F27702093BF0390FF02C0CC
:101FA00090E801C090E021FD9064247009F09062F7
:101FB00020E1290FFE013C967E018FE0E80EF11C26
:101FC00000E011E06191662331F070E0C8010E94E9
:101FD000B7176F5F01C060E0DF0114976C93322F79
:101FE000369F030E30E0311D1124CF0107973111C8
:101FF00003C0EC01188203C03150EC013883662322
:1020000011F061506C93EE15FF05E1F6DF91CF9171
:102010001F910F91FF90EF900895CF92DF92EF9272
:10202000FF920F931F93CF93DF936C017A018B0183
:10203000C0E0D0E0CE15DF0589F0D8016D918D01AB
:10204000D601ED91FC910190F081E02DC60109953A
:10205000892B11F47E0102C02196ECCFC701DF91DC
:10206000CF911F910F91FF90EF90DF90CF90089547
:10207000EF92FF920F931F93CF93DF93EC0119829E
:1020800018821B821A821D821C8261157105A9F1BA
:102090007B01FB0101900020E9F731978F01061BBE
:1020A000170BB8016F5F7F4F80E090E00E94191915
:1020B000009759F0998388831B830A832C813D8183
:1020C000232B81F4FC0110820DC088819981009737
:1020D00011F00E948118198218821D821C821B82B5
:1020E0001A820BC01D830C83B701DF91CF911F9122
:1020F0000F91FF90EF900C94F119DF91CF911F9108
:102100000F91FF90EF900895CF93DF93CDB7DEB797
:102110002A970FB6F894DEBF0FBECDBF789484B572
:10212000826084BD84B5816084BD85B5826085BDD3
:1021300085B5816085BD80916E00816080936E0061
:102140001092810080918100826080938100809153
:102150008100816080938100809180008160809304
:1021600080008091B10084608093B1008091B000C4
:1021700081608093B00080917A00846080937A00BF
:1021800080917A00826080937A0080917A008160E9
:1021900080937A0080917A00806880937A00109210
:1021A000C10080916E038F3F39F58091680388608C
:1021B0008093680382E080936C0310926D038BE33D
:1021C0009DE00197F1F740E06091580384E593E0CA
:1021D0000E94800640E060915A0384E593E00E94EB
:1021E0008006609159036F3F09F4BAC040E084E56E
:1021F00093E00E948006B4C01092A6021092A5023D
:1022000010920F0310920E030E94B70910926F03F1
:102210001092A6021092A50210920F0310920E03C4
:102220000E94B70980916F0380620E94300B80E0AA
:102230000E942A068FEF0E942A060E943A0B809184
:102240006F0380620E94300B81E00E942A068FEFAC
:102250000E942A060E943A0B41E068E08FE693E074
:102260000E94A80641E066E08FE693E00E94A8067F
:1022700041E067E08FE693E00E94A80687E00E94B5
:10228000B90C60915903662329F041E08FE693E091
:102290000E94F30641E0609158038FE693E00E94AC
:1022A000F30641E060915A038FE693E00E94F30643
:1022B0000BE513E0F4E0FF2EF00ED8016D918D01D7
:1022C00041E08FE693E00E94F306F012F6CF03E6BA
:1022D00013E0E5E0EE2EE00E40E0F80160818FE6CD
:1022E00093E00E94F306D8012D918D012031A8F5CD
:1022F000283020F028507DE0F72E02C06CE0F62E4A
:1023000080916F0380622A870E94300B8F2D0E947C
:102310002A060E943A0B80916F03806261E070E0B0
:1023200090E00E94970B88E493E00E945304D82E1B
:1023300080916F0380620E94300B8F2D0E942A06CD
:1023400041E050E02A85CA0101C0880F2A95EAF7CA
:102350008D290E942A060E943A0BE012BDCF25CF9C
:102360008091680384FD21C063E084E593E00E94CE
:1023700015070BE416E4C8010197F1F763E084E563
:1023800093E00E941507C8010197F1F763E084E527
:1023900093E00E94150783E592E00197F1F762E070
:1023A00084E593E00E94150715C080620E94E20B4D
:1023B0008BE496E40197F1F78091680380620E94B4
:1023C000E20B83E592E00197F1F780916803806268
:1023D0000E94E20B8091680380620E94E20B84E01D
:1023E000809369038CE00E94E20B0E94150C82E04E
:1023F00080936A0386E00E94E20B81E00E94B90CA0
:1024000083E591E00E94130CEBE1F2E0AFE0B2E073
:1024100022E030E081E090E0219331938D939D9311
:10242000A9014F5F5F4F019762E0E732F60771F055
:102430004C3051051CF0A9014B5051098F3F2FEF33
:10244000920711F48BE090E09A01E6CF68EB7BE015
:1024500080E090E00E94F40480914602811145C022
:1024600010923802109237028FEF80933B028093D4
:102470003C0280933D0280933E0280933F02809312
:10248000400281E080934102109243021092420286
:1024900010923A02109239028091350390913603DE
:1024A000892B31F485E392E09093360380933503D2
:1024B000E0913302F0913402309721F085E392E00D
:1024C0009583848385E392E0909334028093330272
:1024D000109245021092440283E291E090933602FA
:1024E0008093350281E080934602E0913502F091BD
:1024F00036020480F581E02D85E392E0099581E1C3
:1025000093E090933802809337028CE090E09093B0
:10251000430280934202E0913502F0913602028438
:10252000F385E02D85E392E00995009729F19C0160
:1025300040E050E060E472E48FE090E00E94151704
:10254000722F632F00913E0310913F0320914003AF
:1025500030914103872F962FDA0180179107A20748
:10256000B30710F4D901C80180933E0390933F0351
:10257000A0934003B09341030E940B0B0E94430AB7
:1025800080E280933B0368EC70E080E090E00E9482
:10259000F40485E00E94D60A86E00E94D60A83E011
:1025A0000E94D60A1FEF19831A821B82CE01019660
:1025B0000E94F20E19831A821B82CE0101960E949C
:1025C000F50A0E94430A6EE571E080E090E00E9407
:1025D000F404198200E80A831B82CE0101960E944E
:1025E000F20E19820A831B82CE0101960E94F50A1F
:1025F0000E94430A6EE571E080E090E00E94F404DE
:1026000019821A821B83CE0101960E94F20E198252
:102610001A821B83CE0101960E94F50A0E94430A8A
:102620006EE571E080E090E00E94F40419821A8265
:102630001B82CE0101960E94F20E19821A821B8221
:10264000CE0101960E94F50A0E94430A0E94150CD1
:1026500082E00E94B90C80E00E94E80B8BE591E0DB
:102660000E94130C81E00E94E80B83E691E00E9437
:10267000130C6EEE72E080E090E00E94F40481E0C2
:102680000E94E80B80917303A6E08A9FC001112489
:102690008C589C4F0E94270B0E942E0560932F029E
:1026A0007093300280933102909332020E942E0583
:1026B00060932702709328028093290290932A0244
:1026C0000E942E0560934E0270934F028093500239
:1026D0009093510222242A9433E0332E412C512C22
:1026E00049E8A42E40E0B42E56E8852E50E0952E01
:1026F00080E480937C0080917A00806480937A00EB
:1027000080917A0086FDFCCF20917800809179003D
:1027100030E0382B3093070120930601AFEAB0E098
:102720000E9498176035BFEB7B07B2E08B079105DD
:1027300034F4A20191010E941517205B01C02FEF14
:1027400020937003809108018213209308018091E7
:102750007203895090910801823028F4809105011C
:102760002091540204C080910401209103012C8324
:102770008D839E83BE016F5F7F4FCE0104960E94C2
:102780008405CE0101960E94F20E80917003809321
:102790003B039091720380917303981789F08091A5
:1027A000020181110DC081E00E94E80B809172034B
:1027B000E6E08E9FC00111248C589C4F0E94270B8D
:1027C0000E942E0500912F021091300220913102BB
:1027D00030913202DC01CB01801B910BA20BB30BB9
:1027E00089389341A105B10528F080910201882321
:1027F00009F4C6C1E09172038E2F90E08B309105F1
:1028000008F0ACC1FC01EC5CFF4F0C94CB17EEE779
:10281000F0E085919591A591B49180930301EFE744
:10282000F0E085919591A591B4918093040183E0A6
:1028300011C0E0E8F0E085919591A591B491809365
:102840000301E1E8F0E085919591A591B491809321
:10285000040181E00E94B90C0E94280E0E94A80D7C
:102860007DC1E2E8F0E085919591A591B4918093C6
:102870000301E3E8F0E085919591A591B4918093EF
:10288000040184E0E7CFE4E8F0E085919591A5911B
:10289000B49180930301E5E8F0E085919591A591CD
:1028A000B4918093040182E0D5CFF4018591959194
:1028B000A591B49180930301E7E8F0E085919591AB
:1028C000A591B4918093040185E0C4CFE8E8F0E0DD
:1028D00085919591A591B49180930301F50185911E
:1028E0009591A591B4918093040187E0B3CF809135
:1028F000540280930301809105018093040186E0D6
:10290000A9CFC0902B02D0902C02E0902D02F09025
:102910002E028091270290912802A0912902B09165
:102920002A02A7019601281B390B4A0B5B0B2A319F
:10293000310541055105E0F160E070E0CB010E94F6
:10294000F404C0922702D0922802E0922902F09269
:102950002A0290910801809100010FEF080F009367
:10296000000189831FEF1A839B838091520290910B
:1029700053026CE070E00E94B717BC01660F771F2E
:10298000860F971FBC016F5E7C4FCE0101960E949F
:10299000840500930301109304010E94430A80916F
:1029A00052029091530201969093530280935202E7
:1029B00086E00E94B90C52CFC0902B02D0902C021E
:1029C000E0902D02F0902E02809127029091280233
:1029D000A0912902B0912A02A7019601281B390B68
:1029E0004A0B5B0B253631054105510508F360E0C4
:1029F00070E0CB010E94F404C0922702D09228021A
:102A0000E0922902F0922A0290910801809101013E
:102A10002FEF280F209301018C838FEF8D839E83EE
:102A2000BE01695F7F4FCE0104960E948405F0903D
:102A30003B0380913E0390913F03A0914003B091EE
:102A40004103892B8A2B8B2B09F4ACC00E94CF0445
:102A500000913703109138032091390330913A03E4
:102A6000DC01CB01801B910BA20BB30B00913E0349
:102A700010913F032091400330914103801791074B
:102A8000A207B307B0F28EC087E00E94B90C0E9483
:102A90001D0C182F882309F461C00E942E05209177
:102AA0002F02309130024091310250913202DC010C
:102AB000CB01821B930BA40BB50B84359105A105AB
:102AC000B10508F54BC087E00E94B90C0E941D0CAF
:102AD000182F882309F442C00E942E0520912F024E
:102AE000309130024091310250913202DC01CB0131
:102AF000821B930BA40BB50B84359105A105B10581
:102B000008F0BEC02BC0123009F4A5C0103109F086
:102B1000ADC0809105018111A7C08FEF80930501A1
:102B2000109202010E942E0560932F0270933002D2
:102B3000809331029093320280E00E94E80B89E694
:102B400091E00E94130C80E00E94E80B6091050167
:102B500070E080E090E04AE00E94780C0E942E0530
:102B600060932B0270932C0280932D0290932E027F
:102B700080E090E0892B09F4BBCD0E940000B8CD25
:102B800080E00E94E80B89E691E00E94130C80E04F
:102B90000E94E80B8BE591E00E94130C81E080938A
:102BA000020128CE0E94CF0460933703709338034C
:102BB0008093390390933A03E0914603F0914703E1
:102BC000309759F040914203509143036091440380
:102BD000709145038F2D0995F82E009135031091C2
:102BE00036030115110569F1D8011C96EC901C976C
:102BF00080913C0390913D038436910510F41C961E
:102C00001C92D801ED91FC91608071804F2DB8012C
:102C1000CE0101960E94060FF801458556859E015A
:102C20002F5F3F4FBE01695F7F4FC801F3010995D8
:102C3000D8011C96EC921C9714960D911C91159737
:102C4000D0CF0E94F30980910101809303018FEF9F
:102C500080930401ADCE809105018F3F19F410924D
:102C600005015ECF8F5F5ACF815058CF113009F0E8
:102C700063CF80917103809372030E94150C50CF33
:102C8000123059F4809154028F3F19F4109254027B
:102C90000EC08F5F809354020AC0103109F11130C9
:102CA00091F480917103809372030E94150C10922D
:102CB00002010E942E0560932F02709330028093D0
:102CC00031029093320280E00E94E80B89E691E0A5
:102CD0000E94130C80E00E94E80B6091540238CFF0
:102CE00080915402811102C08FEFD4CF8150D2CF96
:102CF000EBE3F3E08FEF8083128211821486138658
:102D00008FEF9FEFDC0187839087A187B287E8E48C
:102D1000F3E01382128288EE93E0A0E0B0E08483B7
:102D20009583A683B7838FE391E0918380836AE7DD
:102D300071E084E793E00E94381068E871E08AE768
:102D400093E00E94381063E971E080E893E00E940C
:102D500038106FE971E086E893E00E9438106CEA61
:102D600071E08CE893E00E9438106AEB71E082E930
:102D700093E00E94381067EC71E088E993E00E94CC
:102D8000381065ED71E08EE993E00E94381063EE33
:102D900071E084EA93E00E94381061EF71E08AEA02
:102DA00093E00E94381063E072E080EB93E00E94B1
:102DB0003810809173038093720380937103809124
:102DC000080180937003E4E5F3E0138212828FE43C
:102DD00091E091838083128E148A8FE084838EE049
:102DE00085838DE086838CE087838BE080878AE013
:102DF000818789E08287178681E0808B82E0818BE2
:102E000083E0828B84E0838B0895CF93DF93C6EBBE
:102E1000D3E02697888199810E94811883E0C43786
:102E2000D807B9F7DF91CF910895052E97FB1EF4CF
:102E300000940E942C1757FD07D00E94761707FCBC
:102E400003D04EF40C942C17509540953095219555
:102E50003F4F4F4F5F4F08959095809570956195C6
:102E60007F4F8F4F9F4F08950E949817A59F900DF9
:102E7000B49F900DA49F800D911D112408952F9251
:102E80003F924F925F926F927F928F929F92AF92FA
:102E9000BF92CF92DF92EF92FF920F931F93CF9347
:102EA000DF93CDB7DEB7CA1BDB0B0FB6F894DEBFDE
:102EB0000FBECDBF09942A88398848885F846E8404
:102EC0007D848C849B84AA84B984C884DF80EE804E
:102ED000FD800C811B81AA81B981CE0FD11D0FB657
:102EE000F894DEBF0FBECDBFED010895A1E21A2E0A
:102EF000AA1BBB1BFD010DC0AA1FBB1FEE1FFF1F9E
:102F0000A217B307E407F50720F0A21BB30BE40BED
:102F1000F50B661F771F881F991F1A9469F7609534
:102F20007095809590959B01AC01BD01CF010895EE
:102F3000A29FB001B39FC001A39F700D811D1124FA
:102F4000911DB29F700D811D1124911D0895DB010B
:102F50008F939F930E943417BF91AF91A29F800DD2
:102F6000911DA39F900DB29F900D1124089597FB82
:102F7000072E16F4009407D077FD09D00E94D817C9
:102F800007FC05D03EF4909581959F4F089570956C
:102F900061957F4F0895EE0FFF1F0590F491E02D8E
:102FA00009940E949817B7FF0895821B930B089508
:102FB000AA1BBB1B51E107C0AA1FBB1FA617B7075F
:102FC00010F0A61BB70B881F991F5A95A9F780957B
:102FD0009095BC01CD010895CF93DF938230910588
:102FE00010F482E090E0E091C203F091C30320E08E
:102FF00030E0C0E0D0E0309711F1408151814817B6
:103000005907C0F04817590761F4828193812097CE
:1030100019F09B838A832BC09093C3038093C203D0
:1030200026C02115310519F04217530718F49A01EB
:10303000BE01DF01EF010280F381E02DDCCF21151D
:10304000310509F1281B390B2430310590F4129613
:103050008D919C9113976115710521F0FB0193836C
:10306000828304C09093C3038093C203FD01329610
:1030700044C0FD01E20FF31F819391932250310967
:103080002D933C933AC02091C0033091C103232B70
:1030900041F420910B0130910C013093C103209336
:1030A000C0032091090130910A012115310541F435
:1030B0002DB73EB740910D0150910E01241B350BE9
:1030C000E091C003F091C103E217F307A0F42E1BB7
:1030D0003F0B2817390778F0AC014E5F5F4F24177C
:1030E000350748F04E0F5F1F5093C1034093C00354
:1030F0008193919302C0E0E0F0E0CF01DF91CF91A6
:1031000008950F931F93CF93DF93009709F48CC01A
:10311000FC013297138212820091C2031091C30303
:103120000115110581F420813181820F931F2091B7
:10313000C0033091C1032817390779F5F093C10313
:10314000E093C00371C0D80140E050E0AE17BF0764
:1031500050F412962D913C911397AD012115310534
:1031600009F1D901F3CF9D01DA0133832283608114
:103170007181860F971F8217930769F4EC012881EC
:103180003981260F371F2E5F3F4F318320838A817D
:103190009B8193838283452B29F4F093C303E093AF
:1031A000C20342C01396FC93EE931297ED0149912E
:1031B00059919E01240F351FE217F30771F48081A6
:1031C0009181840F951F029611969C938E93828114
:1031D000938113969C938E931297E0E0F0E0D801D0
:1031E00012968D919C911397009719F0F8018C011C
:1031F000F6CF8D919C9198012E5F3F4F820F931FC8
:103200002091C0033091C1032817390769F4309722
:1032100029F41092C3031092C20302C013821282D7
:103220001093C1030093C003DF91CF911F910F91C1
:103230000895A0E0B0E0EFE1F9E10C944317EC0150
:10324000009721F4CB010E94EC17B8C0FC01E60FF7
:10325000F71F9C0122503109E217F30708F4ACC0B4
:10326000D9010D911C91119706171707B0F0053081
:10327000110508F49FC0C80104978617970708F442
:1032800099C002501109061B170B019311936D93FE
:103290007C93CF010E9481188DC05B01A01AB10AF6
:1032A0004C01800E911EA091C203B091C30340E077
:1032B00050E0E12CF12C109709F44AC0A815B9058B
:1032C000D1F56D907C901197630182E0C80ED11CFE
:1032D000CA14DB0480F1A3014A195B096A0182E088
:1032E000C80ED11C1296BC9012971396AC91B5E003
:1032F000CB16D10440F0B282A38351834083D9011D
:103300006D937C930AC00E5F1F4FC301800F911F06
:10331000F90191838083EB2DFA2FE114F10431F050
:10332000D7011396FC93EE93129744C0F093C30316
:10333000E093C2033FC08D919C91119748175907A4
:1033400008F4AC017D0112960D90BC91A02DB3CF75
:103350008091C0039091C10388159905E1F4461747
:103360005707C8F48091090190910A01009741F430
:103370008DB79EB740910D0150910E01841B950BA6
:10338000E817F907C8F4F093C103E093C003F9010B
:10339000718360830FC0CB010E94EC177C01009702
:1033A00059F0A801BE010E94E819CE010E948118BF
:1033B000C70104C0CE0102C080E090E0CDB7DEB707
:1033C000EEE00C945F1781E090E0F8940C94F8190B
:1033D000FB01DC0102C001900D9241505040D8F732
:1033E0000895FB01DC0101900D920020E1F70895A2
:1033F00010E0CEE6D0E004C0FE010E94CB1721967B
:0A340000CF36D107C9F7F894FFCFCB
:10340A0040400140FFFF0002800000C4038000002A
:10341A000000006F046F046F04E50CE10CDE0C0081
:10342A00000000650D210DDC0CE50CE10CD90C99AE
:10343A0000FA00000040001400540000000000914F
:10344A000F610F6704530444044304000000005B47
:10345A00080D10426F6F74696E67004265726B6186
:10346A006E610052656164790020202020202020AE
:10347A00202020202020202020004B656C6C6579BC
:10348A002059656C6C6F77004B656C6C65792052BE
:10349A006564004B656C6C657920426C7565004B00
:1034AA00656C6C657920477265656E004B656C6C5E
:1034BA00657920507572706C65004B656C6C657926
:1034CA00205768697465004B656C6C657920637573
:1034DA0073746F6D005261696E626F772063686101
:1034EA007365005261696E626F77206379636C65F8
:1034FA0000437573746F6D205361747572617469DA
:0E350A006F6E00437573746F6D204875650019
:00000001FF
