:100000000C9466000C948E000C948E000C948E0060
:100010000C948E000C948E000C948E000C948E0028
:100020000C948E000C948E000C948E000C948E0018
:100030000C948E000C948E000C948E000C948E0008
:100040000C946C140C948E000C948E000C948E0006
:100050000C948E000C948E000C948E000C948E00E8
:100060000C944D0B0C948E0040FF00FFA0FF60FF2E
:10007000C0FFFF00000000080002010000030407A9
:100080000000000000000000010204081020408071
:1000900001020408102001020408102004040404D2
:1000A0000404040402020202020203030303030322
:1000B00000000000250028002B00000000002400A4
:1000C00027002A00B208630A98132D0911241FBEC5
:1000D000CFEFD8E0DEBFCDBF11E0A0E0B1E0EAE9AC
:1000E000F7E302C005900D92AA3FB107D9F723E0CC
:1000F000AAEFB1E001C01D92AF3AB207E1F710E0FC
:10010000CAECD0E004C02297FE010E947519C43CDD
:10011000D107C9F70E947A160C94C01B0C940000FA
:1001200080E991E00895239A0895FC0160810C9480
:10013000F111CF93DF93EC01688170E085E00E94BC
:100140008215698170E086E00E9482156A8170E004
:1001500083E0DF91CF910C948215209163022630C9
:10016000B0F430E0F901EE0FFF1FE859FF4F859121
:100170009591A591B49180936102F901EE0FFF1F53
:10018000E759FF4F85919591A591B49108C026300C
:1001900041F4809155028093610280911001809317
:1001A00062028091580290915902A0915A02B09136
:1001B0005B0240915C0250915D0260915E02709121
:1001C0005F02841B950BA60BB70B40911501509154
:1001D000160160E070E0481759076A077B07A8F42A
:1001E00060E070E0CB010E94E5148091580290918C
:1001F0005902A0915A02B0915B0280935C029093E5
:100200005D02A0935E02B0935F0208950F931F9367
:10021000CF93DF9300D01F92CDB7DEB71FEF1983C6
:100220001A821B82CE0101960E94990019831A82BC
:100230001B82AE014F5F5F4F6CE070E086EA92E098
:100240000E941D118BE993E00E94950064EF71E01C
:1002500080E090E00E94E514198200E80A831B8286
:10026000CE0101960E94990019820A831B82AE0179
:100270004F5F5F4F6CE070E086EA92E00E941D11D4
:100280008BE993E00E94950064EF71E080E090E0DC
:100290000E94E51419821A821B83CE0101960E94E6
:1002A000990019821A821B83AE014F5F5F4F6CE089
:1002B00070E086EA92E00E941D118BE993E00E94B3
:1002C000950064EF71E080E090E00E94E5141982EF
:1002D0001A821B82CE0101960E94990019821A820D
:1002E0001B82AE014F5F5F4F6CE070E086EA92E0E8
:1002F0000E941D118BE993E00E94950064EF71E06C
:1003000080E090E00E94E5140F900F900F90DF9135
:10031000CF911F910F910895CF92DF92EF92FF92AC
:10032000CF93DF9300D01F92CDB7DEB76091580214
:100330007091590280915A0290915B02C0905C02C8
:10034000D0905D02E0905E02F0905F026C197D0932
:100350008E099F090E94CF176B017C0160911501E6
:100360007091160180E090E00E94CF172AE939E9E8
:1003700049E15EE30E9485189B01AC01C701B6010B
:100380000E94811818160CF041C060E070E0CB01AB
:100390000E94E5148091580290915902A0915A024E
:1003A000B0915B0280935C0290935D02A0935E0229
:1003B000B0935F029091140180910B012FEF280FF1
:1003C00020930B0189838FEF8A839B83809148025E
:1003D000909149026CE070E00E940C19BC01660F1C
:1003E000771F680F791F6A557D4FCE0101960E94D5
:1003F000AB138BE993E00E949500809148029091A5
:100400004902019690934902809348020F900F9001
:100410000F90DF91CF91FF90EF90DF90CF900895F4
:10042000CF92DF92EF92FF92CF93DF9300D000D074
:1004300000D0CDB7DEB7609158027091590280911B
:100440005A0290915B02C0905C02D0905D02E090F5
:100450005E02F0905F026C197D098E099F090E946F
:10046000CF176B017C01609115017091160180E03E
:1004700090E00E94CF1720E030E040E05FE30E9470
:1004800085189B01AC01C701B6010E94811818169E
:100490008CF560E070E0CB010E94E5148091580279
:1004A00090915902A0915A02B0915B0280935C0234
:1004B00090935D02A0935E02B0935F02909114014D
:1004C00080910A012FEF280F20930A018C838FEF70
:1004D0008D839E83BE016F5F7F4FCE0104960E9485
:1004E000AB1340919B03BE016F5F7F4F8BE993E09D
:1004F0000E94721226960FB6F894DEBF0FBECDBFD3
:10050000DF91CF91FF90EF90DF90CF900895AF9261
:10051000BF92CF92DF92EF92FF920F931F93CF93F0
:10052000DF9300D000D000D0CDB7DEB78EE00E94C0
:1005300065159093120180931101BC0180E090E059
:100540001F921F921F922FEF2F93A12CB12C6501A8
:10055000EE24EA9413E0F12E00E010E020E030E019
:10056000A9010E94D71660934E020F900F900F9032
:100570000F908091140186136093140180911401EF
:1005800090911001209155022C839D838E83BE0192
:100590006F5F7F4FCE0104960E94AB13CE01019690
:1005A0000E94990041E060E084E192E00E94CD0F5A
:1005B0006091630226E0629FB00111246C597D4F67
:1005C00084E192E00E94C7160E94B61400914A028C
:1005D00010914B0220914C0230914D02601B710B27
:1005E000820B930B6133754781059105F8F080917B
:1005F0000E0181110FC040E060E084E192E00E94B2
:10060000CD0F60E271E084E192E00E94D51681E0B6
:1006100080930E0140E060E084E192E00E94CD0F03
:1006200061E371E084E192E00E94D51684E192E0FA
:100630000E94EA10F82E0E94B61400914A0210910E
:100640004B0220914C0230914D02601B710B820BCA
:10065000930B6E3471408105910508F45BC0FF2057
:1006600009F458C084E192E00E94C60F40E060E0C7
:1006700084E192E00E94CD0FF3FE21C080915202EE
:10068000811102C0809113018150809352020E9417
:10069000B61460934A0270934B0280934C0290937D
:1006A0004D0210920E016091520286E0689FB001E7
:1006B00011246C597D4F84E192E00E94C716F2FE2E
:1006C00029C040915202242F30E08091130190E024
:1006D00001972817390719F41092520203C04F5F8F
:1006E000409352020E94B61460934A0270934B02E8
:1006F00080934C0290934D0210920E016091520231
:1007000026E0629FB00111246C597D4F84E192E094
:100710000E94C7160E94B614609358027093590243
:1007200080935A0290935B0280910F0181110E9485
:10073000AD008091540281110E948C01809153027E
:1007400081110E94100226960FB6F894DEBF0FBEEC
:10075000CDBFDF91CF911F910F91FF90EF90DF9070
:10076000CF90BF90AF9008959C0121503109ECE3E8
:10077000F2E0A0E3B2E0AC014C30510514F04C5073
:10078000510937FF02C0245F3F4F419351932D938E
:100790003D934F5F5F4F2150310962E0EA34F60725
:1007A00059F790933D0280933C02089520E042E087
:1007B00060E184E192E00E94021061E084E192E055
:1007C0000E946D0E69E371E084E192E00E94D5160B
:1007D00080910C0190910D010E94B40368EB7BE0C5
:1007E00080E090E00E94E51480910C02811145C0E8
:1007F0001092FE011092FD018FEF80930102809311
:100800000202809303028093040280930502809386
:10081000060281E0809307021092090210920802FA
:10082000109200021092FF018091990390919A0317
:10083000892B31F48BEF91E090939A038093990385
:10084000E0919703F0919803309721F08BEF91E0BE
:10085000958384838BEF91E0909398038093970323
:1008600010920B0210920A0287ED91E09093FC0126
:100870008093FB0181E080930C0220E030E04CE0AB
:1008800050E066EA72E08BEF91E00E945D1360E059
:100890008BE993E00E94F7128BE993E00E949500A8
:1008A00068EC70E080E090E00E94E51461E085E093
:1008B0000E940A1661E086E00E940A1661E083E069
:1008C0000E940A160E94060184E192E00E94C60F6F
:1008D00062E084E192E00E946D0E40E060E084E11D
:1008E00092E00E94CD0F61E371E084E192E00E940A
:1008F000D51641E060E084E192E00E94CD0F61E412
:1009000071E084E192E00E94D5166EEE72E080E024
:1009100090E00E94E5141092570210925602209126
:10092000600230E0F901EE0FFF1FE859FF4F85919B
:100930009591A591B49180936102F901EE0FFF1F8B
:10094000E759FF4F85919591A591B49180936202EB
:100950000E94B61460934A0270934B0280934C023B
:1009600090934D020E94B61460935C0270935D02F6
:1009700080935E0290935F0208958F929F92AF9250
:10098000BF92CF92DF92EF92FF920F931F93CF937C
:10099000DF93EC01E881F98195B1986085B1877F9B
:1009A00085B938852D81D32ED21ADD82AD84AA81F6
:1009B000BB812B859C848A84EE80FC8079851F8195
:1009C0000990D881C02D0981002331F0402F0D2DD1
:1009D000400F08F44FEF01C040E0042F029F012DAB
:1009E0001124C0E04C2F5C2F6C2F002CEA01CC2E80
:1009F0004C2D5D2F95B900C000C000C000C000C0E4
:100A000007FF85B962814427889400C000C000C0F8
:100A100000C000C000C0002C85B961116E0D00C07F
:100A200000C0002C00C000C095B900C000C000C0CC
:100A300000C000C006FF85B908F46FEF889400C0BD
:100A400000C000C000C000C000C000C085B990FC5C
:100A5000460F00C000C0002C00C000C095B900C007
:100A600000C000C000C000C005FF85B9479588944C
:100A700091FC460F00C000C000C000C000C000C014
:100A8000002C85B94795889400C000C0002C00C098
:100A900000C095B900C000C000C000C000C004FF85
:100AA00085B992FC460F4795889400C000C000C0ED
:100AB00000C000C000C0002C85B993FC460F00C0E8
:100AC00000C0002C00C000C095B900C000C000C02C
:100AD00000C000C003FF85B94795889494FC460F79
:100AE00000C000C000C000C000C000C0002C85B91C
:100AF0004795889400C000C0002C00C000C095B984
:100B000000C000C000C000C000C002FF85B995FC55
:100B1000460F4795889400C000C000C000C000C0C8
:100B200000C0002C85B996FC460F00C000C0002C08
:100B300000C000C095B900C000C000C000C000C027
:100B400001FF85B94795889497FC460F00C000C007
:100B500000C000C000C000C0002C85B94795889433
:100B600000C000C0002C00C000C095B900C000C08B
:100B700000C000C000C000FF85B9E194E70E00C0CE
:100B800000C000C000C000C000C000C0002C85B97B
:100B9000042F00C000C000C000C000C095B900C054
:100BA00000C000C000C000C007FF85B960814427B5
:100BB000889400C000C000C000C000C000C0002C6D
:100BC00085B961116F0D00C000C0002C00C000C0CD
:100BD00095B900C000C000C000C000C006FF85B9C4
:100BE00008F46FEF889400C000C000C000C000C0CF
:100BF00000C000C085B980FC460F00C000C0002CBA
:100C000000C000C095B900C000C000C000C000C056
:100C100005FF85B94795889481FC460F00C000C048
:100C200000C000C000C000C0002C85B94795889462
:100C300000C000C0002C00C000C095B900C000C0BA
:100C400000C000C000C004FF85B982FC460F479574
:100C5000889400C000C000C000C000C000C0002CCC
:100C600085B983FC460F00C000C0002C00C000C046
:100C700095B900C000C000C000C000C003FF85B926
:100C80004795889484FC460F00C000C000C000C097
:100C900000C000C0002C85B94795889400C000C0F2
:100CA000002C00C000C095B900C000C000C000C04A
:100CB00000C002FF85B985FC460F4795889400C0A7
:100CC00000C000C000C000C000C0002C85B986FC78
:100CD000460F00C000C0002C00C000C095B900C085
:100CE00000C000C000C000C001FF85B947958894CE
:100CF00087FC460F00C000C000C000C000C000C09C
:100D0000002C85B94795889400C000C0002C00C015
:100D100000C095B900C000C000C000C000C000FF06
:100D200085B9EA0DF11D8894042F00C000C000C0F1
:100D300000C000C000C0002C85B9F194F10E00C0C5
:100D400000C0002C00C000C095B900C000C000C0A9
:100D500000C000C007FF85B961814427889400C0A6
:100D600000C000C000C000C000C0002C85B96111E7
:100D70006D0D00C000C0002C00C000C095B900C0BF
:100D800000C000C000C000C006FF85B908F46FEFC6
:100D9000889400C000C000C000C000C000C000C0F7
:100DA00085B920FD460F00C000C0002C00C000C067
:100DB00095B900C000C000C000C000C005FF85B9E3
:100DC0004795889421FD460F00C000C000C000C0B8
:100DD00000C000C0002C85B94795889400C000C0B1
:100DE000002C00C000C095B900C000C000C000C009
:100DF00000C004FF85B922FD460F4795889400C0C6
:100E000000C000C000C000C000C0002C85B923FD98
:100E1000460F00C000C0002C00C000C095B900C043
:100E200000C000C000C000C003FF85B9479588948A
:100E300024FD460F00C000C000C000C000C000C0BC
:100E4000002C85B94795889400C000C0002C00C0D4
:100E500000C095B900C000C000C000C000C002FFC3
:100E600085B925FD460F4795889400C000C000C095
:100E700000C000C000C0002C85B926FD460F00C090
:100E800000C0002C00C000C095B900C000C000C068
:100E900000C000C001FF85B94795889427FD460F23
:100EA00000C000C000C000C000C000C0002C85B958
:100EB0004795889400C000C0002C00C000C095B9C0
:100EC00000C000C000C000C000C000FF85B9D194C0
:100ED000D30E042F00C000C000C000C000C000C07E
:100EE00000C085B900C000C0002C119709F082CD68
:100EF000DF91CF911F910F91FF90EF90DF90CF90F6
:100F0000BF90AF909F908F900895FF920F931F9383
:100F1000CF93DF93EC018091FA018F5F982F977048
:100F20009093FA0180FD02C080E001C080E891FD4D
:100F30008064947009F0806210E1F12EF80E20E0D8
:100F400030E000E011E0FE01E20FF31F628566234E
:100F500031F070E0C8010E940C196F5F01C060E0C1
:100F600067834F2D469F412D11244483662311F042
:100F7000615067832F5F3F4F2330310521F7DF91A9
:100F8000CF911F910F91FF900895AF92BF92CF9292
:100F9000DF92EF92FF920F93CF93DF93CDB7DEB73F
:100FA0002E970FB6F894DEBF0FBECDBF6C015A016D
:100FB000F901DC011C968C917A8369835C834B83F5
:100FC00090819B8791819C8792819D87813029F4B4
:100FD000CE0101960E94850706C01A8619861886DA
:100FE0001F821E821D8289819A818E0D911D9A8396
:100FF0008983002319F083E08E0D01C080E08E8785
:101000000E94C214F60127853089621B730B6A3077
:101010007105B0F3F894CE0101960E94BD0420EF53
:1010200033E0D5010E94611954E096958795779534
:1010300067955A95D1F720E030E04AE9A49E212D2A
:10104000B49E200D311D1124620F731F811D911D4F
:10105000693EF3E07F0781059105A8F1DC01CB0132
:10106000885E9340A109B10902E0B695A7959795CE
:1010700087950A95D1F740E050E027E0829F412D07
:10108000929F400D511D11242091CC0230E0280F79
:10109000391F240F351F8091A3039091A403A091C1
:1010A000A503B091A603432F5527840F951FA11DBB
:1010B000B11D8093A3039093A403A093A503B093C1
:1010C000A6032093CC0278940E94C214D6015096B5
:1010D0007C936E931F972E960FB6F894DEBF0FBECB
:1010E000CDBFDF91CF910F91FF90EF90DF90CF9028
:1010F000BF90AF900895EF92FF920F93E12CF12CE7
:1011000000E00E94C5070F91FF90EF900895EF92C5
:10111000FF920F93E12CF12C01E00E94C5070F9183
:10112000FF90EF900895EF92FF920F93CF93DF938C
:1011300000D01F92CDB7DEB7AB0119821A821B8295
:10114000E12CF12C00E09E012F5F3F4FB9010E947E
:10115000C5070F900F900F90DF91CF910F91FF90E7
:10116000EF900895CF92DF92EF92FF926091140179
:1011700070E080E090E00E94D1176B017C0123ECCD
:1011800035EF48E25FE30E9485180E94A317609341
:10119000CB0223EC35EF48EA5EE3C701B6010E94BB
:1011A00085180E94A3176093CA0267E471E084E681
:1011B00092E00E948C1765E571E08AE692E00E9459
:1011C0008C1760E671E080E792E00E948C176CE675
:1011D00071E086E792E00E948C1769E771E08CE786
:1011E00092E00E948C1767E871E082E892E00E942A
:1011F0008C1764E971E088E892E00E948C1760EA3D
:1012000071E08EE892E00E948C176EEA71E084E94A
:1012100092E00E948C176CEB71E08AE992E00E94E8
:101220008C1768EC71E080EA92E00E948C17809144
:101230006302809352028093510280915002809306
:101240004F028091140180934E0284E192E0FF905E
:10125000EF90DF90CF900C94400ECF93DF93C6EACF
:10126000D2E02697CE010E941E1782E0C436D8072E
:10127000C1F7DF91CF9108958091FD0290E0209118
:10128000FE02821B910908952091FE028091FD02C9
:10129000281750F4E22FF0E0E150FD4F808190E0FC
:1012A0002F5F2093FE0208958FEF9FEF0895E09146
:1012B000FE028091FD02E81730F4F0E0E150FD4FAE
:1012C000808190E008958FEF9FEF08950895CF9269
:1012D000DF92EF92FF920F931F93CF93DF937C01E6
:1012E000CB018A012091D902222389F0EB016B0105
:1012F000C40ED51ECC15DD0569F06991D701ED91BD
:10130000FC910190F081E02DC7010995F3CF642F86
:101310000E94240BC801DF91CF911F910F91FF9084
:10132000EF90DF90CF900895CF93DF931F92CDB7CA
:10133000DEB769832091D9022223D1F02091DA020D
:10134000203240F021E030E0FC013383228380E052
:1013500090E015C08091DB02E82FF0E0E452FD4FF1
:10136000998190838F5F8093DB028093DA0205C0BE
:1013700061E0CE0101960E94240B81E090E00F9085
:10138000DF91CF910895FC011382128248EE53E061
:1013900060E070E0448355836683778385EE91E057
:1013A0009183808308951092FE021092FD021092A4
:1013B000DB021092DA020C94670A81E08093D90272
:1013C0006093FC021092DB021092DA0208950C94F2
:1013D000DD090F93062F21E04091DA026CED72E0F7
:1013E0008091FC020E94CD0A1092DB021092DA0278
:1013F0001092D9020F9108958F929F92AF92BF924F
:10140000CF92DF92EF92FF920F931F93CF93DF93D0
:10141000EC01F62ED42E48015901EE2019F10E945C
:10142000DD091E2D143008F013E01150B8F0E881EA
:10143000F98128E0129FB0011124A501940104C094
:1014400056954795379527956A95D2F7CA01B90100
:101450000190F081E02DCE010995E7CF60E0CE014B
:101460000E94E9094D2D413208F040E22C2D6FEF2A
:1014700072E08F2D0E94850A1092FE028093FD0279
:10148000DF91CF911F910F91FF90EF90DF90CF9060
:10149000BF90AF909F908F900895CF92EF920F934F
:1014A0001F93C22EE12C00E010E098010E94FC097D
:1014B0001F910F91EF90CF90089521E00C944D0A69
:1014C00061E00C94E9098DEC92E00C94C309109250
:1014D0008C0381E080938A031092890361E082E1AA
:1014E0000E94431661E083E10E944316E9EBF0E0BD
:1014F00080818E7F808380818D7F808388E480934C
:10150000B80085E48093BC000895413208F043C0E0
:1015100090918C039111FCCF91E090938C032093D8
:101520008A032FEF20931F0310926403240F20934C
:10153000630390938B0390918B03880F892B809387
:101540008B0380918903813061F41092890380912B
:101550008B038093BB008091BC0083FDF8CF85ECAA
:1015600001C085EE8093BC0080918C038130E1F353
:1015700080916403841710F44091640325E633E0FE
:10158000FB01D9018A2F821B841718F48D91819356
:10159000F9CF842F089580E008950F93413208F029
:1015A0004AC090918C039111FCCF92E090938C03F0
:1015B00000938A039FEF90931F031092640340935C
:1015C0006303FB0165E673E0DB019A2F961B94171A
:1015D00018F491919D93F9CF10928B0390918B0306
:1015E000880F892B80938B0380918903813061F46C
:1015F0001092890380918B038093BB008091BC0083
:1016000083FDF8CF85EC01C085EE8093BC002223DA
:1016100021F080918C038230E1F380911F038F3F92
:1016200061F080911F03803251F080911F0380335D
:1016300041F483E007C081E005C080E003C082E0A0
:1016400001C084E00F910895613298F420918C03D9
:10165000243089F460934103FC0183E493E0DC01CE
:101660002A2F281B261718F421912D93F9CF80E0FB
:10167000089581E0089582E0089585ED8093BC008F
:101680008091BC0084FDFCCF10928C03089585EC02
:101690008093BC0010928C0308951F920F920FB696
:1016A0000F9211242F933F934F935F936F937F93E8
:1016B0008F939F93AF93BF93EF93FF938091B90064
:1016C000887F803609F49EC078F5883209F45DC0C1
:1016D00090F4803109F456C038F4882309F4F5C039
:1016E000883009F44FC0F5C0883109F44EC080320B
:1016F00009F45FC0EEC0803409F46AC058F4803346
:1017000009F457C0883309F0E4C080931F030E9496
:10171000470BDFC0803509F44FC0883509F45DC040
:10172000883409F0D6C0D3C0883909F4C4C0A8F4FD
:10173000883709F467C038F4883609F463C0803705
:1017400009F460C0C6C0883809F4B5C0803909F40E
:101750005FC0803809F0BDC05BC0803B09F483C026
:1017600038F4803A09F466C0883A09F47CC0B1C004
:10177000803C09F4A4C0883C09F4A1C0883B09F46A
:1017800087C0A7C080918B0310C0909164038091A3
:101790006303981770F5E091640381E08E0F8093E6
:1017A0006403F0E0EB59FC4F80818093BB0085EC33
:1017B00083C080931F038BC0E091640381E08E0F90
:1017C000809364038091BB00F0E0EB59FC4F808371
:1017D00090916403809163036BC0E091640381E0A6
:1017E0008E0F809364038091BB00F0E0EB59FC4FB7
:1017F000808380918A0381116AC081E0809389038C
:1018000084EA5EC083E080938C0310922003CFCFE4
:1018100080912003803208F04EC0E091200381E0E7
:101820008E0F809320038091BB00F0E0EF5DFC4FB2
:101830008083BDCF0E94470B80912003803230F41B
:10184000E0912003F0E0EF5DFC4F108260912003F7
:1018500070E0E0918503F091860381E293E00995C1
:101860001092200336C084E080938C0310924203D0
:1018700010924103E0918703F091880309958091CC
:101880004103811105C081E080934103109243031D
:10189000E091420381E08E0F80934203F0E0ED5B24
:1018A000FC4F80818093BB00909142038091410363
:1018B000981708F47CCF85E88093BC000AC085ECBB
:1018C0008093BC0010928C0304C010921F030E94EE
:1018D0003D0BFF91EF91BF91AF919F918F917F91C0
:1018E0006F915F914F913F912F910F900FBE0F908D
:1018F0001F901895682F8DEC92E00C949409CF936B
:10190000DF93EC01683008F067E068838DEC92E0CB
:101910000E94D3096881606270E08DEC92E00E94C1
:10192000E70980E00E947A0C8FEF0E947A0C8DEC20
:1019300092E00E94600A6881606270E08DEC92E043
:101940000E94E70981E00E947A0C8FEF0E947A0CD6
:101950008DEC92E0DF91CF910C94600A60E00C94E2
:101960007F0CCF93DF93D62FC72FFC01908190621D
:10197000692F70E08DEC92E00E94E70982E10E94FD
:101980007A0C8D2F0E947A0C8C2F0E947A0C8DEC91
:1019900092E0DF91CF910C94600AFF920F931F9316
:1019A000CF93DF93EC01162FF42E603108F045C081
:1019B000683018F018500DE001C00CE068816062DA
:1019C00070E08DEC92E00E94E709802F0E947A0C73
:1019D0008DEC92E00E94600A6881606270E041E0F4
:1019E00050E08DEC92E00E945D0A8DEC92E00E9446
:1019F000440991E021E030E001C0220F1A95EAF796
:101A0000122FF91202C0182B02C0109518236881FA
:101A1000606270E08DEC92E00E94E709802F0E94E6
:101A20007A0C812F0E947A0C8DEC92E0DF91CF919D
:101A30001F910F91FF900C94600ADF91CF911F913D
:101A40000F91FF9008950F931F93CF93DF93EC01B5
:101A5000162F603148F5683018F0185003E101C0C6
:101A600002E16881606270E08DEC92E00E94E7091B
:101A7000802F0E947A0C8DEC92E00E94600A6881AF
:101A8000606270E041E050E08DEC92E00E945D0AFF
:101A90008DEC92E00E944409992702C095958795A4
:101AA0001A95E2F7817001C080E0DF91CF911F911C
:101AB0000F910895CF93DF93EC016881606270E02D
:101AC0008DEC92E00E94E70982E10E947A0C8DEC95
:101AD00092E00E94600A6881606270E042E050E03B
:101AE0008DEC92E00E945D0A8DEC92E00E94440928
:101AF000C82F8DEC92E00E944409982F88278C2BE8
:101B0000DF91CF910895FF920F931F93CF93DF93AF
:101B1000EC01162FF42E603108F044C0683018F044
:101B2000185001E001C000E06881606270E08DEC57
:101B300092E00E94E709802F0E947A0C8DEC92E0DF
:101B40000E94600A6881606270E041E050E08DECC4
:101B500092E00E945D0A8DEC92E00E94440921E02F
:101B600030E001C0220F1A95EAF7122FF11002C0DF
:101B7000182B02C0109518236881606270E08DEC0C
:101B800092E00E94E709802F0E947A0C812F0E9428
:101B90007A0C8DEC92E0DF91CF911F910F91FF9025
:101BA0000C94600ADF91CF911F910F91FF900895DF
:101BB000CF92DF92FF920F931F93CF93DF931F92E9
:101BC000CDB7DEB76C01162FF42E603108F04FC090
:101BD000683020F0185025E103E102C024E102E161
:101BE000F6016081606270E08DEC92E029830E94D2
:101BF000E7092981822F0E947A0C8DEC92E00E94E5
:101C0000600AF6016081606270E041E050E08DECB6
:101C100092E00E945D0A8DEC92E00E944409F1E09E
:101C200021E030E001C0220F1A95EAF7122FFF12CF
:101C300002C0182B02C010951823F6016081606263
:101C400070E08DEC92E00E94E709802F0E947A0CF0
:101C5000812F0E947A0C8DEC92E00F90DF91CF9152
:101C60001F910F91FF90DF90CF900C94600A0F901E
:101C7000DF91CF911F910F91FF90DF90CF9008954A
:101C8000FC011382128285EF91E091838083128E92
:101C9000148A8FE084838EE085838DE086838CE0D8
:101CA00087838BE080878AE0818789E08287178637
:101CB00081E0808B82E0818B83E0828B84E0838B68
:101CC0000895262FFC01328D3F3F19F04B960C945E
:101CD000D80D642F822F0C9443160F931F93CF932C
:101CE000DF93062FEC016B9611E062FB442740F96D
:101CF000412768E0CE010E94D80D01FB442740F93E
:101D0000412767E0CE010E94D80D402F4170412746
:101D100066E0CE01DF91CF911F910F910C94D80D09
:101D2000262FFC01328D3F3F19F04B960C94830D0A
:101D3000642F822F0C940A16CF93DF93EC0140E0BE
:101D40006E810E94610E81E090E00E941F1541E0CB
:101D50006E81CE010E94610E81E090E00E941F150D
:101D600040E06E81CE010E94610E84E690E0DF913A
:101D7000CF910C941F15AF92BF92CF92DF92EF924A
:101D8000FF920F931F93CF93DF93EC018A8DA62EC2
:101D9000B12C8F3F09F472C07E018BE1E80EF11C7B
:101DA000C7010E945A0D9C0180E090E061E070E064
:101DB000FE01E80FF91FE781CC24C394D12CAB01BD
:101DC0000E2E02C0440F551F0A94E2F7409550951D
:101DD00024233523A501082E02C0559547950A9462
:101DE000E2F74170552702C0440F551FEA95E2F70C
:101DF000242B352B019684309105D1F686010E8077
:101E000002C0000F111F0A94E2F7009510950223FB
:101E10001323B801C7010E94B10C81E090E00E9439
:101E20001F1556010E8002C0AA0CBB1C0A94E2F7D3
:101E3000A02AB12AB501C7010E94B10C81E090E04F
:101E40000E941F15B6010E8002C0660F771F0A940C
:101E5000E2F7609570956A217B21C7010E94B10C61
:101E600084E690E0DF91CF911F910F91FF90EF906A
:101E7000DF90CF90BF90AF900C941F1500E010E062
:101E80007E01E00EF11E41E0F7016781CE010E9464
:101E9000900EA501002E02C0559547950A94E2F7D1
:101EA0004170F7016781CE010E94610E0F5F1F4FE5
:101EB0000430110529F7CE01DF91CF911F910F91C9
:101EC000FF90EF90DF90CF90BF90AF900C949C0E5E
:101ED000CF92DF92EF92FF920F931F93CF93DF93F6
:101EE0008C01C0E0D0E0C62ED12C7801EC0EFD1E96
:101EF00041E0F7016781C8010E94900EA6010C2EF7
:101F000002C0559547950A94E2F74170F701678141
:101F1000C8010E94610E2196C830D10531F7C80171
:101F2000DF91CF911F910F91FF90EF90DF90CF90B5
:101F30000C949C0E1F93CF93DF93EC01162F6C81B2
:101F40000E94610E6D816F3F21F040E0CE010E9442
:101F5000610E8C89612F84FF06C0CE01DF91CF9185
:101F60001F910C94680F70E054E0759567955A9531
:101F7000E1F7CE010E94BB0E612FCE01DF91CF9120
:101F80001F910C94BB0E40E00C949A0F61E00E94EC
:101F9000C30F80ED97E00C941F15CF93DF93CDB75F
:101FA000DEB728970FB6F894DEBF0FBECDBF28E08E
:101FB000E8E1F1E0DE01119601900D922A95E1F73A
:101FC000FC01208D241710F44FEF420FFE013196D3
:101FD000E40FF11DE40FF11D2081260F2068622F10
:101FE00028960FB6F894DEBF0FBECDBFDF91CF911C
:101FF0000C94C30FFC016589262F2460258B6C602F
:102000000C94C30FAF92BF92CF92DF92EF92FF92E8
:102010000F931F93CF93DF93EC01B42EA22E8A8DE2
:102020008F3F41F481E08B1508F05CC08C8988609B
:102030008C8B58C08DEC92E00E94D3098E01055E16
:102040001F4FC8010E94AE0C41E068E0C8010E9429
:10205000830D41E066E0C8010E94830D41E067E026
:10206000C8010E94830D67E0CE010E946D0E6D8154
:10207000662321F041E0C8010E94830D41E06C819C
:10208000C8010E94830D41E06E81C8010E94830D4A
:10209000E12CF12CFE01EE0DFF1D41E06781C8012E
:1020A0000E94830DEFEFEE1AFE0AF4E0EF16F10442
:1020B00089F7E12CF12C6E01CE0CDF1C40E0F6011B
:1020C0006785C8010E94830D41E0F6016785C8015C
:1020D0000E94CD0CFFEFEF1AFF0A85E0E816F1042D
:1020E00051F7A0CFB88E198EAA2031F0E1E0BE12D0
:1020F00003C08C8984608C8B80E593EC0E941F1553
:1021000040E06C81CE010E94610E40E06E81CE0104
:102110000E94610E6D816F3F21F040E0CE010E9470
:10212000610E6C8964FD1DC063E0CE010E94BB0E90
:1021300084E991E10E941F1563E0CE010E94BB0E6D
:1021400084E991E10E941F1563E0CE010E94BB0E5D
:1021500086E990E00E941F1562E0CE010E94BB0E4E
:1021600016C06062CE010E94C30F84E991E10E9413
:102170001F156C896062CE010E94C30F86E990E052
:102180000E941F156C896062CE010E94C30F6C898A
:102190006062CE010E94C30F84E08D8BCE010E944D
:1021A000FA0FCE010E94C60F82E08E8B66E0CE0150
:1021B000DF91CF911F910F91FF90EF90DF90CF9023
:1021C000BF90AF900C94C30F41E00E949A0F81E042
:1021D00090E00895DF92EF92FF920F931F93CF93B9
:1021E000DF938C01C0E0D0E06FE1D62E7C018BE163
:1021F000E80EF11CF801EC0FFD1F6785C7010E9476
:10220000230D282F30E00C2E02C0220F331F0A941A
:10221000E2F7209530958D2D90E028233923D22E9A
:102220002196C530D10531F7822FDF91CF911F91D3
:102230000F91FF90EF90DF900895FA0120E030E0D9
:102240000396261737076CF44081DC0113974C93F3
:10225000418111964C93428111964C932F5F3F4FD1
:10226000EFCF08958F929F92AF92BF92EF92FF921D
:102270000F931F93CF93DF93EC01188219821A8278
:102280004423B9F1E0E0F0E08B010A5F1F4F7B01CE
:1022900089E0E80EF11C842E912CA12CB12CD801E0
:1022A000AE0FBF1F2C91D701AE0FBF1F6C91222321
:1022B000E1F06623D1F030E040E050E02F5F3F4F87
:1022C0004F4F5F4F70E080E090E06F5F7F4F8F4F28
:1022D0009F4F0E94E8189B01AC01C501B4010E9408
:1022E000E818DE01AE0FBF1F8C933196E330F10585
:1022F000B1F6CE01DF91CF911F910F91FF90EF903A
:10230000BF90AF909F908F900895CF93DF93C0912F
:102310009903D0919A03209791F08A819B8100972D
:1023200051F02D853E85A901440F551F420F531FC3
:1023300060E00E9461140C80DD81C02DECCFDF9144
:10234000CF910895CF92DF92EF92FF92CF93DF93D8
:10235000EC0180919103909192039C012F5F3F4F7C
:102360003093920320939103861797079CF10E9464
:10237000B6149B01AC01E0919103F091920388EEB9
:1023800093E0E89FB001E99F700DF89F700D112454
:10239000882777FD8095982FC0908D03D0908E036D
:1023A000E0908F03F09090032C193D094E095F09CE
:1023B0000E9420193A83298310929203109291036C
:1023C0000E94B61460938D0370938E0380938F03E5
:1023D00090939003DF91CF91FF90EF90DF90CF909B
:1023E0000895AF92BF92CF92DF92EF92FF920F9338
:1023F0001F93CF93DF9300D01F92CDB7DEB78C0130
:10240000B62EF80183819481A581B681892B8A2B10
:102410008B2BD1F00E94C214C0909303D0909403F0
:10242000E0909503F09096036C197D098E099F0941
:10243000D8011396CD90DD90ED90FC9016976C1519
:102440007D058E059F05E8F20E94C21460939303F8
:10245000709394038093950390939603E09099036F
:10246000F0909A03E114F10451F1F701A484D8012A
:1024700011968D919C9112978436910508F41486DB
:10248000D701ED91FC91C280D3804B2DB701CE01D5
:1024900001960E943211F70145855685628173814C
:1024A0009E012F5F3F4FC701F6010995D7011C968A
:1024B000AC921C971496ED90FC901597D3CF69E1E0
:1024C00070E0C8010E94A2110F900F900F90DF9151
:1024D000CF911F910F91FF90EF90DF90CF90BF9021
:1024E000AF9008958F929F92AF92BF92CF92DF925A
:1024F000EF92FF920F931F93CF93DF9300D01F9221
:10250000CDB7DEB78C017B01D42EF8018381948195
:10251000A581B681892B8A2B8B2BD1F00E94C21406
:102520008090930390909403A0909503B0909603AD
:10253000681979098A099B09D80113968D909D9095
:10254000AD90BC901697681579058A059B05E8F251
:102550000E94C21460939303709394038093950335
:1025600090939603A0909903B0909A03A114B1049C
:1025700049F1F501C484D80111968D919C9112976F
:102580008436910508F41486D501ED91FC91808084
:1025900091804D2DB501CE0101960E943211F501B9
:1025A000458556859E012F5F3F4FB701C501F40158
:1025B0000995D5011C96CC921C971496AD90BC90B1
:1025C0001597D4CF69E170E0C8010E94A2110F9065
:1025D0000F900F90DF91CF911F910F91FF90EF908F
:1025E000DF90CF90BF90AF909F908F9008950F9302
:1025F0001F93CF93DF9300D01F92CDB7DEB78C012E
:10260000662349F019821A821B8240E0BE016F5F87
:102610007F4F0E947212C8010E9485110F900F9087
:102620000F90DF91CF911F910F910895CF92DF927C
:10263000EF92FF920F931F93CF93DF93EC0144230C
:10264000F1F06115710581F19B0140E050E060E41B
:1026500072E48FE090E00E944219CB80DC80ED8034
:10266000FE8089019A010C151D052E053F0510F409
:10267000970186010B831C832D833E8315C0611552
:10268000710571F09B0140E050E060E472E48FE07E
:1026900090E00E9442192B833C834D835E8304C0EB
:1026A0001B821C821D821E82DF91CF911F910F9190
:1026B000FF90EF90DF90CF900895CF92DF92EF924E
:1026C000FF920F931F93CF93DF93EC016B018A016D
:1026D0007901121613061CF07A0100E010E0E8817F
:1026E000F9810480F581E02DCE010995C801880F9C
:1026F000991F800F911F8C0D9D1D9B838A83FE86E1
:10270000ED86E881F9810084F185E02DCE010995FF
:1027100041E0BC018BE993E00E941613CE01DF91EA
:10272000CF911F910F91FF90EF90DF90CF90089580
:102730008FEF80939B0310929D0310929C0308954A
:10274000FC012081222321F0269F212D09F02F5FFB
:10275000FC0120830895FF920F931F93CF93DF9383
:1027600000D000D0CDB7DEB7FC018B014081F180F5
:102770005281842F8F71880F880F880F282F35E59D
:10278000239F212D1124342F3074942F907247FDF4
:1027900025C031110EC0911106C0822F80958B8308
:1027A0002A8319823FC08BEA8B832B5A2A83198292
:1027B00039C091110DC0382F4AEA349F312D1124B0
:1027C0009BEA931B9B8325552A83198280E02AC0AC
:1027D0001B8280E0822F80958A8312C0311112C043
:1027E00091110BC01B82282F3AEA239F212D11241F
:1027F0008BEA821B8A832B5A03C02B831A82209573
:10280000298310C0911106C085E5820F8B831A823F
:102810008BEA06C08BEA820F8B831A8280E085E503
:10282000821B89832FEFF21601F16F2DCE010396E3
:102830005C830E94A0136F2DCE0102960E94A0130C
:102840006F2DCE0101960E94A01311246F2D60956B
:10285000669F612D11248B81860F8B838A81860F61
:102860008A838981860F89835C815F3FC9F0F12C5F
:102870002F2D552321F0559F212D09F02F5FF22E8A
:10288000622FCE0103960E94A0136F2DCE010296F7
:102890000E94A0136F2DCE0101960E94A013112457
:1028A0008B81F80180838A818183898182830F9063
:1028B0000F900F900F90DF91CF911F910F91FF908C
:1028C0000895DC0140FF03C001C06D936D93425039
:1028D000E0F75040D0F708951F920F920FB60F9275
:1028E00011242F933F938F939F93AF93BF93809126
:1028F000A3039091A403A091A503B091A6033091E6
:10290000A20323E0230F2D3720F40196A11DB11D52
:1029100005C026E8230F0296A11DB11D2093A20336
:102920008093A3039093A403A093A503B093A6035D
:102930008091A7039091A803A091A903B091AA0345
:102940000196A11DB11D8093A7039093A803A093A6
:10295000A903B093AA03BF91AF919F918F913F912B
:102960002F910F900FBE0F901F9018952FB7F894CE
:102970006091A3037091A4038091A5039091A60395
:102980002FBF08953FB7F8948091A7039091A803B3
:10299000A091A903B091AA0326B5A89B05C02F3F1B
:1029A00019F00196A11DB11D3FBF6627782F892F11
:1029B0009A2F620F711D811D911D42E0660F771FD6
:1029C000881F991F4A95D1F708958F929F92AF92D1
:1029D000BF92CF92DF92EF92FF926B017C010E9437
:1029E000C2144B015C01C114D104E104F104F1F003
:1029F0000E94A2170E94C214681979098A099B09CA
:102A0000683E73408105910570F321E0C21AD10838
:102A1000E108F10888EE880E83E0981EA11CB11C25
:102A2000C114D104E104F10429F7DDCFFF90EF9048
:102A3000DF90CF90BF90AF909F908F90089582309D
:102A4000910538F0880F991F880F991F05970197F6
:102A5000F1F70895789484B5826084BD84B581606F
:102A600084BD85B5826085BD85B5816085BDEEE696
:102A7000F0E0808181608083E1E8F0E01082808175
:102A800082608083808181608083E0E8F0E08081E3
:102A900081608083E1EBF0E0808184608083E0EB03
:102AA000F0E0808181608083EAE7F0E080818460EB
:102AB0008083808182608083808181608083808147
:102AC000806880831092C10008958E3008F08E5087
:102AD00087702091170190E4299F90011124822B87
:102AE00080937C0080917A00806480937A0080914A
:102AF0007A0086FDFCCF809178002091790090E0EB
:102B0000922B08951F93CF93DF93182FEB0161E071
:102B10000E940A16209711F460E004C0CF3FD1054F
:102B200039F461E0812FDF91CF911F910C9443160E
:102B3000E12FF0E0EC58FF4FE491E330F9F048F476
:102B4000E130B9F0E230A1F584B5806284BDC8BD42
:102B500034C0E730E9F0E83019F1E43049F580910C
:102B60008000806280938000D0938B00C0938A00A5
:102B700024C084B5806884BDC7BD1FC0809180001B
:102B8000806880938000D0938900C093880015C02E
:102B90008091B00080688093B000C093B3000DC0F6
:102BA0008091B00080628093B000C093B40005C0F3
:102BB000C038D1050CF0B5CFAFCFDF91CF911F91C9
:102BC0000895833081F028F4813099F08230A1F0AB
:102BD00008958730A9F08830B9F08430D1F480911D
:102BE00080008F7D03C0809180008F77809380006C
:102BF000089584B58F7702C084B58F7D84BD089514
:102C00008091B0008F7703C08091B0008F7D80935A
:102C1000B0000895CF93DF9390E0FC01E857FF4F99
:102C20002491FC01E456FF4F8491882349F190E000
:102C3000880F991FFC01E654FF4FA591B491805570
:102C40009F4FFC01C591D4919FB7611108C0F894C2
:102C50008C91209582238C93888182230AC06230D4
:102C600051F4F8948C91322F309583238C93888182
:102C7000822B888304C0F8948C91822B8C939FBF05
:102C8000DF91CF9108950F931F93CF93DF931F92FE
:102C9000CDB7DEB7282F30E0F901EC58FF4F849113
:102CA000F901E857FF4F1491F901E456FF4F0491E1
:102CB0000023C9F0882321F069830E94E11569810E
:102CC000E02FF0E0EE0FFF1FE055FF4FA591B4910C
:102CD0009FB7F8948C91611103C01095812301C0B6
:102CE000812B8C939FBF0F90DF91CF911F910F91FC
:102CF000089508950E942A150E9479160E94D6030D
:102D0000C0E0D0E00E9487022097E1F30E9400001B
:102D1000F9CFCF92DF92EF92FF920F931F93CF9351
:102D2000DF937C016A01EB0100E010E00C151D054A
:102D300071F06991D701ED91FC910190F081E02D46
:102D4000C7010995892B19F00F5F1F4FEFCFC801FD
:102D5000DF91CF911F910F91FF90EF90DF90CF9077
:102D600008956115710581F0DB010D900020E9F7F0
:102D7000AD0141505109461B570BDC01ED91FC910F
:102D80000280F381E02D099480E090E00895DC0159
:102D9000ED91FC91DB0114964D915C9115976D912D
:102DA0007C910280F381E02D09940C94B1164F922E
:102DB0005F926F927F92AF92BF92CF92DF92EF922B
:102DC000FF920F931F93CF93DF93CDB7DEB7290107
:102DD0003A01621B730B840B950B29893A894B8945
:102DE0005C892A193B094C095D09298B3A8B4B8B6D
:102DF0005C8B9B01AC0169897A898B899C890E94D3
:102E0000E818E418F50806091709A80197010E94B7
:102E100042192A0D3B1D4C1D5D1DCA01B901DF91F0
:102E2000CF911F910F91FF90EF90DF90CF90BF90C7
:102E3000AF907F906F905F904F900895FC018081DC
:102E400091810C94201ACF93DF93EC0188819981B2
:102E5000009711F00E94201A198218821D821C828C
:102E60001B821A82DF91CF9108950F931F93CF9306
:102E7000DF93EC018B016F5F7F4F888199810E9406
:102E8000AF1A009731F0998388831B830A8381E00E
:102E900001C080E0DF91CF911F910F910895CF93F2
:102EA000DF93EC0188819981892B29F08A819B81AC
:102EB0008617970760F4CE010E943517882341F0EA
:102EC0008C819D81892B19F4E881F981108281E040
:102ED000DF91CF910895EF92FF920F931F93CF93BD
:102EE000DF93EC017B018A01BA010E944F17811127
:102EF00004C0CE010E94231707C01D830C83B701B5
:102F0000888199810E94821BCE01DF91CF911F9110
:102F10000F91FF90EF900895FC01118210821382AF
:102F20001282158214826115710559F0FB0101901E
:102F30000020E9F7AF0141505109461B570B0C9493
:102F40006B1708950895BCD088F09F5790F0B92F63
:102F50009927B751A0F0D1F0660F771F881F991FEE
:102F60001AF0BA95C9F712C0B13081F0C3D0B1E000
:102F70000895C0C0672F782F8827B85F39F0B93F10
:102F8000CCF3869577956795B395D9F73EF49095F0
:102F90008095709561957F4F8F4F9F4F0895E8946E
:102FA00009C097FB3EF490958095709561957F4F91
:102FB0008F4F9F4F9923A9F0F92F96E9BB2793953F
:102FC000F695879577956795B795F111F8CFFAF44F
:102FD000BB0F11F460FF1BC06F5F7F4F8F4F9F4F80
:102FE00016C0882311F096E911C0772321F09EE8DE
:102FF000872F762F05C0662371F096E8862F70E044
:1030000060E02AF09A95660F771F881FDAF7880F1D
:103010009695879597F90895990F0008550FAA0B73
:10302000E0E8FEEF16161706E807F907C0F01216DB
:103030001306E407F50798F0621B730B840B950BDE
:1030400039F40A2661F0232B242B252B21F4089533
:103050000A2609F4A140A6958FEF811D811D0895D0
:1030600097F99F6780E870E060E008959FEF80EC3B
:10307000089500240A9416161706180609060895DE
:1030800000240A9412161306140605060895092E44
:103090000394000C11F4882352F0BB0F40F4BF2BB3
:1030A00011F460FF04C06F5F7F4F8F4F9F4F0895F3
:1030B00057FD9058440F551F59F05F3F71F04795E9
:1030C000880F97FB991F61F09F3F79F087950895CE
:1030D000121613061406551FF2CF4695F1DF08C0ED
:1030E000161617061806991FF1CF8695710561050A
:1030F00008940895E894BB2766277727CB0197F9B2
:1031000008958ADF08F48FEF08950BD0C0CFB1DFA8
:1031100028F0B6DF18F0952309F0A2CFA7CF11242D
:10312000EACFC6DFA0F3959FD1F3950F50E0551F6E
:10313000629FF001729FBB27F00DB11D639FAA270C
:10314000F00DB11DAA1F649F6627B00DA11D661F5B
:10315000829F2227B00DA11D621F739FB00DA11D7C
:10316000621F839FA00D611D221F749F3327A00D36
:10317000611D231F849F600D211D822F762F6A2FD2
:1031800011249F5750408AF0E1F088234AF0EE0F57
:10319000FF1FBB1F661F771F881F91505040A9F764
:1031A0009E3F510570F05CCFA6CF5F3FECF3983E99
:1031B000DCF3869577956795B795F795E7959F5FCB
:1031C000C1F7FE2B880F911D9695879597F9089565
:1031D000DB018F939F930E946819BF91AF91A29FCB
:1031E000800D911DA39F900DB29F900D1124089505
:1031F000AA1BBB1B51E107C0AA1FBB1FA617B7071D
:1032000010F0A61BB70B881F991F5A95A9F7809538
:103210009095BC01CD01089597FB072E16F40094FC
:1032200007D077FD09D00E94F81807FC05D03EF4BE
:10323000909581959F4F0895709561957F4F089562
:10324000A1E21A2EAA1BBB1BFD010DC0AA1FBB1FAA
:10325000EE1FFF1FA217B307E407F50720F0A21B1C
:10326000B30BE40BF50B661F771F881F991F1A9489
:1032700069F760957095809590959B01AC01BD01B3
:10328000CF010895052E97FB1EF400940E94591952
:1032900057FD07D00E94201907FC03D04EF40C9470
:1032A000591950954095309521953F4F4F4F5F4F9D
:1032B000089590958095709561957F4F8F4F9F4FA2
:1032C00008950E947919B7FF0895821B930B089502
:1032D0000E947919A59F900DB49F900DA49F800D19
:1032E000911D11240895EE0FFF1F0590F491E02D1C
:1032F0000994A29FB001B39FC001A39F700D811DCF
:103300001124911DB29F700D811D1124911D0895EE
:10331000CF93DF938230910510F482E090E0E0914A
:10332000AD03F091AE0320E030E0A0E0B0E03097D4
:1033300039F14081518148175907B8F048175907AA
:1033400071F482819381109729F013969C938E9348
:1033500012972CC09093AE038093AD0327C0211524
:10336000310531F04217530718F0A901DB0101C004
:10337000EF019A01BD01DF010280F381E02DD7CF7B
:1033800021153105F9F0281B390B2430310580F463
:103390008A819B816115710521F0FB0193838283F2
:1033A00004C09093AE038093AD03FE01329644C0F7
:1033B000FE01E20FF31F819391932250310939836B
:1033C00028833AC02091AB033091AC03232B41F406
:1033D00020910201309103013093AC032093AB03A1
:1033E00020910001309101012115310541F42DB7E3
:1033F0003EB74091040150910501241B350BE0912B
:10340000AB03F091AC03E217F307A0F42E1B3F0BC4
:103410002817390778F0AC014E5F5F4F2417350746
:1034200048F04E0F5F1F5093AC034093AB03819362
:10343000919302C0E0E0F0E0CF01DF91CF910895D9
:10344000CF93DF93009709F487C0FC013297138272
:103450001282C091AD03D091AE03209781F42081F8
:103460003181280F391F8091AB039091AC038217F3
:10347000930779F5F093AC03E093AB036DC0DE01E5
:1034800020E030E0AE17BF0750F412964D915C91EA
:1034900013979D014115510509F1DA01F3CFB3836B
:1034A000A28340815181840F951F8A179B0771F475
:1034B0008D919C911197840F951F02969183808323
:1034C00012968D919C9113979383828321153105D8
:1034D00029F4F093AE03E093AD033EC0D9011396F7
:1034E000FC93EE9312974D915D91A40FB51FEA17CF
:1034F000FB0779F480819181840F951F0296D90191
:1035000011969C938E938281938113969C938E93B4
:103510001297E0E0F0E08A819B81009719F0FE01AC
:10352000EC01F9CFCE01029628813981820F931FD9
:103530002091AB033091AC032817390769F4309719
:1035400029F41092AE031092AD0302C013821282CE
:10355000D093AC03C093AB03DF91CF910895A0E06B
:10356000B0E0E5EBFAE10C948D1BEC01CB01209768
:1035700019F40E948819B8C0FE01E60FF71F9E01DA
:1035800022503109E217F30708F4ACC0D9010D91BC
:103590001C91119706171707B8F00530110508F4AC
:1035A0009FC0A801445051094617570708F498C016
:1035B00002501109061B170B019311936D937C9315
:1035C000CF010E94201A8CC05B01A01AB10A4E01E3
:1035D000800E911EA091AD03B091AE03612C712CB1
:1035E00060E070E0109709F449C0A815B905C9F565
:1035F000ED90FC901197670142E0C40ED11CCA14F3
:10360000DB0478F147018A189B08640142E0C40E8C
:10361000D11C1296BC9012971396AC91B5E0CB16C4
:10362000D10440F0B282A38391828082D9018D932C
:103630009C9309C00E5F1F4F0E0D1F1DF9011183D2
:103640000083EB2DFA2F6115710531F0DB01139624
:10365000FC93EE93129744C0F093AE03E093AD0356
:103660003FC06D917C9111976616770608F43B0177
:10367000BD0112960D90BC91A02DB4CF6091AB030B
:103680007091AC0368157905E9F468167906D0F4F1
:1036900040910001509101014115510541F44DB790
:1036A0005EB76091040170910501461B570BE4174A
:1036B000F507C0F4F093AC03E093AB03F9019183F9
:1036C00080830EC00E9488197C01009759F0A801E0
:1036D000BE010E94791BCE010E94201AC70104C0BE
:1036E000CE0102C080E090E0CDB7DEB7EEE00C94F2
:1036F000A91BFB01DC0102C001900D92415050401A
:10370000D8F70895FB01DC0101900D920020E1F74C
:1037100008952F923F924F925F926F927F928F9275
:103720009F92AF92BF92CF92DF92EF92FF920F9350
:103730001F93CF93DF93CDB7DEB7CA1BDB0B0FB65A
:10374000F894DEBF0FBECDBF09942A883988488817
:103750005F846E847D848C849B84AA84B984C884AD
:10376000DF80EE80FD800C811B81AA81B981CE0FA4
:10377000D11D0FB6F894DEBF0FBECDBFED01089589
:1037800010E0CAECD0E004C0FE010E947519229638
:0A379000CC3CD107C9F7F894FFCF35
:10379A000000AF0380000100000040400200010168
:1037AA00FF00020B803200010000400014005400A8
:1037BA0020202020202020202020202020202020FF
:1037CA00004265726B616E6100426F6F74696E6769
:1037DA00005265616479004B656C6C6579205965A6
:1037EA006C6C6F77004B656C6C6579205265640070
:1037FA004B656C6C657920426C7565004B656C6C29
:10380A00657920477265656E004B656C6C65792039
:10381A00507572706C65004B656C6C6579205768E1
:10382A00697465004B656C6C6579206469616C002C
:10383A005261696E626F77206368617365005261D5
:10384A00696E626F77206379636C65004672616D99
:10385A00652044656C6179004272696768746E65B7
:10386A00737300000000007B088708930093089098
:10387A000000000000940967093C094409570966D9
:0A388A000900000000E41089160098
:00000001FF
