:100000000C946F000C9497000C9497000C9497003C
:100010000C9497000C9497000C9497000C94970004
:100020000C9497000C9497000C9497000C949700F4
:100030000C9497000C9497000C9497000C949700E4
:100040000C943A050C9497000C9497000C9497002C
:100050000C9497000C9497000C9497000C949700C4
:100060000C9461080C949700BD13D113ED13031485
:1000700019142F1445144F14AA141215531540FFC8
:1000800000FFA0FF60FFC0FFFF00000000080002AB
:100090000100000304070000000000000000000051
:1000A0000000250028002B0000000000240027008D
:1000B0002A000404040404040404020202020202EA
:1000C000030303030303010204081020408001021C
:1000D000040810200102040810202416B11611246F
:1000E0001FBECFEFD8E0DEBFCDBF12E0A0E0B1E091
:1000F000E2E6F3E302C005900D92A231B107D9F711
:1001000023E0A2E1B2E001C01D92AA3CB207E1F7F0
:1001100010E0CEE6D0E004C02197FE010E94E51673
:10012000CD36D107C9F70E9443100C94A4190C9442
:1001300000004F925F926F927F928F92AF92BF9228
:10014000CF92EF92FF920F931F93CF93DF933C01D7
:10015000EB010E94CF04F30127853089621B730BEA
:100160006A307105B0F3F894E881F98155B15860AF
:1001700085B1877F85B96A859F81262F291B922F9C
:100180002F83BF844A805B807D85FE84EC847F5F03
:10019000F394E39438854E81AB84C9841181D201F4
:1001A00020E0C32F022F322F318111278894311183
:1001B000390F08F43FEF9195889470FD130F179550
:1001C000889471FD130F1795889472FD130F17957E
:1001D000889473FD130F1795889474FD130F17956A
:1001E000889475FD130F1795889476FD130F179556
:1001F000889477FD130F17958894232F7111212F61
:10020000960F122F002C55B900C000C000C000C0CE
:1002100000C017FF85B932812227889400C000C032
:1002200000C000C000C000C0002C85B931113C0FD7
:1002300000C000C0002C00C000C055B900C000C004
:1002400000C000C000C016FF85B908F43FEFC1959B
:10025000889400C000C000C000C000C000C0002CD6
:1002600085B9F0FC230F00C000C0002C00C000C006
:1002700055B900C000C000C000C000C015FF85B95E
:1002800027958894F1FC230F00C000C000C000C077
:1002900000C000C0002C85B92795889400C000C01C
:1002A000002C00C000C055B900C000C000C000C094
:1002B00000C014FF85B9F2FC230F2795889400C075
:1002C00000C000C000C000C000C0002C85B9F3FC15
:1002D000230F00C000C0002C00C000C055B900C0F2
:1002E00000C000C000C000C013FF85B927958894E6
:1002F000F4FC230F00C000C000C000C000C000C05C
:10030000002C85B92795889400C000C0002C00C03F
:1003100000C055B900C000C000C000C000C012FF3E
:1003200085B9F5FC230F2795889400C000C000C054
:1003300000C000C000C0002C85B9F6FC230F00C02F
:1003400000C0002C00C000C055B900C000C000C0F3
:1003500000C000C011FF85B927958894F7FC230FD2
:1003600000C000C000C000C000C000C0002C85B9A3
:100370002795889400C000C0002C00C000C055B96B
:1003800000C000C000C000C000C010FF85B9132F1E
:10039000F110122FCA0D00C000C000C000C000C084
:1003A00000C0002C85B900C000C000C000C000C063
:1003B000002C55B900C000C000C000C000C017FF2D
:1003C00085B930812227889400C000C000C000C0D9
:1003D00000C000C0002C85B93111340F00C000C02E
:1003E000002C00C000C055B900C000C000C000C053
:1003F00000C016FF85B908F43FEFEB0DF11D00C0FA
:1004000000C000C000C000C000C0002C85B9E0FCE6
:10041000230F00C000C0002C00C000C055B900C0B0
:1004200000C000C000C000C015FF85B927958894A2
:10043000E1FC230F00C000C000C000C000C000C02D
:10044000002C85B92795889400C000C0002C00C0FE
:1004500000C055B900C000C000C000C000C014FFFB
:1004600085B9E2FC230F2795889400C000C000C026
:1004700000C000C000C0002C85B9E3FC230F00C001
:1004800000C0002C00C000C055B900C000C000C0B2
:1004900000C000C013FF85B927958894E4FC230FA2
:1004A00000C000C000C000C000C000C0002C85B962
:1004B0002795889400C000C0002C00C000C055B92A
:1004C00000C000C000C000C000C012FF85B9E5FC3C
:1004D000230F2795889400C000C000C000C000C052
:1004E00000C0002C85B9E6FC230F00C000C0002C22
:1004F00000C000C055B900C000C000C000C000C0AE
:1005000011FF85B927958894E7FC230F00C000C030
:1005100000C000C000C000C0002C85B92795889499
:1005200000C000C0002C00C000C055B900C000C011
:1005300000C000C000C010FF85B9132FE110122FBA
:10054000419500C000C000C000C000C000C0002C29
:1005500085B94C0D00C000C000C000C000C055B936
:1005600000C000C000C000C000C017FF85B93181C5
:100570002227889400C000C000C000C000C000C096
:10058000002C85B93111390F00C000C0002C00C00B
:1005900000C055B900C000C000C000C000C016FFB8
:1005A00085B908F43FEF9195889400C000C000C061
:1005B00000C000C000C0002C85B970FD230F00C032
:1005C00000C0002C00C000C055B900C000C000C071
:1005D00000C000C015FF85B92795889471FD230FD1
:1005E00000C000C000C000C000C000C0002C85B921
:1005F0002795889400C000C0002C00C000C055B9E9
:1006000000C000C000C000C000C014FF85B972FD6A
:10061000230F2795889400C000C000C000C000C010
:1006200000C0002C85B973FD230F00C000C0002C52
:1006300000C000C055B900C000C000C000C000C06C
:1006400013FF85B92795889474FD230F00C000C05F
:1006500000C000C000C000C0002C85B92795889458
:1006600000C000C0002C00C000C055B900C000C0D0
:1006700000C000C000C012FF85B975FD230F27958B
:10068000889400C000C000C000C000C000C0002CA2
:1006900085B976FD230F00C000C0002C00C000C04B
:1006A00055B900C000C000C000C000C011FF85B92E
:1006B0002795889477FD230F00C000C000C000C0BC
:1006C00000C000C0002C85B92795889400C000C0E8
:1006D000002C00C000C055B900C000C000C000C060
:1006E00000C010FF85B9132F7111122F960F00C093
:1006F00000C000C000C000C000C0002C85B900C010
:1007000000C000C0119709F07ECD20EF33E0D20188
:100710000E94EB16DC01CB01F4E0B695A795979506
:100720008795FA95D1F720E030E0A9016AE9469E65
:10073000412D569E400D511D1124840F951FA11D62
:10074000B11D893E43E09407A105B10588F1885E9B
:100750009340A109B10942E0B695A7959795879571
:100760004A95D1F747E0849F212D949F200D311D9C
:1007700011246091120270E0860F971F820F931F61
:1007800040915B0250915C0260915D0270915E024B
:10079000292F3327420F531F611D711D40935B02A8
:1007A00050935C0260935D0270935E02809312022C
:1007B00078940E94CF04F301708B6787DF91CF910B
:1007C0001F910F91FF90EF90CF90BF90AF908F90BF
:1007D0007F906F905F904F90089590E0FC01E657F6
:1007E000FF4F3491FC01EA53FF4F2491FC01EE547A
:1007F000FF4FE491EE2309F43BC0332339F133304A
:1008000091F038F43130A9F0323001F584B58F7DA4
:1008100012C0373091F03830A1F03430B9F4809103
:1008200080008F7D03C0809180008F77809380004F
:100830000DC084B58F7784BD09C08091B0008F77DB
:1008400003C08091B0008F7D8093B000F0E0EE0F88
:10085000FF1FE256FF4FA591B4918FB7F894EC912A
:10086000611103C020952E2301C02E2B2C938FBF26
:10087000089585ED8093BC008091BC0084FDFCCF81
:1008800010921D0308950895E091D6028091D5023B
:10089000E81730F4F0E0E952FD4F808190E00895D0
:1008A0008FEF9FEF08959091D6028091D50298170F
:1008B00050F4E92FF0E0E952FD4F208130E09F5FD6
:1008C0009093D60202C02FEF3FEFC90108958091A7
:1008D000D50290E02091D602821B910908950E94D2
:1008E000FD181F93CF93DF93182FEB010E94300B5D
:1008F000209711F460E004C0CF3FD10539F461E0E6
:10090000812FDF91CF911F910C94ED03E12FF0E047
:10091000E657FF4FE491E330F9F048F4E130B9F0E5
:10092000E230A1F584B5806284BDC8BD34C0E73033
:10093000E9F0E83019F1E43049F5809180008062F7
:1009400080938000D0938B00C0938A0024C084B52C
:10095000806884BDC7BD1FC080918000806880937F
:100960008000D0938900C093880015C08091B000AA
:1009700080688093B000C093B3000DC08091B00038
:1009800080628093B000C093B40005C0C038D10528
:100990000CF0B5CFAFCFDF91CF911F9108953FB746
:1009A000F8948091A7029091A802A091A902B09119
:1009B000AA0226B5A89B05C02F3F19F00196A11DDC
:1009C000B11D3FBFBA2FA92F982F8827820F911DE5
:1009D000A11DB11DBC01CD0142E0660F771F881F2C
:1009E000991F4A95D1F708958F929F92AF92BF9227
:1009F000CF92DF92EF92FF926B017C010E94CF04B5
:100A00004B015C01C114D104E104F104F1F00E9436
:100A1000CF04DC01CB0188199909AA09BB09883EDA
:100A20009340A105B10570F321E0C21AD108E10895
:100A3000F10888EE880E83E0981EA11CB11CC11439
:100A4000D104E104F10419F7DDCFFF90EF90DF90BE
:100A5000CF90BF90AF909F908F9008952FB7F8944C
:100A600060915B0270915C0280915D0290915E02E8
:100A70002FBF08951F920F920FB60F9211242F933C
:100A80003F938F939F93AF93BF9380915B0290911D
:100A90005C02A0915D02B0915E023091A60223E05B
:100AA000230F2D3720F40196A11DB11D05C026E8A6
:100AB000230F0296A11DB11D2093A60280935B0215
:100AC00090935C02A0935D02B0935E028091A702B6
:100AD0009091A802A091A902B091AA020196A11D2D
:100AE000B11D8093A7029093A802A093A902B0938E
:100AF000AA02BF91AF919F918F913F912F910F903B
:100B00000FBE0F901F901895DC01FB014C911196C0
:100B10005C91119712967C91342F3F71330F330FF4
:100B2000832F880F35E5282F239F020E20E0211DFB
:100B30001124642F6074942F907247FD21C06111BD
:100B40000BC0911104C0822F8095422F11C045E542
:100B5000420F30E02BEA33C091110DC0382F4AEA22
:100B6000349F030E30E0311D11248BEA831B420FAA
:100B7000282F30E024C080E0422F4095322F0EC055
:100B8000611111C091110CC0382F2AEA329F030E57
:100B900030E0311D11244BEA431B3B5A20E00FC0CB
:100BA000322F30950BC0911104C085E5820F3BEACE
:100BB00003C08AEA820F90E0321B282F40E05F3F9B
:100BC00011F15523E9F0222321F0259F020E20E0A8
:100BD000211D442321F0459F040E40E0411D332395
:100BE00021F0359F030E30E0311D11245095559FA3
:100BF000050E50E0511D1124250F450F350F03C080
:100C00003FEF4FEF2FEF7F3F09F420C050E07723F5
:100C100021F0779F512D09F05F5F5523A1F022232A
:100C200021F0259F020E20E0211D442321F0459F45
:100C3000040E40E0411D332321F0359F030E30E0C8
:100C4000311D112403C030E040E020E020834183C7
:100C500032830895682F8EE493E00C94300FEF9266
:100C6000FF920F931F93CF93DF9300D0CDB7DEB7E2
:100C70007C01162F683020F0185095E103E102C086
:100C800094E102E1F701808180624A8399830E94A6
:100C9000230A9981892F0E942A060E942D0AF701B2
:100CA0009081892F806261E070E090E00E948A0A62
:100CB0008EE493E00E9453044A8121E030E001C0B9
:100CC000220F1A95EAF7413019F4122F182B03C09E
:100CD0002095122F1823F701808180620E94230A39
:100CE000802F0E942A06812F0E942A060F900F90C3
:100CF000DF91CF911F910F91FF90EF900C942D0AEF
:100D0000FC01962F828D8F3F31F0603140F4CF018E
:100D10004B960C942F06642F892F0C94ED030895A5
:100D2000CF93DF93EC0140E06E810E94800641E0AA
:100D30006E81CE010E94800640E06E81CE010E944D
:100D400080068BE891E00197F1F7DF91CF9108954C
:100D5000EF92FF920F931F93CF93DF931F92CDB724
:100D6000DEB77C01162F683018F0185001E001C082
:100D700000E0F7018081806249830E94230A802F6E
:100D80000E942A060E942D0AF7018081806261E09C
:100D900070E090E00E948A0A8EE493E00E9453047F
:100DA000498121E030E001C0220F1A95EAF7411194
:100DB00003C0122F182B03C02095122F1823F70100
:100DC000808180620E94230A802F0E942A06812F40
:100DD0000E942A060F90DF91CF911F910F91FF90F3
:100DE000EF900C942D0A603110F40C94A80608952D
:100DF000CF93DF9300D0CDB7DEB7FC018081806256
:100E000069837A830E94230A82E10E942A0669810B
:100E1000862F0E942A067A81872F0E942A060F9029
:100E20000F90DF91CF910C942D0A8F929F92AF92E9
:100E3000BF92CF92DF92EF92FF920F931F93CF93C7
:100E4000DF93EC018A8D8E01095F1F4FC62ED12CD6
:100E50008F3F09F483C07E018BE1E80EF11C8B8D7E
:100E600080620E94230A82E10E942A060E942D0AC3
:100E70008B8D806262E070E090E00E948A0A8EE4CE
:100E800093E00E945304B82E8EE493E00E94530432
:100E9000982F88279C012B29F801A0E0B0E061E0A1
:100EA00070E0B19001E010E0CB010B2C02C0880F84
:100EB000991F0A94E2F78095909528233923A6017B
:100EC0000A2E02C0559547950A94E2F741705527BE
:100ED00002C0440F551FBA94E2F7242B352B11960C
:100EE000A430B105F1F668010E8002C0CC0CDD1C07
:100EF0000A94E2F7C094D094C222D322B601C7016B
:100F00000E94F806B8010E8002C0660F771F0A948F
:100F1000E2F7C62AD72AB601C7010E94F8060E805A
:100F200002C0000F111F0A94E2F700951095B60158
:100F300060237123C7010E94F8068BE891E00197B6
:100F4000F1F7DF91CF911F910F91FF90EF90DF901C
:100F5000CF90BF90AF909F908F900895E12CF12C8F
:100F60004E01EBE18E0E911C5801F80180819A8DA3
:100F70009F3F31F041E0682FC4010E94F30602C098
:100F80000E94300B0F5F1F4FA6010E2C02C055951B
:100F900047950A94E2F74170F5016081CE010E9405
:100FA0008006FFEFEF1AFF0A84E0E816F104E1F68D
:100FB000CE01DF91CF911F910F91FF90EF90DF90C5
:100FC000CF90BF90AF909F908F900C9490068F928F
:100FD0009F92AF92BF92CF92DF92EF92FF920F93C8
:100FE0001F93CF93DF93EC01F62E6C810E94800655
:100FF0006D816F3F21F040E0CE010E9480068C8918
:101000000F2D10E084FF3EC06E0187E0C80ED11C9A
:10101000E12CF12C4E01EBE18E0E911C5601F601F4
:1010200080819A8D9F3F31F041E0682FC4010E947A
:10103000F30602C00E94300BFFEFCF1ADF0AA801AF
:101040000E2C02C0559547950A94E2F74170F501C0
:101050006081CE010E948006FFEFEF1AFF0A88E050
:10106000E816F104D9F6CE01DF91CF911F910F91CF
:10107000FF90EF90DF90CF90BF90AF909F908F90B8
:101080000C949006B80184E0759567958A95E1F710
:10109000CE010E9415076F2DCE01DF91CF911F91D8
:1010A0000F91FF90EF90DF90CF90BF90AF909F9007
:1010B0008F900C94150741E00E94E70781E090E0D3
:1010C00008951F920F920FB60F9211242F933F9302
:1010D0004F935F936F937F938F939F93AF93BF9340
:1010E000EF93FF938091B900887F803609F49CC00C
:1010F00068F5883209F45BC090F4803109F454C07B
:1011000038F4882309F4F6C0883009F44DC0F6C0DD
:10111000883109F44CC0803209F45DC0EFC08034DE
:1011200009F468C048F4803309F455C0883309F0E5
:10113000E5C080931B03D8C0803509F44FC08835C3
:1011400009F45DC0883409F0D9C0D6C0883909F4E3
:10115000C7C0A8F4883709F467C038F4883609F4A2
:1011600063C0803709F460C0C9C0883809F4B8C0CA
:10117000803909F45FC0803809F0C0C05BC0803B93
:1011800009F486C038F4803A09F466C0883A09F454
:101190007FC0B4C0803C09F4A7C0883C09F4A4C057
:1011A000883B09F48AC0AAC08091F80210C09091CF
:1011B0001A0380911903981770F5E0911A0381E0E2
:1011C0008E0F80931A03F0E0E750FD4F80818093EB
:1011D000BB0085EC86C080931B038EC0E0911A0390
:1011E00081E08E0F80931A038091BB00F0E0E750FE
:1011F000FD4F808390911A03809119036EC0E09196
:101200001A0381E08E0F80931A038091BB00F0E0F7
:10121000E750FD4F808380911C0381116DC081E0F8
:101220008093F70284EA61C083E080931D031092EB
:10123000A502CFCF8091A502803208F051C0E09185
:10124000A50281E08E0F8093A5028091BB00F0E0A3
:10125000EB57FD4F8083BDCF85EC8093BC0010928F
:101260001D038091A502803230F4E091A502F0E0E8
:10127000EB57FD4F10826091A50270E0E091830270
:10128000F091840285E892E009951092A50236C09B
:1012900084E080931D031092820210928102E091FB
:1012A0007F02F0918002099580918102811105C031
:1012B00081E08093810210925F02E091820281E0DE
:1012C0008E0F80938202F0E0E15AFD4F808180937F
:1012D000BB009091820280918102981708F479CF27
:1012E00085E88093BC000AC085EC8093BC00109216
:1012F0001D0304C010921B030E943904FF91EF915B
:10130000BF91AF919F918F917F916F915F914F911D
:101310003F912F910F900FBE0F901F901895409105
:101320008102262F30E0240F311D21323105DCF4FB
:1013300020911D032430C9F4FC0180E090E0861761
:1013400058F4309181022191DC01A15ABD4FA30FC5
:10135000B11D2C930196F3CF80918102680F6093A9
:10136000810280E0089581E0089582E00895CF929F
:10137000DF92EF92FF920F931F93CF93DF937C0145
:10138000262F972F8A0180914003882391F0C62F42
:10139000D72F6E01C40ED51ECC15DD0571F06991F5
:1013A000D701ED91FC910190F081E02DC7010995E5
:1013B000F3CF642F822F0E948F09C801DF91CF9154
:1013C0001F910F91FF90EF90DF90CF9008951092B2
:1013D0001D0381E080931C031092F70261E082E11B
:1013E0000E94ED0361E083E10E94ED03E9EBF0E090
:1013F00080818E7F808380818D7F808388E480934D
:10140000B80085E48093BC00089520E0DC0160FF13
:1014100003C001C02D932D936250E0F77040D0F7C8
:101420000895009769F0FC0101900020E9F73197D9
:10143000AF01481B590BBC018AE593E00C94AC0F3B
:1014400080E090E0089591E0909340038093C20380
:1014500010923F0310923E03089520913E03909115
:10146000C203213208F04AC080911D038111FCCFD4
:1014700032E030931D0331E030931C033FEF309393
:101480001B0310921A0320931903AEE1B3E049EF56
:1014900052E0FA013E2F341B321718F43D9131937C
:1014A000F9CF1092F8022091F802990F922B9093A5
:1014B000F8029091F702913061F41092F702909146
:1014C000F8029093BB009091BC0093FDF8CF95EC8F
:1014D00001C095EE9093BC0090911D039230E1F312
:1014E00090911B039F3F79F080911B03803241F064
:1014F00080911B03803331F084E005C081E003C09C
:1015000082E001C083E010923F0310923E031092EC
:101510004003089590911D039111FCCF613208F0B2
:1015200060E291E090931D0390931C032FEF2093B2
:101530001B0310921A03260F209319039093F802AD
:101540009091F802880F892B8093F8028091F7021E
:10155000813061F41092F7028091F8028093BB0011
:101560008091BC0083FDF8CF85EC01C085EE8093AF
:10157000BC0080911D038130E1F380911A0386172E
:1015800010F460911A03A9EFB2E027ED32E0F901FF
:101590008E2F821B861718F48D918193F9CF1092AC
:1015A000D6026093D502862F0895CF92DF92FF92E4
:1015B0000F931F93CF93DF931F92CDB7DEB7C12C4C
:1015C000D12C0FE1FC2CF601E65AFC4F17851031A7
:1015D00040F5183018F0185093E101C092E1809165
:1015E0007503806299830E94230A9981892F0E9442
:1015F0002A060E942D0A90917503892F806261E06E
:1016000070E090E00E948A0A8EE493E00E94530406
:101610009C01332702C0359527951A95E2F7217072
:1016200001C020E030E002C0220F331FFA94E2F73D
:1016300020953095802F90E082239323082F2FEF61
:10164000C21AD20A25E0C216D10409F0BBCF0F900E
:10165000DF91CF911F910F91FF90DF90CF90089570
:1016600090E0FC01EA53FF4F2491FC01EE54FF4F40
:101670008491882399F090E0880F991FFC01E85528
:10168000FF4FA591B491FC01E256FF4F85919491D3
:101690008FB7F894EC91E22BEC938FBF089540E064
:1016A000682F8AE593E00C94E70781E00E944F0BD6
:1016B0008BE39FE10197F1F70895CF92DF92EF92CC
:1016C000FF920F931F93CF93DF938091C00390916C
:1016D000C103EC012196D093C103C093C003499785
:1016E0009CF10E942E058B019C0188EE93E0C89F1F
:1016F000B001C99F700DD89F700D1124072E000CEA
:10170000880B990BC090BC03D090BD03E090BE0342
:10171000F090BF03A90198012C193D094E095F09FA
:101720000E94731930934303209342031092C10324
:101730001092C0030E942E056093BC037093BD03FA
:101740008093BE039093BF03DF91CF911F910F91C0
:10175000FF90EF90DF90CF900895CF92DF92EF92BD
:10176000FF920F931F93CF93DF9300D01F92CDB7BB
:10177000DEB7F09041038091440390914503A0911E
:101780004603B0914703892B8A2B8B2BE9F00E94EB
:10179000CF040091D1021091D2022091D302309156
:1017A000D402DC01CB01801B910BA20BB30B009187
:1017B000440310914503209146033091470380175D
:1017C0009107A207B307B8F20E94CF046093D10239
:1017D0007093D2028093D3029093D402E0914C0391
:1017E000F0914D03309759F04091480350914903CF
:1017F00060914A0370914B038F2D0995F82E00914B
:10180000CF021091D0020115110561F1D8011C968B
:10181000EC901C978091420390914303843691058C
:1018200010F41C961C92D801ED91FC91C280D380DB
:101830004F2DB801CE0101960E94D50EF8014585C5
:101840005685628173819E012F5F3F4FC801F6016B
:101850000995D8011C96EC921C9714960D911C9139
:101860001597D1CF0E945D0B0F900F900F90DF91D5
:10187000CF911F910F91FF90EF90DF90CF9008953F
:10188000CF93DF93CDB7DEB728970FB6F894DEBFBE
:101890000FBECDBF98E0E7E3F1E0DE0111960190C5
:1018A0000D929A95E1F790917203981710F48FEFCB
:1018B000890FFE013196E80FF11DE80FF11D8081BF
:1018C000806828960FB6F894DEBF0FBECDBFDF91BB
:1018D000CF910C944F0B0C94110AFC01448155815B
:1018E000608171818AE593E00C94AC0FCF93DF9314
:1018F000C091CF02D091D002209789F08A819B813C
:10190000009749F06D857E859B01220F331F620F82
:10191000731F0E94050A0C80DD81C02DEDCFDF9181
:10192000CF910895DC0120E030E08C91F901E5557C
:10193000FD4F808311968C911197818312968C9123
:10194000129782832D5F3F4F2432310571F708953E
:10195000CF92DF92EF92FF920F931F93CF93DF937B
:10196000CDB7DEB7A1970FB6F894DEBF0FBECDBFDF
:10197000282F30E040E050E019A28E010F5D1F4F8C
:101980008AE0C82ED12CE12CF12CCA01B901A701A3
:1019900096010E947319605DF80162938F01211511
:1019A00031054105510589F7CF010E94110AA19621
:1019B0000FB6F894DEBF0FBECDBFDF91CF911F9160
:1019C0000F91FF90EF90DF90CF90089580E991E024
:1019D0000895239A089580E090E00895FC0185859C
:1019E00096850895CF93DF9300D000D000D0CDB777
:1019F000DEB7AB011C821D821E82DC01ED91FC91E1
:101A00000190F081E02D19821A821B829E012F5FC6
:101A10003F4FBE016C5F7F4F099526960FB6F89435
:101A2000DEBF0FBECDBFDF91CF910895FC01DB017A
:101A30003C912081230F08F42FEF208311963C91D5
:101A400011972181230F08F42FEF218312963C91E7
:101A50002281230F08F42FEF228308950F931F9301
:101A6000CF93DF93CDB7DEB762970FB6F894DEBFA2
:101A70000FBECDBF8C01F901DC011C968C917A83DD
:101A800069835C834B835E834D8390819D879181C5
:101A90009E8792819F87813029F4CE0101960E9412
:101AA0005F0F06C01C861B861A86198618861F8241
:101AB00083E0888B1A8A198AD801ED91FC910484FD
:101AC000F585E02DBE016F5F7F4FC80109956296D5
:101AD0000FB6F894DEBF0FBECDBFDF91CF911F913F
:101AE0000F9108950F931F93CF93DF93CDB7DEB778
:101AF00062970FB6F894DEBF0FBECDBF8C01F9011F
:101B0000DC011C968C917A8369835C834B835E83B2
:101B10004D8390819D8791819E8792819F8781309F
:101B200029F4CE0101960E945F0F06C01C861B8619
:101B30001A86198618861F82188A1A8A198AD80165
:101B4000ED91FC910484F585E02DBE016F5F7F4F20
:101B5000C801099562960FB6F894DEBF0FBECDBFDF
:101B6000DF91CF911F910F9108950F931F930E94C2
:101B70002E0500912B0210912C0220912D02309104
:101B80002E02DC01CB01801B910BA20BB30B8B3F10
:101B90009105A105B10508F44BC00E94D50A843017
:101BA000B1F08830E1F0813009F042C080917803D3
:101BB0008093770380917903809378030E94550B7B
:101BC000109202010E94760C0E94AD0B27C08091FA
:101BD00079038F5F8B3050F01092790309C08091A8
:101BE0007903811102C08AE001C08150809379039A
:101BF00080E00E94400C8DE691E00E946B0C80E03A
:101C00000E94400C8091790326E0829FC00111243C
:101C100086589C4F0E946D0C109202010E942E0566
:101C200060932B0270932C0280932D0290932E02CE
:101C30001F910F910895AF92BF92CF92DF92EF92D2
:101C4000FF920F931F93CF93DF9300D000D000D06B
:101C5000CDB7DEB78091C3039091C4039C012E5F82
:101C60003F4F203631052CF43093C4032093C30337
:101C700006C08E5591099093C4038093C3030E94BC
:101C8000760C1091C303812F9091C40397FD0F969A
:101C90007C0164E0F594E7946A95E1F71295107F72
:101CA0001095012F0095C12CD12C809104019091A9
:101CB00003019C838D831E83BE016F5F7F4FCE0126
:101CC00004960E9484055701AA0CBB1CF501E15E35
:101CD000FD4F808191819C01220F331F820F931F42
:101CE000BE016F5F7F4F85559D4F0E94160D8091FD
:101CF0000401909103019C838D831E83BE016F5F5D
:101D00007F4FCE0104960E948405F501ED5EFD4FE4
:101D1000808191819C01220F331F820F931FBE018E
:101D20006F5F7F4F85559D4F0E94160D8FEFE81A0C
:101D3000F80A86E0E816F10411F4E12CF12C8FEF9B
:101D4000C81AD80A84E0C816D10441F083E0C81646
:101D5000D10411F4102FA9CF1FEFA7CF0E94AD0B14
:101D600026960FB6F894DEBF0FBECDBFDF91CF91A0
:101D70001F910F91FF90EF90DF90CF90BF90AF90A9
:101D80000895CF93DF93EC01688170E085E00E94B5
:101D90007104698170E086E00E9471046A8170E0DC
:101DA00083E0DF91CF910C9471044F925F926F9218
:101DB0007F92AF92BF92CF92DF92EF92FF920F93FA
:101DC0001F93CF93DF93FC01108211821282442370
:101DD000B9F18B01075F1F4F5C01EB012C96442E7C
:101DE000512C612C712CD8011397CC90D8012D91D6
:101DF0008D01CC20F9F02223E9F0822F90E0A0E0C1
:101E0000B0E09C01AD012F5F3F4F4F4F5F4FC301CB
:101E1000B2010E94C1169B01AC01D12CE12CF12C26
:101E2000C701B6016F5F7F4F8F4F9F4F0E94C11652
:101E3000D5018C93BFEFAB1ABB0A0C171D0799F69F
:101E4000CF01DF91CF911F910F91FF90EF90DF9025
:101E5000CF90BF90AF907F906F905F904F9008951C
:101E6000CF93DF931F92CDB7DEB7698320914003F4
:101E70002223D1F020913E03203240F021E030E0D7
:101E8000FC013383228380E090E015C080913F0302
:101E9000E82FF0E0E25EFC4F998190838F5F8093A2
:101EA0003F0380933E0305C061E0CE0101960E948E
:101EB0008F0981E090E00F90DF91CF910895EF922C
:101EC000FF920F931F93CF93DF93EC019091C50383
:101ED0009F5F292F27702093C50390FF02C090E8D1
:101EE00001C090E021FD9064247009F0906220E12F
:101EF000290FFE013C967E018FE0E80EF11C00E008
:101F000011E06191662331F070E0C8010E94D116A2
:101F10006F5F01C060E0DF0114976C93322F369F32
:101F2000030E30E0311D1124CF010797311103C09A
:101F3000EC01188203C03150EC013883662311F0A4
:101F400061506C93EE15FF05E1F6DF91CF911F9183
:101F50000F91FF90EF900895CF92DF92EF92FF9252
:101F60000F931F93CF93DF936C017A018B01C0E035
:101F7000D0E0CE15DF0589F0D8016D918D01D60135
:101F8000ED91FC910190F081E02DC6010995892B1E
:101F900011F47E0102C02196ECCFC701DF91CF91F1
:101FA0001F910F91FF90EF90DF90CF900895CF9306
:101FB000DF93D82FC1E082FB442740F94C2768E02B
:101FC00085E793E00E942F06D1FB442740F94C2778
:101FD00067E085E793E00E942F064D2F41704C2764
:101FE00066E085E793E0DF91CF910C942F06EF92A6
:101FF000FF920F931F93CF93DF93EC011982188206
:102000001B821A821D821C8261157105A9F17B0158
:10201000FB0101900020E9F731978F01061B170B98
:10202000B8016F5F7F4F80E090E00E943318009707
:1020300059F0998388831B830A832C813D81232B4C
:1020400081F4FC0110820DC088819981009711F004
:102050000E949B17198218821D821C821B821A8281
:102060000BC01D830C83B701DF91CF911F910F919E
:10207000FF90EF900C940B19DF91CF911F910F916E
:10208000FF90EF900895CF93DF93CDB7DEB72A97F7
:102090000FB6F894DEBF0FBECDBF789484B58260D2
:1020A00084BD84B5816084BD85B5826085BD85B5FC
:1020B000816085BD80916E00816080936E0010927A
:1020C00081008091810082608093810080918100F5
:1020D0008160809381008091800081608093800086
:1020E0008091B10084608093B1008091B0008160E4
:1020F0008093B00080917A00846080937A00809110
:102100007A00826080937A0080917A008160809367
:102110007A0080917A00806880937A001092C100E2
:10212000809174038F3F39F580916E0388608093AE
:102130006E0382E080937203109273038BE39DE041
:102140000197F1F740E060915E038AE593E00E9419
:10215000800640E0609160038AE593E00E9480067B
:1021600060915F036F3F09F4BAC040E08AE593E0F5
:102170000E948006B4C01092D6021092D50210922E
:102180003F0310923E030E94E709109275031092DC
:10219000D6021092D50210923F0310923E030E9485
:1021A000E7098091750380620E94230A80E00E9403
:1021B0002A068FEF0E942A060E942D0A809175033D
:1021C00080620E94230A81E00E942A068FEF0E940B
:1021D0002A060E942D0A41E068E085E793E00E940C
:1021E000A80641E066E085E793E00E94A80641E08A
:1021F00067E085E793E00E94A80687E00E94D70F7A
:1022000060915F03662329F041E085E793E00E9437
:10221000F30641E060915E0385E793E00E94F306D8
:1022200041E06091600385E793E00E94F30601E6D8
:1022300013E0F4E0FF2EF00ED8016D918D0141E026
:1022400085E793E00E94F306F012F6CF09E613E06B
:10225000E5E0EE2EE00E40E0F801608185E793E0D6
:102260000E94F306D8012D918D012031A8F5283068
:1022700020F028507DE0F72E02C06CE0F62E809111
:10228000750380622A870E94230A8F2D0E942A06E6
:102290000E942D0A80917503806261E070E090E0F9
:1022A0000E948A0A8EE493E00E945304D82E809103
:1022B000750380620E94230A8F2D0E942A0641E046
:1022C00050E02A85CA0101C0880F2A95EAF78D29B6
:1022D0000E942A060E942D0AE012BDCF25CF8091D0
:1022E0006E0384FD21C063E08AE593E00E94150738
:1022F0000BE416E4C8010197F1F763E08AE593E087
:102300000E941507C8010197F1F763E08AE593E0A1
:102310000E94150783E592E00197F1F762E08AE5F4
:1023200093E00E94150715C080620E944F0B8BE45A
:1023300096E40197F1F780916E0380620E944F0B43
:1023400083E592E00197F1F780916E0380620E942D
:102350004F0B80916E0380620E944F0B84E080934C
:102360006F038CE00E944F0B0E94550B82E080931C
:10237000700386E00E944F0B81E00E94D70F87E533
:1023800091E00E946B0CEFE1F2E0A3E1B2E022E009
:1023900030E081E090E0219331938D939D93A901EA
:1023A0004F5F5F4F019762E0EB32F60771F04C3000
:1023B00051051CF0A9014B5051098F3F2FEF920797
:1023C00011F48BE090E09A01E6CF68EB7BE080E0CF
:1023D00090E00E94F40480914202811145C0109265
:1023E0003402109233028FEF8093370280933802C9
:1023F0008093390280933A0280933B0280933C029F
:1024000081E080933D0210923F0210923E021092B2
:102410003602109235028091CF029091D002892B22
:1024200031F481E392E09093D0028093CF02E09167
:102430002F02F0913002309721F081E392E09583F2
:10244000848381E392E09093300280932F02109274
:1024500041021092400287E291E090933202809311
:10246000310281E080934202E0913102F091320228
:102470000480F581E02D81E392E009958BEA92E0FA
:1024800090933402809333028CE090E090933F026B
:1024900080933E02E0913102F09132020284F38592
:1024A000E02D81E392E00995009729F19C0140E03D
:1024B00050E060E472E48FE090E00E941219722F05
:1024C000632F0091440310914503209146033091FE
:1024D0004703872F962FDA0180179107A207B307CA
:1024E00010F4D901C8018093440390934503A0934D
:1024F0004603B09347030E94760C0E94AD0B80E226
:102500008093410368EC70E080E090E00E94F40466
:1025100085E00E94300B86E00E94300B83E00E9431
:10252000300B1FEF19831A821B82CE0101960E9485
:10253000C10E19831A821B82CE0101960E94920C51
:102540000E94AD0B6CE271E080E090E00E94F40428
:10255000198200E80A831B82CE0101960E94C10EF7
:1025600019820A831B82CE0101960E94920C0E945E
:10257000AD0B6CE271E080E090E00E94F4041982FF
:102580001A821B83CE0101960E94C10E19821A8203
:102590001B83CE0101960E94920C0E94AD0B6CE24F
:1025A00071E080E090E00E94F40419821A821B829C
:1025B000CE0101960E94C10E19821A821B82CE01A1
:1025C00001960E94920C0E94AD0B0E94550B82E076
:1025D0000E94D70F80E00E94400C8FE591E00E949E
:1025E0006B0C81E00E94400C87E691E00E946B0C2E
:1025F0006EEE72E080E090E00E94F4043EE7C32EAD
:1026000030E0D32EF60185919591A591B4918093F8
:1026100058024FE7A42E40E0B42EF5018591959124
:10262000A591B491809359020E942E0560932B02CC
:1026300070932C0280932D0290932E020E942E05FF
:102640006093500270935102809352029093530210
:102650000E942E0560934A0270934B0280934C02B5
:1026600090934D0222242A9453E0352E412C512C74
:1026700080E480937C0080917A00806480937A006B
:1026800080917A0086FDFCCF2091780080917900BE
:1026900030E0382B3093070120930601A5EAB0E023
:1026A0000E9495196A35A7E97A07A2E08A07910581
:1026B00034F4A20191010E941219265A01C02FEF91
:1026C0002093760380910801821320930801809162
:1026D0007803895090910801823028F48091050197
:1026E00020915A0204C080910401209103012C839F
:1026F0008D839E83BE016F5F7F4FCE0104960E9443
:102700008405CE0101960E94C10E809176038093CC
:10271000410381E00E94400C80917803B6E08B9FDA
:10272000C001112486589C4F0E946D0C0E942E05FA
:1027300000912B0210912C0220912D0230912E023B
:10274000DC01CB01801B910BA20BB30B81319742B3
:10275000A105B10528F080910201882309F409C27E
:10276000E09178038E2F90E08B30910508F0EFC157
:10277000FC01EC5CFF4F0C94E516F60185919591F8
:10278000A591B49180935802F501459155916591B9
:10279000749140935902809303014093040183E0B4
:1027A00015C0E0E8F0E085919591A591B4918093F2
:1027B0005802E1E8F0E0459155916591749140939C
:1027C0005902809303014093040181E00E94D70FD6
:1027D0000E941B0E0E94B50DBAC1E2E8F0E085919F
:1027E0009591A591B49180935802E3E8F0E045916A
:1027F00055916591749140935902809303014093E0
:10280000040184E0E3CFE4E8F0E085919591A5919F
:10281000B49180935802E5E8F0E0459155916591B7
:10282000749140935902809303014093040182E024
:10283000CDCFE6E8F0E085919591A591B491809394
:102840005802E7E8F0E04591559165917491409305
:102850005902809303014093040185E0B7CFE8E873
:10286000F0E085919591A591B49180935802E9E8A3
:10287000F0E0459155916591749140935902809390
:1028800003014093040187E0A1CF80915A02809315
:102890000301809105018093040186E097CF609049
:1028A0005402709055028090560290905702809189
:1028B000500290915102A0915202B0915302A40192
:1028C0009301281B390B4A0B5B0B2730310541055F
:1028D0005105E0F160E070E0CB010E94F4046092E9
:1028E0005002709251028092520290925302909143
:1028F0000801809100010FEF080F00930001898308
:102900001FEF1A839B8380914E0290914F026CE0DF
:1029100070E00E94D116BC01660F771F860F971FCB
:10292000BC0165557D4FCE0101960E948405009340
:102930000301109304010E94AD0B80914E0290910F
:102940004F02019690934F0280934E0286E00E94C0
:10295000D70F40CF6090540270905502809056027D
:10296000909057028091500290915102A091520292
:10297000B0915302A4019301281B390B4A0B5B0B46
:10298000293131054105510508F360E070E0CB01C4
:102990000E94F4046092500270925102809252029E
:1029A0009092530290910801809101012FEF280F1E
:1029B000209301018C838FEF8D839E83BE01695F1D
:1029C0007F4FCE0104960E948405F09041038091D0
:1029D000440390914503A0914603B0914703892B8E
:1029E0008A2B8B2B09F4D7C00E94CF040091D1020F
:1029F0001091D2022091D3023091D402DC01CB019C
:102A0000801B910BA20BB30B009144031091450363
:102A1000209146033091470380179107A207B3071F
:102A2000B0F2B9C087E00E94D70F80E00E94400C4E
:102A30008DE691E00E946B0C80E00E94400C80913A
:102A400005010E94A80C0E942E0500912B021091F6
:102A50002C0220912D0230912E02DC01CB01801B33
:102A6000910BA20BB30B84359105A105B10508F4B8
:102A70006EC00E94D50A823069F0803109F03FC0F3
:102A800080910501811102C08FEF01C081508093B8
:102A9000050151C0809105018F3F19F41092050185
:102AA0004AC08F5FF4CF87E00E94D70F80E00E947A
:102AB000400C8DE691E00E946B0C80E00E94400C7F
:102AC00080915A020E94A80C0E942E0500912B02B0
:102AD00010912C0220912D0230912E02DC01CB01AD
:102AE000801B910BA20BB30B84359105A105B10599
:102AF00070F10E94D50A8230A9F0803149F081300E
:102B000031F580917703809378030E94550B13C0B1
:102B100080915A02811102C08FEF01C081508093D1
:102B20005A0209C080915A028F3F19F410925A023A
:102B300002C08F5FF4CF109202010E942E056093B5
:102B40002B0270932C0280932D0290932E020E94F0
:102B50002E05609354027093550280935602909311
:102B6000570280E090E0892B09F482CD0E9400009A
:102B70007FCD80E00E94400C8DE691E00E946B0CBE
:102B800080E00E94400C8FE591E00E946B0C81E098
:102B900080930201E5CD0E94CF046093D10270932F
:102BA000D2028093D3029093D402E0914C03F0912F
:102BB0004D03309759F0409148035091490360917B
:102BC0004A0370914B038F2D0995F82E0091CF0287
:102BD0001091D0020115110569F1D8011C96EC90F5
:102BE0001C9780914203909143038436910510F421
:102BF0001C961C92D801ED91FC91608071804F2D44
:102C0000B801CE0101960E94D50EF8014585568582
:102C10009E012F5F3F4FBE01695F7F4FC801F301E7
:102C20000995D8011C96EC921C9714960D911C9155
:102C30001597D0CF0E945D0B809101018093030115
:102C40008FEF8093040182CEE1E4F3E08FEF808385
:102C500012821182148613868FEF9FEFDC01878327
:102C60009087A187B287EEE4F3E01382128288EEA8
:102C700093E0A0E0B0E084839583A683B78383E4E8
:102C800091E0918380836EE771E08AE793E00E9490
:102C9000F70F6CE871E080E893E00E94F70F67E9B6
:102CA00071E086E893E00E94F70F63EA71E08CE838
:102CB00093E00E94F70F60EB71E082E993E00E94DD
:102CC000F70F6EEB71E088E993E00E94F70F6BEC71
:102CD00071E08EE993E00E94F70F69ED71E084EAFC
:102CE00093E00E94F70F67EE71E08AEA93E00E949A
:102CF000F70F65EF71E080EB93E00E94F70F67E05C
:102D000072E086EB93E00E94F70F80917903809345
:102D10007803809377038091080180937603EAE536
:102D2000F3E01382128283E591E091838083128E17
:102D3000148A8FE084838EE085838DE086838CE027
:102D400087838BE080878AE0818789E08287178686
:102D500081E0808B82E0818B83E0828B84E0838BB7
:102D60000895CF93DF93CCEBD3E0269788819981A8
:102D70000E949B1783E0CA37D807B9F7DF91CF913C
:102D80000895DB018F939F930E943119BF91AF91FA
:102D9000A29F800D911DA39F900DB29F900D1124B5
:102DA000089597FB072E16F4009407D077FD09D0FD
:102DB0000E94F21607FC05D03EF4909581959F4F36
:102DC0000895709561957F4F0895EE0FFF1F059050
:102DD000F491E02D09940E949519B7FF0895821B84
:102DE000930B0895AA1BBB1B51E107C0AA1FBB1F71
:102DF000A617B70710F0A61BB70B881F991F5A9587
:102E0000A9F780959095BC01CD010895CF93DF93EC
:102E10008230910510F482E090E0E091C803F091D7
:102E2000C90320E030E0C0E0D0E0309711F14081EC
:102E3000518148175907C0F04817590761F482813A
:102E40009381209719F09B838A832BC09093C903A9
:102E50008093C80326C02115310519F04217530786
:102E600018F49A01BE01DF01EF010280F381E02D29
:102E7000DCCF2115310509F1281B390B2430310530
:102E800090F412968D919C9113976115710521F024
:102E9000FB019383828304C09093C9038093C8038A
:102EA000FD01329644C0FD01E20FF31F819391931F
:102EB000225031092D933C933AC02091C6033091A2
:102EC000C703232B41F420910B0130910C01309367
:102ED000C7032093C6032091090130910A012115EF
:102EE000310541F42DB73EB740910D0150910E01CF
:102EF000241B350BE091C603F091C703E217F307DB
:102F0000A0F42E1B3F0B2817390778F0AC014E5F59
:102F10005F4F2417350748F04E0F5F1F5093C703CC
:102F20004093C6038193919302C0E0E0F0E0CF01AB
:102F3000DF91CF9108950F931F93CF93DF93009765
:102F400009F48CC0FC013297138212820091C803ED
:102F50001091C9030115110581F420813181820F7F
:102F6000931F2091C6033091C7032817390779F5BD
:102F7000F093C703E093C60371C0D80140E050E06E
:102F8000AE17BF0750F412962D913C911397AD01E7
:102F90002115310509F1D901F3CF9D01DA01338300
:102FA000228360817181860F971F8217930769F4CE
:102FB000EC0128813981260F371F2E5F3F4F318367
:102FC00020838A819B8193838283452B29F4F0930C
:102FD000C903E093C80342C01396FC93EE93129783
:102FE000ED01499159919E01240F351FE217F30716
:102FF00071F480819181840F951F029611969C93A4
:103000008E938281938113969C938E931297E0E026
:10301000F0E0D80112968D919C911397009719F0CA
:10302000F8018C01F6CF8D919C9198012E5F3F4F56
:10303000820F931F2091C6033091C70328173907C9
:1030400069F4309729F41092C9031092C80302C0A2
:10305000138212821093C7030093C603DF91CF91AE
:103060001F910F910895A0E0B0E0E9E3F8E10C941E
:103070004019EC01009721F4CB010E940617B8C05B
:10308000FC01E60FF71F9C0122503109E217F307FC
:1030900008F4ACC0D9010D911C91119706171707C0
:1030A000B0F00530110508F49FC0C80104978617D9
:1030B000970708F499C002501109061B170B0193DA
:1030C00011936D937C93CF010E949B178DC05B0180
:1030D000A01AB10A4C01800E911EA091C803B091B4
:1030E000C90340E050E0E12CF12C109709F44AC0EC
:1030F000A815B905D1F56D907C901197630182E018
:10310000C80ED11CCA14DB0480F1A3014A195B0963
:103110006A0182E0C80ED11C1296BC9012971396D9
:10312000AC91B5E0CB16D10440F0B282A3835183B9
:103130004083D9016D937C930AC00E5F1F4FC3017A
:10314000800F911FF90191838083EB2DFA2FE114F9
:10315000F10431F0D7011396FC93EE93129744C01B
:10316000F093C903E093C8033FC08D919C911197E0
:103170004817590708F4AC017D0112960D90BC91D7
:10318000A02DB3CF8091C6039091C70388159905F0
:10319000E1F446175707C8F48091090190910A019C
:1031A000009741F48DB79EB740910D0150910E01EB
:1031B000841B950BE817F907C8F4F093C703E09355
:1031C000C603F901718360830FC0CB010E9406170B
:1031D0007C01009759F0A801BE010E940219CE019E
:1031E0000E949B17C70104C0CE0102C080E090E09E
:1031F000CDB7DEB7EEE00C945C1981E090E0F89476
:103200000C94A419FB01DC0102C001900D92415005
:103210005040D8F70895FB01DC0101900D92002089
:10322000E1F70895052E97FB1EF400940E942919DA
:1032300057FD07D00E94731907FC03D04EF40C947D
:10324000291950954095309521953F4F4F4F5F4F2D
:10325000089590958095709561957F4F8F4F9F4F02
:1032600008950E949519A59F900DB49F900DA49F5D
:10327000800D911D112408952F923F924F925F92DD
:103280006F927F928F929F92AF92BF92CF92DF9276
:10329000EF92FF920F931F93CF93DF93CDB7DEB7DB
:1032A000CA1BDB0B0FB6F894DEBF0FBECDBF09946F
:1032B0002A88398848885F846E847D848C849B84C6
:1032C000AA84B984C884DF80EE80FD800C811B81D4
:1032D000AA81B981CE0FD11D0FB6F894DEBF0FBE03
:1032E000CDBFED010895A1E21A2EAA1BBB1BFD0163
:1032F0000DC0AA1FBB1FEE1FFF1FA217B307E407D5
:10330000F50720F0A21BB30BE40BF50B661F771F2C
:10331000881F991F1A9469F760957095809590950C
:103320009B01AC01BD01CF010895A29FB001B39FE5
:10333000C001A39F700D811D1124911DB29F700DBE
:10334000811D1124911D089510E0CEE6D0E004C047
:10335000FE010E94E5162196CF36D107C9F7F894F1
:02336000FFCF9D
:1033620040400140FFFF0002800000CA03800001CC
:10337200000000000000006F046F046F04F20CEE06
:103382000CEB0C00000000720D2E0DE90CF20CEE9D
:103392000CE60C9900FA00000040001400540000F2
:1033A200000000300FB709670453044404430400CB
:1033B2000000005B08AC0F426F6F74696E670042D9
:1033C20065726B616E610052656164790020202034
:1033D20020202020202020202020202020004B659B
:1033E2006C6C65792059656C6C6F77004B656C6C01
:1033F200657920526564004B656C6C657920426C7E
:103402007565004B656C6C657920477265656E0069
:103412004B656C6C657920507572706C65004B65FC
:103422006C6C6579205768697465004B656C6C65D6
:103432007920637573746F6D005261696E626F7784
:10344200206368617365005261696E626F77206301
:1034520079636C6500437573746F6D205361747585
:10346200726174696F6E00437573746F6D20487575
:023472006500F3
:00000001FF
