:100000000C946D000C9495000C9495000C94950044
:100010000C9495000C9495000C9495000C9495000C
:100020000C9495000C9495000C9495000C949500FC
:100030000C9495000C9495000C9495000C949500EC
:100040000C9444060C9495000C9495000C94950027
:100050000C9495000C9495000C9495000C949500CC
:100060000C94D5090C9495005412681280129412C5
:10007000A812BC12CE13D0122B13000000080002ED
:10008000010000030407000000000000000040FF22
:1000900000FFA0FF60FFC0FFFF0000000000250080
:1000A00028002B0000000000240027002A00040480
:1000B0000404040404040202020202020303030310
:1000C00003030102040810204080010204081020EC
:1000D000010204081020EF13B10E11241FBECFEF50
:1000E000D8E0DEBFCDBF12E0A0E0B1E0ECEBF1E381
:1000F00002C005900D92A430B107D9F723E0A4E027
:10010000B2E001C01D92A53BB207E1F710E0CCE6DA
:10011000D0E004C02197FE010E94BF14CB36D10766
:10012000C9F70E94C10E0C94D1180C9400004F9294
:100130005F926F927F928F929F92AF92BF92CF9277
:10014000DF92EF92FF920F931F93CF93DF93CDB780
:10015000DEB72E970FB6F894DEBF0FBECDBF6C0191
:100160007B015A01F901DC011C968C9190819B87DF
:1001700091819C8792819D87813009F03BC080915D
:1001800008028F5F982F97709093080280FF02C03B
:1001900080E801C080E091FD8064947009F0806285
:1001A00010E1180FFE013B969E01225F3F4F812C0C
:1001B000992493946191662331F070E0C4010E9408
:1001C000AB146F5F01C060E0CF010497DC016C935A
:1001D000712F769F712D1124AF0147505109DA011B
:1001E0007C93662319F06150DC016C93E217F307EE
:1001F00009F706C01A86198618861F821E821D827C
:10020000002311F003E001C000E00E94D905F601CF
:1002100027853089621B730B6A307105B0F3F8943F
:1002200015B1186085B1877F85B989849E81482D75
:10023000491B9C847D846B843F815D815A84488402
:10024000D70111967C91772319F0740F08F47FEF92
:10025000292D729F712D1124D501F70120E0942FD3
:10026000422F622F002C15B900C000C000C000C092
:1002700000C077FF85B962812227889400C000C042
:1002800000C000C000C000C0002C85B96111630F20
:1002900000C000C0002C00C000C015B900C000C0E4
:1002A00000C000C000C076FF85B908F46FEF8894E5
:1002B00000C000C000C000C000C000C000C085B9C0
:1002C00070FC260F00C000C0002C00C000C015B993
:1002D00000C000C000C000C000C075FF85B92795F0
:1002E000889471FC260F00C000C000C000C000C090
:1002F00000C0002C85B92795889400C000C0002C50
:1003000000C000C015B900C000C000C000C000C0DF
:1003100074FF85B972FC260F2795889400C000C031
:1003200000C000C000C000C0002C85B973FC260FBF
:1003300000C000C0002C00C000C015B900C000C043
:1003400000C000C000C073FF85B92795889474FC75
:10035000260F00C000C000C000C000C000C0002CBC
:1003600085B92795889400C000C0002C00C000C04B
:1003700015B900C000C000C000C000C072FF85B940
:1003800075FC260F2795889400C000C000C000C0EF
:1003900000C000C0002C85B976FC260F00C000C04C
:1003A000002C00C000C015B900C000C000C000C0D3
:1003B00000C071FF85B92795889477FC260F00C08F
:1003C00000C000C000C000C000C0002C85B9279547
:1003D000889400C000C0002C00C000C015B900C047
:1003E00000C000C000C000C070FF85B93195350D58
:1003F00000C000C000C000C000C000C000C0002C91
:1004000085B9722F00C000C000C000C000C015B97F
:1004100000C000C000C000C000C077FF85B9608187
:100420002227889400C000C000C000C000C000C0E7
:10043000002C85B96111650F00C000C0002C00C000
:1004400000C015B900C000C000C000C000C076FFE9
:1004500085B908F46FEF889400C000C000C000C0E8
:1004600000C000C000C085B960FC260F00C000C0FD
:10047000002C00C000C015B900C000C000C000C002
:1004800000C075FF85B92795889461FC260F00C0D0
:1004900000C000C000C000C000C0002C85B9279576
:1004A000889400C000C0002C00C000C015B900C076
:1004B00000C000C000C000C074FF85B962FC260FF8
:1004C0002795889400C000C000C000C000C000C0D4
:1004D000002C85B963FC260F00C000C0002C00C0B2
:1004E00000C015B900C000C000C000C000C073FF4C
:1004F00085B92795889464FC260F00C000C000C011
:1005000000C000C000C0002C85B92795889400C0A9
:1005100000C0002C00C000C015B900C000C000C061
:1005200000C000C072FF85B965FC260F279588942E
:1005300000C000C000C000C000C000C0002C85B9D1
:1005400066FC260F00C000C0002C00C000C015B91A
:1005500000C000C000C000C000C071FF85B9279571
:10056000889467FC260F00C000C000C000C000C017
:1005700000C0002C85B92795889400C000C0002CCD
:1005800000C000C015B900C000C000C000C000C05D
:1005900070FF85B9E00FF11D8894722F00C000C074
:1005A00000C000C000C000C0002C85B95195540D9A
:1005B00000C000C0002C00C000C015B900C000C0C1
:1005C00000C000C000C077FF85B9618122278894F0
:1005D00000C000C000C000C000C000C0002C85B931
:1005E0006111690F00C000C0002C00C000C015B927
:1005F00000C000C000C000C000C076FF85B908F48C
:100600006FEF889400C000C000C000C000C000C0F0
:1006100000C085B990FC260F00C000C0002C00C0AF
:1006200000C015B900C000C000C000C000C075FF08
:1006300085B92795889491FC260F00C000C000C0A2
:1006400000C000C000C0002C85B92795889400C068
:1006500000C0002C00C000C015B900C000C000C020
:1006600000C000C074FF85B992FC260F27958894BE
:1006700000C000C000C000C000C000C0002C85B990
:1006800093FC260F00C000C0002C00C000C015B9AC
:1006900000C000C000C000C000C073FF85B927952E
:1006A000889494FC260F00C000C000C000C000C0A9
:1006B00000C0002C85B92795889400C000C0002C8C
:1006C00000C000C015B900C000C000C000C000C01C
:1006D00072FF85B995FC260F2795889400C000C04D
:1006E00000C000C000C000C0002C85B996FC260FD9
:1006F00000C000C0002C00C000C015B900C000C080
:1007000000C000C000C071FF85B92795889497FC90
:10071000260F00C000C000C000C000C000C0002CF8
:1007200085B92795889400C000C0002C00C000C087
:1007300015B900C000C000C000C000C070FF85B97E
:100740009195980D722F00C000C000C000C000C07D
:1007500000C000C085B900C000C0002C119709F08E
:1007600082CD20EF33E0D5010E94C514DC01CB011E
:10077000F4E0B695A79597958795FA95D1F720E07F
:1007800030E0A9016AE9A69E412DB69E400D511D9B
:100790001124840F951FA11DB11D893E43E09407CC
:1007A000A105B10588F1885E9340A109B10942E035
:1007B000B695A795979587954A95D1F747E0849F79
:1007C000212D949F200D311D11246091090270E0AC
:1007D000860F971F820F931F4091040250910502CC
:1007E0006091060270910702292F3327420F531F91
:1007F000611D711D4093040250930502609306022F
:10080000709307028093090278940E94D905D6015B
:1008100050967C936E931F972E960FB6F894DEBF7A
:100820000FBECDBFDF91CF911F910F91FF90EF9041
:10083000DF90CF90BF90AF909F908F907F906F9000
:100840005F904F90089590E0FC01E658FF4F34917F
:10085000FC01EE53FF4F2491FC01E255FF4FE49160
:10086000EE2309F43BC0332339F1333091F038F4EF
:100870003130A9F0323001F584B58F7D12C03730A8
:1008800091F03830A1F03430B9F4809180008F7D40
:1008900003C0809180008F77809380000DC084B565
:1008A0008F7784BD09C08091B0008F7703C080919D
:1008B000B0008F7D8093B000F0E0EE0FFF1FE65692
:1008C000FF4FA591B4918FB7F894EC91611103C0DB
:1008D00020952E2301C02E2B2C938FBF0895FC0151
:1008E0002081222321F0269F212D09F02F5F2083D4
:1008F000089585ED8093BC008091BC0084FDFCCF01
:100900001092E502089540912E02262F30E0240F28
:10091000311D21323105DCF42091E5022430C9F487
:10092000FC0180E090E0861758F430912E0221916E
:10093000DC01A45FBD4FA30FB11D2C930196F3CF33
:1009400080912E02680F60932E0280E0089581E06E
:10095000089582E008950895E0919E0280919D029D
:10096000E81730F4F0E0E156FD4F808190E0089503
:100970008FEF9FEF089590919E0280919D029817AE
:1009800050F4E92FF0E0E156FD4F208130E09F5F09
:1009900090939E0202C02FEF3FEFC901089580910E
:1009A0009D0290E020919E02821B91090895CF92B2
:1009B000DF92EF92FF920F931F93CF93DF937C010F
:1009C000262F972F8A0180910803882391F0C62F44
:1009D000D72F6E01C40ED51ECC15DD0571F06991BF
:1009E000D701ED91FC910190F081E02DC7010995AF
:1009F000F3CF642F822F0E948304C801DF91CF912F
:100A00001F910F91FF90EF90DF90CF900895CF93BB
:100A1000DF931F92CDB7DEB76983209108032223AD
:100A2000D1F020910603203240F021E030E0FC01BB
:100A30003383228380E090E015C080910703E82F84
:100A4000F0E0EA51FD4F998190838F5F8093070317
:100A50008093060305C061E0CE0101960E948304E5
:100A600081E090E00F90DF91CF91089580E991E0CF
:100A70000895239A089580E090E00895FC01DB0139
:100A80003C912081230F08F42FEF208311963C9195
:100A900011972181230F08F42FEF218312963C91A7
:100AA0002281230F08F42FEF228308951F93CF9301
:100AB000DF93182FEB010E94D40C209711F460E013
:100AC00004C0CF3FD10539F461E0812FDF91CF9190
:100AD0001F910C942304E12FF0E0E658FF4FE491BE
:100AE000E330F9F048F4E130B9F0E230A1F584B533
:100AF000806284BDC8BD34C0E730E9F0E83019F148
:100B0000E43049F580918000806280938000D0932A
:100B10008B00C0938A0024C084B5806884BDC7BDA3
:100B20001FC080918000806880938000D0938900EE
:100B3000C093880015C08091B00080688093B00099
:100B4000C093B3000DC08091B00080628093B0006C
:100B5000C093B40005C0C038D1050CF0B5CFAFCFFD
:100B6000DF91CF911F9108950F93CF93DF9300D022
:100B70001F92CDB7DEB7AB0119821A821B8200E04B
:100B80009E012F5F3F4FB9010E9497000F900F9079
:100B90000F90DF91CF910F9108950F9301E00E9484
:100BA00097000F9108950F9300E00E9497000F9116
:100BB00008953FB7F8948091540290915502A09106
:100BC0005602B091570226B5A89B05C02F3F19F0D9
:100BD0000196A11DB11D3FBFBA2FA92F982F8827BD
:100BE000820F911DA11DB11DBC01CD0142E0660F18
:100BF000771F881F991F4A95D1F708958F929F926A
:100C0000AF92BF92CF92DF92EF92FF926B017C0185
:100C10000E94D9054B015C01C114D104E104F10427
:100C2000F1F00E94D905DC01CB0188199909AA09C4
:100C3000BB09883E9340A105B10570F321E0C21ABB
:100C4000D108E108F10888EE880E83E0981EA11C07
:100C5000B11CC114D104E104F10419F7DDCFFF90F8
:100C6000EF90DF90CF90BF90AF909F908F900895BE
:100C70002FB7F894609104027091050280910602EA
:100C8000909107022FBF08951F920F920FB60F92F7
:100C900011242F933F938F939F93AF93BF93809192
:100CA000040290910502A0910602B09107023091D2
:100CB000530223E0230F2D3720F40196A11DB11D0F
:100CC00005C026E8230F0296A11DB11D20935302F3
:100CD0008093040290930502A0930602B09307024A
:100CE0008091540290915502A0915602B091570202
:100CF0000196A11DB11D8093540290935502A093BB
:100D00005602B0935702BF91AF919F918F913F913F
:100D10002F910F900FBE0F901F901895FF920F9379
:100D20001F93CF93DF9300D000D0CDB7DEB7FC0187
:100D30008B016081F1804281262F2F71220F220FBB
:100D4000822F880F35E5282F239F212D1124562F20
:100D50005074962F907267FD22C051110CC09111F2
:100D600004C0822F80958B8311C08BEA8B832B5A12
:100D70002A83198239C091110CC0382F5AEA359F45
:100D8000312D11248BEA831B8B8325552A831982ED
:100D90002BC01B8280E0822F80958A830EC0511168
:100DA00012C091110CC01B82282F3AEA239F212DDB
:100DB00011248BEA821B8A832B5A298315C02B832B
:100DC0001A822095FACF911108C085E5820F8B8396
:100DD0001A828BEA821B898307C08BEA820F8B837E
:100DE0001A8280E0321B39832FEFF21601F16F2D4A
:100DF000CE0103964C830E946F046F2DCE010296A4
:100E00000E946F046F2DCE0101960E946F04112481
:100E10006F2D6095669F612D11248B81860F8B83CA
:100E20008A81860F8A838981680F69834C814F3F4D
:100E3000C9F0F12C2F2D442321F0449F212D09F0DE
:100E40002F5FF22E622FCE0103960E946F046F2D4A
:100E5000CE0102960E946F046F2DCE0101960E9472
:100E60006F0411248B81F80180838A8181838981B9
:100E700082830F900F900F900F90DF91CF911F9171
:100E80000F91FF9008954F925F926F927F92AF9271
:100E9000BF92CF92DF92EF92FF920F931F93CF9367
:100EA000DF93FC011082118212824423B9F18B017D
:100EB000075F1F4F5C01EB012C96442E512C612CD7
:100EC000712CD8011397CC90D8012D918D01CC2095
:100ED000F9F02223E9F0822F90E0A0E0B0E09C013D
:100EE000AD012F5F3F4F4F4F5F4FC301B2010E94D3
:100EF0009B149B01AC01D12CE12CF12CC701B60154
:100F00006F5F7F4F8F4F9F4F0E949B14D5018C9333
:100F1000BFEFAB1ABB0A0C171D0799F6CF01DF9183
:100F2000CF911F910F91FF90EF90DF90CF90BF90E6
:100F3000AF907F906F905F904F900895682F8AE3F5
:100F400093E00C940705EF92FF920F931F93CF93BA
:100F5000DF9300D0CDB7DEB77C01162F683020F0CC
:100F6000185095E103E102C094E102E1F7018081AC
:100F700080624A8399830E94250D9981892F0E945E
:100F80009E070E942F0DF7019081892F806261E0FA
:100F900070E090E00E948C0D8AE393E00E94BB0415
:100FA0004A8121E030E001C0220F1A95EAF7413072
:100FB00019F4122F182B03C02095122F1823F701B4
:100FC000808180620E94250D802F0E949E07812FC4
:100FD0000E949E070F900F90DF91CF911F910F916C
:100FE000FF90EF900C942F0DFC01962F828D8F3F78
:100FF00031F0603140F4CF014B960C94A307642F7D
:10100000892F0C9423040895CF93DF93EC0140E0E3
:101010006E810E94F40741E06E81CE010E94F407C8
:1010200040E06E81CE010E94F4078BE891E00197C9
:10103000F1F7DF91CF910895EF92FF920F931F93F5
:10104000CF93DF931F92CDB7DEB77C01162F6830A8
:1010500018F0185001E001C000E0F70180818062C3
:1010600049830E94250D802F0E949E070E942F0D0C
:10107000F7018081806261E070E090E00E948C0D59
:101080008AE393E00E94BB04498121E030E001C083
:10109000220F1A95EAF7411103C0122F182B03C033
:1010A0002095122F1823F701808180620E94250D60
:1010B000802F0E949E07812F0E949E070F90DF9134
:1010C000CF911F910F91FF90EF900C942F0D6031F5
:1010D00010F40C941C080895CF93DF9300D0CDB783
:1010E000DEB7FC018081806269837A830E94250DCE
:1010F00082E10E949E076981862F0E949E077A8165
:10110000872F0E949E070F900F90DF91CF910C9434
:101110002F0D8F929F92AF92BF92CF92DF92EF925C
:10112000FF920F931F93CF93DF93EC018A8D8E0173
:10113000095F1F4FC62ED12C8F3F09F483C07E015B
:101140008BE1E80EF11C8B8D80620E94250D82E1FF
:101150000E949E070E942F0D8B8D806262E070E0DE
:1011600090E00E948C0D8AE393E00E94BB04B82EAD
:101170008AE393E00E94BB04982F88279C012B29C7
:10118000F801A0E0B0E061E070E0B19001E010E0B3
:10119000CB010B2C02C0880F991F0A94E2F78095AF
:1011A000909528233923A6010A2E02C0559547950C
:1011B0000A94E2F74170552702C0440F551FBA94B4
:1011C000E2F7242B352B1196A430B105F1F6680116
:1011D0000E8002C0CC0CDD1C0A94E2F7C094D094BF
:1011E000C222D322B601C7010E946C08B8010E804A
:1011F00002C0660F771F0A94E2F7C62AD72AB60103
:10120000C7010E946C080E8002C0000F111F0A94D3
:10121000E2F700951095B60160237123C7010E9483
:101220006C088BE891E00197F1F7DF91CF911F9166
:101230000F91FF90EF90DF90CF90BF90AF909F9075
:101240008F900895E12CF12C4E01EBE18E0E911C54
:101250005801F80180819A8D9F3F31F041E0682F5D
:10126000C4010E94670802C00E94D40C0F5F1F4F88
:10127000A6010E2C02C0559547950A94E2F74170DD
:10128000F5016081CE010E94F407FFEFEF1AFF0A1B
:1012900084E0E816F104E1F6CE01DF91CF911F91D1
:1012A0000F91FF90EF90DF90CF90BF90AF909F9005
:1012B0008F900C9404088F929F92AF92BF92CF921E
:1012C000DF92EF92FF920F931F93CF93DF93EC0186
:1012D000F62E6C810E94F4076D816F3F21F040E093
:1012E000CE010E94F4078C890F2D10E084FF3EC0D0
:1012F0006E0187E0C80ED11CE12CF12C4E01EBE110
:101300008E0E911C5601F60180819A8D9F3F31F01F
:1013100041E0682FC4010E94670802C00E94D40CFB
:10132000FFEFCF1ADF0AA8010E2C02C05595479592
:101330000A94E2F74170F5016081CE010E94F40742
:10134000FFEFEF1AFF0A88E0E816F104D9F6CE01A4
:10135000DF91CF911F910F91FF90EF90DF90CF9091
:10136000BF90AF909F908F900C940408B80184E0D8
:10137000759567958A95E1F7CE010E9489086F2DD2
:10138000CE01DF91CF911F910F91FF90EF90DF90F1
:10139000CF90BF90AF909F908F900C94890841E0C0
:1013A0000E945B0981E090E008951F920F920FB6B2
:1013B0000F9211242F933F934F935F936F937F93DB
:1013C0008F939F93AF93BF93EF93FF938091B90057
:1013D000887F803609F49CC068F5883209F45BC0C8
:1013E00090F4803109F454C038F4882309F4F6C02D
:1013F000883009F44DC0F6C0883109F44CC0803201
:1014000009F45DC0EFC0803409F468C048F480334B
:1014100009F455C0883309F0E5C08093E302D8C0D1
:10142000803509F44FC0883509F45DC0883409F06F
:10143000D9C0D6C0883909F4C7C0A8F4883709F4E0
:1014400067C038F4883609F463C0803709F460C097
:10145000C9C0883809F4B8C0803909F45FC0803841
:1014600009F0C0C05BC0803B09F486C038F4803A04
:1014700009F466C0883A09F47FC0B4C0803C09F41E
:10148000A7C0883C09F4A4C0883B09F48AC0AAC05C
:101490008091C00210C09091E2028091E102981701
:1014A00070F5E091E20281E08E0F8093E202F0E0BD
:1014B000EF53FD4F80818093BB0085EC86C0809305
:1014C000E3028EC0E091E20281E08E0F8093E2029F
:1014D0008091BB00F0E0EF53FD4F80839091E202DA
:1014E0008091E1026EC0E091E20281E08E0F809374
:1014F000E2028091BB00F0E0EF53FD4F80838091CA
:10150000E40281116DC081E08093BF0284EA61C072
:1015100083E08093E50210925202CFCF8091520275
:10152000803208F051C0E091520281E08E0F80932A
:1015300052028091BB00F0E0EE5CFD4F8083BDCF96
:1015400085EC8093BC001092E502809152028032BB
:1015500030F4E0915202F0E0EE5CFD4F10826091B9
:10156000520270E0E0913002F091310282E392E0A9
:1015700009951092520236C084E08093E5021092E1
:101580002F0210922E02E0912C02F0912D0209956B
:1015900080912E02811105C081E080932E0210926D
:1015A0000C02E0912F0281E08E0F80932F02F0E079
:1015B000E45FFD4F80818093BB0090912F0280916A
:1015C0002E02981708F479CF85E88093BC000AC0F2
:1015D00085EC8093BC001092E50204C01092E302F7
:1015E0000E947904FF91EF91BF91AF919F918F91EC
:1015F0007F916F915F914F913F912F910F900FBE0F
:101600000F901F9018951092E50281E08093E402FC
:101610001092BF0261E082E10E94230461E083E155
:101620000E942304E9EBF0E080818E7F808380813B
:101630008D7F808388E48093B80085E48093BC002C
:101640000895AF92BF92CF92DF92EF92FF920F93E5
:101650001F93CF93DF9300D000D000D0CDB7DEB77B
:1016600080910A0290910B029C012E5F3F4F203621
:1016700031052CF430930B0220930A0206C08E55DC
:10168000910990930B0280930A020E94090D109118
:101690000A02812F90910B0297FD0F967C0164E066
:1016A000F594E7946A95E1F71295107F1095012F54
:1016B0000095C12CD12C80910201909103019C8353
:1016C0008D831E83BE016F5F7F4FCE0104960E9403
:1016D0008E065701AA0CBB1CF501EC59FD4F808109
:1016E00091819C01220F331F820F931FBE016F5FF8
:1016F0007F4F875F9C4F0E943E0580910201909131
:1017000003019C838D831E83BE016F5F7F4FCE01DB
:1017100004960E948E06F501E85AFD4F8081918162
:101720009C01220F331F820F931FBE016F5F7F4FFB
:10173000875F9C4F0E943E058FEFE81AF80A86E00B
:10174000E816F10411F4E12CF12C8FEFC81AD80A35
:1017500084E0C816D10441F083E0C816D10411F426
:10176000102FA9CF1FEFA7CF0E94520C0E9438065E
:101770006B017C010E943806DC01CB018C199D09AC
:10178000AE09BF090597A105B10548F461E070E015
:1017900080E090E00E94FE050E94520CEBCF26965E
:1017A0000FB6F894DEBF0FBECDBFDF91CF911F9172
:1017B0000F91FF90EF90DF90CF90BF90AF90089582
:1017C000CF93DF93EC01688170E085E00E945605BD
:1017D000698170E086E00E9456056A8170E083E0CE
:1017E000DF91CF910C9456050E940B1720E0DC018D
:1017F00060FF03C001C02D932D936250E0F770404D
:10180000D0F70895CF92DF92EF92FF920F931F933C
:10181000CF93DF938091AF039091B003EC012196B9
:10182000D093B003C093AF0349979CF10E94380650
:101830008B019C0188EE93E0C89FB001C99F700D99
:10184000D89F700D1124072E000C880B990BC090A7
:10185000AB03D090AC03E090AD03F090AE03A901D0
:1018600098012C193D094E095F090E94A018309378
:101870003503209334031092B0031092AF030E94FB
:1018800038066093AB037093AC038093AD039093E1
:10189000AE03DF91CF911F910F91FF90EF90DF90FA
:1018A000CF900895CF92DF92EF92FF920F931F9304
:1018B000CF93DF9300D01F92CDB7DEB7F090330304
:1018C0008091360390913703A0913803B09139038A
:1018D000892B8A2B8B2BE9F00E94D90500912F03CD
:1018E000109130032091310330913203DC01CB01A0
:1018F000801B910BA20BB30B0091360310913703A1
:10190000209138033091390380179107A207B3075C
:10191000B8F20E94D90560932F037093300380932F
:1019200031039093320300912D0310912E03011582
:10193000110561F1D8011C96EC901C97809134033D
:10194000909135038436910510F41C961C92D801B1
:10195000ED91FC91C280D3804F2DB801CE0101964C
:101960000E944307F80145855685628173819E0177
:101970002F5F3F4FC801F6010995D8011C96EC92E4
:101980001C9714960D911C911597D1CF0E94020CB3
:101990000F900F900F90DF91CF911F910F91FF90BB
:1019A000EF90DF90CF90089590E0FC01EE53FF4F51
:1019B0002491FC01E255FF4F8491882399F090E037
:1019C000880F991FFC01EC55FF4FA591B491FC01C4
:1019D000E656FF4F859194918FB7F894EC91E22BE6
:1019E000EC938FBF0895DC0120E030E08C91F90189
:1019F000E75FFC4F808311968C911197818312963B
:101A00008C91129782832D5F3F4F2432310571F7FD
:101A10000895CF93DF93C0912D03D0912E0320978B
:101A200089F08A819B81009749F06D857E859B01B5
:101A3000220F331F620F731F0E94F60B0C80DD8193
:101A4000C02DEDCFDF91CF91089591E090930803E1
:101A50008093AA0310920703109206030895209121
:101A600006039091AA03213208F04AC08091E50252
:101A70008111FCCF32E03093E50231E03093E40293
:101A80003FEF3093E3021092E2022093E102A6EED0
:101A9000B2E041EC52E0FA013E2F341B321718F449
:101AA0003D913193F9CF1092C0022091C002990F5D
:101AB000922B9093C0029091BF02913061F41092EA
:101AC000BF029091C0029093BB009091BC0093FD27
:101AD000F8CF95EC01C095EE9093BC009091E50293
:101AE0009230E1F39091E3029F3F79F08091E3021D
:101AF000803241F08091E302803331F084E005C010
:101B000081E003C082E001C083E0109207031092DD
:101B100006031092080308959091E5029111FCCFFD
:101B2000613208F060E291E09093E5029093E40264
:101B30002FEF2093E3021092E202260F2093E1029E
:101B40009093C0029091C002880F892B8093C002AD
:101B50008091BF02813061F41092BF028091C00277
:101B60008093BB008091BC0083FDF8CF85EC01C061
:101B700085EE8093BC008091E5028130E1F3809195
:101B8000E202861710F46091E202A1ECB2E02FE9C4
:101B900032E0F9018E2F821B861718F48D91819304
:101BA000F9CF10929E0260939D02862F0895CF93E5
:101BB000DF93D82FC1E082FB442740F94C2768E02F
:101BC00081E693E00E94A307D1FB442740F94C270C
:101BD00067E081E693E00E94A3074D2F41704C27F8
:101BE00066E081E693E0DF91CF910C94A307009724
:101BF00069F0FC0101900020E9F73197AF01481B23
:101C0000590BBC0186E493E00C943A0E80E090E01E
:101C1000089540E0682F86E493E00C945B09CF932D
:101C2000DF93CDB7DEB728970FB6F894DEBF0FBEAF
:101C3000CDBF98E0EFE2F1E0DE01119601900D9248
:101C40009A95E1F790915E03981710F48FEF890F42
:101C5000FE013196E80FF11DE80FF11D80818068CB
:101C600028960FB6F894DEBF0FBECDBFDF91CF919F
:101C70000C94090ECF92DF92EF92FF920F931F9375
:101C8000CF93DF936C017A018B01C0E0D0E0CE15D9
:101C9000DF0589F0D8016D918D01D601ED91FC91A0
:101CA0000190F081E02DC6010995892B11F47E0188
:101CB00002C02196ECCFC701DF91CF911F910F9108
:101CC000FF90EF90DF90CF900895EF92FF920F93E7
:101CD0001F93CF93DF93EC01198218821B821A8223
:101CE0001D821C8261157105A9F17B01FB01019028
:101CF0000020E9F731978F01061B170BB8016F5FC2
:101D00007F4F80E090E00E944116009759F0998340
:101D100088831B830A832C813D81232B81F4FC0162
:101D200010820DC088819981009711F00E94A91539
:101D3000198218821D821C821B821A820BC01D838D
:101D40000C83B701DF91CF911F910F91FF90EF901E
:101D50000C941917DF91CF911F910F91FF90EF9085
:101D60000895CF93DF93C8EAD3E0269788819981BD
:101D70000E94A91583E0C636D807B9F7DF91CF9145
:101D80000895CF93DF93CDB7DEB72C970FB6F894B5
:101D9000DEBF0FBECDBF789484B5826084BD84B5AC
:101DA000816084BD85B5826085BD85B5816085BD56
:101DB00080916E00816080936E001092810080910E
:101DC0008100826080938100809181008160809396
:101DD0008100809180008160809380008091B100BB
:101DE00084608093B1008091B00081608093B000E6
:101DF00080917A00846080937A0080917A0082607A
:101E000080937A0080917A00816080937A0080913B
:101E10007A00806880937A001092C10080916003FC
:101E20008F3F39F580915A03886080935A0382E08E
:101E300080935E0310925F038BE39DE00197F1F7BF
:101E400040E060914A0386E493E00E94F40740E09A
:101E500060914C0386E493E00E94F40760914B0389
:101E60006F3F09F4BAC040E086E493E00E94F407B3
:101E7000B4C010929E0210929D021092070310921D
:101E800006030E94030B1092610310929E021092AF
:101E90009D0210920703109206030E94030B80918B
:101EA000610380620E94250D80E00E949E078FEFF3
:101EB0000E949E070E942F0D8091610380620E9404
:101EC000250D81E00E949E078FEF0E949E070E94D1
:101ED0002F0D41E068E081E693E00E941C0841E09C
:101EE00066E081E693E00E941C0841E067E081E63D
:101EF00093E00E941C0887E00E94D70D60914B037D
:101F0000662329F041E081E693E00E94670841E002
:101F100060914A0381E693E00E94670841E0609186
:101F20004C0381E693E00E9467080DE413E0A4E00F
:101F3000FA2EF00ED8016D918D0141E081E693E01B
:101F40000E946708F012F6CF05E513E0F5E0EF2EEA
:101F5000E00E40E0F801608181E693E00E946708AE
:101F6000D8012D918D012031A8F5283020F028507E
:101F7000EDE0FE2E02C07CE0F72E809161038062CE
:101F80002C870E94250D8F2D0E949E070E942F0DE9
:101F900080916103806261E070E090E00E948C0DAE
:101FA0008AE393E00E94BB04D82E80916103806293
:101FB0000E94250D8F2D0E949E0741E050E02C8548
:101FC000CA0101C0880F2A95EAF78D290E949E0751
:101FD0000E942F0DE012BDCF25CF80915A0384FDC2
:101FE00021C063E086E493E00E9489080BE416E4D4
:101FF000C8010197F1F763E086E493E00E94890845
:10200000C8010197F1F763E086E493E00E94890834
:1020100083E592E00197F1F762E086E493E00E94A5
:10202000890815C080620E94090E8BE496E401972E
:10203000F1F780915A0380620E94090E83E592E0D5
:102040000197F1F780915A0380620E94090E8091F6
:102050005A0380620E94090E84E080935B038CE047
:102060000E94090E81E00E94090E8BE39FE1019717
:10207000F1F782E080935C0386E00E94090E81E024
:102080000E94D70D81E591E00E94F70DE4E6F2E0B1
:10209000A8E5B2E022E030E081E090E021933193C6
:1020A0008D939D93A9014F5F5F4F019762E0E037E9
:1020B000F60771F04C3051051CF0A9014B50510945
:1020C0008F3F2FEF920711F48BE090E09A01E6CF5B
:1020D00068EB7BE080E090E00E94FE058091830247
:1020E000811145C010927502109274028FEF809397
:1020F00078028093790280937A0280937B028093A6
:102100007C0280937D0281E080937E0210928002A7
:1021100010927F02109277021092760280912D0326
:1021200090912E03892B31F482E792E090932E0355
:1021300080932D03E0917002F0917102309721F0AD
:1021400082E792E09583848382E792E09093710224
:1021500080937002109282021092810284E291E0D8
:10216000909373028093720281E080938302E091E6
:102170007202F09173020480F581E02D82E792E013
:10218000099589E093E090937502809374028CE046
:1021900090E09093800280937F02E0917202F09130
:1021A00073020084F185E02D82E792E009950097A3
:1021B00029F19C0140E050E060E472E48FE090E09F
:1021C0000E943F18722F632F00913603109137033E
:1021D0002091380330913903872F962FDA01801729
:1021E0009107A207B30710F4D901C8018093360301
:1021F00090933703A0933803B09339030E94090DDD
:102200000E94520C80E28093330368EC70E080E01F
:1022100090E00E94FE0585E00E94D40C86E00E94BA
:10222000D40C83E00E94D40C1FEF19831A821B8206
:10223000CE0101960E94E00B19831A821B82CE0107
:1022400001960E94F30C0E94520C64EF71E080E052
:1022500090E00E94FE05198200E80A831B82CE01ED
:1022600001960E94E00B19820A831B82CE0101961F
:102270000E94F30C0E94520C64EF71E080E090E049
:102280000E94FE0519821A821B83CE0101960E94CC
:10229000E00B19821A821B83CE0101960E94F30C77
:1022A0000E94520C64EF71E080E090E00E94FE0515
:1022B00019821A821B82CE0101960E94E00B1982BC
:1022C0001A821B82CE0101960E94F30C0E94520CCE
:1022D00064EF71E080E090E00E94FE0581E00E94E2
:1022E000090E8BE39FE10197F1F782E00E94D70D81
:1022F00080E00E940F0E89E591E00E94F70D81E0D9
:102300000E940F0E81E691E00E94F70D6EEE72E0E2
:1023100080E090E00E94FE0510928C0210928B02E9
:102320003EE8E32E30E0F32EF70185919591A591DB
:10233000B491809397024FE8C42E40E0D42EF6016A
:1023400085919591A591B491809398020E94380649
:102350006093990270939A0280939B0290939C02DF
:102360000E94380660938F027093900280939102CE
:102370009093920244244A9453E0552E612C712C80
:102380006CE0262E312C80E480937C0080917A00D2
:10239000806480937A0080917A0086FDFCCF209142
:1023A00078008091790030E0382B3093060120933B
:1023B0000501AFEFB0E00E94C218603CAFEF7A07B2
:1023C0008105910564F06115BFEF7B07B3E08B07D2
:1023D00091053CF4A30192010E943F1803C020E440
:1023E00001C02FEF20936203809107018213209395
:1023F000070180910701E0E4EC83FFEFFD838E830A
:10240000BE016F5F7F4FCE0104960E948E06CE0103
:1024100001960E94E00B809162038093330381E078
:102420000E940F0E40916A0350916B036091660306
:102430007091670386E493E00E943A0E0E9438068A
:102440000091990210919A0220919B0230919C0276
:10245000DC01CB01801B910BA20BB30B81339547A1
:10246000A105B105A0F080910401811109C00E946D
:102470000F0E87E691E00E94F70D81E08093040142
:1024800080E00E940F0E89E591E00E94F70DE09137
:1024900065038E2F90E08930910508F07FC1FC0123
:1024A000EC5CFF4F0C94BF14F70145915591659179
:1024B000749140939702F60185919591A591B491FD
:1024C00080939802409303018093020183E013C03C
:1024D000F701459155916591749140939702F601EA
:1024E00085919591A591B4918093980240930301B1
:1024F0008093020181E00E94D70D0E94210B4EC102
:10250000F701459155916591749140939702F601B9
:1025100085919591A591B491809398024093030180
:102520008093020184E0E7CFF701459155916591D1
:10253000749140939702F60185919591A591B4917C
:1025400080939802409303018093020182E0D3CFED
:10255000F701459155916591749140939702F60169
:1025600085919591A591B491809398024093030130
:102570008093020185E0BFCFF701459155916591A8
:10258000749140939702F60185919591A591B4912C
:1025900080939802409303018093020187E0ABCFC0
:1025A0008090930290909402A0909502B090960231
:1025B00080918F0290919002A0919102B09192022D
:1025C000A5019401281B390B4A0B5B0BCA01B90109
:1025D0000E94201721E030E040EF50E40E940F15E8
:1025E00018160CF0DBC060E070E0CB010E94FE0525
:1025F00080928F0290929002A0929102B0929202E9
:1026000090910701809100012FEF280F2093000186
:1026100089833FEF3A839B8380918D0290918E0254
:10262000B1010E94AB14BC01660F771F860F971F84
:10263000BC01675F7C4FCE0101960E948E060E940E
:10264000520C80918D0290918E02019690938E0291
:1026500080938D02A3C08090930290909402A090EA
:102660009502B090960280918F0290919002A09175
:102670009102B0919202A5019401281B390B4A0BDB
:102680005B0BCA01B9010E94201720E030E048EC42
:1026900051E40E940F1518160CF080C060E070E045
:1026A000CB010E94FE0580928F0290929002A09230
:1026B0009102B092920290910701809101012FEF57
:1026C000280F209301018C833FEF3D839E83BE0141
:1026D000695F7F4FCE0104960E948E0640913303BE
:1026E0004A878091360390913703A0913803B091C7
:1026F0003903892B8A2B8B2B09F462C00E94D905E0
:1027000000912F0310913003209131033091320357
:10271000DC01CB01801B910BA20BB30B00913603A4
:1027200010913703209138033091390380179107B6
:10273000A207B307B0F244C0D8011C96BC91BB8776
:1027400080913403909135038436910510F4F8019B
:102750001486D801ED91FC91808091804A85B80162
:10276000CE0101960E944307F801458556859E01DA
:102770002F5F3F4FBE01695F7F4FC801F40109958C
:10278000EB85D8011C96EC931C9714960D911C9127
:1027900015970115110581F60E94020C0E9438065A
:1027A00060939302709394028093950290939602A3
:1027B00020E030E0232B09F4E6CD0E940000E3CDB9
:1027C0000E94D90560932F037093300380933103E7
:1027D0009093320300912D0310912E03DACFCF9204
:1027E000DF92EF92FF92CF93E3E3F3E08FEF8083EA
:1027F00012821182EAE3F3E01382128288EE93E000
:10280000A0E0B0E084839583A683B7838BE391E057
:1028100091838083C09107016C2F70E080E090E08D
:102820000E9422176B017C0123EC35EF48E25FE345
:102830000E9481170E94E0146093A90323EC35EFF6
:1028400048EA5EE3C701B6010E9481170E94E014C6
:102850006093A80368E771E086E693E00E94650E46
:1028600066E871E08CE693E00E94650E61E971E034
:1028700082E793E00E94650E6DE971E088E793E0DE
:102880000E94650E6AEA71E08EE793E00E94650E91
:1028900068EB71E084E893E00E94650E65EC71E0FE
:1028A0008AE893E00E94650E61ED71E080E993E0B3
:1028B0000E94650E6FED71E086E993E00E94650E5F
:1028C0006DEE71E08CE993E00E94650E69EF71E0B6
:1028D00082EA93E00E94650E1092650310926403F1
:1028E00010926303C0936203E6E4F3E01382128262
:1028F0008BE491E091838083128E148A8FE084832D
:102900008EE085838DE086838CE087838BE08087F3
:102910008AE0818789E08287178681E0808B82E068
:10292000818B83E0828B84E0838BCF91FF90EF904B
:10293000DF90CF900895DB018F939F930E945E18E4
:10294000BF91AF91A29F800D911DA39F900DB29F4B
:10295000900D1124089597FB072E16F4009407D0CC
:1029600077FD09D00E94CC1407FC05D03EF4909569
:1029700081959F4F0895709561957F4F0895EE0F53
:10298000FF1F0590F491E02D09940E94C218B7FF33
:102990000895821B930B0895AA1BBB1B51E107C02E
:1029A000AA1FBB1FA617B70710F0A61BB70B881FDF
:1029B000991F5A95A9F780959095BC01CD0108956E
:1029C0000E941E1888F09F5798F0B92F9927B75189
:1029D000B0F0E1F0660F771F881F991F1AF0BA95C3
:1029E000C9F714C0B13091F00E943818B1E00895D1
:1029F0000C943818672F782F8827B85F39F0B93FC3
:102A0000CCF3869577956795B395D9F73EF4909575
:102A10008095709561957F4F8F4F9F4F08950E94CD
:102A20005D1708F48FEF0895CF93DF9382309105FF
:102A300010F482E090E0E091B303F091B40320E061
:102A400030E0C0E0D0E0309711F14081518148176B
:102A50005907C0F04817590761F482819381209784
:102A600019F09B838A832BC09093B4038093B303A4
:102A700026C02115310519F04217530718F49A01A1
:102A8000BE01DF01EF010280F381E02DDCCF2115D3
:102A9000310509F1281B390B2430310590F41296C9
:102AA0008D919C9113976115710521F0FB01938322
:102AB000828304C09093B4038093B303FD013296E4
:102AC00044C0FD01E20FF31F81939193225031091D
:102AD0002D933C933AC02091B1033091B203232B44
:102AE00041F420910A0130910B013093B2032093FD
:102AF000B10320910801309109012115310541F4FC
:102B00002DB73EB740910C0150910D01241B350BA0
:102B1000E091B103F091B203E217F307A0F42E1B8A
:102B20003F0B2817390778F0AC014E5F5F4F241731
:102B3000350748F04E0F5F1F5093B2034093B10327
:102B40008193919302C0E0E0F0E0CF01DF91CF915B
:102B500008950F931F93CF93DF93009709F48CC0D0
:102B6000FC013297138212820091B3031091B403D7
:102B70000115110581F420813181820F931F20916D
:102B8000B1033091B2032817390779F5F093B203F6
:102B9000E093B10371C0D80140E050E0AE17BF0729
:102BA00050F412962D913C911397AD0121153105EA
:102BB00009F1D901F3CF9D01DA01338322836081CA
:102BC0007181860F971F8217930769F4EC012881A2
:102BD0003981260F371F2E5F3F4F318320838A8133
:102BE0009B8193838283452B29F4F093B403E09374
:102BF000B30342C01396FC93EE931297ED014991F3
:102C000059919E01240F351FE217F30771F480815B
:102C10009181840F951F029611969C938E938281C9
:102C2000938113969C938E931297E0E0F0E0D80185
:102C300012968D919C911397009719F0F8018C01D1
:102C4000F6CF8D919C9198012E5F3F4F820F931F7D
:102C50002091B1033091B2032817390769F43097F6
:102C600029F41092B4031092B30302C013821282AB
:102C70001093B2030093B103DF91CF911F910F9195
:102C80000895A0E0B0E0E7E4F6E10C946D18EC01E3
:102C9000009721F4CB010E941415B8C0FC01E60F87
:102CA000F71F9C0122503109E217F30708F4ACC06A
:102CB000D9010D911C91119706171707B0F0053037
:102CC000110508F49FC0C80104978617970708F4F8
:102CD00099C002501109061B170B019311936D93B4
:102CE0007C93CF010E94A9158DC05B01A01AB10A87
:102CF0004C01800E911EA091B303B091B40340E04B
:102D000050E0E12CF12C109709F44AC0A815B90540
:102D1000D1F56D907C901197630182E0C80ED11CB3
:102D2000CA14DB0480F1A3014A195B096A0182E03D
:102D3000C80ED11C1296BC9012971396AC91B5E0B8
:102D4000CB16D10440F0B282A38351834083D901D2
:102D50006D937C930AC00E5F1F4FC301800F911FBC
:102D6000F90191838083EB2DFA2FE114F10431F006
:102D7000D7011396FC93EE93129744C0F093B403DB
:102D8000E093B3033FC08D919C9111974817590769
:102D900008F4AC017D0112960D90BC91A02DB3CF2B
:102DA0008091B1039091B20388159905E1F446171B
:102DB0005707C8F48091080190910901009741F4E8
:102DC0008DB79EB740910C0150910D01841B950B5E
:102DD000E817F907C8F4F093B203E093B103F901DF
:102DE000718360830FC0CB010E9414157C01009792
:102DF00059F0A801BE010E941017CE010E94A9152A
:102E0000C70104C0CE0102C080E090E0CDB7DEB7BC
:102E1000EEE00C94891881E090E0F8940C94D118BD
:102E2000FB01DC0102C001900D9241505040D8F7E7
:102E30000895FB01DC0101900D920020E1F7089557
:102E4000E89409C097FB3EF4909580957095619544
:102E50007F4F8F4F9F4F9923A9F0F92F96E9BB27FA
:102E60009395F695879577956795B795F111F8CF76
:102E7000FAF4BB0F11F460FF1BC06F5F7F4F8F4FE1
:102E80009F4F16C0882311F096E911C0772321F0D7
:102E90009EE8872F762F05C0662371F096E8862F6F
:102EA00070E060E02AF09A95660F771F881FDAF7C6
:102EB000880F9695879597F90895990F0008550FF3
:102EC000AA0BE0E8FEEF16161706E807F907C0F0B0
:102ED00012161306E407F50798F0621B730B840BB8
:102EE000950B39F40A2661F0232B242B252B21F492
:102EF00008950A2609F4A140A6958FEF811D811D32
:102F000008950E9494170C9405180E94F71738F042
:102F10000E94FE1720F0952311F00C94EE170C94EC
:102F2000F41711240C9439180E94161870F3959F09
:102F3000C1F3950F50E0551F629FF001729FBB27B0
:102F4000F00DB11D639FAA27F00DB11DAA1F649F4C
:102F50006627B00DA11D661F829F2227B00DA11DFF
:102F6000621F739FB00DA11D621F839FA00D611D85
:102F7000221F749F3327A00D611D231F849F600DA6
:102F8000211D822F762F6A2F11249F5750409AF0CF
:102F9000F1F088234AF0EE0FFF1FBB1F661F771F5B
:102FA000881F91505040A9F79E3F510580F00C9426
:102FB000EE170C9439185F3FE4F3983ED4F38695EE
:102FC00077956795B795F795E7959F5FC1F7FE2BC6
:102FD000880F911D9695879597F9089597F99F67A2
:102FE00080E870E060E008959FEF80EC0895002491
:102FF0000A941616170618060906089500240A945E
:1030000012161306140605060895092E0394000CE3
:1030100011F4882352F0BB0F40F4BF2B11F460FF72
:1030200004C06F5F7F4F8F4F9F4F089557FD90589B
:10303000440F551F59F05F3F71F04795880F97FB7C
:10304000991F61F09F3F79F0879508951216130636
:103050001406551FF2CF4695F1DF08C01616170665
:103060001806991FF1CF869571056105089408959A
:10307000E894BB2766277727CB0197F90895052E9B
:1030800097FB1EF400940E94561857FD07D00E942B
:10309000A01807FC03D04EF40C9456185095409598
:1030A000309521953F4F4F4F5F4F089590958095F4
:1030B000709561957F4F8F4F9F4F08950E94C21862
:1030C000A59F900DB49F900DA49F800D911D11247C
:1030D00008952F923F924F925F926F927F928F92BC
:1030E0009F92AF92BF92CF92DF92EF92FF920F9397
:1030F0001F93CF93DF93CDB7DEB7CA1BDB0B0FB6A1
:10310000F894DEBF0FBECDBF09942A88398848885D
:103110005F846E847D848C849B84AA84B984C884F3
:10312000DF80EE80FD800C811B81AA81B981CE0FEA
:10313000D11D0FB6F894DEBF0FBECDBFED010895CF
:10314000A1E21A2EAA1BBB1BFD010DC0AA1FBB1FAB
:10315000EE1FFF1FA217B307E407F50720F0A21B1D
:10316000B30BE40BF50B661F771F881F991F1A948A
:1031700069F760957095809590959B01AC01BD01B4
:10318000CF010895A29FB001B39FC001A39F700D0E
:10319000811D1124911DB29F700D811D1124911D5F
:1031A000089510E0CCE6D0E004C0FE010E94BF14F8
:0C31B0002196CD36D107C9F7F894FFCF67
:1031BC004040FF40010002800000B5038000010088
:1031CC00000000000000F40BF40BF40BF40B3B05B7
:1031DC0000000000D305CD053905B40536054000C7
:1031EC0000400014005400000000000705D704CF75
:1031FC0004BB04AC04AB0400000000CF093A0E0081
:10320C0000426F6F74696E67004265726B616E612C
:10321C00005265616479002020202020202020208D
:10322C0020202020202020004B656C6C65792059D3
:10323C00656C6C6F77004B656C6C657920526564BE
:10324C00004B656C6C657920426C7565004B656C48
:10325C006C657920477265656E004B656C6C6579A1
:10326C0020507572706C65004B656C6C65792057DD
:10327C0068697465004B656C6C6579206469616C78
:10328C00005261696E626F772063686173650052EA
:10329C0061696E626F77206379636C650046726159
:1032AC006D652044656C6179004272696768746E63
:0432BC0065737300C3
:00000001FF
