:100000000C946F000C9497000C9497000C9497003C
:100010000C9497000C9497000C9497000C94970004
:100020000C9497000C9497000C9497000C949700F4
:100030000C9497000C9497000C9497000C949700E4
:100040000C9448060C9497000C9497000C9497001D
:100050000C9497000C9497000C9497000C949700C4
:100060000C94D9090C9497005C1370138C13A21391
:10007000B813CE13E413ED134D14BD14FA1400009D
:100080000008000201000003040700000000000057
:10009000000040FF00FFA0FF60FFC0FFFF00000066
:1000A0000000250028002B0000000000240027008D
:1000B0002A000404040404040404020202020202EA
:1000C000030303030303010204081020408001021C
:1000D00004081020010204081020A515A50F112402
:1000E0001FBECFEFD8E0DEBFCDBF12E0A0E0B1E091
:1000F000EEEFF2E302C005900D92AC30B107D9F7F4
:1001000023E0ACE0B2E001C01D92AA3BB207E1F7E8
:1001100010E0CEE6D0E004C02197FE010E944D160B
:10012000CD36D107C9F70E94B50F0C9472190C9403
:1001300000004F925F926F927F928F929F92AF9248
:10014000BF92CF92DF92EF92FF920F931F93CF93C4
:10015000DF93CDB7DEB72E970FB6F894DEBF0FBE94
:10016000CDBF6C017B015A01F901DC011C968C9119
:1001700090819B8791819C8792819D87813009F036
:100180003BC0809110028F5F982F97709093100260
:1001900080FF02C080E801C080E091FD806494701F
:1001A00009F0806210E1180FFE013B969E01225F6C
:1001B0003F4F812C992493946191662331F070E034
:1001C000C4010E9439166F5F01C060E0CF0104973F
:1001D000DC016C93712F769F712D1124AF01475074
:1001E0005109DA017C93662319F06150DC016C93AC
:1001F000E217F30709F706C01A86198618861F82C8
:100200001E821D82002311F003E001C000E00E9465
:10021000DD05F60127853089621B730B6A30710595
:10022000B0F3F89415B1186085B1877F85B98984DA
:100230009E81482D491B9C847D846B843F815D8118
:100240005A844884D70111967C91772319F0740F52
:1002500008F47FEF292D729F712D1124D501F7012C
:1002600020E0942F422F622F002C15B900C000C04F
:1002700000C000C000C077FF85B962812227889442
:1002800000C000C000C000C000C000C0002C85B984
:100290006111630F00C000C0002C00C000C015B980
:1002A00000C000C000C000C000C076FF85B908F4DF
:1002B0006FEF889400C000C000C000C000C000C044
:1002C00000C085B970FC260F00C000C0002C00C023
:1002D00000C015B900C000C000C000C000C075FF5C
:1002E00085B92795889471FC260F00C000C000C016
:1002F00000C000C000C0002C85B92795889400C0BC
:1003000000C0002C00C000C015B900C000C000C073
:1003100000C000C074FF85B972FC260F2795889431
:1003200000C000C000C000C000C000C0002C85B9E3
:1003300073FC260F00C000C0002C00C000C015B91F
:1003400000C000C000C000C000C073FF85B9279581
:10035000889474FC260F00C000C000C000C000C01C
:1003600000C0002C85B92795889400C000C0002CDF
:1003700000C000C015B900C000C000C000C000C06F
:1003800072FF85B975FC260F2795889400C000C0C0
:1003900000C000C000C000C0002C85B976FC260F4C
:1003A00000C000C0002C00C000C015B900C000C0D3
:1003B00000C000C000C071FF85B92795889477FC04
:1003C000260F00C000C000C000C000C000C0002C4C
:1003D00085B92795889400C000C0002C00C000C0DB
:1003E00015B900C000C000C000C000C070FF85B9D2
:1003F0003195350D00C000C000C000C000C000C075
:1004000000C0002C85B9722F00C000C000C000C021
:1004100000C015B900C000C000C000C000C077FF18
:1004200085B960812227889400C000C000C000C048
:1004300000C000C0002C85B96111650F00C000C06C
:10044000002C00C000C015B900C000C000C000C032
:1004500000C076FF85B908F46FEF889400C000C033
:1004600000C000C000C000C000C085B960FC260FFD
:1004700000C000C0002C00C000C015B900C000C002
:1004800000C000C000C075FF85B92795889461FC45
:10049000260F00C000C000C000C000C000C0002C7B
:1004A00085B92795889400C000C0002C00C000C00A
:1004B00015B900C000C000C000C000C074FF85B9FD
:1004C00062FC260F2795889400C000C000C000C0C1
:1004D00000C000C0002C85B963FC260F00C000C01E
:1004E000002C00C000C015B900C000C000C000C092
:1004F00000C073FF85B92795889464FC260F00C05F
:1005000000C000C000C000C000C0002C85B9279505
:10051000889400C000C0002C00C000C015B900C005
:1005200000C000C000C000C072FF85B965FC260F86
:100530002795889400C000C000C000C000C000C063
:10054000002C85B966FC260F00C000C0002C00C03E
:1005500000C015B900C000C000C000C000C071FFDD
:1005600085B92795889467FC260F00C000C000C09D
:1005700000C000C000C0002C85B92795889400C039
:1005800000C0002C00C000C015B900C000C000C0F1
:1005900000C000C070FF85B9E00FF11D8894722F74
:1005A00000C000C000C000C000C000C0002C85B961
:1005B0005195540D00C000C0002C00C000C015B9FA
:1005C00000C000C000C000C000C077FF85B96181D5
:1005D0002227889400C000C000C000C000C000C036
:1005E000002C85B96111690F00C000C0002C00C04B
:1005F00000C015B900C000C000C000C000C076FF38
:1006000085B908F46FEF889400C000C000C000C036
:1006100000C000C000C085B990FC260F00C000C01B
:10062000002C00C000C015B900C000C000C000C050
:1006300000C075FF85B92795889491FC260F00C0EE
:1006400000C000C000C000C000C0002C85B92795C4
:10065000889400C000C0002C00C000C015B900C0C4
:1006600000C000C000C000C074FF85B992FC260F16
:100670002795889400C000C000C000C000C000C022
:10068000002C85B993FC260F00C000C0002C00C0D0
:1006900000C015B900C000C000C000C000C073FF9A
:1006A00085B92795889494FC260F00C000C000C02F
:1006B00000C000C000C0002C85B92795889400C0F8
:1006C00000C0002C00C000C015B900C000C000C0B0
:1006D00000C000C072FF85B995FC260F279588944D
:1006E00000C000C000C000C000C000C0002C85B920
:1006F00096FC260F00C000C0002C00C000C015B939
:1007000000C000C000C000C000C071FF85B92795BF
:10071000889497FC260F00C000C000C000C000C035
:1007200000C0002C85B92795889400C000C0002C1B
:1007300000C000C015B900C000C000C000C000C0AB
:1007400070FF85B99195980D722F00C000C000C050
:1007500000C000C000C000C085B900C000C0002CAF
:10076000119709F082CD20EF33E0D5010E94531696
:10077000DC01CB01F4E0B695A79597958795FA959E
:10078000D1F720E030E0A9016AE9A69E412DB69E8E
:10079000400D511D1124840F951FA11DB11D893ECF
:1007A00043E09407A105B10588F1885E9340A10953
:1007B000B10942E0B695A795979587954A95D1F7E7
:1007C00047E0849F212D949F200D311D11246091BD
:1007D000110270E0860F971F820F931F40910C0249
:1007E00050910D0260910E0270910F02292F332754
:1007F000420F531F611D711D40930C0250930D0257
:1008000060930E0270930F028093110278940E94FD
:10081000DD05D60150967C936E931F972E960FB6EA
:10082000F894DEBF0FBECDBFDF91CF911F910F9126
:10083000FF90EF90DF90CF90BF90AF909F908F9000
:100840007F906F905F904F90089590E0FC01E25888
:10085000FF4F3491FC01EA53FF4F2491FC01EE5409
:10086000FF4FE491EE2309F43BC0332339F13330D9
:1008700091F038F43130A9F0323001F584B58F7D34
:1008800012C0373091F03830A1F03430B9F4809193
:1008900080008F7D03C0809180008F7780938000DF
:1008A0000DC084B58F7784BD09C08091B0008F776B
:1008B00003C08091B0008F7D8093B000F0E0EE0F18
:1008C000FF1FE256FF4FA591B4918FB7F894EC91BA
:1008D000611103C020952E2301C02E2B2C938FBFB6
:1008E0000895FC012081222321F0269F212D09F06B
:1008F0002F5F2083089585ED8093BC008091BC001C
:1009000084FDFCCF10921603089540913602262FE5
:1009100030E0240F311D21323105DCF42091160323
:100920002430C9F4FC0180E090E0861758F430913F
:1009300036022191DC01AC5EBD4FA30FB11D2C939B
:100940000196F3CF80913602680F6093360280E003
:10095000089581E0089582E008950895E091CF021E
:100960008091CE02E81730F4F0E0E053FD4F808133
:1009700090E008958FEF9FEF08959091CF028091BE
:10098000CE02981750F4E92FF0E0E053FD4F20819C
:1009900030E09F5F9093CF0202C02FEF3FEFC9017D
:1009A00008958091CE0290E02091CF02821B9109A0
:1009B0000895CF92DF92EF92FF920F931F93CF9300
:1009C000DF937C01262F972F8A018091390388239A
:1009D00091F0C62FD72F6E01C40ED51ECC15DD05A4
:1009E00071F06991D701ED91FC910190F081E02DBA
:1009F000C7010995F3CF642F822F0E948504C80197
:100A0000DF91CF911F910F91FF90EF90DF90CF90EA
:100A10000895CF93DF931F92CDB7DEB769832091FE
:100A200039032223D1F020913703203240F021E016
:100A300030E0FC013383228380E090E015C0809198
:100A40003803E82FF0E0E95EFC4F998190838F5FD7
:100A5000809338038093370305C061E0CE0101968F
:100A60000E94850481E090E00F90DF91CF9108957E
:100A700080E991E00895239A089580E090E0089538
:100A8000FC01DB013C912081230F08F42FEF208330
:100A900011963C9111972181230F08F42FEF2183A8
:100AA00012963C912281230F08F42FEF22830895A0
:100AB0000E946A181F93CF93DF93182FEB010E94B7
:100AC000690D209711F460E004C0CF3FD10539F4DF
:100AD00061E0812FDF91CF911F910C942504E12FCC
:100AE000F0E0E258FF4FE491E330F9F048F4E130F0
:100AF000B9F0E230A1F584B5806284BDC8BD34C0D0
:100B0000E730E9F0E83019F1E43049F580918000F0
:100B1000806280938000D0938B00C0938A0024C0B1
:100B200084B5806884BDC7BD1FC080918000806887
:100B300080938000D0938900C093880015C0809175
:100B4000B00080688093B000C093B3000DC0809166
:100B5000B00080628093B000C093B40005C0C0387C
:100B6000D1050CF0B5CFAFCFDF91CF911F91089594
:100B70000F93CF93DF9300D01F92CDB7DEB7AB01B9
:100B800019821A821B8200E09E012F5F3F4FB9013C
:100B90000E9499000F900F900F90DF91CF910F91CD
:100BA00008950F9301E00E9499000F9108950F930B
:100BB00000E00E9499000F9108953FB7F89480914A
:100BC0005C0290915D02A0915E02B0915F0226B539
:100BD000A89B05C02F3F19F00196A11DB11D3FBF75
:100BE000BA2FA92F982F8827820F911DA11DB11D03
:100BF000BC01CD0142E0660F771F881F991F4A95FF
:100C0000D1F708958F929F92AF92BF92CF92DF92C9
:100C1000EF92FF926B017C010E94DD054B015C01AC
:100C2000C114D104E104F104F1F00E94DD05DC01FE
:100C3000CB0188199909AA09BB09883E9340A105EF
:100C4000B10570F321E0C21AD108E108F10888EE7D
:100C5000880E83E0981EA11CB11CC114D104E104CC
:100C6000F10419F7DDCFFF90EF90DF90CF90BF90A8
:100C7000AF909F908F9008952FB7F89460910C02D9
:100C800070910D0280910E0290910F022FBF089576
:100C90001F920F920FB60F9211242F933F938F93B1
:100CA0009F93AF93BF9380910C0290910D02A091FE
:100CB0000E02B0910F0230915B0223E0230F2D371B
:100CC00020F40196A11DB11D05C026E8230F029650
:100CD000A11DB11D20935B0280930C0290930D0225
:100CE000A0930E02B0930F0280915C0290915D027E
:100CF000A0915E02B0915F020196A11DB11D80938B
:100D00005C0290935D02A0935E02B0935F02BF917C
:100D1000AF919F918F913F912F910F900FBE0F90A8
:100D20001F901895FF920F931F93CF93DF9300D0DE
:100D300000D0CDB7DEB7FC018B016081F18042812C
:100D4000262F2F71220F220F822F880F35E5282F93
:100D5000239F212D1124562F5074962F907267FDDA
:100D600022C051110CC0911104C0822F80958B8339
:100D700011C08BEA8B832B5A2A83198239C09111B7
:100D80000CC0382F5AEA359F312D11248BEA831B72
:100D90008B8325552A8319822BC01B8280E0822FEA
:100DA00080958A830EC0511112C091110CC01B8214
:100DB000282F3AEA239F212D11248BEA821B8A8354
:100DC0002B5A298315C02B831A822095FACF9111B3
:100DD00008C085E5820F8B831A828BEA821B898388
:100DE00007C08BEA820F8B831A8280E0321B398323
:100DF0002FEFF21601F16F2DCE0103964C830E9466
:100E000071046F2DCE0102960E9471046F2DCE01E8
:100E100001960E94710411246F2D6095669F612DCB
:100E200011248B81860F8B838A81860F8A83898127
:100E3000680F69834C814F3FC9F0F12C2F2D44235B
:100E400021F0449F212D09F02F5FF22E622FCE0159
:100E500003960E9471046F2DCE0102960E947104C8
:100E60006F2DCE0101960E94710411248B81F8012F
:100E700080838A818183898182830F900F900F9074
:100E80000F90DF91CF911F910F91FF9008954F9296
:100E90005F926F927F92AF92BF92CF92DF92EF926A
:100EA000FF920F931F93CF93DF93FC011082118267
:100EB00012824423B9F18B01075F1F4F5C01EB01E4
:100EC0002C96442E512C612C712CD8011397CC9068
:100ED000D8012D918D01CC20F9F02223E9F0822F49
:100EE00090E0A0E0B0E09C01AD012F5F3F4F4F4F7D
:100EF0005F4FC301B2010E9429169B01AC01D12CA6
:100F0000E12CF12CC701B6016F5F7F4F8F4F9F4FD0
:100F10000E942916D5018C93BFEFAB1ABB0A0C17A0
:100F20001D0799F6CF01DF91CF911F910F91FF908F
:100F3000EF90DF90CF90BF90AF907F906F905F90D9
:100F40004F900895682F81E493E00C940905EF9287
:100F5000FF920F931F93CF93DF9300D0CDB7DEB7EF
:100F60007C01162F683020F0185095E103E102C093
:100F700094E102E1F701808180624A8399830E94B3
:100F80005C0C9981892F0E94A2070E94660CF701D0
:100F90009081892F806261E070E090E00E94C30C34
:100FA00081E493E00E94BD044A8121E030E001C069
:100FB000220F1A95EAF7413019F4122F182B03C0AB
:100FC0002095122F1823F701808180620E945C0C0B
:100FD000802F0E94A207812F0E94A2070F900F90DE
:100FE000DF91CF911F910F91FF90EF900C94660CC1
:100FF000FC01962F828D8F3F31F0603140F4CF019C
:101000004B960C94A707642F892F0C942504089500
:10101000CF93DF93EC0140E06E810E94F80741E03E
:101020006E81CE010E94F80740E06E81CE010E94E1
:10103000F8078BE891E00197F1F7DF91CF910895E0
:10104000EF92FF920F931F93CF93DF931F92CDB731
:10105000DEB77C01162F683018F0185001E001C08F
:1010600000E0F7018081806249830E945C0C802F40
:101070000E94A2070E94660CF7018081806261E0F5
:1010800070E090E00E94C30C81E493E00E94BD04F4
:10109000498121E030E001C0220F1A95EAF74111A1
:1010A00003C0122F182B03C02095122F1823F7010D
:1010B000808180620E945C0C802F0E94A207812F99
:1010C0000E94A2070F90DF91CF911F910F91FF9087
:1010D000EF900C94660C603110F40C942008089585
:1010E000CF93DF9300D0CDB7DEB7FC018081806263
:1010F00069837A830E945C0C82E10E94A207698165
:10110000862F0E94A2077A81872F0E94A2070F9044
:101110000F90DF91CF910C94660C8F929F92AF92BB
:10112000BF92CF92DF92EF92FF920F931F93CF93D4
:10113000DF93EC018A8D8E01095F1F4FC62ED12CE3
:101140008F3F09F483C07E018BE1E80EF11C8B8D8B
:1011500080620E945C0C82E10E94A2070E94660CE1
:101160008B8D806262E070E090E00E94C30C81E4AD
:1011700093E00E94BD04B82E81E493E00E94BD0478
:10118000982F88279C012B29F801A0E0B0E061E0AE
:1011900070E0B19001E010E0CB010B2C02C0880F91
:1011A000991F0A94E2F78095909528233923A60188
:1011B0000A2E02C0559547950A94E2F741705527CB
:1011C00002C0440F551FBA94E2F7242B352B119619
:1011D000A430B105F1F668010E8002C0CC0CDD1C14
:1011E0000A94E2F7C094D094C222D322B601C70178
:1011F0000E947008B8010E8002C0660F771F0A9423
:10120000E2F7C62AD72AB601C7010E9470080E80ED
:1012100002C0000F111F0A94E2F700951095B60165
:1012200060237123C7010E9470088BE891E0019749
:10123000F1F7DF91CF911F910F91FF90EF90DF9029
:10124000CF90BF90AF909F908F900895E12CF12C9C
:101250004E01EBE18E0E911C5801F80180819A8DB0
:101260009F3F31F041E0682FC4010E946B0802C02B
:101270000E94690D0F5F1F4FA6010E2C02C05595ED
:1012800047950A94E2F74170F5016081CE010E9412
:10129000F807FFEFEF1AFF0A84E0E816F104E1F621
:1012A000CE01DF91CF911F910F91FF90EF90DF90D2
:1012B000CF90BF90AF909F908F900C9408088F9222
:1012C0009F92AF92BF92CF92DF92EF92FF920F93D5
:1012D0001F93CF93DF93EC01F62E6C810E94F807E9
:1012E0006D816F3F21F040E0CE010E94F8078C89AC
:1012F0000F2D10E084FF3EC06E0187E0C80ED11CA8
:10130000E12CF12C4E01EBE18E0E911C5601F60101
:1013100080819A8D9F3F31F041E0682FC4010E9487
:101320006B0802C00E94690DFFEFCF1ADF0AA80107
:101330000E2C02C0559547950A94E2F74170F501CD
:101340006081CE010E94F807FFEFEF1AFF0A88E0E4
:10135000E816F104D9F6CE01DF91CF911F910F91DC
:10136000FF90EF90DF90CF90BF90AF909F908F90C5
:101370000C940808B80184E0759567958A95E1F7A3
:10138000CE010E948D086F2DCE01DF91CF911F916C
:101390000F91FF90EF90DF90CF90BF90AF909F9014
:1013A0008F900C948D0841E00E945F0981E090E0ED
:1013B00008951F920F920FB60F9211242F933F930F
:1013C0004F935F936F937F938F939F93AF93BF934D
:1013D000EF93FF938091B900887F803609F49CC019
:1013E00068F5883209F45BC090F4803109F454C088
:1013F00038F4882309F4F6C0883009F44DC0F6C0EB
:10140000883109F44CC0803209F45DC0EFC08034EB
:1014100009F468C048F4803309F455C0883309F0F2
:10142000E5C080931403D8C0803509F44FC08835D7
:1014300009F45DC0883409F0D9C0D6C0883909F4F0
:10144000C7C0A8F4883709F467C038F4883609F4AF
:1014500063C0803709F460C0C9C0883809F4B8C0D7
:10146000803909F45FC0803809F0C0C05BC0803BA0
:1014700009F486C038F4803A09F466C0883A09F461
:101480007FC0B4C0803C09F4A7C0883C09F4A4C064
:10149000883B09F48AC0AAC08091F10210C09091E3
:1014A000130380911203981770F5E091130381E004
:1014B0008E0F80931303F0E0EE50FD4F80818093F8
:1014C000BB0085EC86C0809314038EC0E0911303AB
:1014D00081E08E0F809313038091BB00F0E0EE500B
:1014E000FD4F808390911303809112036EC0E091B1
:1014F000130381E08E0F809313038091BB00F0E013
:10150000EE50FD4F80838091150381116DC081E005
:101510008093F00284EA61C083E080931603109206
:101520005A02CFCF80915A02803208F051C0E09128
:101530005A0281E08E0F80935A028091BB00F0E046
:10154000E65CFD4F8083BDCF85EC8093BC0010929C
:10155000160380915A02803230F4E0915A02F0E092
:10156000E65CFD4F108260915A0270E0E091380213
:10157000F09139028AE392E0099510925A0236C03E
:1015800084E0809316031092370210923602E091A5
:101590003402F0913502099580913602811105C01F
:1015A00081E08093360210921402E091370281E0CC
:1015B0008E0F80933702F0E0EC5EFD4F80818093C8
:1015C000BB009091370280913602981708F479CFCA
:1015D00085E88093BC000AC085EC8093BC00109223
:1015E000160304C0109214030E947B04FF91EF9134
:1015F000BF91AF919F918F917F916F915F914F912B
:101600003F912F910F900FBE0F901F901895109241
:10161000160381E0809315031092F00261E082E1ED
:101620000E94250461E083E10E942504E9EBF0E0DB
:1016300080818E7F808380818D7F808388E480930A
:10164000B80085E48093BC0008950F931F930E9417
:101650003C06009178021091790220917A02309133
:101660007B02DC01CB01801B910BA20BB30B8B3FE8
:101670009105A105B10508F444C00E940E0D843007
:1016800079F08830A9F08130E1F580916B03809387
:101690006A0380916C0380936B030E94C40D25C084
:1016A00080916C038F5F8B3050F010926C0309C0F7
:1016B00080916C03811102C08AE001C08150809347
:1016C0006C0380E00E948E0D81E591E00E94B90DCF
:1016D00080E00E948E0D80916C0326E0829FC00105
:1016E000112483599C4F0E94BB0D109202010E944D
:1016F0003C06609378027093790280937A0290930B
:101700007B021F910F910895AF92BF92CF92DF920B
:10171000EF92FF920F931F93CF93DF9300D000D0EF
:1017200000D0CDB7DEB780911202909113029C01D8
:101730002E5F3F4F203631052CF430931302209357
:10174000120206C08E5591099093130280931202E3
:101750000E94B40E10911202812F9091130297FDF6
:101760000F967C0164E0F594E7946A95E1F7129591
:10177000107F1095012F0095C12CD12C8091040170
:10178000909103019C838D831E83BE016F5F7F4F09
:10179000CE0104960E9492065701AA0CBB1CF501CB
:1017A000E459FD4F808191819C01220F331F820FEC
:1017B000931FBE016F5F7F4F8C559D4F0E94400568
:1017C00080910401909103019C838D831E83BE014F
:1017D0006F5F7F4FCE0104960E949206F501E05A9A
:1017E000FD4F808191819C01220F331F820F931F37
:1017F000BE016F5F7F4F8C559D4F0E9440058FEF5C
:10180000E81AF80A86E0E816F10411F4E12CF12C4C
:101810008FEFC81AD80A84E0C816D10441F083E0DB
:10182000C816D10411F4102FA9CF1FEFA7CF0E9423
:101830001C0E26960FB6F894DEBF0FBECDBFDF910B
:10184000CF911F910F91FF90EF90DF90CF90BF90BD
:10185000AF900895CF93DF93EC01688170E085E04D
:101860000E945A05698170E086E00E945A056A81EB
:1018700070E083E0DF91CF910C945A0520E0DC0109
:1018800060FF03C001C02D932D936250E0F77040BC
:10189000D0F70895009769F0FC0101900020E9F766
:1018A0003197AF01481B590BBC018DE493E00C94B8
:1018B0002E0F80E090E0089591E09093390380939B
:1018C000B50310923803109237030895209137031F
:1018D0009091B503213208F04AC08091160381111E
:1018E000FCCF32E03093160331E0309315033FEF25
:1018F000309314031092130320931203A7E1B3E073
:1019000042EF52E0FA013E2F341B321718F43D919A
:101910003193F9CF1092F1022091F102990F922B9D
:101920009093F1029091F002913061F41092F002E4
:101930009091F1029093BB009091BC0093FDF8CF81
:1019400095EC01C095EE9093BC00909116039230F7
:10195000E1F3909114039F3F79F08091140380325A
:1019600041F080911403803331F084E005C081E0C0
:1019700003C082E001C083E0109238031092370365
:10198000109239030895909116039111FCCF6132A2
:1019900008F060E291E090931603909315032FEF07
:1019A0002093140310921303260F20931203909395
:1019B000F1029091F102880F892B8093F1028091BE
:1019C000F002813061F41092F0028091F102809374
:1019D000BB008091BC0083FDF8CF85EC01C085EE93
:1019E0008093BC00809116038130E1F38091130352
:1019F000861710F460911303A2EFB2E020ED32E0FD
:101A0000F9018E2F821B861718F48D918193F9CFDF
:101A10001092CF026093CE02862F0895CF92DF926C
:101A2000FF920F931F93CF93DF931F92CDB7DEB733
:101A3000C12CD12C0FE1FC2CF601E35BFC4F178588
:101A4000103140F5183018F0185093E101C092E1C0
:101A500080916803806299830E945C0C9981892F30
:101A60000E94A2070E94660C90916803892F8062F1
:101A700061E070E090E00E94C30C81E493E00E947A
:101A8000BD049C01332702C0359527951A95E2F7CE
:101A9000217001C020E030E002C0220F331FFA9411
:101AA000E2F720953095802F90E082239323082F32
:101AB0002FEFC21AD20A25E0C216D10409F0BBCF1B
:101AC0000F90DF91CF911F910F91FF90DF90CF90FA
:101AD000089590E0FC01EA53FF4F2491FC01EE547D
:101AE000FF4F8491882399F090E0880F991FFC01A3
:101AF000E855FF4FA591B491FC01E256FF4F859147
:101B000094918FB7F894EC91E22BEC938FBF0895EA
:101B100040E0682F8DE493E00C945F09CF93DF934E
:101B2000CDB7DEB728970FB6F894DEBF0FBECDBF96
:101B300098E0E1E3F1E0DE01119601900D929A95B3
:101B4000E1F790916503981710F48FEF890FFE016C
:101B50003196E80FF11DE80FF11D8081806828960D
:101B60000FB6F894DEBF0FBECDBFDF91CF910C94BE
:101B7000880D0C944A0CFC0144815581608171816F
:101B80008DE493E00C942E0F81E00E94880D8BE38E
:101B90009FE10197F1F70895CF92DF92EF92FF92C4
:101BA0000F931F93CF93DF938091B3039091B4036E
:101BB000EC012196D093B403C093B30349979CF1F1
:101BC0000E943C068B019C0188EE93E0C89FB00107
:101BD000C99F700DD89F700D1124072E000C880B23
:101BE000990BC090AF03D090B003E090B103F09098
:101BF000B203A90198012C193D094E095F090E9401
:101C0000411930933C0320933B031092B40310928C
:101C1000B3030E943C066093AF037093B0038093BC
:101C2000B1039093B203DF91CF911F910F91FF9079
:101C3000EF90DF90CF900895CF92DF92EF92FF92D6
:101C40000F931F93CF93DF9300D01F92CDB7DEB7D2
:101C5000F0903A0380913D0390913E03A0913F03A1
:101C6000B0914003892B8A2B8B2BE9F00E94DD0574
:101C70000091CA021091CB022091CC023091CD028A
:101C8000DC01CB01801B910BA20BB30B00913D0338
:101C900010913E0320913F0330914003801791073C
:101CA000A207B307B8F20E94DD056093CA027093E1
:101CB000CB028093CC029093CD020091C802109188
:101CC000C9020115110561F1D8011C96EC901C9711
:101CD00080913B0390913C038436910510F41C964F
:101CE0001C92D801ED91FC91C280D3804F2DB80198
:101CF000CE0101960E944707F8014585568562810D
:101D000073819E012F5F3F4FC801F6010995D801ED
:101D10001C96EC921C9714960D911C911597D1CF9F
:101D20000E94CC0D0F900F900F90DF91CF911F91DB
:101D30000F91FF90EF90DF90CF900895DC0120E0AD
:101D400030E08C91F901EC55FD4F808311968C9118
:101D50001197818312968C91129782832D5F3F4F4A
:101D60002432310571F70895CF93DF93C091C802F3
:101D7000D091C902209789F08A819B81009749F010
:101D80006D857E859B01220F331F620F731F0E949A
:101D90003E0C0C80DD81C02DEDCFDF91CF910895F9
:101DA000CF92DF92EF92FF920F931F93CF93DF9327
:101DB000CDB7DEB7A1970FB6F894DEBF0FBECDBF8B
:101DC000282F30E040E050E019A28E010F5D1F4F38
:101DD0008AE0C82ED12CE12CF12CCA01B901A7014F
:101DE00096010E944119605DF80162938F012115EF
:101DF00031054105510589F7CF010E944A0CA19692
:101E00000FB6F894DEBF0FBECDBFDF91CF911F910B
:101E10000F91FF90EF90DF90CF900895CF93DF93D5
:101E2000D82FC1E082FB442740F94C2768E088E6C0
:101E300093E00E94A707D1FB442740F94C2767E0B5
:101E400088E693E00E94A7074D2F41704C2766E07B
:101E500088E693E0DF91CF910C94A707CF92DF92B1
:101E6000EF92FF920F931F93CF93DF936C017A0150
:101E70008B01C0E0D0E0CE15DF0589F0D8016D916F
:101E80008D01D601ED91FC910190F081E02DC6010C
:101E90000995892B11F47E0102C02196ECCFC70170
:101EA000DF91CF911F910F91FF90EF90DF90CF9036
:101EB0000895EF92FF920F931F93CF93DF93EC015E
:101EC000198218821B821A821D821C82611571057B
:101ED000A9F17B01FB0101900020E9F731978F0107
:101EE000061B170BB8016F5F7F4F80E090E00E94E8
:101EF000A017009759F0998388831B830A832C814C
:101F00003D81232B81F4FC0110820DC088819981D1
:101F1000009711F00E940817198218821D821C82F6
:101F20001B821A820BC01D830C83B701DF91CF91F6
:101F30001F910F91FF90EF900C947818DF91CF9143
:101F40001F910F91FF90EF900895CF93DF93CFEA09
:101F5000D3E02697888199810E94081783E0CD36C7
:101F6000D807B9F7DF91CF910895CF93DF93CDB71D
:101F7000DEB72A970FB6F894DEBF0FBECDBF7894B8
:101F800084B5826084BD84B5816084BD85B582607E
:101F900085BD85B5816085BD80916E00816080932F
:101FA0006E00109281008091810082608093810098
:101FB00080918100816080938100809180008160A8
:101FC000809380008091B10084608093B100809103
:101FD000B00081608093B00080917A00846080932B
:101FE0007A0080917A00826080937A0080917A00F2
:101FF000816080937A0080917A00806880937A0073
:102000001092C100809167038F3F39F58091610381
:1020100088608093610382E0809365031092660379
:102020008BE39DE00197F1F740E0609151038DE46F
:1020300093E00E94F80740E0609153038DE493E041
:102040000E94F807609152036F3F09F4BAC040E064
:102050008DE493E00E94F807B4C01092CF02109272
:10206000CE0210923803109237030E94070B109291
:1020700068031092CF021092CE0210923803109291
:1020800037030E94070B8091680380620E945C0CFA
:1020900080E00E94A2078FEF0E94A2070E94660CB8
:1020A0008091680380620E945C0C81E00E94A2071C
:1020B0008FEF0E94A2070E94660C41E068E088E66C
:1020C00093E00E94200841E066E088E693E00E94E9
:1020D000200841E067E088E693E00E94200887E05E
:1020E0000E940E0F60915203662329F041E088E6BA
:1020F00093E00E946B0841E06091510388E693E011
:102100000E946B0841E06091530388E693E00E94CF
:102110006B0804E513E0F4E0FF2EF00ED8016D919A
:102120008D0141E088E693E00E946B08F012F6CF43
:102130000CE513E0E5E0EE2EE00E40E0F8016081F2
:1021400088E693E00E946B08D8012D918D01203123
:10215000A8F5283020F028507DE0F72E02C06CE072
:10216000F62E8091680380622A870E945C0C8F2D76
:102170000E94A2070E94660C80916803806261E061
:1021800070E090E00E94C30C81E493E00E94BD04E3
:10219000D82E8091680380620E945C0C8F2D0E9473
:1021A000A20741E050E02A85CA0101C0880F2A95A4
:1021B000EAF78D290E94A2070E94660CE012BDCFAB
:1021C00025CF8091610384FD21C063E08DE493E01D
:1021D0000E948D080BE416E4C8010197F1F763E053
:1021E0008DE493E00E948D08C8010197F1F763E048
:1021F0008DE493E00E948D0883E592E00197F1F76A
:1022000062E08DE493E00E948D0815C080620E9418
:10221000880D8BE496E40197F1F780916103806269
:102220000E94880D83E592E00197F1F780916103A8
:1022300080620E94880D8091610380620E94880DF7
:1022400084E0809362038CE00E94880D0E94C40D9C
:1022500082E08093630386E00E94880D81E00E9403
:102260000E0F82E691E00E94B90DECE6F2E0A0E6E6
:10227000B2E022E030E081E090E0219331938D9351
:102280009D93A9014F5F5F4F019762E0E837F60722
:1022900071F04C3051051CF0A9014B5051098F3F92
:1022A0002FEF920711F48BE090E09A01E6CF68EBF4
:1022B0007BE080E090E00E94020680918F02811115
:1022C00045C010928102109280028FEF80938402A9
:1022D0008093850280938602809387028093880290
:1022E0008093890281E080938A0210928C0210927E
:1022F0008B0210928302109282028091C802909108
:10230000C902892B31F48EE792E09093C902809341
:10231000C802E0917C02F0917D02309721F08EE7B7
:1023200092E0958384838EE792E090937D02809380
:102330007C0210928E0210928D0285E291E09093C1
:102340007F0280937E0281E080938F02E0917E0283
:10235000F0917F020480F581E02D8EE792E00995EF
:1023600084EA92E090938102809380028CE090E076
:1023700090938C0280938B02E0917E02F0917F0219
:102380000084F185E02D8EE792E00995009729F110
:102390009C0140E050E060E472E48FE090E00E9435
:1023A000E018722F632F00913D0310913E0320919E
:1023B0003F0330914003872F962FDA018017910752
:1023C000A207B30710F4D901C80180933D0390938D
:1023D0003E03A0933F03B09340030E94B40E0E94BB
:1023E0001C0E80E280933A0368EC70E080E090E09D
:1023F0000E94020685E00E94690D86E00E94690D38
:1024000083E00E94690D1FEF19831A821B82CE019F
:1024100001960E942A0C19831A821B82CE01019612
:102420000E949E0E0E941C0E64EF71E080E090E01E
:102430000E940206198200E80A831B82CE010196DF
:102440000E942A0C19820A831B82CE0101960E94E7
:102450009E0E0E941C0E64EF71E080E090E00E94EE
:10246000020619821A821B83CE0101960E942A0C51
:1024700019821A821B83CE0101960E949E0E0E9431
:102480001C0E64EF71E080E090E00E940206198269
:102490001A821B82CE0101960E942A0C19821A828E
:1024A0001B82CE0101960E949E0E0E941C0E64EFBC
:1024B00071E080E090E00E9402060E94C40D82E07C
:1024C0000E940E0F80E00E948E0D8AE691E00E942D
:1024D000B90D81E00E948E0D82E791E00E94B90D56
:1024E0006EEE72E080E090E00E94020632E9E32E98
:1024F00030E0F32EF70185919591A591B4918093E9
:10250000A10243E9C42E40E0D42EF60185919591B5
:10251000A591B4918093A2020E943C066093780238
:102520007093790280937A0290937B020E943C061A
:102530006093990270939A0280939B0290939C02FD
:1025400044244A9453E0552E612C712C80E48093EE
:102550007C0080917A00806480937A0080917A0078
:1025600086FDFCCF209178008091790030E0382BF7
:102570003093070120930601AFEFB0E00E9463198A
:10258000603CAFEF7A078105910564F06115BFEFFC
:102590007B07B3E08B0791053CF4A30192010E94F5
:1025A000E01803C020E401C02FEF2093690380915D
:1025B000080182132093080180916B038950909148
:1025C0000801823000F5109105010091A3020C83EF
:1025D0001D839E83BE016F5F7F4FCE0104960E94D4
:1025E0009206CE0101960E942A0C8091080109836F
:1025F0001A838B8364EA72E0CE0101960E949206F0
:102600000E941C0E12C080910401209103012C83B2
:102610008D839E83BE016F5F7F4FCE0104960E9423
:102620009206CE0101960E942A0C80916903809344
:102630003A0381E00E948E0D80916B03E6E08E9F4D
:10264000C001112483599C4F0E94BB0D0E943C067F
:10265000009178021091790220917A0230917B02E8
:10266000DC01CB01801B910BA20BB30B8131974294
:10267000A105B105A0F080910201811109C00E945D
:102680008E0D81E591E00E94B90D81E080930201F9
:1026900080E00E948E0D8AE691E00E94B90DE091E3
:1026A0006B038E2F90E08B30910508F0F4C1FC0194
:1026B000EC5CFF4F0C944D16F70185919591A59117
:1026C000B4918093A102F601459155916591749161
:1026D0004093A202809303014093040183E015C05C
:1026E000E4E9F0E085919591A591B4918093A102E0
:1026F000E5E9F0E045915591659174914093A2020E
:10270000809303014093040181E00E940E0F0E9418
:10271000840B0E94250BBFC1E6E9F0E085919591FD
:10272000A591B4918093A102E7E9F0E0459155911C
:10273000659174914093A202809303014093040138
:1027400084E0E3CFE8E9F0E085919591A591B4911B
:102750008093A102E9E9F0E045915591659174916A
:102760004093A202809303014093040182E0CDCF05
:10277000EAE9F0E085919591A591B4918093A10249
:10278000EBE9F0E045915591659174914093A20277
:10279000809303014093040185E0B7CFECE9F0E0BA
:1027A00085919591A591B4918093A102EDE9F0E016
:1027B00045915591659174914093A20280930301D4
:1027C0004093040187E0A1CF8091A302809303018D
:1027D00080910501809304019ACF80909D02909092
:1027E0009E02A0909F02B090A002809199029091C9
:1027F0009A02A0919B02B0919C02A5019401281B12
:10280000390B4A0B5B0BCA01B9010E947F1821E00A
:1028100030E040EF50E40E946E1618160CF079CFAD
:1028200060E070E0CB010E940206809299029092D3
:102830009A02A0929B02B0929C0290910801809112
:1028400000010FEF080F0093000189831FEF1A8327
:102850009B8380919702909198026CE070E00E94B7
:102860003916BC01660F771F860F971FBC016C5588
:102870007D4FCE0101960E949206009303011093B2
:1028800004010E941C0E809197029091980201967B
:1028900090939802809397023CCF80909D029090F5
:1028A0009E02A0909F02B090A00280919902909108
:1028B0009A02A0919B02B0919C02A5019401281B51
:1028C000390B4A0B5B0BCA01B9010E947F1820E04B
:1028D00030E048EC51E40E946E1618160CF019CF47
:1028E00060E070E0CB010E94020680929902909213
:1028F0009A02A0929B02B0929C0290910801809152
:1029000001012FEF280F209301018C838FEF8D831E
:102910009E83BE01695F7F4FCE0104960E9492069E
:1029200030903A0380913D0390913E03A0913F0384
:10293000B0914003892B8A2B8B2B09F4BEC00E94D7
:10294000DD050091CA021091CB022091CC0230919A
:10295000CD02DC01CB01801B910BA20BB30B0091CC
:102960003D0310913E0320913F03309140038017B7
:102970009107A207B307B0F2A0C080E00E948E0DBD
:1029800081E591E00E94B90D80E00E948E0D80915A
:1029900005010E94D00E0E943C0600917802109121
:1029A000790220917A0230917B02DC01CB01801BFD
:1029B000910BA20BB30B84359105A105B10508F469
:1029C0006AC00E940E0D823061F08031E1F5809185
:1029D0000501811102C08FEF01C081508093050174
:1029E0004EC0809105018F3F19F41092050147C038
:1029F0008F5FF4CF80E00E948E0D81E591E00E9410
:102A0000B90D80E00E948E0D8091A3020E94D00E2D
:102A10000E943C06009178021091790220917A027E
:102A200030917B02DC01CB01801B910BA20BB30B1D
:102A300084359105A105B10570F10E940E0D82301B
:102A4000A9F0803149F0813031F580916A0380939B
:102A50006B030E94C40D13C08091A302811102C0B8
:102A60008FEF01C081508093A30209C08091A3021F
:102A70008F3F19F41092A30202C08F5FF4CF10921F
:102A800002010E943C066093780270937902809361
:102A90007A0290937B020E943C0660939D027093A1
:102AA0009E0280939F029093A00280E090E0892B89
:102AB00009F44CCD0E94000049CD0E94DD056093D1
:102AC000CA027093CB028093CC029093CD02009106
:102AD000C8021091C9020115110569F1D8011C96AF
:102AE0002C901C9780913B0390913C038436910578
:102AF00010F41C961C92D801ED91FC91808091807D
:102B0000432DB801CE0101960E944707F801458583
:102B100056859E012F5F3F4FBE01695F7F4FC80101
:102B2000F4010995D8011C962C921C9714960D91CE
:102B30001C911597D0CF0E94CC0D809101018093FC
:102B400003018FEF80930401E4CDEAE3F3E08FEF1C
:102B5000808312821182E1E4F3E01382128288EE14
:102B600093E0A0E0B0E084839583A683B7838DE3F0
:102B700091E09183808368E771E08DE693E00E94A5
:102B8000590F66E871E083E793E00E94590F61E90D
:102B900071E089E793E00E94590F6DE971E08FE7DA
:102BA00093E00E94590F6AEA71E085E893E00E9481
:102BB000590F68EB71E08BE893E00E94590F65ECC8
:102BC00071E081E993E00E94590F63ED71E087E9BC
:102BD00093E00E94590F61EE71E08DE993E00E944D
:102BE000590F6FEE71E083EA93E00E94590F61E0A4
:102BF00072E089EA93E00E94590F80916C03809300
:102C00006B0380936A038091080180936903EDE46C
:102C1000F3E0138212828DE491E091838083128E1F
:102C2000148A8FE084838EE085838DE086838CE038
:102C300087838BE080878AE0818789E08287178697
:102C400081E0808B82E0818B83E0828B84E0838BC8
:102C50000895DB018F939F930E94FF18BF91AF915E
:102C6000A29F800D911DA39F900DB29F900D1124E6
:102C7000089597FB072E16F4009407D077FD09D02E
:102C80000E945A1607FC05D03EF4909581959F4FFF
:102C90000895709561957F4F0895EE0FFF1F059081
:102CA000F491E02D09940E946319B7FF0895821BE7
:102CB000930B0895AA1BBB1B51E107C0AA1FBB1FA2
:102CC000A617B70710F0A61BB70B881F991F5A95B8
:102CD000A9F780959095BC01CD0108950E94BC187C
:102CE00008F48FEF0895CF93DF938230910510F4AD
:102CF00082E090E0E091B803F091B90320E030E089
:102D0000C0E0D0E0309711F1408151814817590758
:102D1000C0F04817590761F482819381209719F018
:102D20009B838A832BC09093B9038093B80326C0FA
:102D30002115310519F04217530718F49A01BE0105
:102D4000DF01EF010280F381E02DDCCF2115310599
:102D500009F1281B390B2430310590F412968D911E
:102D60009C9113976115710521F0FB019383828378
:102D700004C09093B9038093B803FD01329644C018
:102D8000FD01E20FF31F81939193225031092D939E
:102D90003C933AC02091B6033091B703232B41F402
:102DA00020910B0130910C013093B7032093B603AF
:102DB0002091090130910A012115310541F42DB707
:102DC0003EB740910D0150910E01241B350BE0914F
:102DD000B603F091B703E217F307A0F42E1B3F0BE5
:102DE0002817390778F0AC014E5F5F4F241735077D
:102DF00048F04E0F5F1F5093B7034093B603819383
:102E0000919302C0E0E0F0E0CF01DF91CF9108950F
:102E10000F931F93CF93DF93009709F48CC0FC01AD
:102E20003297138212820091B8031091B9030115F1
:102E3000110581F420813181820F931F2091B60307
:102E40003091B7032817390779F5F093B703E0936A
:102E5000B60371C0D80140E050E0AE17BF0750F490
:102E600012962D913C911397AD012115310509F171
:102E7000D901F3CF9D01DA0133832283608171810F
:102E8000860F971F8217930769F4EC012881398117
:102E9000260F371F2E5F3F4F318320838A819B810E
:102EA00093838283452B29F4F093B903E093B8030D
:102EB00042C01396FC93EE931297ED0149915991FC
:102EC0009E01240F351FE217F30771F48081918171
:102ED000840F951F029611969C938E938281938105
:102EE00013969C938E931297E0E0F0E0D80112962F
:102EF0008D919C911397009719F0F8018C01F6CFF2
:102F00008D919C9198012E5F3F4F820F931F2091CE
:102F1000B6033091B7032817390769F4309729F4BD
:102F20001092B9031092B80302C013821282109358
:102F3000B7030093B603DF91CF911F910F910895CE
:102F4000A0E0B0E0E6EAF7E10C940E19EC0100977E
:102F500021F4CB010E947316B8C0FC01E60FF71FE5
:102F60009C0122503109E217F30708F4ACC0D901E3
:102F70000D911C91119706171707B0F00530110538
:102F800008F49FC0C80104978617970708F499C0F2
:102F900002501109061B170B019311936D937C933B
:102FA000CF010E9408178DC05B01A01AB10A4C0125
:102FB000800E911EA091B803B091B90340E050E09B
:102FC000E12CF12C109709F44AC0A815B905D1F5E8
:102FD0006D907C901197630182E0C80ED11CCA14D9
:102FE000DB0480F1A3014A195B096A0182E0C80E83
:102FF000D11C1296BC9012971396AC91B5E0CB16EB
:10300000D10440F0B282A38351834083D9016D93F0
:103010007C930AC00E5F1F4FC301800F911FF901FF
:1030200091838083EB2DFA2FE114F10431F0D70165
:103030001396FC93EE93129744C0F093B903E09378
:10304000B8033FC08D919C9111974817590708F418
:10305000AC017D0112960D90BC91A02DB3CF809153
:10306000B6039091B70388159905E1F44617570701
:10307000C8F48091090190910A01009741F48DB73D
:103080009EB740910D0150910E01841B950BE817DE
:10309000F907C8F4F093B703E093B603F90171831D
:1030A00060830FC0CB010E9473167C01009759F01A
:1030B000A801BE010E946F18CE010E940817C70127
:1030C00004C0CE0102C080E090E0CDB7DEB7EEE0F4
:1030D0000C942A1981E090E0F8940C947219FB0189
:1030E000DC0102C001900D9241505040D8F7089584
:1030F000FB01DC0101900D920020E1F70895E894B6
:1031000009C097FB3EF490958095709561957F4F2F
:103110008F4F9F4F9923A9F0F92F96E9BB279395DD
:10312000F695879577956795B795F111F8CFFAF4ED
:10313000BB0F11F460FF1BC06F5F7F4F8F4F9F4F1E
:1031400016C0882311F096E911C0772321F09EE87C
:10315000872F762F05C0662371F096E8862F70E0E2
:1031600060E02AF09A95660F771F881FDAF7880FBC
:103170009695879597F90895990F0008550FAA0B12
:10318000E0E8FEEF16161706E807F907C0F012167A
:103190001306E407F50798F0621B730B840B950B7D
:1031A00039F40A2661F0232B242B252B21F40895D2
:1031B0000A2609F4A140A6958FEF811D811D08956F
:1031C000052E97FB1EF400940E94F71857FD07D0B8
:1031D0000E94411907FC03D04EF40C94F718509547
:1031E0004095309521953F4F4F4F5F4F08959095F3
:1031F0008095709561957F4F8F4F9F4F08950E94E6
:103200006319A59F900DB49F900DA49F800D911DF3
:10321000112408952F923F924F925F926F927F9266
:103220008F929F92AF92BF92CF92DF92EF92FF92D6
:103230000F931F93CF93DF93CDB7DEB7CA1BDB0B82
:103240000FB6F894DEBF0FBECDBF09942A88398827
:1032500048885F846E847D848C849B84AA84B9842E
:10326000C884DF80EE80FD800C811B81AA81B9813A
:10327000CE0FD11D0FB6F894DEBF0FBECDBFED014E
:103280000895A1E21A2EAA1BBB1BFD010DC0AA1FA7
:10329000BB1FEE1FFF1FA217B307E407F50720F0BF
:1032A000A21BB30BE40BF50B661F771F881F991F3A
:1032B0001A9469F760957095809590959B01AC0183
:1032C000BD01CF010895A29FB001B39FC001A39F8C
:1032D000700D811D1124911DB29F700D811D11244F
:1032E000911D089510E0CEE6D0E004C0FE010E94DA
:0E32F0004D162196CF36D107C9F7F894FFCFBF
:1032FE0040400140FFFF0002800000BA0380000141
:10330E000000000000000058055805580558053DFE
:10331E000500000000D705D1053B05B8053805FAB4
:10332E00000000400014005400000000000905D900
:10333E0004D104BD04AE04AD0400000000D3092E78
:10334E000F20202020202020202020202020202080
:10335E002000426F6F74696E67004265726B616E1A
:10336E0061005265616479004B656C6C657920591A
:10337E00656C6C6F77004B656C6C6579205265647B
:10338E00004B656C6C657920426C7565004B656C05
:10339E006C657920477265656E004B656C6C65795E
:1033AE0020507572706C65004B656C6C657920579A
:1033BE0068697465004B656C6C6579206375737410
:1033CE006F6D005261696E626F772063686173651D
:1033DE00005261696E626F77206379636C6500439A
:1033EE007573746F6D2053617475726174696F6E4D
:0C33FE0000437573746F6D204875650006
:00000001FF
