:100000000C946B000C9493000C9493000C9493004C
:100010000C9493000C9493000C9493000C94930014
:100020000C9493000C9493000C9493000C94930004
:100030000C9493000C9493000C9493000C949300F4
:100040000C94F1140C9493000C9493000C94930072
:100050000C9493000C9493000C9493000C949300D4
:100060000C94190C0C9493004000FF000000FF005A
:10007000A000FF006000FF00C000FF00FF000000C4
:100080000000000800020100000304070000000057
:100090000000000001020408102040800102040852
:1000A00010200102040810200404040404040404C1
:1000B0000202020202020303030303030000000022
:1000C000250028002B0000000000240027002A0043
:1000D000C6092F0B281411241FBECFEFD8E0DEBFB6
:1000E000CDBF11E0A0E0B1E0E2E6F4E302C005908C
:1000F0000D92A038B107D9F722E0A0E8B1E001C025
:100100001D92AF3DB207E1F710E0C6EDD0E004C0AC
:100110002297FE010E941C1AC03DD107C9F70E9418
:10012000FF160C942F1A0C94000080E991E00895BA
:10013000239A0895FC0160810C94A012CF93DF9361
:10014000EC01688170E085E00E940716698170E02B
:1001500086E00E9407166A8170E083E0DF91CF910C
:100160000C9407162091C4013091C5012630310549
:10017000DCF4F901EE0FFF1FEE0FFF1FE859FF4FF0
:1001800085919591A591B4919093D5018093D401D7
:10019000F901EE0FFF1FEE0FFF1FE659FF4F85918C
:1001A0009591A591B49109C02630310551F4109272
:1001B000D5011092D4018FEF90E09093D7018093F6
:1001C000D6018091CA019091CB01A091CC01B09150
:1001D000CD014091CE015091CF016091D00170913D
:1001E000D101841B950BA60BB70B409111015091C7
:1001F00012016091130170911401481759076A07A1
:100200007B07ACF460E070E0CB010E946A1580913E
:10021000CA019091CB01A091CC01B091CD01809306
:10022000CE019093CF01A093D001B093D101089556
:100230000F931F93CF93DF9300D01F92CDB7DEB7FC
:100240001FEF19831A821B82CE0101960E949E0025
:1002500019831A821B82AE014F5F5F4F6CE070E022
:100260008AED91E00E94E9118FEC92E00E949A00E1
:1002700064EF71E080E090E00E946A15198200E866
:100280000A831B82CE0101960E949E0019820A8376
:100290001B82AE014F5F5F4F6CE070E08AED91E032
:1002A0000E94E9118FEC92E00E949A0064EF71E0E5
:1002B00080E090E00E946A1519821A821B83CE01A9
:1002C00001960E949E0019821A821B83AE014F5F25
:1002D0005F4F6CE070E08AED91E00E94E9118FECD5
:1002E00092E00E949A0064EF71E080E090E00E944A
:1002F0006A1519821A821B82CE0101960E949E0005
:1003000019821A821B82AE014F5F5F4F6CE070E072
:100310008AED91E00E94E9118FEC92E00E949A0030
:1003200064EF71E080E090E00E946A150F900F90FA
:100330000F90DF91CF911F910F910895CF93DF938D
:1003400000D01F92CDB7DEB720E042E060E18AE93D
:1003500091E00E94CE106EE171E08AE991E00E9486
:100360004C1767E08AE991E00E94390F68EB7BE067
:1003700080E090E00E946A1580919201811145C051
:1003800010928401109283018FEF809387018093F4
:1003900088018093890180938A0180938B018093E7
:1003A0008C0181E080938D0110928F0110928E015B
:1003B00010928601109285018091CD029091CE021B
:1003C000892B31F481E891E09093CE028093CD02A5
:1003D000E091CB02F091CC02309721F081E891E0DE
:1003E0009583848381E891E09093CC028093CB0243
:1003F00010929101109290018DE591E0909382010D
:100400008093810181E08093920120E030E04CE014
:1004100050E06AED71E081E891E00E94ED131982ED
:100420001A821B82AE014F5F5F4F6CE070E08AED75
:1004300091E00E94E9118FEC92E00E949A0068EC32
:1004400070E080E090E00E946A1561E085E00E9423
:100450008F1661E086E00E948F1661E083E00E94C3
:100460008F160E9418018AE991E00E94921062E0C2
:100470008AE991E00E94390F40E060E08AE991E06A
:100480000E94991066E271E08AE991E00E944C179F
:1004900041E060E08AE991E00E9499106EE271E02B
:1004A0008AE991E00E944C176EEE72E080E090E0E5
:1004B0000E946A150E943B156093CE017093CF0194
:1004C0008093D0019093D1010E943B156093B801B5
:1004D0007093B9018093BA019093BB011092C90146
:1004E0001092C8012091D2013091D301F901EE0F91
:1004F000FF1FEE0FFF1FE859FF4F85919591A591C2
:10050000B4919093D5018093D401F901EE0FFF1FB0
:10051000EE0FFF1FE659FF4F85919591A591B4917C
:100520009093D7018093D6010F900F900F90DF9199
:10053000CF910895CF92DF92EF92FF92CF93DF9306
:1005400000D01F92CDB7DEB76091CA017091CB0188
:100550008091CC019091CD01C090CE01D090CF017F
:10056000E090D001F090D1016C197D098E099F09AE
:100570000E9478186B017C01609111017091120149
:1005800080911301909114010E9478182AE939E9A9
:1005900049E15EE30E942C199B01AC01C701B60141
:1005A0000E94281918160CF041C060E070E0CB01E1
:1005B0000E946A158091CA019091CB01A091CC0153
:1005C000B091CD018093CE019093CF01A093D00143
:1005D000B093D10190911001809105012FEF280F68
:1005E0002093050189838FEF8A839B838091B601D5
:1005F0009091B7016CE070E00E94B319BC01660FE6
:10060000771F680F791F66527E4FCE0101960E94B8
:100610003B148FEC92E00E949A008091B601909179
:10062000B70101969093B7018093B6010F900F9098
:100630000F90DF91CF91FF90EF90DF90CF900895D2
:10064000CF92DF92EF92FF92CF93DF9300D000D052
:1006500000D0CDB7DEB76091CA017091CB01809117
:10066000CC019091CD01C090CE01D090CF01E0900F
:10067000D001F090D1016C197D098E099F090E946B
:1006800078186B017C0160911101709112018091C9
:100690001301909114010E94781820E030E040E0AE
:1006A0005FE30E942C199B01AC01C701B6010E94B7
:1006B000281918168CF560E070E0CB010E946A15CD
:1006C0008091CA019091CB01A091CC01B091CD0154
:1006D0008093CE019093CF01A093D001B093D1012C
:1006E00090911001809104012FEF280F20930401B5
:1006F0008C838FEF8D839E83BE016F5F7F4FCE0112
:1007000004960E943B144091CF02BE016F5F7F4F61
:100710008FEC92E00E94211326960FB6F894DEBF6C
:100720000FBECDBFDF91CF91FF90EF90DF90CF90C4
:1007300008958091C2019091C3018730910564F4BE
:1007400021E0209307011092C7011092C6019093F7
:10075000C5018093C40108958730910541F410923A
:10076000070181E08093C7011092C60108950897A0
:1007700039F4109207011092C70181E08093C601FD
:1007800008959F92AF92BF92CF92DF92EF92FF9225
:100790000F931F93CF93DF9300D000D000D0CDB73D
:1007A000DEB78EE00E94EA159093D9018093D801BC
:1007B000BC01882777FD8095982F1F921F921F926A
:1007C00099249A949F92A12CB12C6501EE24EA946D
:1007D00013E0F12E00E010E020E030E0A9010E94DB
:1007E00002187093BD016093BC01809110011C82BE
:1007F0009D828E83BE016F5F7F4FCE0104960E9463
:100800003B14CE0101960E949E0041E060E08AE91F
:1008100091E00E949910E091C201F091C301EE0FA6
:10082000FF1FE65FFE4F608171818AE991E00E94BF
:100830004C170E943B150091B8011091B90120910D
:10084000BA013091BB01601B710B820B930B0F90AF
:100850000F900F900F90613177428105910528F13B
:100860008091C2019091C3010997FCF48091060127
:1008700081110FC040E060E08AE991E00E94991088
:1008800064E371E08AE991E00E944C1781E0809373
:10089000060140E060E08AE991E00E94991066E27A
:1008A00071E08AE991E00E944C178AE991E00E9488
:1008B000B611182F0E943B15C090B801D090B90115
:1008C000E090BA01F090BB016C197D098E099F0977
:1008D0006E3471408105910508F436C1112309F485
:1008E00033C18AE991E00E94921040E060E08AE919
:1008F00091E00E94991013FF29C08091C00190914E
:10090000C101892B49F48091080190910901019757
:100910009093C1018093C0010E943B156093B80180
:100920007093B9018093BA019093BB0110920601B4
:10093000E091C001F091C101EE0FFF1FE65FFE4F95
:10094000608171818AE991E00E944C1712FF2AC0F0
:10095000809108019091090101972091C001309187
:10096000C1012817390721F41092C1011092C0016A
:100970000E943B156093B8017093B9018093BA014E
:100980009093BB0110920601E091C001F091C1016A
:10099000EE0FFF1FE65FFE4F608171818AE991E0F3
:1009A0000E944C178091C2019091C301012F0170E8
:1009B000099709F063C040E060E08AE991E00E9495
:1009C000991014FF1FC040911101509112016091C4
:1009D000130170911401433351056105710594F0C1
:1009E0004253510961097109409311015093120159
:1009F00060931301709314012AE030E08AE991E0DA
:100A00000E94A41711FF20C04091110150911201C2
:100A10006091130170911401483883E15807610512
:100A2000710594F44E5C5F4F6F4F7F4F40931101FF
:100A30005093120160931301709314012AE030E087
:100A40008AE991E00E94A4170023C1F08091BE01C1
:100A50009091BF019093C3018093C2018AE991E014
:100A60000E94921040E060E08AE991E00E949910B3
:100A700066E271E08AE991E00E944C178091C20120
:100A80009091C3010A97F1F540E060E08AE991E0B6
:100A90000E94991014FF0DC060911001693448F054
:100AA0006450609310014AE050E08AE991E00E94AE
:100AB000FB1711FF0DC0609110016C3F48F46C5F93
:100AC000609310014AE050E08AE991E00E94FB1730
:100AD0000023D1F18091BE019091BF019093C30199
:100AE0008093C2018AE991E00E94921040E060E0A8
:100AF0008AE991E00E94991066E271E08AE991E04A
:100B00000E944C17002301F18091C2019091C30112
:100B10009093BF018093BE018091C0019091C1016B
:100B20009093C3018093C2018AE991E00E949210E0
:100B300040E060E08AE991E00E94991066E271E08D
:100B40008AE991E00E944C170E9499030E943B158C
:100B50006093CA017093CB018093CC019093CD0137
:100B60008091070181110E94B2008091C70181111B
:100B70000E949A028091C60181110E94200326964C
:100B80000FB6F894DEBF0FBECDBFDF91CF911F919E
:100B90000F91FF90EF90DF90CF90BF90AF909F901C
:100BA00008958F929F92AF92BF92CF92DF92EF9271
:100BB000FF920F931F93CF93DF93EC01E881F981AC
:100BC00095B1986085B1877F85B938852D81D32E01
:100BD000D21ADD82AD84AA81BB812B859C848A8454
:100BE000EE80FC8079851F810990D881C02D098114
:100BF000002331F0402F0D2D400F08F44FEF01C0BE
:100C000040E0042F029F012D1124C0E04C2F5C2FE7
:100C10006C2F002CEA01CC2E4C2D5D2F95B900C015
:100C200000C000C000C000C007FF85B96281442732
:100C3000889400C000C000C000C000C000C0002CEC
:100C400085B961116E0D00C000C0002C00C000C04D
:100C500095B900C000C000C000C000C006FF85B943
:100C600008F46FEF889400C000C000C000C000C04E
:100C700000C000C085B990FC460F00C000C0002C29
:100C800000C000C095B900C000C000C000C000C0D6
:100C900005FF85B94795889491FC460F00C000C0B8
:100CA00000C000C000C000C0002C85B947958894E2
:100CB00000C000C0002C00C000C095B900C000C03A
:100CC00000C000C000C004FF85B992FC460F4795E4
:100CD000889400C000C000C000C000C000C0002C4C
:100CE00085B993FC460F00C000C0002C00C000C0B6
:100CF00095B900C000C000C000C000C003FF85B9A6
:100D00004795889494FC460F00C000C000C000C006
:100D100000C000C0002C85B94795889400C000C071
:100D2000002C00C000C095B900C000C000C000C0C9
:100D300000C002FF85B995FC460F4795889400C016
:100D400000C000C000C000C000C0002C85B996FCE7
:100D5000460F00C000C0002C00C000C095B900C004
:100D600000C000C000C000C001FF85B9479588944D
:100D700097FC460F00C000C000C000C000C000C00B
:100D8000002C85B94795889400C000C0002C00C095
:100D900000C095B900C000C000C000C000C000FF86
:100DA00085B9E194E70E00C000C000C000C000C0DB
:100DB00000C000C0002C85B9042F00C000C000C0D6
:100DC00000C000C095B900C000C000C000C000C095
:100DD00007FF85B960814427889400C000C000C027
:100DE00000C000C000C0002C85B961116F0D00C0AB
:100DF00000C0002C00C000C095B900C000C000C0F9
:100E000000C000C006FF85B908F46FEF889400C0E9
:100E100000C000C000C000C000C000C085B980FC98
:100E2000460F00C000C0002C00C000C095B900C033
:100E300000C000C000C000C005FF85B94795889478
:100E400081FC460F00C000C000C000C000C000C050
:100E5000002C85B94795889400C000C0002C00C0C4
:100E600000C095B900C000C000C000C000C004FFB1
:100E700085B982FC460F4795889400C000C000C029
:100E800000C000C000C0002C85B983FC460F00C024
:100E900000C0002C00C000C095B900C000C000C058
:100EA00000C000C003FF85B94795889484FC460FB5
:100EB00000C000C000C000C000C000C0002C85B948
:100EC0004795889400C000C0002C00C000C095B9B0
:100ED00000C000C000C000C000C002FF85B985FC92
:100EE000460F4795889400C000C000C000C000C0F5
:100EF00000C0002C85B986FC460F00C000C0002C45
:100F000000C000C095B900C000C000C000C000C053
:100F100001FF85B94795889487FC460F00C000C043
:100F200000C000C000C000C0002C85B9479588945F
:100F300000C000C0002C00C000C095B900C000C0B7
:100F400000C000C000C000FF85B9EA0DF11D889403
:100F5000042F00C000C000C000C000C000C0002CB2
:100F600085B9F194F10E00C000C0002C00C000C093
:100F700095B900C000C000C000C000C007FF85B91F
:100F800061814427889400C000C000C000C000C038
:100F900000C0002C85B961116D0D00C000C0002C8F
:100FA00000C000C095B900C000C000C000C000C0B3
:100FB00006FF85B908F46FEF889400C000C000C038
:100FC00000C000C000C000C085B920FD460F00C0B1
:100FD00000C0002C00C000C095B900C000C000C017
:100FE00000C000C005FF85B94795889421FD460FD4
:100FF00000C000C000C000C000C000C0002C85B907
:101000004795889400C000C0002C00C000C095B96E
:1010100000C000C000C000C000C004FF85B922FDB0
:10102000460F4795889400C000C000C000C000C0B3
:1010300000C0002C85B923FD460F00C000C0002C65
:1010400000C000C095B900C000C000C000C000C012
:1010500003FF85B94795889424FD460F00C000C062
:1010600000C000C000C000C0002C85B9479588941E
:1010700000C000C0002C00C000C095B900C000C076
:1010800000C000C000C002FF85B925FD460F47958E
:10109000889400C000C000C000C000C000C0002C88
:1010A00085B926FD460F00C000C0002C00C000C05E
:1010B00095B900C000C000C000C000C001FF85B9E4
:1010C0004795889427FD460F00C000C000C000C0AF
:1010D00000C000C0002C85B94795889400C000C0AE
:1010E000002C00C000C095B900C000C000C000C006
:1010F00000C000FF85B9D194D30E042F00C000C0FA
:1011000000C000C000C000C000C085B900C000C061
:10111000002C119709F082CDDF91CF911F910F9193
:10112000FF90EF90DF90CF90BF90AF909F908F9007
:101130000895FF920F931F93CF93DF93EC0180915B
:1011400080018F5F982F97709093800180FD02C07F
:1011500080E001C080E891FD8064947009F08062B5
:1011600040E1F42EF80E20E030E000E011E0FE0156
:10117000E20FF31F6285662331F070E0C8010E9420
:10118000B3196F5F01C060E067834F2D469F412D0B
:1011900011244483662311F0615067832F5F3F4F12
:1011A0002330310521F7DF91CF911F910F91FF90EF
:1011B0000895AF92BF92CF92DF92EF92FF920F937A
:1011C000CF93DF93CDB7DEB72E970FB6F894DEBF7F
:1011D0000FBECDBF6C015A01F901DC011C968C9148
:1011E0007A8369835C834B8390819B8791819C8701
:1011F00092819D87813029F4CE0101960E94990841
:1012000006C01A86198618861F821E821D82898151
:101210009A818E0D911D9A838983002319F083E0B2
:101220008E0D01C080E08E870E944715F60127854C
:101230003089621B730B6A307105B0F3F894CE01EC
:1012400001960E94D10520EF33E0D5010E94081AD3
:10125000E4E09695879577956795EA95D1F720E034
:1012600030E04AE9A49E212DB49E200D311D1124A9
:10127000620F731F811D911D693EF3E07F07810599
:101280009105A8F1DC01CB01885E9340A109B10969
:1012900052E0B695A795979587955A95D1F740E076
:1012A00050E027E0829F412D929F400D511D112457
:1012B0002091000230E0280F391F240F351F809144
:1012C000D7029091D802A091D902B091DA02432FAF
:1012D0005527840F951FA11DB11D8093D7029093B0
:1012E000D802A093D902B093DA0220930002789436
:1012F0000E944715D60150967C936E931F972E96A9
:101300000FB6F894DEBF0FBECDBFDF91CF910F9126
:10131000FF90EF90DF90CF90BF90AF900895EF9245
:10132000FF920F93E12CF12C00E00E94D9080F915D
:10133000FF90EF900895EF92FF920F93E12CF12C24
:1013400001E00E94D9080F91FF90EF900895EF926D
:10135000FF920F93CF93DF9300D01F92CDB7DEB7EC
:10136000AB0119821A821B82E12CF12C00E09E0154
:101370002F5F3F4FB9010E94D9080F900F900F9037
:10138000DF91CF910F91FF90EF900895CF92DF9270
:10139000EF92FF92CF93DF93C0911001D0E0BE0196
:1013A000882777FD8095982F0E9478186B017C0123
:1013B00023EC35EF48E25FE30E942C190E944A18A3
:1013C0006093FF0123EC35EF48EA5EE3C701B60105
:1013D0000E942C190E944A186093FE018091C2015C
:1013E0009091C3019093C1018093C0019093BF017C
:1013F0008093BE01D093BD01C093BC018AE991E006
:10140000DF91CF91FF90EF90DF90CF900C940C0F75
:101410008091310290E020913202821B910908955F
:101420002091320280913102281750F4E22FF0E02F
:10143000ED5CFD4F808190E02F5F20933202089594
:101440008FEF9FEF0895E091320280913102E8170B
:1014500030F4F0E0ED5CFD4F808190E008958FEF77
:101460009FEF08950895CF92DF92EF92FF920F932E
:101470001F93CF93DF937C01CB018A0120910D0252
:10148000222389F0EB016B01C40ED51ECC15DD05BE
:1014900069F06991D701ED91FC910190F081E02D07
:1014A000C7010995F3CF642F0E94F00BC801DF91AB
:1014B000CF911F910F91FF90EF90DF90CF90089503
:1014C000CF93DF931F92CDB7DEB7698320910D02D2
:1014D0002223D1F020910E02203240F021E030E0B2
:1014E000FC013383228380E090E015C080910F02DD
:1014F000E82FF0E0E05FFD4F998190838F5F80934C
:101500000F0280930E0205C061E0CE0101960E9499
:10151000F00B81E090E00F90DF91CF910895FC01F6
:101520001382128248EE53E060E070E044835583FA
:10153000668377838BE691E0918380830895109290
:1015400032021092310210920F0210920E020C948D
:10155000330B81E080930D026093300210920F02F2
:1015600010920E0208950C94A90A0F93062F21E001
:1015700040910E0260E172E0809130020E94990B6E
:1015800010920F0210920E0210920D020F91089508
:101590008F929F92AF92BF92CF92DF92EF92FF9283
:1015A0000F931F93CF93DF93EC01F62ED42E4801B7
:1015B0005901EE2019F10E94A90A1E2D143008F0DD
:1015C00013E01150B8F0E881F98128E0129FB001D2
:1015D0001124A501940104C0569547953795279588
:1015E0006A95D2F7CA01B9010190F081E02DCE01D0
:1015F0000995E7CF60E0CE010E94B50A4D2D41323A
:1016000008F040E22C2D63E372E08F2D0E94510B15
:101610001092320280933102DF91CF911F910F918E
:10162000FF90EF90DF90CF90BF90AF909F908F9002
:101630000895CF92EF920F931F93C22EE12C00E0FA
:1016400010E098010E94C80A1F910F91EF90CF906F
:10165000089521E00C94190B61E00C94B50A81E027
:1016600092E00C948F0A1092C00281E08093BE0237
:101670001092BD0261E082E10E94C81661E083E140
:101680000E94C816E9EBF0E080818E7F8083808124
:101690008D7F808388E48093B80085E48093BC00CC
:1016A0000895413208F043C09091C0029111FCCFDF
:1016B00091E09093C0022093BE022FEF209353023B
:1016C00010929802240F209397029093BF0290915A
:1016D000BF02880F892B8093BF028091BD028130A9
:1016E00061F41092BD028091BF028093BB00809193
:1016F000BC0083FDF8CF85EC01C085EE8093BC0073
:101700008091C0028130E1F380919802841710F437
:101710004091980229E932E0FB01D9018A2F821B0E
:10172000841718F48D918193F9CF842F089580E068
:1017300008950F93413208F04AC09091C002911170
:10174000FCCF92E09093C0020093BE029FEF909373
:1017500053021092980240939702FB0169E972E0EC
:10176000DB019A2F961B941718F491919D93F9CF52
:101770001092BF029091BF02880F892B8093BF0205
:101780008091BD02813061F41092BD028091BF0250
:101790008093BB008091BC0083FDF8CF85EC01C035
:1017A00085EE8093BC00222321F08091C00282301C
:1017B000E1F3809153028F3F61F0809153028032B8
:1017C00051F080915302803341F483E007C081E0FF
:1017D00005C080E003C082E001C084E00F9108955D
:1017E000613298F42091C002243089F4609375022C
:1017F000FC0187E792E0DC012A2F281B261718F44A
:1018000021912D93F9CF80E0089581E0089582E041
:10181000089585ED8093BC008091BC0084FDFCCFD1
:101820001092C002089585EC8093BC001092C00213
:1018300008951F920F920FB60F9211242F933F938A
:101840004F935F936F937F938F939F93AF93BF93C8
:10185000EF93FF938091B900887F803609F49EC092
:1018600078F5883209F45DC090F4803109F456C0EF
:1018700038F4882309F4F5C0883009F44FC0F5C066
:10188000883109F44EC0803209F45FC0EEC0803464
:1018900009F46AC058F4803309F457C0883309F05A
:1018A000E4C0809353020E94130CDFC0803509F41A
:1018B0004FC0883509F45DC0883409F0D6C0D3C064
:1018C000883909F4C4C0A8F4883709F467C038F42B
:1018D000883609F463C0803709F460C0C6C0883810
:1018E00009F4B5C0803909F45FC0803809F0BDC083
:1018F0005BC0803B09F483C038F4803A09F466C0C9
:10190000883A09F47CC0B1C0803C09F4A4C0883C8A
:1019100009F4A1C0883B09F487C0A7C08091BF0229
:1019200010C09091980280919702981770F5E091FD
:10193000980281E08E0F80939802F0E0E756FD4F09
:1019400080818093BB0085EC83C0809353028BC061
:10195000E091980281E08E0F809398028091BB0005
:10196000F0E0E756FD4F80839091980280919702B6
:101970006BC0E091980281E08E0F80939802809175
:10198000BB00F0E0E756FD4F80838091BE028111DD
:101990006AC081E08093BD0284EA5EC083E08093E8
:1019A000C00210925402CFCF80915402803208F0CE
:1019B0004EC0E091540281E08E0F809354028091DA
:1019C000BB00F0E0EB5AFD4F8083BDCF0E94130CAB
:1019D00080915402803230F4E0915402F0E0EB5AEE
:1019E000FD4F10826091540270E0E091B902F091D5
:1019F000BA0285E592E009951092540236C084E05F
:101A00008093C0021092760210927502E091BB02A0
:101A1000F091BC02099580917502811105C081E0A9
:101A20008093750210927702E091760281E08E0F2A
:101A300080937602F0E0E958FD4F80818093BB00EF
:101A40009091760280917502981708F47CCF85E812
:101A50008093BC000AC085EC8093BC001092C00249
:101A600004C0109253020E94090CFF91EF91BF91A4
:101A7000AF919F918F917F916F915F914F913F9126
:101A80002F910F900FBE0F901F901895682F81E037
:101A900092E00C94600ACF93DF93EC01683008F079
:101AA00067E0688381E092E00E949F0A688160623B
:101AB00070E081E092E00E94B30A80E00E94460D4F
:101AC0008FEF0E94460D81E092E00E942C0B68810E
:101AD000606270E081E092E00E94B30A81E00E94BF
:101AE000460D8FEF0E94460D81E092E0DF91CF918D
:101AF0000C942C0B60E00C944B0DCF93DF93D62FFE
:101B0000C72FFC0190819062692F70E081E092E024
:101B10000E94B30A82E10E94460D8D2F0E94460D5D
:101B20008C2F0E94460D81E092E0DF91CF910C94C2
:101B30002C0BFF920F931F93CF93DF93EC01162F83
:101B4000F42E603108F045C0683018F018500DE0F0
:101B500001C00CE06881606270E081E092E00E9468
:101B6000B30A802F0E94460D81E092E00E942C0B68
:101B70006881606270E041E050E081E092E00E94A4
:101B8000290B81E092E00E94100A91E021E030E010
:101B900001C0220F1A95EAF7122FF91202C0182B72
:101BA00002C0109518236881606270E081E092E0C5
:101BB0000E94B30A802F0E94460D812F0E94460D7D
:101BC00081E092E0DF91CF911F910F91FF900C94F3
:101BD0002C0BDF91CF911F910F91FF9008950F93E0
:101BE0001F93CF93DF93EC01162F603148F56830D7
:101BF00018F0185003E101C002E16881606270E0F2
:101C000081E092E00E94B30A802F0E94460D81E09D
:101C100092E00E942C0B6881606270E041E050E02D
:101C200081E092E00E94290B81E092E00E94100A7C
:101C3000992702C0959587951A95E2F7817001C0A2
:101C400080E0DF91CF911F910F910895CF93DF93A3
:101C5000EC016881606270E081E092E00E94B30A6A
:101C600082E10E94460D81E092E00E942C0B688187
:101C7000606270E042E050E081E092E00E94290B57
:101C800081E092E00E94100AC82F81E092E00E9459
:101C9000100A982F88278C2BDF91CF910895FF92FF
:101CA0000F931F93CF93DF93EC01162FF42E603127
:101CB00008F044C0683018F0185001E001C000E09E
:101CC0006881606270E081E092E00E94B30A802F38
:101CD0000E94460D81E092E00E942C0B68816062B8
:101CE00070E041E050E081E092E00E94290B81E049
:101CF00092E00E94100A21E030E001C0220F1A9504
:101D0000EAF7122FF11002C0182B02C01095182309
:101D10006881606270E081E092E00E94B30A802FE7
:101D20000E94460D812F0E94460D81E092E0DF91D6
:101D3000CF911F910F91FF900C942C0BDF91CF91BD
:101D40001F910F91FF900895CF92DF92FF920F9312
:101D50001F93CF93DF931F92CDB7DEB76C01162F81
:101D6000F42E603108F04FC0683020F0185025E1A3
:101D700003E102C024E102E1F6016081606270E0EB
:101D800081E092E029830E94B30A2981822F0E9478
:101D9000460D81E092E00E942C0BF60160816062AA
:101DA00070E041E050E081E092E00E94290B81E088
:101DB00092E00E94100AF1E021E030E001C0220F21
:101DC0001A95EAF7122FFF1202C0182B02C01095C5
:101DD0001823F6016081606270E081E092E00E9469
:101DE000B30A802F0E94460D812F0E94460D81E08C
:101DF00092E00F90DF91CF911F910F91FF90DF90B4
:101E0000CF900C942C0B0F90DF91CF911F910F91DD
:101E1000FF90DF90CF900895FC01138212828BE730
:101E200091E091838083128E148A8FE084838EE008
:101E300085838DE086838CE087838BE080878AE0D2
:101E4000818789E08287178681E0808B82E0818BA1
:101E500083E0828B84E0838B0895262FFC01328DF2
:101E60003F3F19F04B960C94A40E642F822F0C94D4
:101E7000C8160F931F93CF93DF93062FEC016B9639
:101E800011E062FB442740F9412768E0CE010E943F
:101E9000A40E01FB442740F9412767E0CE010E94D0
:101EA000A40E402F4170412766E0CE01DF91CF9113
:101EB0001F910F910C94A40E262FFC01328D3F3FF1
:101EC00019F04B960C944F0E642F822F0C948F16A2
:101ED000CF93DF93EC0140E06E810E942D0F81E0F3
:101EE00090E00E94A41541E06E81CE010E942D0F6A
:101EF00081E090E00E94A41540E06E81CE010E9436
:101F00002D0F84E690E0DF91CF910C94A415AF9251
:101F1000BF92CF92DF92EF92FF920F931F93CF93D6
:101F2000DF93EC018A8DA62EB12C8F3F09F472C08D
:101F30007E018BE1E80EF11CC7010E94260E9C0178
:101F400080E090E061E070E0FE01E80FF91FE781BA
:101F5000CC24C394D12CAB010E2E02C0440F551FCC
:101F60000A94E2F74095509524233523A501082EC5
:101F700002C0559547950A94E2F74170552702C073
:101F8000440F551FEA95E2F7242B352B0196843038
:101F90009105D1F686010E8002C0000F111F0A9430
:101FA000E2F70095109502231323B801C7010E94A0
:101FB0007D0D81E090E00E94A41556010E8002C0C4
:101FC000AA0CBB1C0A94E2F7A02AB12AB501C701EA
:101FD0000E947D0D81E090E00E94A415B6010E8064
:101FE00002C0660F771F0A94E2F7609570956A2128
:101FF0007B21C7010E947D0D84E690E0DF91CF91A7
:102000001F910F91FF90EF90DF90CF90BF90AF9016
:102010000C94A41500E010E07E01E00EF11E41E0FA
:10202000F7016781CE010E945C0FA501002E02C05E
:10203000559547950A94E2F74170F7016781CE0103
:102040000E942D0F0F5F1F4F0430110529F7CE019D
:10205000DF91CF911F910F91FF90EF90DF90CF9084
:10206000BF90AF900C94680FCF92DF92EF92FF92E7
:102070000F931F93CF93DF938C01C0E0D0E0C62E67
:10208000D12C7801EC0EFD1E41E0F7016781C801FB
:102090000E945C0FA6010C2E02C0559547950A942C
:1020A000E2F74170F7016781C8010E942D0F219668
:1020B000C830D10531F7C801DF91CF911F910F9141
:1020C000FF90EF90DF90CF900C94680F1F93CF9309
:1020D000DF93EC01162F6C810E942D0F6D816F3FF5
:1020E00021F040E0CE010E942D0F8C89612F84FFEA
:1020F00006C0CE01DF91CF911F910C94341070E097
:1021000054E0759567955A95E1F7CE010E94870FC7
:10211000612FCE01DF91CF911F910C94870F40E08A
:102120000C94661061E00E948F1080ED97E00C9493
:10213000A415CF93DF93CDB7DEB728970FB6F894E9
:10214000DEBF0FBECDBF28E0E6E1F1E0DE01119673
:1021500001900D922A95E1F7FC01208D241710F4CF
:102160004FEF420FFE013196E40FF11DE40FF11D18
:102170002081260F2068622F28960FB6F894DEBFC4
:102180000FBECDBFDF91CF910C948F10FC016589FC
:10219000262F2460258B6C600C948F10AF92BF9219
:1021A000CF92DF92EF92FF920F931F93CF93DF9323
:1021B000EC01B42EA22E8A8D8F3F41F481E08B1565
:1021C00008F05CC08C8988608C8B58C081E092E0FC
:1021D0000E949F0A8E01055E1F4FC8010E947A0D62
:1021E00041E068E0C8010E944F0E41E066E0C8018E
:1021F0000E944F0E41E067E0C8010E944F0E67E069
:10220000CE010E94390F6D81662321F041E0C801A3
:102210000E944F0E41E06C81C8010E944F0E41E0C8
:102220006E81C8010E944F0EE12CF12CFE01EE0DD3
:10223000FF1D41E06781C8010E944F0EEFEFEE1ACB
:10224000FE0AF4E0EF16F10489F7E12CF12C6E019F
:10225000CE0CDF1C40E0F6016785C8010E944F0EDE
:1022600041E0F6016785C8010E94990DFFEFEF1A62
:10227000FF0A85E0E816F10451F7A0CFB88E198E59
:10228000AA2031F0E1E0BE1203C08C8984608C8BFF
:1022900080E593EC0E94A41540E06C81CE010E9481
:1022A0002D0F40E06E81CE010E942D0F6D816F3F9A
:1022B00021F040E0CE010E942D0F6C8964FD1DC00D
:1022C00063E0CE010E94870F84E991E10E94A4158A
:1022D00063E0CE010E94870F84E991E10E94A4157A
:1022E00063E0CE010E94870F86E990E00E94A4156A
:1022F00062E0CE010E94870F16C06062CE010E948C
:102300008F1084E991E10E94A4156C896062CE016E
:102310000E948F1086E990E00E94A4156C8960628B
:10232000CE010E948F106C896062CE010E948F10D6
:1023300084E08D8BCE010E94C610CE010E949210C7
:1023400082E08E8B66E0CE01DF91CF911F910F91DD
:10235000FF90EF90DF90CF90BF90AF900C948F10D4
:1023600041E00E94661081E090E00895DF92EF92D4
:10237000FF920F931F93CF93DF938C01C0E0D0E0C7
:102380006FE1D62E7C018BE1E80EF11CF801EC0F19
:10239000FD1F6785C7010E94EF0D282F30E00C2E2E
:1023A00002C0220F331F0A94E2F7209530958D2D3D
:1023B00090E028233923D22E2196C530D10531F75C
:1023C000822FDF91CF911F910F91FF90EF90DF90BF
:1023D0000895FA0120E030E00396261737076CF4E1
:1023E0004081DC0113974C93418111964C934281BB
:1023F00011964C932F5F3F4FEFCF08958F929F928E
:10240000AF92BF92EF92FF920F931F93CF93DF9300
:10241000EC01188219821A824423B9F1E0E0F0E05D
:102420008B010A5F1F4F7B0189E0E80EF11C842EAF
:10243000912CA12CB12CD801AE0FBF1F2C91D7012C
:10244000AE0FBF1F6C912223E1F06623D1F030E084
:1024500040E050E02F5F3F4F4F4F5F4F70E080E014
:1024600090E06F5F7F4F8F4F9F4F0E948F199B01AE
:10247000AC01C501B4010E948F19DE01AE0FBF1F70
:102480008C933196E330F105B1F6CE01DF91CF9117
:102490001F910F91FF90EF90BF90AF909F908F9002
:1024A0000895CF92DF92EF92FF92CF93DF93EC01EA
:1024B0008091C5029091C6029C012F5F3F4F3093DF
:1024C000C6022093C502861797079CF10E943B1510
:1024D0009B01AC01E091C502F091C60288EE93E049
:1024E000E89FB001E99F700DF89F700D11248827B7
:1024F00077FD8095982FC090C102D090C202E090E5
:10250000C302F090C4022C193D094E095F090E94D4
:10251000C7193A8329831092C6021092C5020E94FD
:102520003B156093C1027093C2028093C3029093E3
:10253000C402DF91CF91FF90EF90DF90CF9008958C
:10254000AF92BF92CF92DF92EF92FF920F931F93C1
:10255000CF93DF9300D01F92CDB7DEB78C01B62E9C
:10256000F80183819481A581B681892B8A2B8B2BDD
:10257000D1F00E944715C090C702D090C802E090E9
:10258000C902F090CA026C197D098E099F09D80111
:102590001396CD90DD90ED90FC9016976C157D050F
:1025A0008E059F05E8F20E9447156093C70270935D
:1025B000C8028093C9029093CA02E090CD02F090C5
:1025C000CE02E114F10451F1F701A484D80111966F
:1025D0008D919C9112978436910508F41486D70149
:1025E000ED91FC91C280D3804B2DB701CE010196B5
:1025F0000E94FE11F70145855685628173819E0117
:102600002F5F3F4FC701F6010995D7011C96AC9289
:102610001C971496ED90FC901597D3CF69E170E06C
:10262000C8010E9451120F900F900F90DF91CF912F
:102630001F910F91FF90EF90DF90CF90BF90AF90E0
:1026400008958F929F92AF92BF92CF92DF92EF92B6
:10265000FF920F931F93CF93DF9300D01F92CDB7BC
:10266000DEB78C017B01D42EF80183819481A58192
:10267000B681892B8A2B8B2BD1F00E944715809035
:10268000C7029090C802A090C902B090CA0268190F
:1026900079098A099B09D80113968D909D90AD9078
:1026A000BC901697681579058A059B05E8F20E948B
:1026B00047156093C7027093C8028093C902909334
:1026C000CA02A090CD02B090CE02A114B10449F18B
:1026D000F501C484D80111968D919C91129784368E
:1026E000910508F41486D501ED91FC9180809180CC
:1026F0004D2DB501CE0101960E94FE11F5014585D3
:1027000056859E012F5F3F4FB701C501F401099522
:10271000D5011C96CC921C971496AD90BC90159741
:10272000D4CF69E170E0C8010E9451120F900F9060
:102730000F90DF91CF911F910F91FF90EF90DF905D
:10274000CF90BF90AF909F908F900895CF92DF92DF
:10275000EF92FF920F931F93CF93DF93EC014423EB
:10276000F1F06115710581F19B0140E050E060E4FA
:1027700072E48FE090E00E94E919CB80DC80ED806C
:10278000FE8089019A010C151D052E053F0510F4E8
:10279000970186010B831C832D833E8315C0611531
:1027A000710571F09B0140E050E060E472E48FE05D
:1027B00090E00E94E9192B833C834D835E8304C023
:1027C0001B821C821D821E82DF91CF911F910F916F
:1027D000FF90EF90DF90CF900895CF92DF92EF922D
:1027E000FF920F931F93CF93DF93EC016B018A014C
:1027F0007901121613061CF07A0100E010E0E8815E
:10280000F9810480F581E02DCE010995C801880F7A
:10281000991F800F911F8C0D9D1D9B838A83FE86BF
:10282000ED86E881F9810084F185E02DCE010995DE
:1028300041E0BC018FEC92E00E94A613CE01DF9133
:10284000CF911F910F91FF90EF90DF90CF9008955F
:102850008FEF8093CF021092D1021092D002089590
:10286000FC012081222321F0269F212D09F02F5FDA
:10287000FC0120830895FF920F931F93CF93DF9362
:1028800000D000D0CDB7DEB7FC018B014081F180D4
:102890005281842F8F71880F880F880F282F35E57C
:1028A000239F212D1124342F3074942F907247FDD3
:1028B00025C031110EC0911106C0822F80958B83E7
:1028C0002A8319823FC08BEA8B832B5A2A83198271
:1028D00039C091110DC0382F4AEA349F312D11248F
:1028E0009BEA931B9B8325552A83198280E02AC08B
:1028F0001B8280E0822F80958A8312C0311112C022
:1029000091110BC01B82282F3AEA239F212D1124FD
:102910008BEA821B8A832B5A03C02B831A82209551
:10292000298310C0911106C085E5820F8B831A821E
:102930008BEA06C08BEA820F8B831A8280E085E5E2
:10294000821B89832FEFF21601F16F2DCE010396C2
:102950005C830E9430146F2DCE0102960E943014C9
:102960006F2DCE0101960E94301411246F2D6095B9
:10297000669F612D11248B81860F8B838A81860F40
:102980008A838981860F89835C815F3FC9F0F12C3E
:102990002F2D552321F0559F212D09F02F5FF22E69
:1029A000622FCE0103960E9430146F2DCE01029645
:1029B0000E9430146F2DCE0101960E943014112414
:1029C0008B81F80180838A818183898182830F9042
:1029D0000F900F900F90DF91CF911F910F91FF906B
:1029E00008951F920F920FB60F9211242F933F93C9
:1029F0008F939F93AF93BF938091D7029091D8020A
:102A0000A091D902B091DA023091D60223E0230FCF
:102A10002D3720F40196A11DB11D05C026E8230F16
:102A20000296A11DB11D2093D6028093D7029093E8
:102A3000D802A093D902B093DA028091DB02909180
:102A4000DC02A091DD02B091DE020196A11DB11D54
:102A50008093DB029093DC02A093DD02B093DE0250
:102A6000BF91AF919F918F913F912F910F900FBE8A
:102A70000F901F9018952FB7F8946091D70270911E
:102A8000D8028091D9029091DA022FBF08953FB702
:102A9000F8948091DB029091DC02A091DD02B0916C
:102AA000DE0226B5A89B05C02F3F19F00196A11D97
:102AB000B11D3FBF6627782F892F9A2F620F711D96
:102AC000811D911D42E0660F771F881F991F4A954F
:102AD000D1F708958F929F92AF92BF92CF92DF92DB
:102AE000EF92FF926B017C010E9447154B015C0144
:102AF000C114D104E104F104F1F00E9449180E94CC
:102B00004715681979098A099B09683E7340810550
:102B1000910570F321E0C21AD108E108F10888EEAE
:102B2000880E83E0981EA11CB11CC114D104E104DD
:102B3000F10429F7DDCFFF90EF90DF90CF90BF90A9
:102B4000AF909F908F9008958230910538F0880F54
:102B5000991F880F991F05970197F1F708957894A9
:102B600084B5826084BD84B5816084BD85B5826092
:102B700085BD85B5816085BDEEE6F0E08081816030
:102B80008083E1E8F0E01082808182608083808130
:102B900081608083E0E8F0E0808181608083E1EB08
:102BA000F0E0808184608083E0EBF0E080818160F0
:102BB0008083EAE7F0E080818460808380818260A6
:102BC000808380818160808380818068808310928F
:102BD000C10008958E3008F08E5087702091150145
:102BE00090E4299F90011124822B80937C00809196
:102BF0007A00806480937A0080917A0086FDFCCF11
:102C0000809178002091790090E0922B08951F9395
:102C1000CF93DF93182FEB0161E00E948F1620976E
:102C200011F460E004C0CF3FD10539F461E0812F99
:102C3000DF91CF911F910C94C816E12FF0E0E0587E
:102C4000FF4FE491E330F9F048F4E130B9F0E230BD
:102C5000A1F584B5806284BDC8BD34C0E730E9F019
:102C6000E83019F1E43049F580918000806280936A
:102C70008000D0938B00C0938A0024C084B5806804
:102C800084BDC7BD1FC08091800080688093800094
:102C9000D0938900C093880015C08091B0008068EF
:102CA0008093B000C093B3000DC08091B0008062EB
:102CB0008093B000C093B40005C0C038D1050CF0BB
:102CC000B5CFAFCFDF91CF911F910895833081F0C1
:102CD00028F4813099F08230A1F008958730A9F06E
:102CE0008830B9F08430D1F4809180008F7D03C0AA
:102CF000809180008F7780938000089584B58F77CE
:102D000002C084B58F7D84BD08958091B0008F7717
:102D100003C08091B0008F7D8093B0000895CF9361
:102D2000DF9390E0FC01EC56FF4F2491FC01E85545
:102D3000FF4F8491882349F190E0880F991FFC018F
:102D4000EA53FF4FA591B49184549F4FFC01C59164
:102D5000D4919FB7611108C0F8948C91209582237B
:102D60008C93888182230AC0623051F4F8948C914C
:102D7000322F309583238C938881822B888304C0E3
:102D8000F8948C91822B8C939FBFDF91CF91089503
:102D90000F931F93CF93DF931F92CDB7DEB7282FEA
:102DA00030E0F901E058FF4F8491F901EC56FF4FF4
:102DB0001491F901E855FF4F04910023C9F08823CD
:102DC00021F069830E9466166981E02FF0E0EE0F22
:102DD000FF1FE454FF4FA591B4919FB7F8948C91D5
:102DE000611103C01095812301C0812B8C939FBF7B
:102DF0000F90DF91CF911F910F91089508950E9438
:102E0000AF150E94FE160E949E01C0E0D0E00E9415
:102E1000C1032097E1F30E940000F9CFCF92DF9227
:102E2000EF92FF920F931F93CF93DF937C016A0180
:102E3000EB0100E010E00C151D0571F06991D70160
:102E4000ED91FC910190F081E02DC7010995892B4E
:102E500019F00F5F1F4FEFCFC801DF91CF911F9186
:102E60000F91FF90EF90DF90CF900895611571055D
:102E700081F0DB010D900020E9F7AD0141505109CF
:102E8000461B570BDC01ED91FC910280F381E02D94
:102E9000099480E090E008950C943617DC01ED91E0
:102EA000FC910190F081E02D09948F929F92AF9256
:102EB000BF92DF92EF92FF920F931F93CF93DF9316
:102EC000CDB7DEB7A1970FB6F894DEBF0FBECDBF6A
:102ED0007C01F42FD52ECB0119A2223008F42AE070
:102EE0008E010F5D1F4F822E912CA12CB12C6F2FC4
:102EF0007D2DA50194010E94C719F22FD32ECA017E
:102F0000015011096A3014F4E0E301C0E7E3E60F71
:102F1000D801EC93232B242B252B49F7B801C701AB
:102F20000E943617A1960FB6F894DEBF0FBECDBF34
:102F3000DF91CF911F910F91FF90EF90DF90BF90A5
:102F4000AF909F908F900895CF92DF92EF92FF9273
:102F50000F931F93CF93DF93EC016A017B0121153F
:102F6000310579F4E881F9810190F081E02D642F39
:102F7000DF91CF911F910F91FF90EF90DF90CF9055
:102F800009942A303105E9F477FF1AC06DE20E94F6
:102F90004E178C0144275527BA014C195D096E095B
:102FA0007F092AE0CE010E945517800F911FDF9103
:102FB000CF911F910F91FF90EF90DF90CF900895E8
:102FC0002AE0B701A601CE01DF91CF911F910F91A9
:102FD000FF90EF90DF90CF900C945517211531059D
:102FE00041F4DC01ED91FC910190F081E02D642F22
:102FF00009940C9455179A01462F50E060E070E058
:103000000C94EE174F925F926F927F92AF92BF92A5
:10301000CF92DF92EF92FF920F931F93CF93DF93A4
:10302000CDB7DEB729013A01621B730B840B950BF8
:1030300029893A894B895C892A193B094C095D0920
:10304000298B3A8B4B8B5C8B9B01AC0169897A890C
:103050008B899C890E948F19E418F50806091709C5
:10306000A80197010E94E9192A0D3B1D4C1D5D1D09
:10307000CA01B901DF91CF911F910F91FF90EF909D
:10308000DF90CF90BF90AF907F906F905F904F9008
:1030900008950895BCD088F09F5790F0B92F9927D4
:1030A000B751A0F0D1F0660F771F881F991F1AF053
:1030B000BA95C9F712C0B13081F0C3D0B1E008951C
:1030C000C0C0672F782F8827B85F39F0B93FCCF39D
:1030D000869577956795B395D9F73EF49095809549
:1030E000709561957F4F8F4F9F4F0895E89409C069
:1030F00097FB3EF490958095709561957F4F8F4F2B
:103100009F4F9923A9F0F92F96E9BB279395F69540
:10311000879577956795B795F111F8CFFAF4BB0FBE
:1031200011F460FF1BC06F5F7F4F8F4F9F4F16C022
:10313000882311F096E911C0772321F09EE8872FAC
:10314000762F05C0662371F096E8862F70E060E068
:103150002AF09A95660F771F881FDAF7880F9695E1
:10316000879597F90895990F0008550FAA0BE0E885
:10317000FEEF16161706E807F907C0F01216130639
:10318000E407F50798F0621B730B840B950B39F479
:103190000A2661F0232B242B252B21F408950A26DF
:1031A00009F4A140A6958FEF811D811D089597F91F
:1031B0009F6780E870E060E008959FEF80EC0895DD
:1031C00000240A9416161706180609060895002406
:1031D0000A9412161306140605060895092E039480
:1031E000000C11F4882352F0BB0F40F4BF2B11F4F4
:1031F00060FF04C06F5F7F4F8F4F9F4F089557FD53
:103200009058440F551F59F05F3F71F04795880F54
:1032100097FB991F61F09F3F79F0879508951216EB
:1032200013061406551FF2CF4695F1DF08C0161697
:1032300017061806991FF1CF869571056105089448
:103240000895E894BB2766277727CB0197F908955F
:103250008ADF08F48FEF08950BD0C0CFB1DF28F0DC
:10326000B6DF18F0952309F0A2CFA7CF1124EACF3B
:10327000C6DFA0F3959FD1F3950F50E0551F629FD5
:10328000F001729FBB27F00DB11D639FAA27F00DBF
:10329000B11DAA1F649F6627B00DA11D661F829FE6
:1032A0002227B00DA11D621F739FB00DA11D621FCB
:1032B000839FA00D611D221F749F3327A00D611DE8
:1032C000231F849F600D211D822F762F6A2F1124CA
:1032D0009F5750408AF0E1F088234AF0EE0FFF1F1D
:1032E000BB1F661F771F881F91505040A9F79E3F54
:1032F000510570F05CCFA6CF5F3FECF3983EDCF356
:10330000869577956795B795F795E7959F5FC1F790
:10331000FE2B880F911D9695879597F90895DB01EF
:103320008F939F930E940F1ABF91AF91A29F800D20
:10333000911DA39F900DB29F900D11240895AA1B7B
:10334000BB1B51E107C0AA1FBB1FA617B70710F090
:10335000A61BB70B881F991F5A95A9F780959095C2
:10336000BC01CD01089597FB072E16F4009407D0F9
:1033700077FD09D00E949F1907FC05D03EF4909577
:1033800081959F4F0895709561957F4F0895A1E2B3
:103390001A2EAA1BBB1BFD010DC0AA1FBB1FEE1FCF
:1033A000FF1FA217B307E407F50720F0A21BB30B1A
:1033B000E40BF50B661F771F881F991F1A9469F796
:1033C00060957095809590959B01AC01BD01CF01F2
:1033D0000895052E97FB1EF400940E94001A57FDD5
:1033E00007D00E94C71907FC03D04EF40C94001AB2
:1033F00050954095309521953F4F4F4F5F4F089521
:1034000090958095709561957F4F8F4F9F4F089550
:103410000E94201AB7FF0895821B930B08950E9403
:10342000201AA59F900DB49F900DA49F800D911D13
:1034300011240895EE0FFF1F0590F491E02D0994DB
:10344000A29FB001B39FC001A39F700D811D1124E5
:10345000911DB29F700D811D1124911D0895F89446
:02346000FFCF9C
:103462000100000040400101030045014D015301EC
:103472008032000000010000400014005400426F3E
:103482006F74696E67004265726B616E61005265AE
:10349200616479002020202020202020202020206C
:1034A20020202020005061747465726E00436F6C9E
:1034B2006F7200537065656400000000008F099B05
:1034C200099800A709950000000000600A330A0865
:1034D2000A100A230A320A00000000B0110E170077
:00000001FF
