:100000000C946B000C9493000C9493000C9493004C
:100010000C9493000C9493000C9493000C94930014
:100020000C9493000C9493000C9493000C94930004
:100030000C9493000C9493000C9493000C949300F4
:100040000C94FE140C9493000C9493000C94930065
:100050000C9493000C9493000C9493000C949300D4
:100060000C94260C0C9493004000FF000000FF004D
:10007000A000FF006000FF00C000FF00FF000000C4
:100080000000000800020100000304070000000057
:100090000000000001020408102040800102040852
:1000A00010200102040810200404040404040404C1
:1000B0000202020202020303030303030000000022
:1000C000250028002B0000000000240027002A0043
:1000D000D3093C0B351411241FBECFEFD8E0DEBF8F
:1000E000CDBF11E0A0E0B1E0ECE7F4E302C0059081
:1000F0000D92A63FB107D9F723E0A6EFB1E001C00A
:100100001D92A335B207E1F710E0C6EDD0E004C0C0
:100110002297FE010E94291AC03DD107C9F70E940B
:100120000C170C943C1A0C94000080E991E008959F
:10013000239A0895FC0160810C94AD12CF93DF9354
:10014000EC01688170E085E00E941416698170E01E
:1001500086E00E9414166A8170E083E0DF91CF91FF
:100160000C94141620913A0230913B02263031054E
:10017000DCF4F901EE0FFF1FEE0FFF1FE859FF4FF0
:1001800085919591A591B49190934B0280934A02E9
:10019000F901EE0FFF1FEE0FFF1FE659FF4F85918C
:1001A0009591A591B49109C02630310551F4109272
:1001B0004B0210924A028FEF90E090934D02809391
:1001C0004C028091400290914102A0914202B09174
:1001D0004302409144025091450260914602709161
:1001E0004702841B950BA60BB70B4091130150914E
:1001F00014016091150170911601481759076A079B
:100200007B07ACF460E070E0CB010E947715809131
:10021000400290914102A0914202B091430280932A
:10022000440290934502A0934602B093470208957A
:100230000F931F93CF93DF9300D01F92CDB7DEB7FC
:100240001FEF19831A821B82CE0101960E949E0025
:1002500019831A821B82AE014F5F5F4F6CE070E022
:100260008EE492E00E94F61183E493E00E949A00EB
:1002700064EF71E080E090E00E947715198200E859
:100280000A831B82CE0101960E949E0019820A8376
:100290001B82AE014F5F5F4F6CE070E08EE492E036
:1002A0000E94F61183E493E00E949A0064EF71E0EB
:1002B00080E090E00E94771519821A821B83CE019C
:1002C00001960E949E0019821A821B83AE014F5F25
:1002D0005F4F6CE070E08EE492E00E94F61183E4E0
:1002E00093E00E949A0064EF71E080E090E00E9449
:1002F000771519821A821B82CE0101960E949E00F8
:1003000019821A821B82AE014F5F5F4F6CE070E072
:100310008EE492E00E94F61183E493E00E949A003A
:1003200064EF71E080E090E00E9477150F900F90ED
:100330000F90DF91CF911F910F910895CF93DF938D
:1003400000D01F92CDB7DEB720E042E060E180E14F
:1003500092E00E94DB1060E271E080E192E00E9496
:10036000591761E080E192E00E94460F68EB7BE064
:1003700080E090E00E94771580910802811145C0CD
:100380001092FA011092F9018FEF8093FD01809392
:10039000FE018093FF01809300028093010280930D
:1003A000020281E08093030210920502109204027F
:1003B0001092FC011092FB01809141039091420345
:1003C000892B31F487EF91E09093420380934103AE
:1003D000E0913F03F0914003309721F087EF91E0E7
:1003E0009583848387EF91E09093400380933F034C
:1003F000109207021092060284ED91E09093F801AA
:100400008093F70181E08093080220E030E04CE027
:1004100050E06EE472E087EF91E00E94FA131982D7
:100420001A821B82AE014F5F5F4F6CE070E08EE47A
:1004300092E00E94F61183E493E00E949A0068EC37
:1004400070E080E090E00E94771561E085E00E9416
:100450009C1661E086E00E949C1661E083E00E94A9
:100460009C160E94180180E192E00E949F1062E0B9
:1004700080E192E00E94460F40E060E080E192E07F
:100480000E94A61068E271E080E192E00E94591794
:1004900041E060E080E192E00E94A61060E371E03C
:1004A00080E192E00E9459176EEE72E080E090E0E9
:1004B0000E9477150E94481560934402709345028C
:1004C00080934602909347020E94481560932E0243
:1004D00070932F02809330029093310210923F026A
:1004E00010923E022091480230914902F901EE0F2C
:1004F000FF1FEE0FFF1FE859FF4F85919591A591C2
:10050000B49190934B0280934A02F901EE0FFF1FC2
:10051000EE0FFF1FE659FF4F85919591A591B4917C
:1005200090934D0280934C020F900F900F90DF91AB
:10053000CF910895CF92DF92EF92FF92CF93DF9306
:1005400000D01F92CDB7DEB760914002709141029A
:100550008091420290914302C0904402D0904502A3
:10056000E0904602F09047026C197D098E099F09C0
:100570000E9485186B017C01609113017091140138
:1005800080911501909116010E9485182AE939E998
:1005900049E15EE30E9439199B01AC01C701B60134
:1005A0000E94351918160CF041C060E070E0CB01D4
:1005B0000E9477158091400290914102A0914202E1
:1005C000B09143028093440290934502A093460267
:1005D000B093470290911201809105012FEF280FEF
:1005E0002093050189838FEF8A839B8380912C025E
:1005F00090912D026CE070E00E94C019BC01660F62
:10060000771F680F791F625B7D4FCE0101960E94B4
:10061000481483E493E00E949A0080912C02909108
:100620002D02019690932D0280932C020F900F9033
:100630000F90DF91CF91FF90EF90DF90CF900895D2
:10064000CF92DF92EF92FF92CF93DF9300D000D052
:1006500000D0CDB7DEB76091400270914102809129
:10066000420290914302C0904402D0904502E09033
:100670004602F09047026C197D098E099F090E947D
:1006800085186B017C0160911301709114018091B8
:100690001501909116010E94851820E030E040E09D
:1006A0005FE30E9439199B01AC01C701B6010E94AA
:1006B000351918168CF560E070E0CB010E947715B3
:1006C0008091400290914102A0914202B091430278
:1006D0008093440290934502A0934602B093470250
:1006E00090911201809104012FEF280F20930401B3
:1006F0008C838FEF8D839E83BE016F5F7F4FCE0112
:1007000004960E94481440914303BE016F5F7F4FDF
:1007100083E493E00E942E1326960FB6F894DEBF72
:100720000FBECDBFDF91CF91FF90EF90DF90CF90C4
:10073000089580913802909139028730910564F4D0
:1007400021E02093070110923D0210923C02909309
:100750003B0280933A0208958730910541F410924C
:10076000070181E080933D0210923C0208950897B2
:1007700039F41092070110923D0281E080933C020F
:100780000895AF92BF92CF92DF92EF92FF920F93B4
:100790001F93CF93DF9300D000D000D0CDB7DEB74A
:1007A0008EE00E94F7159093090180930801BC0127
:1007B000882777FD8095982F1F921F921F922FEF09
:1007C0002F93A12CB12C6501EE24EA9413E0F12EB5
:1007D00000E010E020E030E0A9010E940F187093C3
:1007E0003302609332022091120130E00F900F909B
:1007F0000F900F902617370711F060931201809128
:1008000012011C829FEF9D838E83BE016F5F7F4F1D
:10081000CE0104960E944814CE0101960E949E00CB
:1008200041E060E080E192E00E94A610E091380291
:10083000F0913902EE0FFF1FE45FFE4F608171817E
:1008400080E192E00E9459170E94481500912E0203
:1008500010912F022091300230913102601B710BF8
:10086000820B930B613177428105910528F18091CC
:100870003802909139020997FCF4809106018111A8
:100880000FC040E060E080E192E00E94A61066E3C5
:1008900071E080E192E00E94591781E080930601A7
:1008A00040E060E080E192E00E94A61068E271E022
:1008B00080E192E00E94591780E192E00E94C3110A
:1008C000182F0E944815C0902E02D0902F02E09061
:1008D0003002F09031026C197D098E099F096E3447
:1008E00071408105910508F43DC1112309F43AC115
:1008F00080E192E00E949F1040E060E080E192E0A1
:100900000E94A61013FF29C08091360290913702F1
:10091000009721F480910A0190910B010197909327
:100920003702809336020E94481560932E0270931E
:100930002F02809330029093310210920601E091D1
:100940003602F0913702EE0FFF1FE45FFE4F608129
:10095000718180E192E00E94591712FF31C020910D
:1009600036023091370280910A0190910B01019774
:100970002817390729F4109237021092360206C060
:100980002F5F3F4F30933702209336020E94481565
:1009900060932E0270932F02809330029093310265
:1009A00010920601E0913602F0913702EE0FFF1F20
:1009B000E45FFE4F6081718180E192E00E945917EF
:1009C0008091380290913902012F0170029709F04D
:1009D00063C040E060E080E192E00E94A61014FF56
:1009E0001FC0409113015091140160911501709145
:1009F0001601433351056105710594F042535109C5
:100A0000610971094093130150931401609315011A
:100A1000709316012AE030E080E192E00E94B11765
:100A200011FF20C0409113015091140160911501F4
:100A300070911601483883E158076105710594F4F7
:100A40004E5C5F4F6F4F7F4F4093130150931401E3
:100A500060931501709316012AE030E080E192E086
:100A60000E94B1170023C1F08091340290913502A9
:100A7000909339028093380280E192E00E949F10A7
:100A800040E060E080E192E00E94A61068E271E040
:100A900080E192E00E9459178091380290913902CA
:100AA0000A97F1F540E060E080E192E00E94A61034
:100AB00014FF0DC060911201693448F064506093D6
:100AC00012014AE050E080E192E00E94081811FF14
:100AD0000DC0609112016C3F48F46C5F609312018D
:100AE0004AE050E080E192E00E9408180023D1F132
:100AF00080913402909135029093390280933802AC
:100B000080E192E00E949F1040E060E080E192E08E
:100B10000E94A61068E271E080E192E00E945917FD
:100B2000002301F1809138029091390290933502AF
:100B3000809334028091360290913702909339026B
:100B40008093380280E192E00E949F1040E060E0D4
:100B500080E192E00E94A61068E271E080E192E0FC
:100B60000E9459170E9499030E9448156093400201
:100B70007093410280934202909343028091070157
:100B800081110E94B20080913D0281110E949A025F
:100B900080913C0281110E94200326960FB6F894A2
:100BA000DEBF0FBECDBFDF91CF911F910F91FF90A0
:100BB000EF90DF90CF90BF90AF9008958F929F926B
:100BC000AF92BF92CF92DF92EF92FF920F931F935B
:100BD000CF93DF93EC01E881F98195B1986085B1FD
:100BE000877F85B938852D81D32ED21ADD82AD84D9
:100BF000AA81BB812B859C848A84EE80FC807985C8
:100C00001F810990D881C02D0981002331F0402F28
:100C10000D2D400F08F44FEF01C040E0042F029F5C
:100C2000012D1124C0E04C2F5C2F6C2F002CEA0109
:100C3000CC2E4C2D5D2F95B900C000C000C000C067
:100C400000C007FF85B962814427889400C000C0B6
:100C500000C000C000C000C0002C85B961116E0D3D
:100C600000C000C0002C00C000C095B900C000C08A
:100C700000C000C000C006FF85B908F46FEF88947B
:100C800000C000C000C000C000C000C000C085B9E6
:100C900090FC460F00C000C0002C00C000C095B9F9
:100CA00000C000C000C000C000C005FF85B9479566
:100CB000889491FC460F00C000C000C000C000C076
:100CC00000C0002C85B94795889400C000C0002C56
:100CD00000C000C095B900C000C000C000C000C086
:100CE00004FF85B992FC460F4795889400C000C068
:100CF00000C000C000C000C0002C85B993FC460FA6
:100D000000C000C0002C00C000C095B900C000C0E9
:100D100000C000C000C003FF85B94795889494FCCB
:100D2000460F00C000C000C000C000C000C0002CC2
:100D300085B94795889400C000C0002C00C000C051
:100D400095B900C000C000C000C000C002FF85B956
:100D500095FC460F4795889400C000C000C000C0B5
:100D600000C000C0002C85B996FC460F00C000C032
:100D7000002C00C000C095B900C000C000C000C079
:100D800000C001FF85B94795889497FC460F00C0C5
:100D900000C000C000C000C000C0002C85B947954D
:100DA000889400C000C0002C00C000C095B900C0ED
:100DB00000C000C000C000C000FF85B9E194E70E8C
:100DC00000C000C000C000C000C000C000C0002CB7
:100DD00085B9042F00C000C000C000C000C095B994
:100DE00000C000C000C000C000C007FF85B960811E
:100DF0004427889400C000C000C000C000C000C0EC
:100E0000002C85B961116F0D00C000C0002C00C01E
:100E100000C095B900C000C000C000C000C006FFFF
:100E200085B908F46FEF889400C000C000C000C00E
:100E300000C000C000C085B980FC460F00C000C0E3
:100E4000002C00C000C095B900C000C000C000C0A8
:100E500000C005FF85B94795889481FC460F00C006
:100E600000C000C000C000C000C0002C85B947957C
:100E7000889400C000C0002C00C000C095B900C01C
:100E800000C000C000C000C004FF85B982FC460F4E
:100E90004795889400C000C000C000C000C000C0DA
:100EA000002C85B983FC460F00C000C0002C00C098
:100EB00000C095B900C000C000C000C000C003FF62
:100EC00085B94795889484FC460F00C000C000C0D7
:100ED00000C000C000C0002C85B94795889400C0B0
:100EE00000C0002C00C000C095B900C000C000C008
:100EF00000C000C002FF85B985FC460F4795889465
:100F000000C000C000C000C000C000C0002C85B9F7
:100F100086FC460F00C000C0002C00C000C095B980
:100F200000C000C000C000C000C001FF85B94795E7
:100F3000889487FC460F00C000C000C000C000C0FD
:100F400000C0002C85B94795889400C000C0002CD3
:100F500000C000C095B900C000C000C000C000C003
:100F600000FF85B9EA0DF11D8894042F00C000C070
:100F700000C000C000C000C0002C85B9F194F10E83
:100F800000C000C0002C00C000C095B900C000C067
:100F900000C000C000C007FF85B961814427889464
:100FA00000C000C000C000C000C000C0002C85B957
:100FB00061116D0D00C000C0002C00C000C095B9CB
:100FC00000C000C000C000C000C006FF85B908F422
:100FD0006FEF889400C000C000C000C000C000C017
:100FE00000C085B920FD460F00C000C0002C00C025
:100FF00000C095B900C000C000C000C000C005FF1F
:1010000085B94795889421FD460F00C000C000C0F7
:1010100000C000C000C0002C85B94795889400C06E
:1010200000C0002C00C000C095B900C000C000C0C6
:1010300000C000C004FF85B922FD460F4795889483
:1010400000C000C000C000C000C000C0002C85B9B6
:1010500023FD460F00C000C0002C00C000C095B9A1
:1010600000C000C000C000C000C003FF85B94795A4
:10107000889424FD460F00C000C000C000C000C01E
:1010800000C0002C85B94795889400C000C0002C92
:1010900000C000C095B900C000C000C000C000C0C2
:1010A00002FF85B925FD460F4795889400C000C012
:1010B00000C000C000C000C0002C85B926FD460F4E
:1010C00000C000C0002C00C000C095B900C000C026
:1010D00000C000C000C001FF85B94795889427FD76
:1010E000460F00C000C000C000C000C000C0002CFF
:1010F00085B94795889400C000C0002C00C000C08E
:1011000095B900C000C000C000C000C000FF85B994
:10111000D194D30E042F00C000C000C000C000C096
:1011200000C000C085B900C000C0002C119709F0B4
:1011300082CDDF91CF911F910F91FF90EF90DF90C3
:10114000CF90BF90AF909F908F900895FF920F9394
:101150001F93CF93DF93EC018091F6018F5F982F5F
:1011600097709093F60180FD02C080E001C080E896
:1011700091FD8064947009F0806230E1F32EF80EE6
:1011800020E030E000E011E0FE01E20FF31F628595
:10119000662331F070E0C8010E94C0196F5F01C082
:1011A00060E067834F2D469F412D112444836623C1
:1011B00011F0615067832F5F3F4F2330310521F7D6
:1011C000DF91CF911F910F91FF900895AF92BF9241
:1011D000CF92DF92EF92FF920F93CF93DF93CDB731
:1011E000DEB72E970FB6F894DEBF0FBECDBF6C01F1
:1011F0005A01F901DC011C968C917A8369835C8326
:101200004B8390819B8791819C8792819D878130C0
:1012100029F4CE0101960E94A60806C01A861986F6
:1012200018861F821E821D8289819A818E0D911DD2
:101230009A838983002319F083E08E0D01C080E03A
:101240008E870E945415F60127853089621B730B27
:101250006A307105B0F3F894CE0101960E94DE0564
:1012600020EF33E0D5010E94151AE4E096958795AA
:1012700077956795EA95D1F720E030E04AE9A49E9A
:10128000212DB49E200D311D1124620F731F811D6D
:10129000911D693EF3E07F0781059105A8F1DC010E
:1012A000CB01885E9340A109B10942E0B695A795AC
:1012B000979587954A95D1F740E050E027E0829FC7
:1012C000412D929F400D511D11242091740230E058
:1012D000280F391F240F351F80914B0390914C0329
:1012E000A0914D03B0914E03432F5527840F951FB6
:1012F000A11DB11D80934B0390934C03A0934D030C
:10130000B0934E032093740278940E945415D60132
:1013100050967C936E931F972E960FB6F894DEBF6F
:101320000FBECDBFDF91CF910F91FF90EF90DF9077
:10133000CF90BF90AF900895EF92FF920F93E12C62
:10134000F12C00E00E94E6080F91FF90EF900895C5
:10135000EF92FF920F93E12CF12C01E00E94E6083E
:101360000F91FF90EF900895EF92FF920F93CF931C
:10137000DF9300D01F92CDB7DEB7AB0119821A827E
:101380001B82E12CF12C00E09E012F5F3F4FB90141
:101390000E94E6080F900F900F90DF91CF910F9170
:1013A000FF90EF900895CF92DF92EF92FF92CF934C
:1013B000DF93C0911201D0E0BE01882777FD8095B0
:1013C000982F0E9485186B017C0123EC35EF48E2D1
:1013D0005FE30E9439190E9457186093730223EC4F
:1013E00035EF48EA5EE3C701B6010E9439190E9451
:1013F000571860937202809138029091390290934D
:101400003702809336029093350280933402D09352
:101410003302C093320280E192E0DF91CF91FF90DE
:10142000EF90DF90CF900C94190F8091A50290E07F
:101430002091A602821B910908952091A602809115
:10144000A502281750F4E22FF0E0E955FD4F808106
:1014500090E02F5F2093A60208958FEF9FEF0895ED
:10146000E091A6028091A502E81730F4F0E0E9557A
:10147000FD4F808190E008958FEF9FEF08950895CC
:10148000CF92DF92EF92FF920F931F93CF93DF9350
:101490007C01CB018A0120918102222389F0EB019A
:1014A0006B01C40ED51ECC15DD0569F06991D7011D
:1014B000ED91FC910190F081E02DC7010995F3CFEA
:1014C000642F0E94FD0BC801DF91CF911F910F91F6
:1014D000FF90EF90DF90CF900895CF93DF931F920E
:1014E000CDB7DEB76983209181022223D1F020910C
:1014F0008202203240F021E030E0FC01338322837D
:1015000080E090E015C080918302E82FF0E0EC5776
:10151000FD4F998190838F5F809383028093820235
:1015200005C061E0CE0101960E94FD0B81E090E0D4
:101530000F90DF91CF910895FC011382128248EE43
:1015400053E060E070E0448355836683778382EEE6
:1015500091E09183808308951092A6021092A502D3
:1015600010928302109282020C94400B81E08093CF
:1015700081026093A4021092830210928202089565
:101580000C94B60A0F93062F21E04091820264E882
:1015900072E08091A4020E94A60B10928302109226
:1015A0008202109281020F9108958F929F92AF92C2
:1015B000BF92CF92DF92EF92FF920F931F93CF9340
:1015C000DF93EC01F62ED42E48015901EE2019F1DB
:1015D0000E94B60A1E2D143008F013E01150B8F026
:1015E000E881F98128E0129FB0011124A50194013E
:1015F00004C056954795379527956A95D2F7CA0145
:10160000B9010190F081E02DCE010995E7CF60E0AE
:10161000CE010E94C20A4D2D413208F040E22C2D2D
:1016200067EA72E08F2D0E945E0B1092A6028093F3
:10163000A502DF91CF911F910F91FF90EF90DF9066
:10164000CF90BF90AF909F908F900895CF92EF92E0
:101650000F931F93C22EE12C00E010E098010E942E
:10166000D50A1F910F91EF90CF90089521E00C942F
:10167000260B61E00C94C20A85E792E00C949C0A68
:101680001092340381E0809332031092310361E0C1
:1016900082E10E94D51661E083E10E94D516E9EB54
:1016A000F0E080818E7F808380818D7F808388E4DD
:1016B0008093B80085E48093BC000895413208F01F
:1016C00043C0909134039111FCCF91E09093340387
:1016D000209332032FEF2093C70210920C03240FA4
:1016E00020930B039093330390913303880F892B3E
:1016F0008093330380913103813061F41092310380
:10170000809133038093BB008091BC0083FDF8CFB0
:1017100085EC01C085EE8093BC008091340381305C
:10172000E1F380910C03841710F440910C032DE039
:1017300033E0FB01D9018A2F821B841718F48D91A5
:101740008193F9CF842F089580E008950F9341325B
:1017500008F04AC0909134039111FCCF92E090932D
:101760003403009332039FEF9093C70210920C034F
:1017700040930B03FB016DE073E0DB019A2F961B96
:10178000941718F491919D93F9CF1092330390918F
:101790003303880F892B8093330380913103813089
:1017A00061F410923103809133038093BB008091E8
:1017B000BC0083FDF8CF85EC01C085EE8093BC00B2
:1017C000222321F0809134038230E1F38091C7021B
:1017D0008F3F61F08091C702803251F08091C70243
:1017E000803341F483E007C081E005C080E003C09E
:1017F00082E001C084E00F910895613298F4209155
:101800003403243089F46093E902FC018BEE92E00A
:10181000DC012A2F281B261718F421912D93F9CFCC
:1018200080E0089581E0089582E0089585ED809339
:10183000BC008091BC0084FDFCCF1092340308955D
:1018400085EC8093BC001092340308951F920F9290
:101850000FB60F9211242F933F934F935F936F9383
:101860007F938F939F93AF93BF93EF93FF93809159
:10187000B900887F803609F49EC078F5883209F473
:101880005DC090F4803109F456C038F4882309F41F
:10189000F5C0883009F44FC0F5C0883109F44EC056
:1018A000803209F45FC0EEC0803409F46AC058F495
:1018B000803309F457C0883309F0E4C08093C7022D
:1018C0000E94200CDFC0803509F44FC0883509F430
:1018D0005DC0883409F0D6C0D3C0883909F4C4C0CB
:1018E000A8F4883709F467C038F4883609F463C06F
:1018F000803709F460C0C6C0883809F4B5C08039A3
:1019000009F45FC0803809F0BDC05BC0803B09F4BA
:1019100083C038F4803A09F466C0883A09F47CC080
:10192000B1C0803C09F4A4C0883C09F4A1C0883B44
:1019300009F487C0A7C08091330310C090910C03B5
:1019400080910B03981770F5E0910C0381E08E0FE6
:1019500080930C03F0E0E35FFC4F80818093BB0039
:1019600085EC83C08093C7028BC0E0910C0381E0BB
:101970008E0F80930C038091BB00F0E0E35FFC4F7F
:10198000808390910C0380910B036BC0E0910C035A
:1019900081E08E0F80930C038091BB00F0E0E35F49
:1019A000FC4F80838091320381116AC081E0809373
:1019B000310384EA5EC083E0809334031092C8024E
:1019C000CFCF8091C802803208F04EC0E091C802AB
:1019D00081E08E0F8093C8028091BB00F0E0E75356
:1019E000FD4F8083BDCF0E94200C8091C8028032C1
:1019F00030F4E091C802F0E0E753FD4F10826091AF
:101A0000C80270E0E0912D03F0912E0389EC92E082
:101A100009951092C80236C084E080933403109276
:101A2000EA021092E902E0912F03F0913003099548
:101A30008091E902811105C081E08093E902109252
:101A4000EB02E091EA0281E08E0F8093EA02F0E07F
:101A5000E551FD4F80818093BB009091EA02809117
:101A6000E902981708F47CCF85E88093BC000AC08F
:101A700085EC8093BC001092340304C01092C7021E
:101A80000E94160CFF91EF91BF91AF919F918F91A2
:101A90007F916F915F914F913F912F910F900FBE6A
:101AA0000F901F901895682F85E792E00C946D0AAF
:101AB000CF93DF93EC01683008F067E0688385E737
:101AC00092E00E94AC0A6881606270E085E792E073
:101AD0000E94C00A80E00E94530D8FEF0E94530DB8
:101AE00085E792E00E94390B6881606270E085E7CB
:101AF00092E00E94C00A81E00E94530D8FEF0E9485
:101B0000530D85E792E0DF91CF910C94390B60E0A3
:101B10000C94580DCF93DF93D62FC72FFC019081E3
:101B20009062692F70E085E792E00E94C00A82E12E
:101B30000E94530D8D2F0E94530D8C2F0E94530D28
:101B400085E792E0DF91CF910C94390BFF920F93D0
:101B50001F93CF93DF93EC01162FF42E603108F022
:101B600045C0683018F018500DE001C00CE06881E5
:101B7000606270E085E792E00E94C00A802F0E94B8
:101B8000530D85E792E00E94390B6881606270E036
:101B900041E050E085E792E00E94360B85E792E055
:101BA0000E941D0A91E021E030E001C0220F1A9549
:101BB000EAF7122FF91202C0182B02C01095182351
:101BC0006881606270E085E792E00E94C00A802F21
:101BD0000E94530D812F0E94530D85E792E0DF9103
:101BE000CF911F910F91FF900C94390BDF91CF9102
:101BF0001F910F91FF9008950F931F93CF93DF9341
:101C0000EC01162F603148F5683018F0185003E1E8
:101C100001C002E16881606270E085E792E00E94A5
:101C2000C00A802F0E94530D85E792E00E94390B75
:101C30006881606270E041E050E085E792E00E94D8
:101C4000360B85E792E00E941D0A992702C0959500
:101C500087951A95E2F7817001C080E0DF91CF91FE
:101C60001F910F910895CF93DF93EC01688160621B
:101C700070E085E792E00E94C00A82E10E94530D65
:101C800085E792E00E94390B6881606270E042E073
:101C900050E085E792E00E94360B85E792E00E94D3
:101CA0001D0AC82F85E792E00E941D0A982F8827F9
:101CB0008C2BDF91CF910895FF920F931F93CF93B9
:101CC000DF93EC01162FF42E603108F044C0683029
:101CD00018F0185001E001C000E06881606270E017
:101CE00085E792E00E94C00A802F0E94530D85E78D
:101CF00092E00E94390B6881606270E041E050E040
:101D000085E792E00E94360B85E792E00E941D0A6B
:101D100021E030E001C0220F1A95EAF7122FF110EE
:101D200002C0182B02C0109518236881606270E011
:101D300085E792E00E94C00A802F0E94530D812FF8
:101D40000E94530D85E792E0DF91CF911F910F9193
:101D5000FF900C94390BDF91CF911F910F91FF9061
:101D60000895CF92DF92FF920F931F93CF93DF934B
:101D70001F92CDB7DEB76C01162FF42E603108F03C
:101D80004FC0683020F0185025E103E102C024E183
:101D900002E1F6016081606270E085E792E02983EC
:101DA0000E94C00A2981822F0E94530D85E792E08C
:101DB0000E94390BF6016081606270E041E050E002
:101DC00085E792E00E94360B85E792E00E941D0AAB
:101DD000F1E021E030E001C0220F1A95EAF7122F5E
:101DE000FF1202C0182B02C010951823F601608163
:101DF000606270E085E792E00E94C00A802F0E9436
:101E0000530D812F0E94530D85E792E00F90DF91D3
:101E1000CF911F910F91FF90DF90CF900C94390BD1
:101E20000F90DF91CF911F910F91FF90DF90CF9096
:101E30000895FC011382128282EF91E091838083E6
:101E4000128E148A8FE084838EE085838DE08683F2
:101E50008CE087838BE080878AE0818789E08287B6
:101E6000178681E0808B82E0818B83E0828B84E027
:101E7000838B0895262FFC01328D3F3F19F04B963E
:101E80000C94B10E642F822F0C94D5160F931F93D0
:101E9000CF93DF93062FEC016B9611E062FB442792
:101EA00040F9412768E0CE010E94B10E01FB4427B2
:101EB00040F9412767E0CE010E94B10E402F4170EA
:101EC000412766E0CE01DF91CF911F910F910C94D5
:101ED000B10E262FFC01328D3F3F19F04B960C942A
:101EE0005C0E642F822F0C949C16CF93DF93EC0131
:101EF00040E06E810E943A0F81E090E00E94B115AF
:101F000041E06E81CE010E943A0F81E090E00E9494
:101F1000B11540E06E81CE010E943A0F84E690E058
:101F2000DF91CF910C94B115AF92BF92CF92DF9217
:101F3000EF92FF920F931F93CF93DF93EC018A8D63
:101F4000A62EB12C8F3F09F472C07E018BE1E80E02
:101F5000F11CC7010E94330E9C0180E090E061E01B
:101F600070E0FE01E80FF91FE781CC24C394D12C67
:101F7000AB010E2E02C0440F551F0A94E2F74095A4
:101F8000509524233523A501082E02C05595479569
:101F90000A94E2F74170552702C0440F551FEA9595
:101FA000E2F7242B352B019684309105D1F686017A
:101FB0000E8002C0000F111F0A94E2F700951095E1
:101FC00002231323B801C7010E948A0D81E090E02B
:101FD0000E94B11556010E8002C0AA0CBB1C0A94C7
:101FE000E2F7A02AB12AB501C7010E948A0D81E05B
:101FF00090E00E94B115B6010E8002C0660F771FF7
:102000000A94E2F7609570956A217B21C7010E94CE
:102010008A0D84E690E0DF91CF911F910F91FF90A0
:10202000EF90DF90CF90BF90AF900C94B11500E08F
:1020300010E07E01E00EF11E41E0F7016781CE0164
:102040000E94690FA501002E02C0559547950A947C
:10205000E2F74170F7016781CE010E943A0F0F5FEE
:102060001F4F0430110529F7CE01DF91CF911F9149
:102070000F91FF90EF90DF90CF90BF90AF900C94B6
:10208000750FCF92DF92EF92FF920F931F93CF9332
:10209000DF938C01C0E0D0E0C62ED12C7801EC0E8D
:1020A000FD1E41E0F7016781C8010E94690FA6018A
:1020B0000C2E02C0559547950A94E2F74170F7013E
:1020C0006781C8010E943A0F2196C830D10531F7C7
:1020D000C801DF91CF911F910F91FF90EF90DF909A
:1020E000CF900C94750F1F93CF93DF93EC01162FB5
:1020F0006C810E943A0F6D816F3F21F040E0CE016C
:102100000E943A0F8C89612F84FF06C0CE01DF91B7
:10211000CF911F910C94411070E054E07595679534
:102120005A95E1F7CE010E94940F612FCE01DF9105
:10213000CF911F910C94940F40E00C94731061E0C8
:102140000E949C1080ED97E00C94B115CF93DF9323
:10215000CDB7DEB728970FB6F894DEBF0FBECDBF60
:1021600028E0E8E1F1E0DE01119601900D922A9558
:10217000E1F7FC01208D241710F44FEF420FFE0110
:102180003196E40FF11DE40FF11D2081260F206828
:10219000622F28960FB6F894DEBF0FBECDBFDF9139
:1021A000CF910C949C10FC016589262F2460258B0F
:1021B0006C600C949C10AF92BF92CF92DF92EF9222
:1021C000FF920F931F93CF93DF93EC01B42EA22EB7
:1021D0008A8D8F3F41F481E08B1508F05CC08C89BB
:1021E00088608C8B58C085E792E00E94AC0A8E0113
:1021F000055E1F4FC8010E94870D41E068E0C801DD
:102200000E945C0E41E066E0C8010E945C0E41E065
:1022100067E0C8010E945C0E67E0CE010E94460F95
:102220006D81662321F041E0C8010E945C0E41E00F
:102230006C81C8010E945C0E41E06E81C8010E9461
:102240005C0EE12CF12CFE01EE0DFF1D41E06781DB
:10225000C8010E945C0EEFEFEE1AFE0AF4E0EF16E2
:10226000F10489F7E12CF12C6E01CE0CDF1C40E06B
:10227000F6016785C8010E945C0E41E0F6016785A2
:10228000C8010E94A60DFFEFEF1AFF0A85E0E816CD
:10229000F10451F7A0CFB88E198EAA2031F0E1E0F9
:1022A000BE1203C08C8984608C8B80E593EC0E9405
:1022B000B11540E06C81CE010E943A0F40E06E8182
:1022C000CE010E943A0F6D816F3F21F040E0CE01B8
:1022D0000E943A0F6C8964FD1DC063E0CE010E942C
:1022E000940F84E991E10E94B11563E0CE010E9450
:1022F000940F84E991E10E94B11563E0CE010E9440
:10230000940F86E990E00E94B11562E0CE010E9430
:10231000940F16C06062CE010E949C1084E991E186
:102320000E94B1156C896062CE010E949C1086E902
:1023300090E00E94B1156C896062CE010E949C10F1
:102340006C896062CE010E949C1084E08D8BCE016E
:102350000E94D310CE010E949F1082E08E8B66E017
:10236000CE01DF91CF911F910F91FF90EF90DF9001
:10237000CF90BF90AF900C949C1041E00E947310DE
:1023800081E090E00895DF92EF92FF920F931F9308
:10239000CF93DF938C01C0E0D0E06FE1D62E7C01BB
:1023A0008BE1E80EF11CF801EC0FFD1F6785C701FA
:1023B0000E94FC0D282F30E00C2E02C0220F331F8C
:1023C0000A94E2F7209530958D2D90E0282339234B
:1023D000D22E2196C530D10531F7822FDF91CF91D2
:1023E0001F910F91FF90EF90DF900895FA0120E088
:1023F00030E00396261737076CF44081DC01139711
:102400004C93418111964C93428111964C932F5FCE
:102410003F4FEFCF08958F929F92AF92BF92EF926E
:10242000FF920F931F93CF93DF93EC0118821982D1
:102430001A824423B9F1E0E0F0E08B010A5F1F4FFC
:102440007B0189E0E80EF11C842E912CA12CB12C8B
:10245000D801AE0FBF1F2C91D701AE0FBF1F6C91DB
:102460002223E1F06623D1F030E040E050E02F5F1E
:102470003F4F4F4F5F4F70E080E090E06F5F7F4FC6
:102480008F4F9F4F0E949C199B01AC01C501B40165
:102490000E949C19DE01AE0FBF1F8C933196E33072
:1024A000F105B1F6CE01DF91CF911F910F91FF9011
:1024B000EF90BF90AF909F908F900895CF92DF9252
:1024C000EF92FF92CF93DF93EC01809139039091CB
:1024D0003A039C012F5F3F4F30933A032093390317
:1024E000861797079CF10E9448159B01AC01E0916B
:1024F0003903F0913A0388EE93E0E89FB001E99F39
:10250000700DF89F700D1124882777FD8095982F06
:10251000C0903503D0903603E0903703F090380335
:102520002C193D094E095F090E94D4193A83298369
:1025300010923A03109239030E94481560933503B4
:10254000709336038093370390933803DF91CF91D4
:10255000FF90EF90DF90CF900895AF92BF92CF920F
:10256000DF92EF92FF920F931F93CF93DF9300D0F0
:102570001F92CDB7DEB78C01B62EF801838194810E
:10258000A581B681892B8A2B8B2BD1F00E94541503
:10259000C0903B03D0903C03E0903D03F0903E039D
:1025A0006C197D098E099F09D8011396CD90DD9095
:1025B000ED90FC9016976C157D058E059F05E8F251
:1025C0000E94541560933B0370933C0380933D033A
:1025D00090933E03E0904103F0904203E114F10434
:1025E00051F1F701A484D80111968D919C91129715
:1025F0008436910508F41486D701ED91FC91C280D0
:10260000D3804B2DB701CE0101960E940B12F7012A
:1026100045855685628173819E012F5F3F4FC701BB
:10262000F6010995D7011C96AC921C971496ED9073
:10263000FC901597D3CF69E170E0C8010E945E124B
:102640000F900F900F90DF91CF911F910F91FF90FE
:10265000EF90DF90CF90BF90AF9008958F929F92B0
:10266000AF92BF92CF92DF92EF92FF920F931F93A0
:10267000CF93DF9300D01F92CDB7DEB78C017B01E3
:10268000D42EF80183819481A581B681892B8A2B70
:102690008B2BD1F00E94541580903B0390903C030B
:1026A000A0903D03B0903E03681979098A099B09FF
:1026B000D80113968D909D90AD90BC90169768159B
:1026C00079058A059B05E8F20E94541560933B0347
:1026D00070933C0380933D0390933E03A09041038D
:1026E000B0904203A114B10449F1F501C484D801AA
:1026F00011968D919C9112978436910508F4148659
:10270000D501ED91FC91808091804D2DB501CE01D8
:1027100001960E940B12F501458556859E012F5F9B
:102720003F4FB701C501F4010995D5011C96CC9224
:102730001C971496AD90BC901597D4CF69E170E0CA
:10274000C8010E945E120F900F900F90DF91CF9101
:102750001F910F91FF90EF90DF90CF90BF90AF90BF
:102760009F908F900895CF92DF92EF92FF920F93F8
:102770001F93CF93DF93EC014423F1F061157105B2
:1027800081F19B0140E050E060E472E48FE090E072
:102790000E94F619CB80DC80ED80FE8089019A01D1
:1027A0000C151D052E053F0510F4970186010B83BE
:1027B0001C832D833E8315C06115710571F09B014B
:1027C00040E050E060E472E48FE090E00E94F6198F
:1027D0002B833C834D835E8304C01B821C821D823D
:1027E0001E82DF91CF911F910F91FF90EF90DF90AC
:1027F000CF900895CF92DF92EF92FF920F931F93A5
:10280000CF93DF93EC016B018A0179011216130655
:102810001CF07A0100E010E0E881F9810480F58184
:10282000E02DCE010995C801880F991F800F911FD7
:102830008C0D9D1D9B838A83FE86ED86E881F98140
:102840000084F185E02DCE01099541E0BC0183E4CF
:1028500093E00E94B313CE01DF91CF911F910F91AE
:10286000FF90EF90DF90CF9008958FEF8093430318
:1028700010924503109244030895FC012081222305
:1028800021F0269F212D09F02F5FFC012083089560
:10289000FF920F931F93CF93DF9300D000D0CDB75B
:1028A000DEB7FC018B014081F1805281842F8F7152
:1028B000880F880F880F282F35E5239F212D11249D
:1028C000342F3074942F907247FD25C031110EC003
:1028D000911106C0822F80958B832A8319823FC075
:1028E0008BEA8B832B5A2A83198239C091110DC030
:1028F000382F4AEA349F312D11249BEA931B9B8386
:1029000025552A83198280E02AC01B8280E0822F0D
:1029100080958A8312C0311112C091110BC01B82A5
:10292000282F3AEA239F212D11248BEA821B8A83C8
:102930002B5A03C02B831A822095298310C0911132
:1029400006C085E5820F8B831A828BEA06C08BEA6C
:10295000820F8B831A8280E085E5821B89832FEFAB
:10296000F21601F16F2DCE0103965C830E943D1497
:102970006F2DCE0102960E943D146F2DCE0101965F
:102980000E943D1411246F2D6095669F612D1124C6
:102990008B81860F8B838A81860F8A838981860F3C
:1029A00089835C815F3FC9F0F12C2F2D552321F0E5
:1029B000559F212D09F02F5FF22E622FCE01039635
:1029C0000E943D146F2DCE0102960E943D146F2D82
:1029D000CE0101960E943D1411248B81F801808361
:1029E0008A818183898182830F900F900F900F904D
:1029F000DF91CF911F910F91FF9008951F920F9239
:102A00000FB60F9211242F933F938F939F93AF9301
:102A1000BF9380914B0390914C03A0914D03B091D3
:102A20004E0330914A0323E0230F2D3720F4019603
:102A3000A11DB11D05C026E8230F0296A11DB11DE1
:102A400020934A0380934B0390934C03A0934D0330
:102A5000B0934E0380914F0390915003A091510386
:102A6000B09152030196A11DB11D80934F03909325
:102A70005003A0935103B0935203BF91AF919F9124
:102A80008F913F912F910F900FBE0F901F9018952F
:102A90002FB7F89460914B0370914C0380914D03D4
:102AA00090914E032FBF08953FB7F89480914F0344
:102AB00090915003A0915103B091520326B5A89B69
:102AC00005C02F3F19F00196A11DB11D3FBF66271C
:102AD000782F892F9A2F620F711D811D911D42E061
:102AE000660F771F881F991F4A95D1F708958F9217
:102AF0009F92AF92BF92CF92DF92EF92FF926B01C3
:102B00007C010E9454154B015C01C114D104E10405
:102B1000F104F1F00E9456180E94541568197909C1
:102B20008A099B09683E73408105910570F321E095
:102B3000C21AD108E108F10888EE880E83E0981ED9
:102B4000A11CB11CC114D104E104F10429F7DDCFAB
:102B5000FF90EF90DF90CF90BF90AF909F908F90BD
:102B600008958230910538F0880F991F880F991FBA
:102B700005970197F1F70895789484B5826084BD34
:102B800084B5816084BD85B5826085BD85B5816071
:102B900085BDEEE6F0E0808181608083E1E8F0E0D1
:102BA0001082808182608083808181608083E0E800
:102BB000F0E0808181608083E1EBF0E080818460DF
:102BC0008083E0EBF0E0808181608083EAE7F0E0E1
:102BD0008081846080838081826080838081816045
:102BE00080838081806880831092C10008958E3038
:102BF00008F08E5087702091170190E4299F900172
:102C00001124822B80937C0080917A0080648093D1
:102C10007A0080917A0086FDFCCF80917800209127
:102C2000790090E0922B08951F93CF93DF93182F94
:102C3000EB0161E00E949C16209711F460E004C053
:102C4000CF3FD10539F461E0812FDF91CF911F9102
:102C50000C94D516E12FF0E0E058FF4FE491E330FB
:102C6000F9F048F4E130B9F0E230A1F584B58062C2
:102C700084BDC8BD34C0E730E9F0E83019F1E43074
:102C800049F580918000806280938000D0938B0012
:102C9000C0938A0024C084B5806884BDC7BD1FC0AE
:102CA00080918000806880938000D0938900C093D9
:102CB000880015C08091B00080688093B000C093F8
:102CC000B3000DC08091B00080628093B000C093CB
:102CD000B40005C0C038D1050CF0B5CFAFCFDF913F
:102CE000CF911F910895833081F028F4813099F0BD
:102CF0008230A1F008958730A9F08830B9F084308F
:102D0000D1F4809180008F7D03C0809180008F7707
:102D100080938000089584B58F7702C084B58F7D3D
:102D200084BD08958091B0008F7703C08091B0007A
:102D30008F7D8093B0000895CF93DF9390E0FC01E6
:102D4000EC56FF4F2491FC01E855FF4F84918823F6
:102D500049F190E0880F991FFC01EA53FF4FA591BC
:102D6000B49184549F4FFC01C591D4919FB76111D8
:102D700008C0F8948C91209582238C9388818223BB
:102D80000AC0623051F4F8948C91322F309583232D
:102D90008C938881822B888304C0F8948C91822B39
:102DA0008C939FBFDF91CF9108950F931F93CF9383
:102DB000DF931F92CDB7DEB7282F30E0F901E0583E
:102DC000FF4F8491F901EC56FF4F1491F901E8553A
:102DD000FF4F04910023C9F0882321F069830E94EA
:102DE00073166981E02FF0E0EE0FFF1FE454FF4FF0
:102DF000A591B4919FB7F8948C91611103C010957F
:102E0000812301C0812B8C939FBF0F90DF91CF91C5
:102E10001F910F91089508950E94BC150E940B17F1
:102E20000E949E01C0E0D0E00E94C1032097E1F320
:102E30000E940000F9CFCF92DF92EF92FF920F93A2
:102E40001F93CF93DF937C016A01EB0100E010E058
:102E50000C151D0571F06991D701ED91FC91019060
:102E6000F081E02DC7010995892B19F00F5F1F4FE5
:102E7000EFCFC801DF91CF911F910F91FF90EF909D
:102E8000DF90CF9008956115710581F0DB010D9001
:102E90000020E9F7AD0141505109461B570BDC01F9
:102EA000ED91FC910280F381E02D099480E090E0A7
:102EB00008950C944317DC01ED91FC910190F08191
:102EC000E02D09948F929F92AF92BF92DF92EF9282
:102ED000FF920F931F93CF93DF93CDB7DEB7A197E8
:102EE0000FB6F894DEBF0FBECDBF7C01F42FD52EF8
:102EF000CB0119A2223008F42AE08E010F5D1F4F8A
:102F0000822E912CA12CB12C6F2F7D2DA501940127
:102F10000E94D419F22FD32ECA01015011096A3030
:102F200014F4E0E301C0E7E3E60FD801EC93232BB0
:102F3000242B252B49F7B801C7010E944317A196FE
:102F40000FB6F894DEBF0FBECDBFDF91CF911F91BA
:102F50000F91FF90EF90DF90BF90AF909F908F9078
:102F60000895CF92DF92EF92FF920F931F93CF932A
:102F7000DF93EC016A017B012115310579F4E881C9
:102F8000F9810190F081E02D642FDF91CF911F91A5
:102F90000F91FF90EF90DF90CF9009942A30310588
:102FA000E9F477FF1AC06DE20E945B178C01442799
:102FB0005527BA014C195D096E097F092AE0CE0137
:102FC0000E946217800F911FDF91CF911F910F9187
:102FD000FF90EF90DF90CF9008952AE0B701A6010F
:102FE000CE01DF91CF911F910F91FF90EF90DF9075
:102FF000CF900C9462172115310541F4DC01ED915D
:10300000FC910190F081E02D642F09940C946217DB
:103010009A01462F50E060E070E00C94FB174F924D
:103020005F926F927F92AF92BF92CF92DF92EF92B8
:10303000FF920F931F93CF93DF93CDB7DEB7290194
:103040003A01621B730B840B950B29893A894B89D2
:103050005C892A193B094C095D09298B3A8B4B8BFA
:103060005C8B9B01AC0169897A898B899C890E9460
:103070009C19E418F50806091709A80197010E9490
:10308000F6192A0D3B1D4C1D5D1DCA01B901DF91CA
:10309000CF911F910F91FF90EF90DF90CF90BF9055
:1030A000AF907F906F905F904F9008950895BCD03F
:1030B00088F09F5790F0B92F9927B751A0F0D1F021
:1030C000660F771F881F991F1AF0BA95C9F712C0AB
:1030D000B13081F0C3D0B1E00895C0C0672F782F20
:1030E0008827B85F39F0B93FCCF386957795679517
:1030F000B395D9F73EF490958095709561957F4F83
:103100008F4F9F4F0895E89409C097FB3EF4909528
:103110008095709561957F4F8F4F9F4F9923A9F0B0
:10312000F92F96E9BB279395F6958795779567953F
:10313000B795F111F8CFFAF4BB0F11F460FF1BC083
:103140006F5F7F4F8F4F9F4F16C0882311F096E916
:1031500011C0772321F09EE8872F762F05C06623C4
:1031600071F096E8862F70E060E02AF09A95660F7D
:10317000771F881FDAF7880F9695879597F9089536
:10318000990F0008550FAA0BE0E8FEEF1616170678
:10319000E807F907C0F012161306E407F50798F0E0
:1031A000621B730B840B950B39F40A2661F0232BF9
:1031B000242B252B21F408950A2609F4A140A69575
:1031C0008FEF811D811D089597F99F6780E870E05A
:1031D00060E008959FEF80EC089500240A9416168D
:1031E000170618060906089500240A9412161306F5
:1031F000140605060895092E0394000C11F4882383
:1032000052F0BB0F40F4BF2B11F460FF04C06F5F9E
:103210007F4F8F4F9F4F089557FD9058440F551F74
:1032200059F05F3F71F04795880F97FB991F61F048
:103230009F3F79F087950895121613061406551FBF
:10324000F2CF4695F1DF08C0161617061806991F2B
:10325000F1CF86957105610508940895E894BB2720
:1032600066277727CB0197F908958ADF08F48FEF57
:1032700008950BD0C0CFB1DF28F0B6DF18F095234A
:1032800009F0A2CFA7CF1124EACFC6DFA0F3959F04
:10329000D1F3950F50E0551F629FF001729FBB273D
:1032A000F00DB11D639FAA27F00DB11DAA1F649FE9
:1032B0006627B00DA11D661F829F2227B00DA11D9C
:1032C000621F739FB00DA11D621F839FA00D611D22
:1032D000221F749F3327A00D611D231F849F600D43
:1032E000211D822F762F6A2F11249F5750408AF07C
:1032F000E1F088234AF0EE0FFF1FBB1F661F771F08
:10330000881F91505040A9F79E3F510570F05CCF47
:10331000A6CF5F3FECF3983EDCF3869577956795F3
:10332000B795F795E7959F5FC1F7FE2B880F911D25
:103330009695879597F90895DB018F939F930E9447
:103340001C1ABF91AF91A29F800D911DA39F900D5C
:10335000B29F900D11240895AA1BBB1B51E107C019
:10336000AA1FBB1FA617B70710F0A61BB70B881F15
:10337000991F5A95A9F780959095BC01CD010895A4
:1033800097FB072E16F4009407D077FD09D00E9412
:10339000AC1907FC05D03EF4909581959F4F089598
:1033A000709561957F4F0895A1E21A2EAA1BBB1B51
:1033B000FD010DC0AA1FBB1FEE1FFF1FA217B30701
:1033C000E407F50720F0A21BB30BE40BF50B661F17
:1033D000771F881F991F1A9469F7609570958095DB
:1033E00090959B01AC01BD01CF010895052E97FB7F
:1033F0001EF400940E940D1A57FD07D00E94D419A4
:1034000007FC03D04EF40C940D1A5095409530955E
:1034100021953F4F4F4F5F4F089590958095709540
:1034200061957F4F8F4F9F4F08950E942D1AB7FFD0
:103430000895821B930B08950E942D1AA59F900D4D
:10344000B49F900DA49F800D911D11240895EE0F3F
:10345000FF1F0590F491E02D0994A29FB001B39F46
:10346000C001A39F700D811D1124911DB29F700D8D
:0C347000811D1124911D0895F894FFCFD8
:10347C00010000004040010180000300BC01C401B8
:10348C00CA0180320000000100004000140054000A
:10349C00426F6F74696E67004265726B616E61009A
:1034AC0052656164790020202020202020202020DB
:1034BC00202020202020004B656C6C6579205965FC
:1034CC006C6C6F77004B656C6C6579205265640091
:1034DC004B656C6C657920426C7565004B656C6C4A
:1034EC00657920477265656E004B656C6C6579205B
:1034FC00507572706C65004B656C6C657920576803
:10350C00697465004B656C6C6579206469616C004D
:10351C005261696E626F77206368617365005261F6
:10352C00696E626F77206379636C650050617474A7
:10353C0065726E00436F6C6F72005370656564004A
:10354C00000000009C09A8099800B409950000002F
:10355C0000006D0A400A150A1D0A300A3F0A0000D5
:06356C000000BD111B1759
:00000001FF
